{"contracts/SettlementRouter.sol":{"SettlementRouter":{"abi":[{"inputs":[{"internalType":"address","name":"_token","type":"address"},{"internalType":"address","name":"_invoiceRegistry","type":"address"},{"internalType":"address","name":"_vault","type":"address"},{"internalType":"address","name":"_advanceEngine","type":"address"},{"internalType":"address","name":"_reputation","type":"address"},{"internalType":"address","name":"_treasury","type":"address"},{"internalType":"uint256","name":"_protocolFeeBps","type":"uint256"},{"internalType":"address","name":"defaultAdmin","type":"address"}],"stateMutability":"nonpayable","type":"constructor"},{"inputs":[],"name":"AccessControlBadConfirmation","type":"error"},{"inputs":[{"internalType":"address","name":"account","type":"address"},{"internalType":"bytes32","name":"neededRole","type":"bytes32"}],"name":"AccessControlUnauthorizedAccount","type":"error"},{"inputs":[{"internalType":"address","name":"token","type":"address"}],"name":"SafeERC20FailedOperation","type":"error"},{"anonymous":false,"inputs":[{"indexed":true,"internalType":"uint256","name":"invoiceId","type":"uint256"},{"indexed":true,"internalType":"address","name":"buyer","type":"address"},{"indexed":true,"internalType":"address","name":"seller","type":"address"},{"indexed":false,"internalType":"uint256","name":"invoiceAmount","type":"uint256"},{"indexed":false,"internalType":"uint256","name":"feeAmount","type":"uint256"},{"indexed":false,"internalType":"uint256","name":"repaymentAmount","type":"uint256"},{"indexed":false,"internalType":"uint256","name":"sellerAmount","type":"uint256"}],"name":"InvoiceSettled","type":"event"},{"anonymous":false,"inputs":[{"indexed":true,"internalType":"bytes32","name":"role","type":"bytes32"},{"indexed":true,"internalType":"bytes32","name":"previousAdminRole","type":"bytes32"},{"indexed":true,"internalType":"bytes32","name":"newAdminRole","type":"bytes32"}],"name":"RoleAdminChanged","type":"event"},{"anonymous":false,"inputs":[{"indexed":true,"internalType":"bytes32","name":"role","type":"bytes32"},{"indexed":true,"internalType":"address","name":"account","type":"address"},{"indexed":true,"internalType":"address","name":"sender","type":"address"}],"name":"RoleGranted","type":"event"},{"anonymous":false,"inputs":[{"indexed":true,"internalType":"bytes32","name":"role","type":"bytes32"},{"indexed":true,"internalType":"address","name":"account","type":"address"},{"indexed":true,"internalType":"address","name":"sender","type":"address"}],"name":"RoleRevoked","type":"event"},{"inputs":[],"name":"DEFAULT_ADMIN_ROLE","outputs":[{"internalType":"bytes32","name":"","type":"bytes32"}],"stateMutability":"view","type":"function"},{"inputs":[],"name":"advanceEngine","outputs":[{"internalType":"contract IAdvanceEngine","name":"","type":"address"}],"stateMutability":"view","type":"function"},{"inputs":[{"internalType":"bytes32","name":"role","type":"bytes32"}],"name":"getRoleAdmin","outputs":[{"internalType":"bytes32","name":"","type":"bytes32"}],"stateMutability":"view","type":"function"},{"inputs":[{"internalType":"bytes32","name":"role","type":"bytes32"},{"internalType":"address","name":"account","type":"address"}],"name":"grantRole","outputs":[],"stateMutability":"nonpayable","type":"function"},{"inputs":[{"internalType":"bytes32","name":"role","type":"bytes32"},{"internalType":"address","name":"account","type":"address"}],"name":"hasRole","outputs":[{"internalType":"bool","name":"","type":"bool"}],"stateMutability":"view","type":"function"},{"inputs":[],"name":"invoiceRegistry","outputs":[{"internalType":"contract IInvoiceRegistry","name":"","type":"address"}],"stateMutability":"view","type":"function"},{"inputs":[{"internalType":"uint256","name":"invoiceId","type":"uint256"}],"name":"payInvoice","outputs":[],"stateMutability":"nonpayable","type":"function"},{"inputs":[],"name":"protocolFeeBps","outputs":[{"internalType":"uint256","name":"","type":"uint256"}],"stateMutability":"view","type":"function"},{"inputs":[{"internalType":"bytes32","name":"role","type":"bytes32"},{"internalType":"address","name":"callerConfirmation","type":"address"}],"name":"renounceRole","outputs":[],"stateMutability":"nonpayable","type":"function"},{"inputs":[],"name":"reputation","outputs":[{"internalType":"contract IReputation","name":"","type":"address"}],"stateMutability":"view","type":"function"},{"inputs":[{"internalType":"bytes32","name":"role","type":"bytes32"},{"internalType":"address","name":"account","type":"address"}],"name":"revokeRole","outputs":[],"stateMutability":"nonpayable","type":"function"},{"inputs":[{"internalType":"uint256","name":"newFeeBps","type":"uint256"}],"name":"setProtocolFee","outputs":[],"stateMutability":"nonpayable","type":"function"},{"inputs":[{"internalType":"address","name":"newTreasury","type":"address"}],"name":"setTreasury","outputs":[],"stateMutability":"nonpayable","type":"function"},{"inputs":[{"internalType":"bytes4","name":"interfaceId","type":"bytes4"}],"name":"supportsInterface","outputs":[{"internalType":"bool","name":"","type":"bool"}],"stateMutability":"view","type":"function"},{"inputs":[],"name":"token","outputs":[{"internalType":"contract IERC20","name":"","type":"address"}],"stateMutability":"view","type":"function"},{"inputs":[],"name":"treasury","outputs":[{"internalType":"address","name":"","type":"address"}],"stateMutability":"view","type":"function"},{"inputs":[],"name":"vault","outputs":[{"internalType":"contract IVault","name":"","type":"address"}],"stateMutability":"view","type":"function"}],"evm":{"bytecode":{"linkReferences":{},"object":"61012034620001af57620015e438819003601f8101601f191683016001600160401b03811184821017620001b45783928291604052833961010092839181010312620001af578062000055620000f692620001ca565b906200006460208201620001ca565b916200007360408301620001ca565b906200008260608401620001ca565b936200009160808501620001ca565b6200009f60a08601620001ca565b92620000b360e060c08801519701620001ca565b6001600160a01b0391821660805292811660a05293841660c05294831660e0529382168652600180546001600160a01b03191691909216179055600255620001df565b50604051611373918262000271833960805182818160fb015281816103f201528181610791015281816108120152818161092f0152610a97015260a05182818161022f0152818161032a015281816104200152818161048b01528181610596015261060c015260c051828181610142015281816107c90152818161084a015281816108ad01526108f3015260e05182818161050f01528181610967015281816109cc0152610e680152518181816102b4015261064e0152f35b600080fd5b634e487b7160e01b600052604160045260246000fd5b51906001600160a01b0382168203620001af57565b6001600160a01b031660008181527fad3228b676f7d3cd4284a5443f17f1962b36e491b30a40b2405849e597ba5fb5602052604081205490919060ff166200026c57818052816020526040822081835260205260408220600160ff1982541617905533917f2f8788117e7eff1d82e926ec794901d17c78024a50270940304540a733656f0d8180a4600190565b509056fe608080604052600436101561001357600080fd5b600090813560e01c90816301ffc9a714610f7357508063248a9ca314610f475780632f2ff15d14610f0a57806335659fb814610eec57806336568abe14610e8c57806358078eb614610e4857806361d027b314610e21578063787dce3d14610db157806391d1485414610d6a578063a217fddf14610d4e578063ac60a6cd146102d8578063c52164c614610294578063d547741f14610253578063da6c70e41461020f578063f0f4426014610166578063fbfa77cf146101225763fc0c546a146100dc57600080fd5b3461011f578060031936011261011f5760206040516001600160a01b037f0000000000000000000000000000000000000000000000000000000000000000168152f35b80fd5b503461011f578060031936011261011f5760206040516001600160a01b037f0000000000000000000000000000000000000000000000000000000000000000168152f35b503461011f57602036600319011261011f576004356001600160a01b03811680910361020a576101946110d5565b80156101c6577fffffffffffffffffffffffff0000000000000000000000000000000000000000600154161760015580f35b606460405162461bcd60e51b815260206004820152601060248201527f496e76616c6964207472656173757279000000000000000000000000000000006044820152fd5b600080fd5b503461011f578060031936011261011f5760206040516001600160a01b037f0000000000000000000000000000000000000000000000000000000000000000168152f35b503461011f57604036600319011261011f57610290600435610273611017565b908084528360205261028b6001604086200154611146565b6111eb565b5080f35b503461011f578060031936011261011f5760206040516001600160a01b037f0000000000000000000000000000000000000000000000000000000000000000168152f35b503461011f57602036600319011261011f576040517f3a23cc0a000000000000000000000000000000000000000000000000000000008152600435600482015261014080826024816001600160a01b037f0000000000000000000000000000000000000000000000000000000000000000165afa918215610d43578392610c6e575b5050805115610c2a5760a08101516004811015610c1657600314610bd2576001600160a01b036040820151163303610b8e5760608101908151604051907f23b872dd00000000000000000000000000000000000000000000000000000000602083015233602483015230604483015260648201526064815260a0810181811067ffffffffffffffff821117610b7a57604052610416907f00000000000000000000000000000000000000000000000000000000000000006112bd565b6001600160a01b037f0000000000000000000000000000000000000000000000000000000000000000163b15610b76576040517f4cd78efa0000000000000000000000000000000000000000000000000000000081526004356004820152600260248201528381604481836001600160a01b037f0000000000000000000000000000000000000000000000000000000000000000165af18015610b6b57610b58575b50815160025490818102918183041490151715610b445783916040517f2210532b00000000000000000000000000000000000000000000000000000000815260043560048201526020816024816001600160a01b037f0000000000000000000000000000000000000000000000000000000000000000165afa869181610b0c575b50610b04575b50610558836105536127108504875161108d565b61108d565b61056f8161056a8661271087046110b0565b6110b0565b855103610ac0576127108304610a81575b836107ba575b8061077d575b6001600160a01b037f0000000000000000000000000000000000000000000000000000000000000000163b15610756576040517f2f219772000000000000000000000000000000000000000000000000000000008152600480359082015260248101829052612710840460448201526064810185905286908181608481837f00000000000000000000000000000000000000000000000000000000000000006001600160a01b03165af1801561075a57610769575b5060206001600160a01b037f0000000000000000000000000000000000000000000000000000000000000000169301926001600160a01b038451168751823b15610765576040517ff5c91a080000000000000000000000000000000000000000000000000000000081526001600160a01b0392909216600483015260248201529082908290604490829084905af1801561075a57610742575b50506001600160a01b037fdde5c1ff45b05d86e937c381599dd001b98cb038ba0dae2490ac828dcb6bae2192511694519361073c6040519283923397612710600435980490859094939260609260808301968352602083015260408201520152565b0390a480f35b61074b9061102d565b6107565785386106da565b8580fd5b6040513d84823e3d90fd5b8380fd5b6107729061102d565b610756578538610641565b6107b5816001600160a01b036020850151167f0000000000000000000000000000000000000000000000000000000000000000611261565b61058c565b60405163095ea7b360e01b81527f00000000000000000000000000000000000000000000000000000000000000006001600160a01b0316600482015260248101859052602081806044810103818a6001600160a01b037f0000000000000000000000000000000000000000000000000000000000000000165af18015610a4357610a62575b506001600160a01b037f0000000000000000000000000000000000000000000000000000000000000000163b1561075657856040517f371fd8e60000000000000000000000000000000000000000000000000000000081528560048201528181602481836001600160a01b037f0000000000000000000000000000000000000000000000000000000000000000165af1801561075a57610a4e575b505060405163095ea7b360e01b81526001600160a01b037f00000000000000000000000000000000000000000000000000000000000000001660048201528660248201526020816044818a6001600160a01b037f0000000000000000000000000000000000000000000000000000000000000000165af18015610a4357610a14575b506001600160a01b037f0000000000000000000000000000000000000000000000000000000000000000163b1561075657856040517fc701c99400000000000000000000000000000000000000000000000000000000815260043560048201528181602481836001600160a01b037f0000000000000000000000000000000000000000000000000000000000000000165af1801561075a57610a00575b5050610586565b610a099061102d565b6107565785386109f9565b610a359060203d602011610a3c575b610a2d8183611057565b8101906110bd565b503861095c565b503d610a23565b6040513d89823e3d90fd5b610a579061102d565b6107565785386108da565b610a7a9060203d602011610a3c57610a2d8183611057565b503861083f565b610abb61271084046001600160a01b03600154167f0000000000000000000000000000000000000000000000000000000000000000611261565b610580565b606460405162461bcd60e51b815260206004820152601960248201527f534554544c2e656d656e74206d617468206d69736d61746368000000000000006044820152fd5b92503861053f565b9091506020813d602011610b3c575b81610b2860209383611057565b81010312610b3857519038610539565b8680fd5b3d9150610b1b565b602484634e487b7160e01b81526011600452fd5b610b649093919361102d565b91386104b8565b6040513d86823e3d90fd5b8280fd5b602485634e487b7160e01b81526041600452fd5b606460405162461bcd60e51b815260206004820152601160248201527f4e6f7420696e766f6963652062757965720000000000000000000000000000006044820152fd5b606460405162461bcd60e51b815260206004820152600f60248201527f416c726561647920636c656172656400000000000000000000000000000000006044820152fd5b602483634e487b7160e01b81526021600452fd5b606460405162461bcd60e51b815260206004820152601160248201527f496e766f696365206e6f7420666f756e640000000000000000000000000000006044820152fd5b9080925081813d8311610d3c575b610c868183611057565b81010312610b765760405191820182811067ffffffffffffffff821117610d285760405280518252610cba60208201611079565b6020830152610ccb60408201611079565b6040830152606081015160608301526080810151608083015260a081015160048110156107655760a083015260c081015160c083015260e081015160e083015261010080820151908301526101208091015190820152388061035a565b602484634e487b7160e01b81526041600452fd5b503d610c7c565b6040513d85823e3d90fd5b503461011f578060031936011261011f57602090604051908152f35b503461011f57604036600319011261011f5760ff6040602092610d8b611017565b60043582528185526001600160a01b038383209116825284522054166040519015158152f35b503461011f57602036600319011261011f57600435610dce6110d5565b6101f48111610ddd5760025580f35b606460405162461bcd60e51b815260206004820152600c60248201527f46656520746f6f206869676800000000000000000000000000000000000000006044820152fd5b503461011f578060031936011261011f5760206001600160a01b0360015416604051908152f35b503461011f578060031936011261011f5760206040516001600160a01b037f0000000000000000000000000000000000000000000000000000000000000000168152f35b503461011f57604036600319011261011f57610ea6611017565b336001600160a01b03821603610ec257610290906004356111eb565b60046040517f6697b232000000000000000000000000000000000000000000000000000000008152fd5b503461011f578060031936011261011f576020600254604051908152f35b503461011f57604036600319011261011f57610290600435610f2a611017565b9080845283602052610f426001604086200154611146565b61116c565b503461011f57602036600319011261011f57600160406020926004358152808452200154604051908152f35b905034611013576020366003190112611013576004357fffffffff000000000000000000000000000000000000000000000000000000008116809103610b7657602092507f7965db0b000000000000000000000000000000000000000000000000000000008114908115610fe9575b5015158152f35b7f01ffc9a70000000000000000000000000000000000000000000000000000000091501438610fe2565b5080fd5b602435906001600160a01b038216820361020a57565b67ffffffffffffffff811161104157604052565b634e487b7160e01b600052604160045260246000fd5b90601f8019910116810190811067ffffffffffffffff82111761104157604052565b51906001600160a01b038216820361020a57565b9190820391821161109a57565b634e487b7160e01b600052601160045260246000fd5b9190820180921161109a57565b9081602091031261020a5751801515810361020a5790565b3360009081527fad3228b676f7d3cd4284a5443f17f1962b36e491b30a40b2405849e597ba5fb5602052604081205460ff161561110f5750565b604490604051907fe2517d3f0000000000000000000000000000000000000000000000000000000082523360048301526024820152fd5b80600052600060205260406000203360005260205260ff604060002054161561110f5750565b90600091808352826020526001600160a01b036040842092169182845260205260ff604084205416156000146111e657808352826020526040832082845260205260408320600160ff198254161790557f2f8788117e7eff1d82e926ec794901d17c78024a50270940304540a733656f0d339380a4600190565b505090565b90600091808352826020526001600160a01b036040842092169182845260205260ff6040842054166000146111e65780835282602052604083208284526020526040832060ff1981541690557ff6391f5c32d9c69d2a47ea670b442974b53935d1edc7fd64eb21e047a839171b339380a4600190565b6040517fa9059cbb0000000000000000000000000000000000000000000000000000000060208201526001600160a01b039290921660248301526044808301939093529181526112bb916112b6606483611057565b6112bd565b565b906000602091828151910182855af115611331576000513d61132857506001600160a01b0381163b155b6112ee5750565b6024906001600160a01b03604051917f5274afe7000000000000000000000000000000000000000000000000000000008352166004820152fd5b600114156112e7565b6040513d6000823e3d90fdfea26469706673582212205335953cf69e26db9c958b31b502cde608c8653feaf84e2f5e6ead35806bc05564736f6c63430008180033","opcodes":"PUSH2 0x120 CALLVALUE PUSH3 0x1AF JUMPI PUSH3 0x15E4 CODESIZE DUP2 SWAP1 SUB PUSH1 0x1F DUP2 ADD PUSH1 0x1F NOT AND DUP4 ADD PUSH1 0x1 PUSH1 0x1 PUSH1 0x40 SHL SUB DUP2 GT DUP5 DUP3 LT OR PUSH3 0x1B4 JUMPI DUP4 SWAP3 DUP3 SWAP2 PUSH1 0x40 MSTORE DUP4 CODECOPY PUSH2 0x100 SWAP3 DUP4 SWAP2 DUP2 ADD SUB SLT PUSH3 0x1AF JUMPI DUP1 PUSH3 0x55 PUSH3 0xF6 SWAP3 PUSH3 0x1CA JUMP JUMPDEST SWAP1 PUSH3 0x64 PUSH1 0x20 DUP3 ADD PUSH3 0x1CA JUMP JUMPDEST SWAP2 PUSH3 0x73 PUSH1 0x40 DUP4 ADD PUSH3 0x1CA JUMP JUMPDEST SWAP1 PUSH3 0x82 PUSH1 0x60 DUP5 ADD PUSH3 0x1CA JUMP JUMPDEST SWAP4 PUSH3 0x91 PUSH1 0x80 DUP6 ADD PUSH3 0x1CA JUMP JUMPDEST PUSH3 0x9F PUSH1 0xA0 DUP7 ADD PUSH3 0x1CA JUMP JUMPDEST SWAP3 PUSH3 0xB3 PUSH1 0xE0 PUSH1 0xC0 DUP9 ADD MLOAD SWAP8 ADD PUSH3 0x1CA JUMP JUMPDEST PUSH1 0x1 PUSH1 0x1 PUSH1 0xA0 SHL SUB SWAP2 DUP3 AND PUSH1 0x80 MSTORE SWAP3 DUP2 AND PUSH1 0xA0 MSTORE SWAP4 DUP5 AND PUSH1 0xC0 MSTORE SWAP5 DUP4 AND PUSH1 0xE0 MSTORE SWAP4 DUP3 AND DUP7 MSTORE PUSH1 0x1 DUP1 SLOAD PUSH1 0x1 PUSH1 0x1 PUSH1 0xA0 SHL SUB NOT AND SWAP2 SWAP1 SWAP3 AND OR SWAP1 SSTORE PUSH1 0x2 SSTORE PUSH3 0x1DF JUMP JUMPDEST POP PUSH1 0x40 MLOAD PUSH2 0x1373 SWAP2 DUP3 PUSH3 0x271 DUP4 CODECOPY PUSH1 0x80 MLOAD DUP3 DUP2 DUP2 PUSH1 0xFB ADD MSTORE DUP2 DUP2 PUSH2 0x3F2 ADD MSTORE DUP2 DUP2 PUSH2 0x791 ADD MSTORE DUP2 DUP2 PUSH2 0x812 ADD MSTORE DUP2 DUP2 PUSH2 0x92F ADD MSTORE PUSH2 0xA97 ADD MSTORE PUSH1 0xA0 MLOAD DUP3 DUP2 DUP2 PUSH2 0x22F ADD MSTORE DUP2 DUP2 PUSH2 0x32A ADD MSTORE DUP2 DUP2 PUSH2 0x420 ADD MSTORE DUP2 DUP2 PUSH2 0x48B ADD MSTORE DUP2 DUP2 PUSH2 0x596 ADD MSTORE PUSH2 0x60C ADD MSTORE PUSH1 0xC0 MLOAD DUP3 DUP2 DUP2 PUSH2 0x142 ADD MSTORE DUP2 DUP2 PUSH2 0x7C9 ADD MSTORE DUP2 DUP2 PUSH2 0x84A ADD MSTORE DUP2 DUP2 PUSH2 0x8AD ADD MSTORE PUSH2 0x8F3 ADD MSTORE PUSH1 0xE0 MLOAD DUP3 DUP2 DUP2 PUSH2 0x50F ADD MSTORE DUP2 DUP2 PUSH2 0x967 ADD MSTORE DUP2 DUP2 PUSH2 0x9CC ADD MSTORE PUSH2 0xE68 ADD MSTORE MLOAD DUP2 DUP2 DUP2 PUSH2 0x2B4 ADD MSTORE PUSH2 0x64E ADD MSTORE RETURN JUMPDEST PUSH1 0x0 DUP1 REVERT JUMPDEST PUSH4 0x4E487B71 PUSH1 0xE0 SHL PUSH1 0x0 MSTORE PUSH1 0x41 PUSH1 0x4 MSTORE PUSH1 0x24 PUSH1 0x0 REVERT JUMPDEST MLOAD SWAP1 PUSH1 0x1 PUSH1 0x1 PUSH1 0xA0 SHL SUB DUP3 AND DUP3 SUB PUSH3 0x1AF JUMPI JUMP JUMPDEST PUSH1 0x1 PUSH1 0x1 PUSH1 0xA0 SHL SUB AND PUSH1 0x0 DUP2 DUP2 MSTORE PUSH32 0xAD3228B676F7D3CD4284A5443F17F1962B36E491B30A40B2405849E597BA5FB5 PUSH1 0x20 MSTORE PUSH1 0x40 DUP2 KECCAK256 SLOAD SWAP1 SWAP2 SWAP1 PUSH1 0xFF AND PUSH3 0x26C JUMPI DUP2 DUP1 MSTORE DUP2 PUSH1 0x20 MSTORE PUSH1 0x40 DUP3 KECCAK256 DUP2 DUP4 MSTORE PUSH1 0x20 MSTORE PUSH1 0x40 DUP3 KECCAK256 PUSH1 0x1 PUSH1 0xFF NOT DUP3 SLOAD AND OR SWAP1 SSTORE CALLER SWAP2 PUSH32 0x2F8788117E7EFF1D82E926EC794901D17C78024A50270940304540A733656F0D DUP2 DUP1 LOG4 PUSH1 0x1 SWAP1 JUMP JUMPDEST POP SWAP1 JUMP INVALID PUSH1 0x80 DUP1 PUSH1 0x40 MSTORE PUSH1 0x4 CALLDATASIZE LT ISZERO PUSH2 0x13 JUMPI PUSH1 0x0 DUP1 REVERT JUMPDEST PUSH1 0x0 SWAP1 DUP2 CALLDATALOAD PUSH1 0xE0 SHR SWAP1 DUP2 PUSH4 0x1FFC9A7 EQ PUSH2 0xF73 JUMPI POP DUP1 PUSH4 0x248A9CA3 EQ PUSH2 0xF47 JUMPI DUP1 PUSH4 0x2F2FF15D EQ PUSH2 0xF0A JUMPI DUP1 PUSH4 0x35659FB8 EQ PUSH2 0xEEC JUMPI DUP1 PUSH4 0x36568ABE EQ PUSH2 0xE8C JUMPI DUP1 PUSH4 0x58078EB6 EQ PUSH2 0xE48 JUMPI DUP1 PUSH4 0x61D027B3 EQ PUSH2 0xE21 JUMPI DUP1 PUSH4 0x787DCE3D EQ PUSH2 0xDB1 JUMPI DUP1 PUSH4 0x91D14854 EQ PUSH2 0xD6A JUMPI DUP1 PUSH4 0xA217FDDF EQ PUSH2 0xD4E JUMPI DUP1 PUSH4 0xAC60A6CD EQ PUSH2 0x2D8 JUMPI DUP1 PUSH4 0xC52164C6 EQ PUSH2 0x294 JUMPI DUP1 PUSH4 0xD547741F EQ PUSH2 0x253 JUMPI DUP1 PUSH4 0xDA6C70E4 EQ PUSH2 0x20F JUMPI DUP1 PUSH4 0xF0F44260 EQ PUSH2 0x166 JUMPI DUP1 PUSH4 0xFBFA77CF EQ PUSH2 0x122 JUMPI PUSH4 0xFC0C546A EQ PUSH2 0xDC JUMPI PUSH1 0x0 DUP1 REVERT JUMPDEST CALLVALUE PUSH2 0x11F JUMPI DUP1 PUSH1 0x3 NOT CALLDATASIZE ADD SLT PUSH2 0x11F JUMPI PUSH1 0x20 PUSH1 0x40 MLOAD PUSH1 0x1 PUSH1 0x1 PUSH1 0xA0 SHL SUB PUSH32 0x0 AND DUP2 MSTORE RETURN JUMPDEST DUP1 REVERT JUMPDEST POP CALLVALUE PUSH2 0x11F JUMPI DUP1 PUSH1 0x3 NOT CALLDATASIZE ADD SLT PUSH2 0x11F JUMPI PUSH1 0x20 PUSH1 0x40 MLOAD PUSH1 0x1 PUSH1 0x1 PUSH1 0xA0 SHL SUB PUSH32 0x0 AND DUP2 MSTORE RETURN JUMPDEST POP CALLVALUE PUSH2 0x11F JUMPI PUSH1 0x20 CALLDATASIZE PUSH1 0x3 NOT ADD SLT PUSH2 0x11F JUMPI PUSH1 0x4 CALLDATALOAD PUSH1 0x1 PUSH1 0x1 PUSH1 0xA0 SHL SUB DUP2 AND DUP1 SWAP2 SUB PUSH2 0x20A JUMPI PUSH2 0x194 PUSH2 0x10D5 JUMP JUMPDEST DUP1 ISZERO PUSH2 0x1C6 JUMPI PUSH32 0xFFFFFFFFFFFFFFFFFFFFFFFF0000000000000000000000000000000000000000 PUSH1 0x1 SLOAD AND OR PUSH1 0x1 SSTORE DUP1 RETURN JUMPDEST PUSH1 0x64 PUSH1 0x40 MLOAD PUSH3 0x461BCD PUSH1 0xE5 SHL DUP2 MSTORE PUSH1 0x20 PUSH1 0x4 DUP3 ADD MSTORE PUSH1 0x10 PUSH1 0x24 DUP3 ADD MSTORE PUSH32 0x496E76616C696420747265617375727900000000000000000000000000000000 PUSH1 0x44 DUP3 ADD MSTORE REVERT JUMPDEST PUSH1 0x0 DUP1 REVERT JUMPDEST POP CALLVALUE PUSH2 0x11F JUMPI DUP1 PUSH1 0x3 NOT CALLDATASIZE ADD SLT PUSH2 0x11F JUMPI PUSH1 0x20 PUSH1 0x40 MLOAD PUSH1 0x1 PUSH1 0x1 PUSH1 0xA0 SHL SUB PUSH32 0x0 AND DUP2 MSTORE RETURN JUMPDEST POP CALLVALUE PUSH2 0x11F JUMPI PUSH1 0x40 CALLDATASIZE PUSH1 0x3 NOT ADD SLT PUSH2 0x11F JUMPI PUSH2 0x290 PUSH1 0x4 CALLDATALOAD PUSH2 0x273 PUSH2 0x1017 JUMP JUMPDEST SWAP1 DUP1 DUP5 MSTORE DUP4 PUSH1 0x20 MSTORE PUSH2 0x28B PUSH1 0x1 PUSH1 0x40 DUP7 KECCAK256 ADD SLOAD PUSH2 0x1146 JUMP JUMPDEST PUSH2 0x11EB JUMP JUMPDEST POP DUP1 RETURN JUMPDEST POP CALLVALUE PUSH2 0x11F JUMPI DUP1 PUSH1 0x3 NOT CALLDATASIZE ADD SLT PUSH2 0x11F JUMPI PUSH1 0x20 PUSH1 0x40 MLOAD PUSH1 0x1 PUSH1 0x1 PUSH1 0xA0 SHL SUB PUSH32 0x0 AND DUP2 MSTORE RETURN JUMPDEST POP CALLVALUE PUSH2 0x11F JUMPI PUSH1 0x20 CALLDATASIZE PUSH1 0x3 NOT ADD SLT PUSH2 0x11F JUMPI PUSH1 0x40 MLOAD PUSH32 0x3A23CC0A00000000000000000000000000000000000000000000000000000000 DUP2 MSTORE PUSH1 0x4 CALLDATALOAD PUSH1 0x4 DUP3 ADD MSTORE PUSH2 0x140 DUP1 DUP3 PUSH1 0x24 DUP2 PUSH1 0x1 PUSH1 0x1 PUSH1 0xA0 SHL SUB PUSH32 0x0 AND GAS STATICCALL SWAP2 DUP3 ISZERO PUSH2 0xD43 JUMPI DUP4 SWAP3 PUSH2 0xC6E JUMPI JUMPDEST POP POP DUP1 MLOAD ISZERO PUSH2 0xC2A JUMPI PUSH1 0xA0 DUP2 ADD MLOAD PUSH1 0x4 DUP2 LT ISZERO PUSH2 0xC16 JUMPI PUSH1 0x3 EQ PUSH2 0xBD2 JUMPI PUSH1 0x1 PUSH1 0x1 PUSH1 0xA0 SHL SUB PUSH1 0x40 DUP3 ADD MLOAD AND CALLER SUB PUSH2 0xB8E JUMPI PUSH1 0x60 DUP2 ADD SWAP1 DUP2 MLOAD PUSH1 0x40 MLOAD SWAP1 PUSH32 0x23B872DD00000000000000000000000000000000000000000000000000000000 PUSH1 0x20 DUP4 ADD MSTORE CALLER PUSH1 0x24 DUP4 ADD MSTORE ADDRESS PUSH1 0x44 DUP4 ADD MSTORE PUSH1 0x64 DUP3 ADD MSTORE PUSH1 0x64 DUP2 MSTORE PUSH1 0xA0 DUP2 ADD DUP2 DUP2 LT PUSH8 0xFFFFFFFFFFFFFFFF DUP3 GT OR PUSH2 0xB7A JUMPI PUSH1 0x40 MSTORE PUSH2 0x416 SWAP1 PUSH32 0x0 PUSH2 0x12BD JUMP JUMPDEST PUSH1 0x1 PUSH1 0x1 PUSH1 0xA0 SHL SUB PUSH32 0x0 AND EXTCODESIZE ISZERO PUSH2 0xB76 JUMPI PUSH1 0x40 MLOAD PUSH32 0x4CD78EFA00000000000000000000000000000000000000000000000000000000 DUP2 MSTORE PUSH1 0x4 CALLDATALOAD PUSH1 0x4 DUP3 ADD MSTORE PUSH1 0x2 PUSH1 0x24 DUP3 ADD MSTORE DUP4 DUP2 PUSH1 0x44 DUP2 DUP4 PUSH1 0x1 PUSH1 0x1 PUSH1 0xA0 SHL SUB PUSH32 0x0 AND GAS CALL DUP1 ISZERO PUSH2 0xB6B JUMPI PUSH2 0xB58 JUMPI JUMPDEST POP DUP2 MLOAD PUSH1 0x2 SLOAD SWAP1 DUP2 DUP2 MUL SWAP2 DUP2 DUP4 DIV EQ SWAP1 ISZERO OR ISZERO PUSH2 0xB44 JUMPI DUP4 SWAP2 PUSH1 0x40 MLOAD PUSH32 0x2210532B00000000000000000000000000000000000000000000000000000000 DUP2 MSTORE PUSH1 0x4 CALLDATALOAD PUSH1 0x4 DUP3 ADD MSTORE PUSH1 0x20 DUP2 PUSH1 0x24 DUP2 PUSH1 0x1 PUSH1 0x1 PUSH1 0xA0 SHL SUB PUSH32 0x0 AND GAS STATICCALL DUP7 SWAP2 DUP2 PUSH2 0xB0C JUMPI JUMPDEST POP PUSH2 0xB04 JUMPI JUMPDEST POP PUSH2 0x558 DUP4 PUSH2 0x553 PUSH2 0x2710 DUP6 DIV DUP8 MLOAD PUSH2 0x108D JUMP JUMPDEST PUSH2 0x108D JUMP JUMPDEST PUSH2 0x56F DUP2 PUSH2 0x56A DUP7 PUSH2 0x2710 DUP8 DIV PUSH2 0x10B0 JUMP JUMPDEST PUSH2 0x10B0 JUMP JUMPDEST DUP6 MLOAD SUB PUSH2 0xAC0 JUMPI PUSH2 0x2710 DUP4 DIV PUSH2 0xA81 JUMPI JUMPDEST DUP4 PUSH2 0x7BA JUMPI JUMPDEST DUP1 PUSH2 0x77D JUMPI JUMPDEST PUSH1 0x1 PUSH1 0x1 PUSH1 0xA0 SHL SUB PUSH32 0x0 AND EXTCODESIZE ISZERO PUSH2 0x756 JUMPI PUSH1 0x40 MLOAD PUSH32 0x2F21977200000000000000000000000000000000000000000000000000000000 DUP2 MSTORE PUSH1 0x4 DUP1 CALLDATALOAD SWAP1 DUP3 ADD MSTORE PUSH1 0x24 DUP2 ADD DUP3 SWAP1 MSTORE PUSH2 0x2710 DUP5 DIV PUSH1 0x44 DUP3 ADD MSTORE PUSH1 0x64 DUP2 ADD DUP6 SWAP1 MSTORE DUP7 SWAP1 DUP2 DUP2 PUSH1 0x84 DUP2 DUP4 PUSH32 0x0 PUSH1 0x1 PUSH1 0x1 PUSH1 0xA0 SHL SUB AND GAS CALL DUP1 ISZERO PUSH2 0x75A JUMPI PUSH2 0x769 JUMPI JUMPDEST POP PUSH1 0x20 PUSH1 0x1 PUSH1 0x1 PUSH1 0xA0 SHL SUB PUSH32 0x0 AND SWAP4 ADD SWAP3 PUSH1 0x1 PUSH1 0x1 PUSH1 0xA0 SHL SUB DUP5 MLOAD AND DUP8 MLOAD DUP3 EXTCODESIZE ISZERO PUSH2 0x765 JUMPI PUSH1 0x40 MLOAD PUSH32 0xF5C91A0800000000000000000000000000000000000000000000000000000000 DUP2 MSTORE PUSH1 0x1 PUSH1 0x1 PUSH1 0xA0 SHL SUB SWAP3 SWAP1 SWAP3 AND PUSH1 0x4 DUP4 ADD MSTORE PUSH1 0x24 DUP3 ADD MSTORE SWAP1 DUP3 SWAP1 DUP3 SWAP1 PUSH1 0x44 SWAP1 DUP3 SWAP1 DUP5 SWAP1 GAS CALL DUP1 ISZERO PUSH2 0x75A JUMPI PUSH2 0x742 JUMPI JUMPDEST POP POP PUSH1 0x1 PUSH1 0x1 PUSH1 0xA0 SHL SUB PUSH32 0xDDE5C1FF45B05D86E937C381599DD001B98CB038BA0DAE2490AC828DCB6BAE21 SWAP3 MLOAD AND SWAP5 MLOAD SWAP4 PUSH2 0x73C PUSH1 0x40 MLOAD SWAP3 DUP4 SWAP3 CALLER SWAP8 PUSH2 0x2710 PUSH1 0x4 CALLDATALOAD SWAP9 DIV SWAP1 DUP6 SWAP1 SWAP5 SWAP4 SWAP3 PUSH1 0x60 SWAP3 PUSH1 0x80 DUP4 ADD SWAP7 DUP4 MSTORE PUSH1 0x20 DUP4 ADD MSTORE PUSH1 0x40 DUP3 ADD MSTORE ADD MSTORE JUMP JUMPDEST SUB SWAP1 LOG4 DUP1 RETURN JUMPDEST PUSH2 0x74B SWAP1 PUSH2 0x102D JUMP JUMPDEST PUSH2 0x756 JUMPI DUP6 CODESIZE PUSH2 0x6DA JUMP JUMPDEST DUP6 DUP1 REVERT JUMPDEST PUSH1 0x40 MLOAD RETURNDATASIZE DUP5 DUP3 RETURNDATACOPY RETURNDATASIZE SWAP1 REVERT JUMPDEST DUP4 DUP1 REVERT JUMPDEST PUSH2 0x772 SWAP1 PUSH2 0x102D JUMP JUMPDEST PUSH2 0x756 JUMPI DUP6 CODESIZE PUSH2 0x641 JUMP JUMPDEST PUSH2 0x7B5 DUP2 PUSH1 0x1 PUSH1 0x1 PUSH1 0xA0 SHL SUB PUSH1 0x20 DUP6 ADD MLOAD AND PUSH32 0x0 PUSH2 0x1261 JUMP JUMPDEST PUSH2 0x58C JUMP JUMPDEST PUSH1 0x40 MLOAD PUSH4 0x95EA7B3 PUSH1 0xE0 SHL DUP2 MSTORE PUSH32 0x0 PUSH1 0x1 PUSH1 0x1 PUSH1 0xA0 SHL SUB AND PUSH1 0x4 DUP3 ADD MSTORE PUSH1 0x24 DUP2 ADD DUP6 SWAP1 MSTORE PUSH1 0x20 DUP2 DUP1 PUSH1 0x44 DUP2 ADD SUB DUP2 DUP11 PUSH1 0x1 PUSH1 0x1 PUSH1 0xA0 SHL SUB PUSH32 0x0 AND GAS CALL DUP1 ISZERO PUSH2 0xA43 JUMPI PUSH2 0xA62 JUMPI JUMPDEST POP PUSH1 0x1 PUSH1 0x1 PUSH1 0xA0 SHL SUB PUSH32 0x0 AND EXTCODESIZE ISZERO PUSH2 0x756 JUMPI DUP6 PUSH1 0x40 MLOAD PUSH32 0x371FD8E600000000000000000000000000000000000000000000000000000000 DUP2 MSTORE DUP6 PUSH1 0x4 DUP3 ADD MSTORE DUP2 DUP2 PUSH1 0x24 DUP2 DUP4 PUSH1 0x1 PUSH1 0x1 PUSH1 0xA0 SHL SUB PUSH32 0x0 AND GAS CALL DUP1 ISZERO PUSH2 0x75A JUMPI PUSH2 0xA4E JUMPI JUMPDEST POP POP PUSH1 0x40 MLOAD PUSH4 0x95EA7B3 PUSH1 0xE0 SHL DUP2 MSTORE PUSH1 0x1 PUSH1 0x1 PUSH1 0xA0 SHL SUB PUSH32 0x0 AND PUSH1 0x4 DUP3 ADD MSTORE DUP7 PUSH1 0x24 DUP3 ADD MSTORE PUSH1 0x20 DUP2 PUSH1 0x44 DUP2 DUP11 PUSH1 0x1 PUSH1 0x1 PUSH1 0xA0 SHL SUB PUSH32 0x0 AND GAS CALL DUP1 ISZERO PUSH2 0xA43 JUMPI PUSH2 0xA14 JUMPI JUMPDEST POP PUSH1 0x1 PUSH1 0x1 PUSH1 0xA0 SHL SUB PUSH32 0x0 AND EXTCODESIZE ISZERO PUSH2 0x756 JUMPI DUP6 PUSH1 0x40 MLOAD PUSH32 0xC701C99400000000000000000000000000000000000000000000000000000000 DUP2 MSTORE PUSH1 0x4 CALLDATALOAD PUSH1 0x4 DUP3 ADD MSTORE DUP2 DUP2 PUSH1 0x24 DUP2 DUP4 PUSH1 0x1 PUSH1 0x1 PUSH1 0xA0 SHL SUB PUSH32 0x0 AND GAS CALL DUP1 ISZERO PUSH2 0x75A JUMPI PUSH2 0xA00 JUMPI JUMPDEST POP POP PUSH2 0x586 JUMP JUMPDEST PUSH2 0xA09 SWAP1 PUSH2 0x102D JUMP JUMPDEST PUSH2 0x756 JUMPI DUP6 CODESIZE PUSH2 0x9F9 JUMP JUMPDEST PUSH2 0xA35 SWAP1 PUSH1 0x20 RETURNDATASIZE PUSH1 0x20 GT PUSH2 0xA3C JUMPI JUMPDEST PUSH2 0xA2D DUP2 DUP4 PUSH2 0x1057 JUMP JUMPDEST DUP2 ADD SWAP1 PUSH2 0x10BD JUMP JUMPDEST POP CODESIZE PUSH2 0x95C JUMP JUMPDEST POP RETURNDATASIZE PUSH2 0xA23 JUMP JUMPDEST PUSH1 0x40 MLOAD RETURNDATASIZE DUP10 DUP3 RETURNDATACOPY RETURNDATASIZE SWAP1 REVERT JUMPDEST PUSH2 0xA57 SWAP1 PUSH2 0x102D JUMP JUMPDEST PUSH2 0x756 JUMPI DUP6 CODESIZE PUSH2 0x8DA JUMP JUMPDEST PUSH2 0xA7A SWAP1 PUSH1 0x20 RETURNDATASIZE PUSH1 0x20 GT PUSH2 0xA3C JUMPI PUSH2 0xA2D DUP2 DUP4 PUSH2 0x1057 JUMP JUMPDEST POP CODESIZE PUSH2 0x83F JUMP JUMPDEST PUSH2 0xABB PUSH2 0x2710 DUP5 DIV PUSH1 0x1 PUSH1 0x1 PUSH1 0xA0 SHL SUB PUSH1 0x1 SLOAD AND PUSH32 0x0 PUSH2 0x1261 JUMP JUMPDEST PUSH2 0x580 JUMP JUMPDEST PUSH1 0x64 PUSH1 0x40 MLOAD PUSH3 0x461BCD PUSH1 0xE5 SHL DUP2 MSTORE PUSH1 0x20 PUSH1 0x4 DUP3 ADD MSTORE PUSH1 0x19 PUSH1 0x24 DUP3 ADD MSTORE PUSH32 0x534554544C2E656D656E74206D617468206D69736D6174636800000000000000 PUSH1 0x44 DUP3 ADD MSTORE REVERT JUMPDEST SWAP3 POP CODESIZE PUSH2 0x53F JUMP JUMPDEST SWAP1 SWAP2 POP PUSH1 0x20 DUP2 RETURNDATASIZE PUSH1 0x20 GT PUSH2 0xB3C JUMPI JUMPDEST DUP2 PUSH2 0xB28 PUSH1 0x20 SWAP4 DUP4 PUSH2 0x1057 JUMP JUMPDEST DUP2 ADD SUB SLT PUSH2 0xB38 JUMPI MLOAD SWAP1 CODESIZE PUSH2 0x539 JUMP JUMPDEST DUP7 DUP1 REVERT JUMPDEST RETURNDATASIZE SWAP2 POP PUSH2 0xB1B JUMP JUMPDEST PUSH1 0x24 DUP5 PUSH4 0x4E487B71 PUSH1 0xE0 SHL DUP2 MSTORE PUSH1 0x11 PUSH1 0x4 MSTORE REVERT JUMPDEST PUSH2 0xB64 SWAP1 SWAP4 SWAP2 SWAP4 PUSH2 0x102D JUMP JUMPDEST SWAP2 CODESIZE PUSH2 0x4B8 JUMP JUMPDEST PUSH1 0x40 MLOAD RETURNDATASIZE DUP7 DUP3 RETURNDATACOPY RETURNDATASIZE SWAP1 REVERT JUMPDEST DUP3 DUP1 REVERT JUMPDEST PUSH1 0x24 DUP6 PUSH4 0x4E487B71 PUSH1 0xE0 SHL DUP2 MSTORE PUSH1 0x41 PUSH1 0x4 MSTORE REVERT JUMPDEST PUSH1 0x64 PUSH1 0x40 MLOAD PUSH3 0x461BCD PUSH1 0xE5 SHL DUP2 MSTORE PUSH1 0x20 PUSH1 0x4 DUP3 ADD MSTORE PUSH1 0x11 PUSH1 0x24 DUP3 ADD MSTORE PUSH32 0x4E6F7420696E766F696365206275796572000000000000000000000000000000 PUSH1 0x44 DUP3 ADD MSTORE REVERT JUMPDEST PUSH1 0x64 PUSH1 0x40 MLOAD PUSH3 0x461BCD PUSH1 0xE5 SHL DUP2 MSTORE PUSH1 0x20 PUSH1 0x4 DUP3 ADD MSTORE PUSH1 0xF PUSH1 0x24 DUP3 ADD MSTORE PUSH32 0x416C726561647920636C65617265640000000000000000000000000000000000 PUSH1 0x44 DUP3 ADD MSTORE REVERT JUMPDEST PUSH1 0x24 DUP4 PUSH4 0x4E487B71 PUSH1 0xE0 SHL DUP2 MSTORE PUSH1 0x21 PUSH1 0x4 MSTORE REVERT JUMPDEST PUSH1 0x64 PUSH1 0x40 MLOAD PUSH3 0x461BCD PUSH1 0xE5 SHL DUP2 MSTORE PUSH1 0x20 PUSH1 0x4 DUP3 ADD MSTORE PUSH1 0x11 PUSH1 0x24 DUP3 ADD MSTORE PUSH32 0x496E766F696365206E6F7420666F756E64000000000000000000000000000000 PUSH1 0x44 DUP3 ADD MSTORE REVERT JUMPDEST SWAP1 DUP1 SWAP3 POP DUP2 DUP2 RETURNDATASIZE DUP4 GT PUSH2 0xD3C JUMPI JUMPDEST PUSH2 0xC86 DUP2 DUP4 PUSH2 0x1057 JUMP JUMPDEST DUP2 ADD SUB SLT PUSH2 0xB76 JUMPI PUSH1 0x40 MLOAD SWAP2 DUP3 ADD DUP3 DUP2 LT PUSH8 0xFFFFFFFFFFFFFFFF DUP3 GT OR PUSH2 0xD28 JUMPI PUSH1 0x40 MSTORE DUP1 MLOAD DUP3 MSTORE PUSH2 0xCBA PUSH1 0x20 DUP3 ADD PUSH2 0x1079 JUMP JUMPDEST PUSH1 0x20 DUP4 ADD MSTORE PUSH2 0xCCB PUSH1 0x40 DUP3 ADD PUSH2 0x1079 JUMP JUMPDEST PUSH1 0x40 DUP4 ADD MSTORE PUSH1 0x60 DUP2 ADD MLOAD PUSH1 0x60 DUP4 ADD MSTORE PUSH1 0x80 DUP2 ADD MLOAD PUSH1 0x80 DUP4 ADD MSTORE PUSH1 0xA0 DUP2 ADD MLOAD PUSH1 0x4 DUP2 LT ISZERO PUSH2 0x765 JUMPI PUSH1 0xA0 DUP4 ADD MSTORE PUSH1 0xC0 DUP2 ADD MLOAD PUSH1 0xC0 DUP4 ADD MSTORE PUSH1 0xE0 DUP2 ADD MLOAD PUSH1 0xE0 DUP4 ADD MSTORE PUSH2 0x100 DUP1 DUP3 ADD MLOAD SWAP1 DUP4 ADD MSTORE PUSH2 0x120 DUP1 SWAP2 ADD MLOAD SWAP1 DUP3 ADD MSTORE CODESIZE DUP1 PUSH2 0x35A JUMP JUMPDEST PUSH1 0x24 DUP5 PUSH4 0x4E487B71 PUSH1 0xE0 SHL DUP2 MSTORE PUSH1 0x41 PUSH1 0x4 MSTORE REVERT JUMPDEST POP RETURNDATASIZE PUSH2 0xC7C JUMP JUMPDEST PUSH1 0x40 MLOAD RETURNDATASIZE DUP6 DUP3 RETURNDATACOPY RETURNDATASIZE SWAP1 REVERT JUMPDEST POP CALLVALUE PUSH2 0x11F JUMPI DUP1 PUSH1 0x3 NOT CALLDATASIZE ADD SLT PUSH2 0x11F JUMPI PUSH1 0x20 SWAP1 PUSH1 0x40 MLOAD SWAP1 DUP2 MSTORE RETURN JUMPDEST POP CALLVALUE PUSH2 0x11F JUMPI PUSH1 0x40 CALLDATASIZE PUSH1 0x3 NOT ADD SLT PUSH2 0x11F JUMPI PUSH1 0xFF PUSH1 0x40 PUSH1 0x20 SWAP3 PUSH2 0xD8B PUSH2 0x1017 JUMP JUMPDEST PUSH1 0x4 CALLDATALOAD DUP3 MSTORE DUP2 DUP6 MSTORE PUSH1 0x1 PUSH1 0x1 PUSH1 0xA0 SHL SUB DUP4 DUP4 KECCAK256 SWAP2 AND DUP3 MSTORE DUP5 MSTORE KECCAK256 SLOAD AND PUSH1 0x40 MLOAD SWAP1 ISZERO ISZERO DUP2 MSTORE RETURN JUMPDEST POP CALLVALUE PUSH2 0x11F JUMPI PUSH1 0x20 CALLDATASIZE PUSH1 0x3 NOT ADD SLT PUSH2 0x11F JUMPI PUSH1 0x4 CALLDATALOAD PUSH2 0xDCE PUSH2 0x10D5 JUMP JUMPDEST PUSH2 0x1F4 DUP2 GT PUSH2 0xDDD JUMPI PUSH1 0x2 SSTORE DUP1 RETURN JUMPDEST PUSH1 0x64 PUSH1 0x40 MLOAD PUSH3 0x461BCD PUSH1 0xE5 SHL DUP2 MSTORE PUSH1 0x20 PUSH1 0x4 DUP3 ADD MSTORE PUSH1 0xC PUSH1 0x24 DUP3 ADD MSTORE PUSH32 0x46656520746F6F20686967680000000000000000000000000000000000000000 PUSH1 0x44 DUP3 ADD MSTORE REVERT JUMPDEST POP CALLVALUE PUSH2 0x11F JUMPI DUP1 PUSH1 0x3 NOT CALLDATASIZE ADD SLT PUSH2 0x11F JUMPI PUSH1 0x20 PUSH1 0x1 PUSH1 0x1 PUSH1 0xA0 SHL SUB PUSH1 0x1 SLOAD AND PUSH1 0x40 MLOAD SWAP1 DUP2 MSTORE RETURN JUMPDEST POP CALLVALUE PUSH2 0x11F JUMPI DUP1 PUSH1 0x3 NOT CALLDATASIZE ADD SLT PUSH2 0x11F JUMPI PUSH1 0x20 PUSH1 0x40 MLOAD PUSH1 0x1 PUSH1 0x1 PUSH1 0xA0 SHL SUB PUSH32 0x0 AND DUP2 MSTORE RETURN JUMPDEST POP CALLVALUE PUSH2 0x11F JUMPI PUSH1 0x40 CALLDATASIZE PUSH1 0x3 NOT ADD SLT PUSH2 0x11F JUMPI PUSH2 0xEA6 PUSH2 0x1017 JUMP JUMPDEST CALLER PUSH1 0x1 PUSH1 0x1 PUSH1 0xA0 SHL SUB DUP3 AND SUB PUSH2 0xEC2 JUMPI PUSH2 0x290 SWAP1 PUSH1 0x4 CALLDATALOAD PUSH2 0x11EB JUMP JUMPDEST PUSH1 0x4 PUSH1 0x40 MLOAD PUSH32 0x6697B23200000000000000000000000000000000000000000000000000000000 DUP2 MSTORE REVERT JUMPDEST POP CALLVALUE PUSH2 0x11F JUMPI DUP1 PUSH1 0x3 NOT CALLDATASIZE ADD SLT PUSH2 0x11F JUMPI PUSH1 0x20 PUSH1 0x2 SLOAD PUSH1 0x40 MLOAD SWAP1 DUP2 MSTORE RETURN JUMPDEST POP CALLVALUE PUSH2 0x11F JUMPI PUSH1 0x40 CALLDATASIZE PUSH1 0x3 NOT ADD SLT PUSH2 0x11F JUMPI PUSH2 0x290 PUSH1 0x4 CALLDATALOAD PUSH2 0xF2A PUSH2 0x1017 JUMP JUMPDEST SWAP1 DUP1 DUP5 MSTORE DUP4 PUSH1 0x20 MSTORE PUSH2 0xF42 PUSH1 0x1 PUSH1 0x40 DUP7 KECCAK256 ADD SLOAD PUSH2 0x1146 JUMP JUMPDEST PUSH2 0x116C JUMP JUMPDEST POP CALLVALUE PUSH2 0x11F JUMPI PUSH1 0x20 CALLDATASIZE PUSH1 0x3 NOT ADD SLT PUSH2 0x11F JUMPI PUSH1 0x1 PUSH1 0x40 PUSH1 0x20 SWAP3 PUSH1 0x4 CALLDATALOAD DUP2 MSTORE DUP1 DUP5 MSTORE KECCAK256 ADD SLOAD PUSH1 0x40 MLOAD SWAP1 DUP2 MSTORE RETURN JUMPDEST SWAP1 POP CALLVALUE PUSH2 0x1013 JUMPI PUSH1 0x20 CALLDATASIZE PUSH1 0x3 NOT ADD SLT PUSH2 0x1013 JUMPI PUSH1 0x4 CALLDATALOAD PUSH32 0xFFFFFFFF00000000000000000000000000000000000000000000000000000000 DUP2 AND DUP1 SWAP2 SUB PUSH2 0xB76 JUMPI PUSH1 0x20 SWAP3 POP PUSH32 0x7965DB0B00000000000000000000000000000000000000000000000000000000 DUP2 EQ SWAP1 DUP2 ISZERO PUSH2 0xFE9 JUMPI JUMPDEST POP ISZERO ISZERO DUP2 MSTORE RETURN JUMPDEST PUSH32 0x1FFC9A700000000000000000000000000000000000000000000000000000000 SWAP2 POP EQ CODESIZE PUSH2 0xFE2 JUMP JUMPDEST POP DUP1 REVERT JUMPDEST PUSH1 0x24 CALLDATALOAD SWAP1 PUSH1 0x1 PUSH1 0x1 PUSH1 0xA0 SHL SUB DUP3 AND DUP3 SUB PUSH2 0x20A JUMPI JUMP JUMPDEST PUSH8 0xFFFFFFFFFFFFFFFF DUP2 GT PUSH2 0x1041 JUMPI PUSH1 0x40 MSTORE JUMP JUMPDEST PUSH4 0x4E487B71 PUSH1 0xE0 SHL PUSH1 0x0 MSTORE PUSH1 0x41 PUSH1 0x4 MSTORE PUSH1 0x24 PUSH1 0x0 REVERT JUMPDEST SWAP1 PUSH1 0x1F DUP1 NOT SWAP2 ADD AND DUP2 ADD SWAP1 DUP2 LT PUSH8 0xFFFFFFFFFFFFFFFF DUP3 GT OR PUSH2 0x1041 JUMPI PUSH1 0x40 MSTORE JUMP JUMPDEST MLOAD SWAP1 PUSH1 0x1 PUSH1 0x1 PUSH1 0xA0 SHL SUB DUP3 AND DUP3 SUB PUSH2 0x20A JUMPI JUMP JUMPDEST SWAP2 SWAP1 DUP3 SUB SWAP2 DUP3 GT PUSH2 0x109A JUMPI JUMP JUMPDEST PUSH4 0x4E487B71 PUSH1 0xE0 SHL PUSH1 0x0 MSTORE PUSH1 0x11 PUSH1 0x4 MSTORE PUSH1 0x24 PUSH1 0x0 REVERT JUMPDEST SWAP2 SWAP1 DUP3 ADD DUP1 SWAP3 GT PUSH2 0x109A JUMPI JUMP JUMPDEST SWAP1 DUP2 PUSH1 0x20 SWAP2 SUB SLT PUSH2 0x20A JUMPI MLOAD DUP1 ISZERO ISZERO DUP2 SUB PUSH2 0x20A JUMPI SWAP1 JUMP JUMPDEST CALLER PUSH1 0x0 SWAP1 DUP2 MSTORE PUSH32 0xAD3228B676F7D3CD4284A5443F17F1962B36E491B30A40B2405849E597BA5FB5 PUSH1 0x20 MSTORE PUSH1 0x40 DUP2 KECCAK256 SLOAD PUSH1 0xFF AND ISZERO PUSH2 0x110F JUMPI POP JUMP JUMPDEST PUSH1 0x44 SWAP1 PUSH1 0x40 MLOAD SWAP1 PUSH32 0xE2517D3F00000000000000000000000000000000000000000000000000000000 DUP3 MSTORE CALLER PUSH1 0x4 DUP4 ADD MSTORE PUSH1 0x24 DUP3 ADD MSTORE REVERT JUMPDEST DUP1 PUSH1 0x0 MSTORE PUSH1 0x0 PUSH1 0x20 MSTORE PUSH1 0x40 PUSH1 0x0 KECCAK256 CALLER PUSH1 0x0 MSTORE PUSH1 0x20 MSTORE PUSH1 0xFF PUSH1 0x40 PUSH1 0x0 KECCAK256 SLOAD AND ISZERO PUSH2 0x110F JUMPI POP JUMP JUMPDEST SWAP1 PUSH1 0x0 SWAP2 DUP1 DUP4 MSTORE DUP3 PUSH1 0x20 MSTORE PUSH1 0x1 PUSH1 0x1 PUSH1 0xA0 SHL SUB PUSH1 0x40 DUP5 KECCAK256 SWAP3 AND SWAP2 DUP3 DUP5 MSTORE PUSH1 0x20 MSTORE PUSH1 0xFF PUSH1 0x40 DUP5 KECCAK256 SLOAD AND ISZERO PUSH1 0x0 EQ PUSH2 0x11E6 JUMPI DUP1 DUP4 MSTORE DUP3 PUSH1 0x20 MSTORE PUSH1 0x40 DUP4 KECCAK256 DUP3 DUP5 MSTORE PUSH1 0x20 MSTORE PUSH1 0x40 DUP4 KECCAK256 PUSH1 0x1 PUSH1 0xFF NOT DUP3 SLOAD AND OR SWAP1 SSTORE PUSH32 0x2F8788117E7EFF1D82E926EC794901D17C78024A50270940304540A733656F0D CALLER SWAP4 DUP1 LOG4 PUSH1 0x1 SWAP1 JUMP JUMPDEST POP POP SWAP1 JUMP JUMPDEST SWAP1 PUSH1 0x0 SWAP2 DUP1 DUP4 MSTORE DUP3 PUSH1 0x20 MSTORE PUSH1 0x1 PUSH1 0x1 PUSH1 0xA0 SHL SUB PUSH1 0x40 DUP5 KECCAK256 SWAP3 AND SWAP2 DUP3 DUP5 MSTORE PUSH1 0x20 MSTORE PUSH1 0xFF PUSH1 0x40 DUP5 KECCAK256 SLOAD AND PUSH1 0x0 EQ PUSH2 0x11E6 JUMPI DUP1 DUP4 MSTORE DUP3 PUSH1 0x20 MSTORE PUSH1 0x40 DUP4 KECCAK256 DUP3 DUP5 MSTORE PUSH1 0x20 MSTORE PUSH1 0x40 DUP4 KECCAK256 PUSH1 0xFF NOT DUP2 SLOAD AND SWAP1 SSTORE PUSH32 0xF6391F5C32D9C69D2A47EA670B442974B53935D1EDC7FD64EB21E047A839171B CALLER SWAP4 DUP1 LOG4 PUSH1 0x1 SWAP1 JUMP JUMPDEST PUSH1 0x40 MLOAD PUSH32 0xA9059CBB00000000000000000000000000000000000000000000000000000000 PUSH1 0x20 DUP3 ADD MSTORE PUSH1 0x1 PUSH1 0x1 PUSH1 0xA0 SHL SUB SWAP3 SWAP1 SWAP3 AND PUSH1 0x24 DUP4 ADD MSTORE PUSH1 0x44 DUP1 DUP4 ADD SWAP4 SWAP1 SWAP4 MSTORE SWAP2 DUP2 MSTORE PUSH2 0x12BB SWAP2 PUSH2 0x12B6 PUSH1 0x64 DUP4 PUSH2 0x1057 JUMP JUMPDEST PUSH2 0x12BD JUMP JUMPDEST JUMP JUMPDEST SWAP1 PUSH1 0x0 PUSH1 0x20 SWAP2 DUP3 DUP2 MLOAD SWAP2 ADD DUP3 DUP6 GAS CALL ISZERO PUSH2 0x1331 JUMPI PUSH1 0x0 MLOAD RETURNDATASIZE PUSH2 0x1328 JUMPI POP PUSH1 0x1 PUSH1 0x1 PUSH1 0xA0 SHL SUB DUP2 AND EXTCODESIZE ISZERO JUMPDEST PUSH2 0x12EE JUMPI POP JUMP JUMPDEST PUSH1 0x24 SWAP1 PUSH1 0x1 PUSH1 0x1 PUSH1 0xA0 SHL SUB PUSH1 0x40 MLOAD SWAP2 PUSH32 0x5274AFE700000000000000000000000000000000000000000000000000000000 DUP4 MSTORE AND PUSH1 0x4 DUP3 ADD MSTORE REVERT JUMPDEST PUSH1 0x1 EQ ISZERO PUSH2 0x12E7 JUMP JUMPDEST PUSH1 0x40 MLOAD RETURNDATASIZE PUSH1 0x0 DUP3 RETURNDATACOPY RETURNDATASIZE SWAP1 REVERT INVALID LOG2 PUSH5 0x6970667358 0x22 SLT KECCAK256 MSTORE8 CALLDATALOAD SWAP6 EXTCODECOPY 0xF6 SWAP15 0x26 0xDB SWAP13 SWAP6 DUP12 BALANCE 0xB5 MUL 0xCD 0xE6 ADDMOD 0xC8 PUSH6 0x3FEAF84E2F5E PUSH15 0xAD35806BC05564736F6C6343000818 STOP CALLER "},"methodIdentifiers":{"DEFAULT_ADMIN_ROLE()":"a217fddf","advanceEngine()":"58078eb6","getRoleAdmin(bytes32)":"248a9ca3","grantRole(bytes32,address)":"2f2ff15d","hasRole(bytes32,address)":"91d14854","invoiceRegistry()":"da6c70e4","payInvoice(uint256)":"ac60a6cd","protocolFeeBps()":"35659fb8","renounceRole(bytes32,address)":"36568abe","reputation()":"c52164c6","revokeRole(bytes32,address)":"d547741f","setProtocolFee(uint256)":"787dce3d","setTreasury(address)":"f0f44260","supportsInterface(bytes4)":"01ffc9a7","token()":"fc0c546a","treasury()":"61d027b3","vault()":"fbfa77cf"}}}}}