{"contracts/Reputation.sol":{"Reputation":{"abi":[{"inputs":[{"internalType":"address","name":"defaultAdmin","type":"address"}],"stateMutability":"nonpayable","type":"constructor"},{"inputs":[],"name":"AccessControlBadConfirmation","type":"error"},{"inputs":[{"internalType":"address","name":"account","type":"address"},{"internalType":"bytes32","name":"neededRole","type":"bytes32"}],"name":"AccessControlUnauthorizedAccount","type":"error"},{"anonymous":false,"inputs":[{"indexed":true,"internalType":"address","name":"seller","type":"address"},{"indexed":false,"internalType":"uint256","name":"newScore","type":"uint256"},{"indexed":false,"internalType":"enum IReputation.Tier","name":"newTier","type":"uint8"},{"indexed":false,"internalType":"uint256","name":"invoiceVolume","type":"uint256"}],"name":"ReputationUpdated","type":"event"},{"anonymous":false,"inputs":[{"indexed":true,"internalType":"bytes32","name":"role","type":"bytes32"},{"indexed":true,"internalType":"bytes32","name":"previousAdminRole","type":"bytes32"},{"indexed":true,"internalType":"bytes32","name":"newAdminRole","type":"bytes32"}],"name":"RoleAdminChanged","type":"event"},{"anonymous":false,"inputs":[{"indexed":true,"internalType":"bytes32","name":"role","type":"bytes32"},{"indexed":true,"internalType":"address","name":"account","type":"address"},{"indexed":true,"internalType":"address","name":"sender","type":"address"}],"name":"RoleGranted","type":"event"},{"anonymous":false,"inputs":[{"indexed":true,"internalType":"bytes32","name":"role","type":"bytes32"},{"indexed":true,"internalType":"address","name":"account","type":"address"},{"indexed":true,"internalType":"address","name":"sender","type":"address"}],"name":"RoleRevoked","type":"event"},{"inputs":[],"name":"DEFAULT_ADMIN_ROLE","outputs":[{"internalType":"bytes32","name":"","type":"bytes32"}],"stateMutability":"view","type":"function"},{"inputs":[],"name":"SETTLEMENT_ROUTER_ROLE","outputs":[{"internalType":"bytes32","name":"","type":"bytes32"}],"stateMutability":"view","type":"function"},{"inputs":[{"internalType":"bytes32","name":"role","type":"bytes32"}],"name":"getRoleAdmin","outputs":[{"internalType":"bytes32","name":"","type":"bytes32"}],"stateMutability":"view","type":"function"},{"inputs":[{"internalType":"address","name":"seller","type":"address"}],"name":"getScore","outputs":[{"internalType":"uint256","name":"","type":"uint256"}],"stateMutability":"view","type":"function"},{"inputs":[{"internalType":"address","name":"seller","type":"address"}],"name":"getStats","outputs":[{"components":[{"internalType":"uint256","name":"score","type":"uint256"},{"internalType":"enum IReputation.Tier","name":"tier","type":"uint8"},{"internalType":"uint256","name":"invoicesCleared","type":"uint256"},{"internalType":"uint256","name":"totalVolume","type":"uint256"},{"internalType":"uint256","name":"lastUpdated","type":"uint256"}],"internalType":"struct IReputation.SellerStats","name":"","type":"tuple"}],"stateMutability":"view","type":"function"},{"inputs":[{"internalType":"address","name":"seller","type":"address"}],"name":"getTier","outputs":[{"internalType":"enum IReputation.Tier","name":"","type":"uint8"}],"stateMutability":"view","type":"function"},{"inputs":[{"internalType":"bytes32","name":"role","type":"bytes32"},{"internalType":"address","name":"account","type":"address"}],"name":"grantRole","outputs":[],"stateMutability":"nonpayable","type":"function"},{"inputs":[{"internalType":"bytes32","name":"role","type":"bytes32"},{"internalType":"address","name":"account","type":"address"}],"name":"hasRole","outputs":[{"internalType":"bool","name":"","type":"bool"}],"stateMutability":"view","type":"function"},{"inputs":[{"internalType":"bytes32","name":"role","type":"bytes32"},{"internalType":"address","name":"callerConfirmation","type":"address"}],"name":"renounceRole","outputs":[],"stateMutability":"nonpayable","type":"function"},{"inputs":[{"internalType":"bytes32","name":"role","type":"bytes32"},{"internalType":"address","name":"account","type":"address"}],"name":"revokeRole","outputs":[],"stateMutability":"nonpayable","type":"function"},{"inputs":[{"internalType":"bytes4","name":"interfaceId","type":"bytes4"}],"name":"supportsInterface","outputs":[{"internalType":"bool","name":"","type":"bool"}],"stateMutability":"view","type":"function"},{"inputs":[{"internalType":"address","name":"seller","type":"address"},{"internalType":"uint256","name":"invoiceAmount","type":"uint256"}],"name":"updateReputation","outputs":[],"stateMutability":"nonpayable","type":"function"}],"evm":{"bytecode":{"linkReferences":{},"object":"60803461006857601f610a2238819003918201601f19168301916001600160401b0383118484101761006d5780849260209460405283398101031261006857516001600160a01b03811681036100685761005890610083565b5060405161090e90816101148239f35b600080fd5b634e487b7160e01b600052604160045260246000fd5b6001600160a01b031660008181527fad3228b676f7d3cd4284a5443f17f1962b36e491b30a40b2405849e597ba5fb5602052604081205490919060ff1661010f57818052816020526040822081835260205260408220600160ff1982541617905533917f2f8788117e7eff1d82e926ec794901d17c78024a50270940304540a733656f0d8180a4600190565b509056fe6080604081815260048036101561001557600080fd5b600092833560e01c90816301ffc9a7146104c45750806313d6b15d14610489578063248a9ca3146104605780632f2ff15d1461043757806336568abe146103d757806391d1485414610393578063a217fddf14610378578063b45aae5214610344578063c23f85d6146102e8578063d47875d0146102b7578063d547741f146102795763f5c91a08146100a757600080fd5b346102755781600319360112610275576100bf61057e565b602435907fe42f0c8616404e22cba428ac20c22164b434f2ef9f5a62c5c2dbbeacfba3a0cd8086528560205284862033875260205260ff85872054161561025857506001600160a01b0316928385526001806020528186208054158061024c575b610237575b6002810180549083820180921161022457556003810161014685825461077c565b905564e8d4a5100084046014018060141161021157918161018e606096947f1899b708ec5096780655fda09d1b7c7a15be93c84fd5942b99e22a79a19cea309896945461077c565b946103e8808711610208575b5091816101d4938760ff94556101f488106000146101db57828201841981541690555b429082015501541682519485526020850190610594565b820152a280f35b6103528810156101f6578282018385198254161790556101bd565b828201600285198254161790556101bd565b955060ff61019a565b602488601188634e487b7160e01b835252fd5b602489601189634e487b7160e01b835252fd5b6101c28155818101805460ff19169055610125565b50600281015415610120565b8360449186519163e2517d3f60e01b835233908301526024820152fd5b8280fd5b5090346102755780600319360112610275576102b391356102ae600161029d610563565b93838752866020528620015461079f565b610862565b5080f35b5050346102e45760203660031901126102e4576020906102dd6102d861057e565b61073e565b9051908152f35b5080fd5b5050346102e45760203660031901126102e45760a090608061031061030b61057e565b61067c565b8251928151845261032960208301516020860190610594565b80820151908401526060810151606084015201516080820152f35b5050346102e45760203660031901126102e45760209061037661036d61036861057e565b6105f9565b91518092610594565bf35b5050346102e457816003193601126102e45751908152602090f35b50346102755781600319360112610275578160209360ff926103b3610563565b903582528186526001600160a01b0383832091168252855220541690519015158152f35b509190346102e457806003193601126102e4576103f2610563565b90336001600160a01b0383160361040f57506102b3919235610862565b8390517f6697b232000000000000000000000000000000000000000000000000000000008152fd5b5090346102755780600319360112610275576102b3913561045b600161029d610563565b6107e3565b503461027557602036600319011261027557816020936001923581528085522001549051908152f35b5050346102e457816003193601126102e457602090517fe42f0c8616404e22cba428ac20c22164b434f2ef9f5a62c5c2dbbeacfba3a0cd8152f35b9250503461027557602036600319011261027557357fffffffff00000000000000000000000000000000000000000000000000000000811680910361027557602092507f7965db0b000000000000000000000000000000000000000000000000000000008114908115610539575b5015158152f35b7f01ffc9a70000000000000000000000000000000000000000000000000000000091501438610532565b602435906001600160a01b038216820361057957565b600080fd5b600435906001600160a01b038216820361057957565b9060038210156105a15752565b634e487b7160e01b600052602160045260246000fd5b60038210156105a15752565b6040519060a0820182811067ffffffffffffffff8211176105e357604052565b634e487b7160e01b600052604160045260246000fd5b6001600160a01b0316600052600160205260406000206106176105c3565b908054825260ff600182015416916106336020820193846105b7565b6004600283015492836040840152600381015460608401520154608082015251159081610673575b5061066d575160038110156105a15790565b50600090565b9050153861065b565b6001600160a01b0360809161068f6105c3565b60009381858093528260208201528260408201528260608201520152168152600160205260408120906106c06105c3565b91805483526106d960ff600183015416602085016105b7565b600460028201549182604086015260038101546060860152015460808401528251159081610735575b5061070b575090565b90506107156105c3565b906101c28252806020830152806040830152806060830152608082015290565b90501538610702565b6001600160a01b0316600052600160205260406000208054908115908161076f575b506107685790565b506101c290565b6002915001541538610760565b9190820180921161078957565b634e487b7160e01b600052601160045260246000fd5b80600052600060205260406000203360005260205260ff60406000205416156107c55750565b6044906040519063e2517d3f60e01b82523360048301526024820152fd5b90600091808352826020526001600160a01b036040842092169182845260205260ff6040842054161560001461085d57808352826020526040832082845260205260408320600160ff198254161790557f2f8788117e7eff1d82e926ec794901d17c78024a50270940304540a733656f0d339380a4600190565b505090565b90600091808352826020526001600160a01b036040842092169182845260205260ff60408420541660001461085d5780835282602052604083208284526020526040832060ff1981541690557ff6391f5c32d9c69d2a47ea670b442974b53935d1edc7fd64eb21e047a839171b339380a460019056fea264697066735822122040c44036f9c03408a9ca4cf43d3ff64ca7aea0cddd2a6f3d5e2a6d7d1f948f1d64736f6c63430008180033","opcodes":"PUSH1 0x80 CALLVALUE PUSH2 0x68 JUMPI PUSH1 0x1F PUSH2 0xA22 CODESIZE DUP2 SWAP1 SUB SWAP2 DUP3 ADD PUSH1 0x1F NOT AND DUP4 ADD SWAP2 PUSH1 0x1 PUSH1 0x1 PUSH1 0x40 SHL SUB DUP4 GT DUP5 DUP5 LT OR PUSH2 0x6D JUMPI DUP1 DUP5 SWAP3 PUSH1 0x20 SWAP5 PUSH1 0x40 MSTORE DUP4 CODECOPY DUP2 ADD SUB SLT PUSH2 0x68 JUMPI MLOAD PUSH1 0x1 PUSH1 0x1 PUSH1 0xA0 SHL SUB DUP2 AND DUP2 SUB PUSH2 0x68 JUMPI PUSH2 0x58 SWAP1 PUSH2 0x83 JUMP JUMPDEST POP PUSH1 0x40 MLOAD PUSH2 0x90E SWAP1 DUP2 PUSH2 0x114 DUP3 CODECOPY RETURN JUMPDEST PUSH1 0x0 DUP1 REVERT JUMPDEST PUSH4 0x4E487B71 PUSH1 0xE0 SHL PUSH1 0x0 MSTORE PUSH1 0x41 PUSH1 0x4 MSTORE PUSH1 0x24 PUSH1 0x0 REVERT JUMPDEST PUSH1 0x1 PUSH1 0x1 PUSH1 0xA0 SHL SUB AND PUSH1 0x0 DUP2 DUP2 MSTORE PUSH32 0xAD3228B676F7D3CD4284A5443F17F1962B36E491B30A40B2405849E597BA5FB5 PUSH1 0x20 MSTORE PUSH1 0x40 DUP2 KECCAK256 SLOAD SWAP1 SWAP2 SWAP1 PUSH1 0xFF AND PUSH2 0x10F JUMPI DUP2 DUP1 MSTORE DUP2 PUSH1 0x20 MSTORE PUSH1 0x40 DUP3 KECCAK256 DUP2 DUP4 MSTORE PUSH1 0x20 MSTORE PUSH1 0x40 DUP3 KECCAK256 PUSH1 0x1 PUSH1 0xFF NOT DUP3 SLOAD AND OR SWAP1 SSTORE CALLER SWAP2 PUSH32 0x2F8788117E7EFF1D82E926EC794901D17C78024A50270940304540A733656F0D DUP2 DUP1 LOG4 PUSH1 0x1 SWAP1 JUMP JUMPDEST POP SWAP1 JUMP INVALID PUSH1 0x80 PUSH1 0x40 DUP2 DUP2 MSTORE PUSH1 0x4 DUP1 CALLDATASIZE LT ISZERO PUSH2 0x15 JUMPI PUSH1 0x0 DUP1 REVERT JUMPDEST PUSH1 0x0 SWAP3 DUP4 CALLDATALOAD PUSH1 0xE0 SHR SWAP1 DUP2 PUSH4 0x1FFC9A7 EQ PUSH2 0x4C4 JUMPI POP DUP1 PUSH4 0x13D6B15D EQ PUSH2 0x489 JUMPI DUP1 PUSH4 0x248A9CA3 EQ PUSH2 0x460 JUMPI DUP1 PUSH4 0x2F2FF15D EQ PUSH2 0x437 JUMPI DUP1 PUSH4 0x36568ABE EQ PUSH2 0x3D7 JUMPI DUP1 PUSH4 0x91D14854 EQ PUSH2 0x393 JUMPI DUP1 PUSH4 0xA217FDDF EQ PUSH2 0x378 JUMPI DUP1 PUSH4 0xB45AAE52 EQ PUSH2 0x344 JUMPI DUP1 PUSH4 0xC23F85D6 EQ PUSH2 0x2E8 JUMPI DUP1 PUSH4 0xD47875D0 EQ PUSH2 0x2B7 JUMPI DUP1 PUSH4 0xD547741F EQ PUSH2 0x279 JUMPI PUSH4 0xF5C91A08 EQ PUSH2 0xA7 JUMPI PUSH1 0x0 DUP1 REVERT JUMPDEST CALLVALUE PUSH2 0x275 JUMPI DUP2 PUSH1 0x3 NOT CALLDATASIZE ADD SLT PUSH2 0x275 JUMPI PUSH2 0xBF PUSH2 0x57E JUMP JUMPDEST PUSH1 0x24 CALLDATALOAD SWAP1 PUSH32 0xE42F0C8616404E22CBA428AC20C22164B434F2EF9F5A62C5C2DBBEACFBA3A0CD DUP1 DUP7 MSTORE DUP6 PUSH1 0x20 MSTORE DUP5 DUP7 KECCAK256 CALLER DUP8 MSTORE PUSH1 0x20 MSTORE PUSH1 0xFF DUP6 DUP8 KECCAK256 SLOAD AND ISZERO PUSH2 0x258 JUMPI POP PUSH1 0x1 PUSH1 0x1 PUSH1 0xA0 SHL SUB AND SWAP3 DUP4 DUP6 MSTORE PUSH1 0x1 DUP1 PUSH1 0x20 MSTORE DUP2 DUP7 KECCAK256 DUP1 SLOAD ISZERO DUP1 PUSH2 0x24C JUMPI JUMPDEST PUSH2 0x237 JUMPI JUMPDEST PUSH1 0x2 DUP2 ADD DUP1 SLOAD SWAP1 DUP4 DUP3 ADD DUP1 SWAP3 GT PUSH2 0x224 JUMPI SSTORE PUSH1 0x3 DUP2 ADD PUSH2 0x146 DUP6 DUP3 SLOAD PUSH2 0x77C JUMP JUMPDEST SWAP1 SSTORE PUSH5 0xE8D4A51000 DUP5 DIV PUSH1 0x14 ADD DUP1 PUSH1 0x14 GT PUSH2 0x211 JUMPI SWAP2 DUP2 PUSH2 0x18E PUSH1 0x60 SWAP7 SWAP5 PUSH32 0x1899B708EC5096780655FDA09D1B7C7A15BE93C84FD5942B99E22A79A19CEA30 SWAP9 SWAP7 SWAP5 SLOAD PUSH2 0x77C JUMP JUMPDEST SWAP5 PUSH2 0x3E8 DUP1 DUP8 GT PUSH2 0x208 JUMPI JUMPDEST POP SWAP2 DUP2 PUSH2 0x1D4 SWAP4 DUP8 PUSH1 0xFF SWAP5 SSTORE PUSH2 0x1F4 DUP9 LT PUSH1 0x0 EQ PUSH2 0x1DB JUMPI DUP3 DUP3 ADD DUP5 NOT DUP2 SLOAD AND SWAP1 SSTORE JUMPDEST TIMESTAMP SWAP1 DUP3 ADD SSTORE ADD SLOAD AND DUP3 MLOAD SWAP5 DUP6 MSTORE PUSH1 0x20 DUP6 ADD SWAP1 PUSH2 0x594 JUMP JUMPDEST DUP3 ADD MSTORE LOG2 DUP1 RETURN JUMPDEST PUSH2 0x352 DUP9 LT ISZERO PUSH2 0x1F6 JUMPI DUP3 DUP3 ADD DUP4 DUP6 NOT DUP3 SLOAD AND OR SWAP1 SSTORE PUSH2 0x1BD JUMP JUMPDEST DUP3 DUP3 ADD PUSH1 0x2 DUP6 NOT DUP3 SLOAD AND OR SWAP1 SSTORE PUSH2 0x1BD JUMP JUMPDEST SWAP6 POP PUSH1 0xFF PUSH2 0x19A JUMP JUMPDEST PUSH1 0x24 DUP9 PUSH1 0x11 DUP9 PUSH4 0x4E487B71 PUSH1 0xE0 SHL DUP4 MSTORE MSTORE REVERT JUMPDEST PUSH1 0x24 DUP10 PUSH1 0x11 DUP10 PUSH4 0x4E487B71 PUSH1 0xE0 SHL DUP4 MSTORE MSTORE REVERT JUMPDEST PUSH2 0x1C2 DUP2 SSTORE DUP2 DUP2 ADD DUP1 SLOAD PUSH1 0xFF NOT AND SWAP1 SSTORE PUSH2 0x125 JUMP JUMPDEST POP PUSH1 0x2 DUP2 ADD SLOAD ISZERO PUSH2 0x120 JUMP JUMPDEST DUP4 PUSH1 0x44 SWAP2 DUP7 MLOAD SWAP2 PUSH4 0xE2517D3F PUSH1 0xE0 SHL DUP4 MSTORE CALLER SWAP1 DUP4 ADD MSTORE PUSH1 0x24 DUP3 ADD MSTORE REVERT JUMPDEST DUP3 DUP1 REVERT JUMPDEST POP SWAP1 CALLVALUE PUSH2 0x275 JUMPI DUP1 PUSH1 0x3 NOT CALLDATASIZE ADD SLT PUSH2 0x275 JUMPI PUSH2 0x2B3 SWAP2 CALLDATALOAD PUSH2 0x2AE PUSH1 0x1 PUSH2 0x29D PUSH2 0x563 JUMP JUMPDEST SWAP4 DUP4 DUP8 MSTORE DUP7 PUSH1 0x20 MSTORE DUP7 KECCAK256 ADD SLOAD PUSH2 0x79F JUMP JUMPDEST PUSH2 0x862 JUMP JUMPDEST POP DUP1 RETURN JUMPDEST POP POP CALLVALUE PUSH2 0x2E4 JUMPI PUSH1 0x20 CALLDATASIZE PUSH1 0x3 NOT ADD SLT PUSH2 0x2E4 JUMPI PUSH1 0x20 SWAP1 PUSH2 0x2DD PUSH2 0x2D8 PUSH2 0x57E JUMP JUMPDEST PUSH2 0x73E JUMP JUMPDEST SWAP1 MLOAD SWAP1 DUP2 MSTORE RETURN JUMPDEST POP DUP1 REVERT JUMPDEST POP POP CALLVALUE PUSH2 0x2E4 JUMPI PUSH1 0x20 CALLDATASIZE PUSH1 0x3 NOT ADD SLT PUSH2 0x2E4 JUMPI PUSH1 0xA0 SWAP1 PUSH1 0x80 PUSH2 0x310 PUSH2 0x30B PUSH2 0x57E JUMP JUMPDEST PUSH2 0x67C JUMP JUMPDEST DUP3 MLOAD SWAP3 DUP2 MLOAD DUP5 MSTORE PUSH2 0x329 PUSH1 0x20 DUP4 ADD MLOAD PUSH1 0x20 DUP7 ADD SWAP1 PUSH2 0x594 JUMP JUMPDEST DUP1 DUP3 ADD MLOAD SWAP1 DUP5 ADD MSTORE PUSH1 0x60 DUP2 ADD MLOAD PUSH1 0x60 DUP5 ADD MSTORE ADD MLOAD PUSH1 0x80 DUP3 ADD MSTORE RETURN JUMPDEST POP POP CALLVALUE PUSH2 0x2E4 JUMPI PUSH1 0x20 CALLDATASIZE PUSH1 0x3 NOT ADD SLT PUSH2 0x2E4 JUMPI PUSH1 0x20 SWAP1 PUSH2 0x376 PUSH2 0x36D PUSH2 0x368 PUSH2 0x57E JUMP JUMPDEST PUSH2 0x5F9 JUMP JUMPDEST SWAP2 MLOAD DUP1 SWAP3 PUSH2 0x594 JUMP JUMPDEST RETURN JUMPDEST POP POP CALLVALUE PUSH2 0x2E4 JUMPI DUP2 PUSH1 0x3 NOT CALLDATASIZE ADD SLT PUSH2 0x2E4 JUMPI MLOAD SWAP1 DUP2 MSTORE PUSH1 0x20 SWAP1 RETURN JUMPDEST POP CALLVALUE PUSH2 0x275 JUMPI DUP2 PUSH1 0x3 NOT CALLDATASIZE ADD SLT PUSH2 0x275 JUMPI DUP2 PUSH1 0x20 SWAP4 PUSH1 0xFF SWAP3 PUSH2 0x3B3 PUSH2 0x563 JUMP JUMPDEST SWAP1 CALLDATALOAD DUP3 MSTORE DUP2 DUP7 MSTORE PUSH1 0x1 PUSH1 0x1 PUSH1 0xA0 SHL SUB DUP4 DUP4 KECCAK256 SWAP2 AND DUP3 MSTORE DUP6 MSTORE KECCAK256 SLOAD AND SWAP1 MLOAD SWAP1 ISZERO ISZERO DUP2 MSTORE RETURN JUMPDEST POP SWAP2 SWAP1 CALLVALUE PUSH2 0x2E4 JUMPI DUP1 PUSH1 0x3 NOT CALLDATASIZE ADD SLT PUSH2 0x2E4 JUMPI PUSH2 0x3F2 PUSH2 0x563 JUMP JUMPDEST SWAP1 CALLER PUSH1 0x1 PUSH1 0x1 PUSH1 0xA0 SHL SUB DUP4 AND SUB PUSH2 0x40F JUMPI POP PUSH2 0x2B3 SWAP2 SWAP3 CALLDATALOAD PUSH2 0x862 JUMP JUMPDEST DUP4 SWAP1 MLOAD PUSH32 0x6697B23200000000000000000000000000000000000000000000000000000000 DUP2 MSTORE REVERT JUMPDEST POP SWAP1 CALLVALUE PUSH2 0x275 JUMPI DUP1 PUSH1 0x3 NOT CALLDATASIZE ADD SLT PUSH2 0x275 JUMPI PUSH2 0x2B3 SWAP2 CALLDATALOAD PUSH2 0x45B PUSH1 0x1 PUSH2 0x29D PUSH2 0x563 JUMP JUMPDEST PUSH2 0x7E3 JUMP JUMPDEST POP CALLVALUE PUSH2 0x275 JUMPI PUSH1 0x20 CALLDATASIZE PUSH1 0x3 NOT ADD SLT PUSH2 0x275 JUMPI DUP2 PUSH1 0x20 SWAP4 PUSH1 0x1 SWAP3 CALLDATALOAD DUP2 MSTORE DUP1 DUP6 MSTORE KECCAK256 ADD SLOAD SWAP1 MLOAD SWAP1 DUP2 MSTORE RETURN JUMPDEST POP POP CALLVALUE PUSH2 0x2E4 JUMPI DUP2 PUSH1 0x3 NOT CALLDATASIZE ADD SLT PUSH2 0x2E4 JUMPI PUSH1 0x20 SWAP1 MLOAD PUSH32 0xE42F0C8616404E22CBA428AC20C22164B434F2EF9F5A62C5C2DBBEACFBA3A0CD DUP2 MSTORE RETURN JUMPDEST SWAP3 POP POP CALLVALUE PUSH2 0x275 JUMPI PUSH1 0x20 CALLDATASIZE PUSH1 0x3 NOT ADD SLT PUSH2 0x275 JUMPI CALLDATALOAD PUSH32 0xFFFFFFFF00000000000000000000000000000000000000000000000000000000 DUP2 AND DUP1 SWAP2 SUB PUSH2 0x275 JUMPI PUSH1 0x20 SWAP3 POP PUSH32 0x7965DB0B00000000000000000000000000000000000000000000000000000000 DUP2 EQ SWAP1 DUP2 ISZERO PUSH2 0x539 JUMPI JUMPDEST POP ISZERO ISZERO DUP2 MSTORE RETURN JUMPDEST PUSH32 0x1FFC9A700000000000000000000000000000000000000000000000000000000 SWAP2 POP EQ CODESIZE PUSH2 0x532 JUMP JUMPDEST PUSH1 0x24 CALLDATALOAD SWAP1 PUSH1 0x1 PUSH1 0x1 PUSH1 0xA0 SHL SUB DUP3 AND DUP3 SUB PUSH2 0x579 JUMPI JUMP JUMPDEST PUSH1 0x0 DUP1 REVERT JUMPDEST PUSH1 0x4 CALLDATALOAD SWAP1 PUSH1 0x1 PUSH1 0x1 PUSH1 0xA0 SHL SUB DUP3 AND DUP3 SUB PUSH2 0x579 JUMPI JUMP JUMPDEST SWAP1 PUSH1 0x3 DUP3 LT ISZERO PUSH2 0x5A1 JUMPI MSTORE JUMP JUMPDEST PUSH4 0x4E487B71 PUSH1 0xE0 SHL PUSH1 0x0 MSTORE PUSH1 0x21 PUSH1 0x4 MSTORE PUSH1 0x24 PUSH1 0x0 REVERT JUMPDEST PUSH1 0x3 DUP3 LT ISZERO PUSH2 0x5A1 JUMPI MSTORE JUMP JUMPDEST PUSH1 0x40 MLOAD SWAP1 PUSH1 0xA0 DUP3 ADD DUP3 DUP2 LT PUSH8 0xFFFFFFFFFFFFFFFF DUP3 GT OR PUSH2 0x5E3 JUMPI PUSH1 0x40 MSTORE JUMP JUMPDEST PUSH4 0x4E487B71 PUSH1 0xE0 SHL PUSH1 0x0 MSTORE PUSH1 0x41 PUSH1 0x4 MSTORE PUSH1 0x24 PUSH1 0x0 REVERT JUMPDEST PUSH1 0x1 PUSH1 0x1 PUSH1 0xA0 SHL SUB AND PUSH1 0x0 MSTORE PUSH1 0x1 PUSH1 0x20 MSTORE PUSH1 0x40 PUSH1 0x0 KECCAK256 PUSH2 0x617 PUSH2 0x5C3 JUMP JUMPDEST SWAP1 DUP1 SLOAD DUP3 MSTORE PUSH1 0xFF PUSH1 0x1 DUP3 ADD SLOAD AND SWAP2 PUSH2 0x633 PUSH1 0x20 DUP3 ADD SWAP4 DUP5 PUSH2 0x5B7 JUMP JUMPDEST PUSH1 0x4 PUSH1 0x2 DUP4 ADD SLOAD SWAP3 DUP4 PUSH1 0x40 DUP5 ADD MSTORE PUSH1 0x3 DUP2 ADD SLOAD PUSH1 0x60 DUP5 ADD MSTORE ADD SLOAD PUSH1 0x80 DUP3 ADD MSTORE MLOAD ISZERO SWAP1 DUP2 PUSH2 0x673 JUMPI JUMPDEST POP PUSH2 0x66D JUMPI MLOAD PUSH1 0x3 DUP2 LT ISZERO PUSH2 0x5A1 JUMPI SWAP1 JUMP JUMPDEST POP PUSH1 0x0 SWAP1 JUMP JUMPDEST SWAP1 POP ISZERO CODESIZE PUSH2 0x65B JUMP JUMPDEST PUSH1 0x1 PUSH1 0x1 PUSH1 0xA0 SHL SUB PUSH1 0x80 SWAP2 PUSH2 0x68F PUSH2 0x5C3 JUMP JUMPDEST PUSH1 0x0 SWAP4 DUP2 DUP6 DUP1 SWAP4 MSTORE DUP3 PUSH1 0x20 DUP3 ADD MSTORE DUP3 PUSH1 0x40 DUP3 ADD MSTORE DUP3 PUSH1 0x60 DUP3 ADD MSTORE ADD MSTORE AND DUP2 MSTORE PUSH1 0x1 PUSH1 0x20 MSTORE PUSH1 0x40 DUP2 KECCAK256 SWAP1 PUSH2 0x6C0 PUSH2 0x5C3 JUMP JUMPDEST SWAP2 DUP1 SLOAD DUP4 MSTORE PUSH2 0x6D9 PUSH1 0xFF PUSH1 0x1 DUP4 ADD SLOAD AND PUSH1 0x20 DUP6 ADD PUSH2 0x5B7 JUMP JUMPDEST PUSH1 0x4 PUSH1 0x2 DUP3 ADD SLOAD SWAP2 DUP3 PUSH1 0x40 DUP7 ADD MSTORE PUSH1 0x3 DUP2 ADD SLOAD PUSH1 0x60 DUP7 ADD MSTORE ADD SLOAD PUSH1 0x80 DUP5 ADD MSTORE DUP3 MLOAD ISZERO SWAP1 DUP2 PUSH2 0x735 JUMPI JUMPDEST POP PUSH2 0x70B JUMPI POP SWAP1 JUMP JUMPDEST SWAP1 POP PUSH2 0x715 PUSH2 0x5C3 JUMP JUMPDEST SWAP1 PUSH2 0x1C2 DUP3 MSTORE DUP1 PUSH1 0x20 DUP4 ADD MSTORE DUP1 PUSH1 0x40 DUP4 ADD MSTORE DUP1 PUSH1 0x60 DUP4 ADD MSTORE PUSH1 0x80 DUP3 ADD MSTORE SWAP1 JUMP JUMPDEST SWAP1 POP ISZERO CODESIZE PUSH2 0x702 JUMP JUMPDEST PUSH1 0x1 PUSH1 0x1 PUSH1 0xA0 SHL SUB AND PUSH1 0x0 MSTORE PUSH1 0x1 PUSH1 0x20 MSTORE PUSH1 0x40 PUSH1 0x0 KECCAK256 DUP1 SLOAD SWAP1 DUP2 ISZERO SWAP1 DUP2 PUSH2 0x76F JUMPI JUMPDEST POP PUSH2 0x768 JUMPI SWAP1 JUMP JUMPDEST POP PUSH2 0x1C2 SWAP1 JUMP JUMPDEST PUSH1 0x2 SWAP2 POP ADD SLOAD ISZERO CODESIZE PUSH2 0x760 JUMP JUMPDEST SWAP2 SWAP1 DUP3 ADD DUP1 SWAP3 GT PUSH2 0x789 JUMPI JUMP JUMPDEST PUSH4 0x4E487B71 PUSH1 0xE0 SHL PUSH1 0x0 MSTORE PUSH1 0x11 PUSH1 0x4 MSTORE PUSH1 0x24 PUSH1 0x0 REVERT JUMPDEST DUP1 PUSH1 0x0 MSTORE PUSH1 0x0 PUSH1 0x20 MSTORE PUSH1 0x40 PUSH1 0x0 KECCAK256 CALLER PUSH1 0x0 MSTORE PUSH1 0x20 MSTORE PUSH1 0xFF PUSH1 0x40 PUSH1 0x0 KECCAK256 SLOAD AND ISZERO PUSH2 0x7C5 JUMPI POP JUMP JUMPDEST PUSH1 0x44 SWAP1 PUSH1 0x40 MLOAD SWAP1 PUSH4 0xE2517D3F PUSH1 0xE0 SHL DUP3 MSTORE CALLER PUSH1 0x4 DUP4 ADD MSTORE PUSH1 0x24 DUP3 ADD MSTORE REVERT JUMPDEST SWAP1 PUSH1 0x0 SWAP2 DUP1 DUP4 MSTORE DUP3 PUSH1 0x20 MSTORE PUSH1 0x1 PUSH1 0x1 PUSH1 0xA0 SHL SUB PUSH1 0x40 DUP5 KECCAK256 SWAP3 AND SWAP2 DUP3 DUP5 MSTORE PUSH1 0x20 MSTORE PUSH1 0xFF PUSH1 0x40 DUP5 KECCAK256 SLOAD AND ISZERO PUSH1 0x0 EQ PUSH2 0x85D JUMPI DUP1 DUP4 MSTORE DUP3 PUSH1 0x20 MSTORE PUSH1 0x40 DUP4 KECCAK256 DUP3 DUP5 MSTORE PUSH1 0x20 MSTORE PUSH1 0x40 DUP4 KECCAK256 PUSH1 0x1 PUSH1 0xFF NOT DUP3 SLOAD AND OR SWAP1 SSTORE PUSH32 0x2F8788117E7EFF1D82E926EC794901D17C78024A50270940304540A733656F0D CALLER SWAP4 DUP1 LOG4 PUSH1 0x1 SWAP1 JUMP JUMPDEST POP POP SWAP1 JUMP JUMPDEST SWAP1 PUSH1 0x0 SWAP2 DUP1 DUP4 MSTORE DUP3 PUSH1 0x20 MSTORE PUSH1 0x1 PUSH1 0x1 PUSH1 0xA0 SHL SUB PUSH1 0x40 DUP5 KECCAK256 SWAP3 AND SWAP2 DUP3 DUP5 MSTORE PUSH1 0x20 MSTORE PUSH1 0xFF PUSH1 0x40 DUP5 KECCAK256 SLOAD AND PUSH1 0x0 EQ PUSH2 0x85D JUMPI DUP1 DUP4 MSTORE DUP3 PUSH1 0x20 MSTORE PUSH1 0x40 DUP4 KECCAK256 DUP3 DUP5 MSTORE PUSH1 0x20 MSTORE PUSH1 0x40 DUP4 KECCAK256 PUSH1 0xFF NOT DUP2 SLOAD AND SWAP1 SSTORE PUSH32 0xF6391F5C32D9C69D2A47EA670B442974B53935D1EDC7FD64EB21E047A839171B CALLER SWAP4 DUP1 LOG4 PUSH1 0x1 SWAP1 JUMP INVALID LOG2 PUSH5 0x6970667358 0x22 SLT KECCAK256 BLOCKHASH 0xC4 BLOCKHASH CALLDATASIZE 0xF9 0xC0 CALLVALUE ADDMOD 0xA9 0xCA 0x4C DELEGATECALL RETURNDATASIZE EXTCODEHASH 0xF6 0x4C 0xA7 0xAE LOG0 0xCD 0xDD 0x2A PUSH16 0x3D5E2A6D7D1F948F1D64736F6C634300 ADDMOD XOR STOP CALLER "},"methodIdentifiers":{"DEFAULT_ADMIN_ROLE()":"a217fddf","SETTLEMENT_ROUTER_ROLE()":"13d6b15d","getRoleAdmin(bytes32)":"248a9ca3","getScore(address)":"d47875d0","getStats(address)":"c23f85d6","getTier(address)":"b45aae52","grantRole(bytes32,address)":"2f2ff15d","hasRole(bytes32,address)":"91d14854","renounceRole(bytes32,address)":"36568abe","revokeRole(bytes32,address)":"d547741f","supportsInterface(bytes4)":"01ffc9a7","updateReputation(address,uint256)":"f5c91a08"}}}}}