{"contracts/AdvanceEngine.sol":{"AdvanceEngine":{"abi":[{"inputs":[{"internalType":"address","name":"_invoiceRegistry","type":"address"},{"internalType":"address","name":"_vault","type":"address"},{"internalType":"address","name":"defaultAdmin","type":"address"}],"stateMutability":"nonpayable","type":"constructor"},{"inputs":[],"name":"AccessControlBadConfirmation","type":"error"},{"inputs":[{"internalType":"address","name":"account","type":"address"},{"internalType":"bytes32","name":"neededRole","type":"bytes32"}],"name":"AccessControlUnauthorizedAccount","type":"error"},{"anonymous":false,"inputs":[{"indexed":true,"internalType":"uint256","name":"invoiceId","type":"uint256"},{"indexed":true,"internalType":"address","name":"seller","type":"address"},{"indexed":false,"internalType":"uint256","name":"repaymentAmount","type":"uint256"}],"name":"AdvanceRepaid","type":"event"},{"anonymous":false,"inputs":[{"indexed":true,"internalType":"uint256","name":"invoiceId","type":"uint256"},{"indexed":true,"internalType":"address","name":"seller","type":"address"},{"indexed":false,"internalType":"uint256","name":"advanceAmount","type":"uint256"},{"indexed":false,"internalType":"uint256","name":"principal","type":"uint256"},{"indexed":false,"internalType":"uint256","name":"interest","type":"uint256"}],"name":"AdvanceRequested","type":"event"},{"anonymous":false,"inputs":[{"indexed":true,"internalType":"bytes32","name":"role","type":"bytes32"},{"indexed":true,"internalType":"bytes32","name":"previousAdminRole","type":"bytes32"},{"indexed":true,"internalType":"bytes32","name":"newAdminRole","type":"bytes32"}],"name":"RoleAdminChanged","type":"event"},{"anonymous":false,"inputs":[{"indexed":true,"internalType":"bytes32","name":"role","type":"bytes32"},{"indexed":true,"internalType":"address","name":"account","type":"address"},{"indexed":true,"internalType":"address","name":"sender","type":"address"}],"name":"RoleGranted","type":"event"},{"anonymous":false,"inputs":[{"indexed":true,"internalType":"bytes32","name":"role","type":"bytes32"},{"indexed":true,"internalType":"address","name":"account","type":"address"},{"indexed":true,"internalType":"address","name":"sender","type":"address"}],"name":"RoleRevoked","type":"event"},{"inputs":[],"name":"DEFAULT_ADMIN_ROLE","outputs":[{"internalType":"bytes32","name":"","type":"bytes32"}],"stateMutability":"view","type":"function"},{"inputs":[],"name":"SETTLEMENT_ROUTER_ROLE","outputs":[{"internalType":"bytes32","name":"","type":"bytes32"}],"stateMutability":"view","type":"function"},{"inputs":[{"internalType":"uint256","name":"invoiceId","type":"uint256"}],"name":"getAdvance","outputs":[{"components":[{"internalType":"uint256","name":"invoiceId","type":"uint256"},{"internalType":"address","name":"seller","type":"address"},{"internalType":"uint256","name":"advanceAmount","type":"uint256"},{"internalType":"uint256","name":"principal","type":"uint256"},{"internalType":"uint256","name":"interest","type":"uint256"},{"internalType":"uint256","name":"totalRepayment","type":"uint256"},{"internalType":"uint256","name":"requestedAt","type":"uint256"},{"internalType":"bool","name":"repaid","type":"bool"}],"internalType":"struct IAdvanceEngine.Advance","name":"","type":"tuple"}],"stateMutability":"view","type":"function"},{"inputs":[{"internalType":"uint256","name":"invoiceId","type":"uint256"}],"name":"getRepaymentAmount","outputs":[{"internalType":"uint256","name":"","type":"uint256"}],"stateMutability":"view","type":"function"},{"inputs":[{"internalType":"bytes32","name":"role","type":"bytes32"}],"name":"getRoleAdmin","outputs":[{"internalType":"bytes32","name":"","type":"bytes32"}],"stateMutability":"view","type":"function"},{"inputs":[{"internalType":"address","name":"seller","type":"address"}],"name":"getTotalDebt","outputs":[{"internalType":"uint256","name":"","type":"uint256"}],"stateMutability":"view","type":"function"},{"inputs":[{"internalType":"bytes32","name":"role","type":"bytes32"},{"internalType":"address","name":"account","type":"address"}],"name":"grantRole","outputs":[],"stateMutability":"nonpayable","type":"function"},{"inputs":[{"internalType":"bytes32","name":"role","type":"bytes32"},{"internalType":"address","name":"account","type":"address"}],"name":"hasRole","outputs":[{"internalType":"bool","name":"","type":"bool"}],"stateMutability":"view","type":"function"},{"inputs":[],"name":"invoiceRegistry","outputs":[{"internalType":"contract IInvoiceRegistry","name":"","type":"address"}],"stateMutability":"view","type":"function"},{"inputs":[{"internalType":"uint256","name":"invoiceId","type":"uint256"}],"name":"markRepaid","outputs":[],"stateMutability":"nonpayable","type":"function"},{"inputs":[{"internalType":"bytes32","name":"role","type":"bytes32"},{"internalType":"address","name":"callerConfirmation","type":"address"}],"name":"renounceRole","outputs":[],"stateMutability":"nonpayable","type":"function"},{"inputs":[{"internalType":"uint256","name":"invoiceId","type":"uint256"},{"internalType":"uint256","name":"ltvBps","type":"uint256"},{"internalType":"uint256","name":"aprBps","type":"uint256"}],"name":"requestAdvance","outputs":[{"internalType":"uint256","name":"advanceAmount","type":"uint256"}],"stateMutability":"nonpayable","type":"function"},{"inputs":[{"internalType":"bytes32","name":"role","type":"bytes32"},{"internalType":"address","name":"account","type":"address"}],"name":"revokeRole","outputs":[],"stateMutability":"nonpayable","type":"function"},{"inputs":[{"internalType":"bytes4","name":"interfaceId","type":"bytes4"}],"name":"supportsInterface","outputs":[{"internalType":"bool","name":"","type":"bool"}],"stateMutability":"view","type":"function"},{"inputs":[],"name":"vault","outputs":[{"internalType":"contract IVault","name":"","type":"address"}],"stateMutability":"view","type":"function"}],"evm":{"bytecode":{"linkReferences":{},"object":"60c0346100cf57601f620013f738819003918201601f19168301916001600160401b038311848410176100d4578084926060946040528339810103126100cf578061004c61007c926100ea565b610064604061005d602085016100ea565b93016100ea565b6001600160a01b03918216608052911660a0526100fe565b5060405161126890816200018f823960805181818161024a015281816104d0015281816107fd0152610867015260a05181818160e5015281816105b70152818161061e0152818161066901526106cb0152f35b600080fd5b634e487b7160e01b600052604160045260246000fd5b51906001600160a01b03821682036100cf57565b6001600160a01b031660008181527fad3228b676f7d3cd4284a5443f17f1962b36e491b30a40b2405849e597ba5fb5602052604081205490919060ff1661018a57818052816020526040822081835260205260408220600160ff1982541617905533917f2f8788117e7eff1d82e926ec794901d17c78024a50270940304540a733656f0d8180a4600190565b509056fe608080604052600436101561001357600080fd5b600090813560e01c90816301ffc9a714610ebc5750806313d6b15d14610e815780632210532b14610e5a578063248a9ca314610e2e5780632f2ff15d14610df157806336568abe14610d915780634d44ac4f14610c6a57806369d2d7391461045b57806391d148541461040f578063a217fddf146103f3578063c701c994146102af578063d547741f1461026e578063da6c70e41461022a578063e15aa67e1461010c5763fbfa77cf146100c657600080fd5b3461010957806003193601126101095760206040516001600160a01b037f0000000000000000000000000000000000000000000000000000000000000000168152f35b80fd5b503461010957602080600319360112610226576040610100926004358160e0845161013681610f77565b828152828782015282868201528260608201528260808201528260a08201528260c08201520152808252600184526101728383205415156110cc565b815260018352206040519061018682610f77565b8054928383526001600160a01b038060018401541691808501928352600284015460408601908152600385015491606087019283526004860154936080880194855260058701549560a0890196875260e060ff600760068b01549a60c08d019b8c5201541699019815158952604051998a525116908801525160408701525160608601525160808501525160a08401525160c083015251151560e0820152f35b5080fd5b503461010957806003193601126101095760206040516001600160a01b037f0000000000000000000000000000000000000000000000000000000000000000168152f35b5034610109576040366003190112610109576102ab60043561028e610f5c565b90808452836020526102a66001604086200154611117565b6111bc565b5080f35b503461010957602080600319360112610226576004357fe42f0c8616404e22cba428ac20c22164b434f2ef9f5a62c5c2dbbeacfba3a0cd8060005260008352604060002033600052835260ff60406000205416156103bc5750808352600182526040832091610320835415156110cc565b60078301805460ff8116610378579060017f1846422a9f37947cde9565d3f252ffb0babb8e1f20a0ee77b13e9dcbfd1876df939260ff191617905560056001600160a01b03600186015416940154604051908152a380f35b6064836040519062461bcd60e51b82526004820152600e60248201527f416c7265616479207265706169640000000000000000000000000000000000006044820152fd5b604490604051907fe2517d3f0000000000000000000000000000000000000000000000000000000082523360048301526024820152fd5b5034610109578060031936011261010957602090604051908152f35b5034610109576040366003190112610109576001600160a01b036040610433610f5c565b92600435815280602052209116600052602052602060ff604060002054166040519015158152f35b50346101095760603660031901126101095760243560443581151580610c5e575b15610c1a5780151580610c0e575b15610bca57604051917f3a23cc0a000000000000000000000000000000000000000000000000000000008352600435600484015261014080846024816001600160a01b037f0000000000000000000000000000000000000000000000000000000000000000165afa938415610939578594610af3575b50506001600160a01b036020840151163303610aaf5760a08301516004811015610a9b57610a57576105396127109160608501516110ac565b04918215610a1357608001516237b1d0916105769142811115610a0857620151806105686105719242906110bf565b04915b856110ac565b6110ac565b046105818183611075565b6040517f35c7e9250000000000000000000000000000000000000000000000000000000081526020816004816001600160a01b037f0000000000000000000000000000000000000000000000000000000000000000165afa9081156109395785916109d2575b506040517f0307c4a10000000000000000000000000000000000000000000000000000000081526020816004816001600160a01b037f0000000000000000000000000000000000000000000000000000000000000000165afa80156109c7578591879161098c575b5061065a91926110bf565b10610948576001600160a01b037f0000000000000000000000000000000000000000000000000000000000000000163b15610944576040517fc5ebeaec0000000000000000000000000000000000000000000000000000000081528360048201528481602481836001600160a01b037f0000000000000000000000000000000000000000000000000000000000000000165af1801561093957610926575b50600760405161070781610f77565b60043581526020810192338452604082019086825260608301878152608084019087825260a0850192835260c085019342855260e08601978b89526004358c52600160205260408c20965187556001600160a01b03600188019151167fffffffffffffffffffffffff0000000000000000000000000000000000000000825416179055516002860155516003850155516004840155516005830155516006820155019051151560ff801983541691161790553383526002602052604083208054906801000000000000000082101561091257600182018082558210156108fe578452600435906020852001556001600160a01b037f0000000000000000000000000000000000000000000000000000000000000000163b156108ef576040517fb9ab755200000000000000000000000000000000000000000000000000000000815260043560048201528260248201528381604481836001600160a01b037f0000000000000000000000000000000000000000000000000000000000000000165af180156108f3576108db575b60208383604051908282528284830152604082015233907f55ded1156b969f08b4c4803d5b53e9865098181388841471ca44bf7e60f69b1d606060043592a3604051908152f35b6108e58491610faa565b6108ef5782610894565b8280fd5b6040513d86823e3d90fd5b602485634e487b7160e01b81526032600452fd5b602485634e487b7160e01b81526041600452fd5b61093290949194610faa565b92386106f8565b6040513d87823e3d90fd5b8380fd5b606460405162461bcd60e51b815260206004820152601c60248201527f496e73756666696369656e74207661756c74206c6971756964697479000000006044820152fd5b9150506020813d6020116109bf575b816109a860209383610fbe565b810103126109bb5751849061065a61064f565b8580fd5b3d915061099b565b6040513d88823e3d90fd5b90506020813d602011610a00575b816109ed60209383610fbe565b810103126109fc5751386105e7565b8480fd5b3d91506109e0565b50610571859161056b565b606460405162461bcd60e51b815260206004820152601160248201527f416476616e636520746f6f20736d616c6c0000000000000000000000000000006044820152fd5b606460405162461bcd60e51b815260206004820152600e60248201527f496e76616c6964207374617475730000000000000000000000000000000000006044820152fd5b602485634e487b7160e01b81526021600452fd5b606460405162461bcd60e51b815260206004820152601260248201527f4e6f7420696e766f6963652073656c6c657200000000000000000000000000006044820152fd5b908092945081813d8311610bc3575b610b0c8183610fbe565b810103126109fc5760405191820182811067ffffffffffffffff821117610baf5760405280518252610b4060208201611098565b6020830152610b5160408201611098565b6040830152606081015160608301526080810151608083015260a081015160048110156109bb5760a083015260c081015160c083015260e081015160e083015261010080820151908301526101208091015190820152913880610500565b602486634e487b7160e01b81526041600452fd5b503d610b02565b606460405162461bcd60e51b815260206004820152600b60248201527f496e76616c6964204150520000000000000000000000000000000000000000006044820152fd5b5061138881111561048a565b606460405162461bcd60e51b815260206004820152600b60248201527f496e76616c6964204c54560000000000000000000000000000000000000000006044820152fd5b5061271082111561047c565b5034610109576020908160031936011261010957600435906001600160a01b0391828116809103610226578152600291600284526040822091604051808487829654938481520190845287842092845b89828210610d7b57505050610cd192500384610fbe565b8092815b8151811015610d715760058782821b840101518452600180895260ff600760408720938860405194610d0686610f77565b86548652860154168c8501528a85015460408501526003850154606085015260048501546080850152840154938460a0850152600681015460c0850152015416159060e08215910152610d5d575b50600101610cd5565b610d6a9060019296611075565b9490610d54565b8685604051908152f35b8554845260019586019589955093019201610cba565b503461010957604036600319011261010957610dab610f5c565b336001600160a01b03821603610dc7576102ab906004356111bc565b60046040517f6697b232000000000000000000000000000000000000000000000000000000008152fd5b5034610109576040366003190112610109576102ab600435610e11610f5c565b9080845283602052610e296001604086200154611117565b61113d565b503461010957602036600319011261010957600160406020926004358152808452200154604051908152f35b5034610109576020366003190112610109576020610e79600435610fe0565b604051908152f35b503461010957806003193601126101095760206040517fe42f0c8616404e22cba428ac20c22164b434f2ef9f5a62c5c2dbbeacfba3a0cd8152f35b905034610226576020366003190112610226576004357fffffffff0000000000000000000000000000000000000000000000000000000081168091036108ef57602092507f7965db0b000000000000000000000000000000000000000000000000000000008114908115610f32575b5015158152f35b7f01ffc9a70000000000000000000000000000000000000000000000000000000091501438610f2b565b602435906001600160a01b0382168203610f7257565b600080fd5b610100810190811067ffffffffffffffff821117610f9457604052565b634e487b7160e01b600052604160045260246000fd5b67ffffffffffffffff8111610f9457604052565b90601f8019910116810190811067ffffffffffffffff821117610f9457604052565b6000526001602052604060002060e0604051610ffb81610f77565b8254908181526001600160a01b03600185015416602082015260028401546040820152600384015460608201526004840154608082015260ff60076005860154958660a0850152600681015460c0850152015416151592839101521590811561106d575b506110675790565b50600090565b90503861105f565b9190820180921161108257565b634e487b7160e01b600052601160045260246000fd5b51906001600160a01b0382168203610f7257565b8181029291811591840414171561108257565b9190820391821161108257565b156110d357565b606460405162461bcd60e51b815260206004820152601160248201527f416476616e6365206e6f7420666f756e640000000000000000000000000000006044820152fd5b80600052600060205260406000203360005260205260ff60406000205416156103bc5750565b90600091808352826020526001600160a01b036040842092169182845260205260ff604084205416156000146111b757808352826020526040832082845260205260408320600160ff198254161790557f2f8788117e7eff1d82e926ec794901d17c78024a50270940304540a733656f0d339380a4600190565b505090565b90600091808352826020526001600160a01b036040842092169182845260205260ff6040842054166000146111b75780835282602052604083208284526020526040832060ff1981541690557ff6391f5c32d9c69d2a47ea670b442974b53935d1edc7fd64eb21e047a839171b339380a460019056fea264697066735822122017e01aef528b5017575892eed3897cd8d53631a7cf58f522fc11ccd904bd9f3264736f6c63430008180033","opcodes":"PUSH1 0xC0 CALLVALUE PUSH2 0xCF JUMPI PUSH1 0x1F PUSH3 0x13F7 CODESIZE DUP2 SWAP1 SUB SWAP2 DUP3 ADD PUSH1 0x1F NOT AND DUP4 ADD SWAP2 PUSH1 0x1 PUSH1 0x1 PUSH1 0x40 SHL SUB DUP4 GT DUP5 DUP5 LT OR PUSH2 0xD4 JUMPI DUP1 DUP5 SWAP3 PUSH1 0x60 SWAP5 PUSH1 0x40 MSTORE DUP4 CODECOPY DUP2 ADD SUB SLT PUSH2 0xCF JUMPI DUP1 PUSH2 0x4C PUSH2 0x7C SWAP3 PUSH2 0xEA JUMP JUMPDEST PUSH2 0x64 PUSH1 0x40 PUSH2 0x5D PUSH1 0x20 DUP6 ADD PUSH2 0xEA JUMP JUMPDEST SWAP4 ADD PUSH2 0xEA JUMP JUMPDEST PUSH1 0x1 PUSH1 0x1 PUSH1 0xA0 SHL SUB SWAP2 DUP3 AND PUSH1 0x80 MSTORE SWAP2 AND PUSH1 0xA0 MSTORE PUSH2 0xFE JUMP JUMPDEST POP PUSH1 0x40 MLOAD PUSH2 0x1268 SWAP1 DUP2 PUSH3 0x18F DUP3 CODECOPY PUSH1 0x80 MLOAD DUP2 DUP2 DUP2 PUSH2 0x24A ADD MSTORE DUP2 DUP2 PUSH2 0x4D0 ADD MSTORE DUP2 DUP2 PUSH2 0x7FD ADD MSTORE PUSH2 0x867 ADD MSTORE PUSH1 0xA0 MLOAD DUP2 DUP2 DUP2 PUSH1 0xE5 ADD MSTORE DUP2 DUP2 PUSH2 0x5B7 ADD MSTORE DUP2 DUP2 PUSH2 0x61E ADD MSTORE DUP2 DUP2 PUSH2 0x669 ADD MSTORE PUSH2 0x6CB ADD MSTORE RETURN JUMPDEST PUSH1 0x0 DUP1 REVERT JUMPDEST PUSH4 0x4E487B71 PUSH1 0xE0 SHL PUSH1 0x0 MSTORE PUSH1 0x41 PUSH1 0x4 MSTORE PUSH1 0x24 PUSH1 0x0 REVERT JUMPDEST MLOAD SWAP1 PUSH1 0x1 PUSH1 0x1 PUSH1 0xA0 SHL SUB DUP3 AND DUP3 SUB PUSH2 0xCF JUMPI JUMP JUMPDEST PUSH1 0x1 PUSH1 0x1 PUSH1 0xA0 SHL SUB AND PUSH1 0x0 DUP2 DUP2 MSTORE PUSH32 0xAD3228B676F7D3CD4284A5443F17F1962B36E491B30A40B2405849E597BA5FB5 PUSH1 0x20 MSTORE PUSH1 0x40 DUP2 KECCAK256 SLOAD SWAP1 SWAP2 SWAP1 PUSH1 0xFF AND PUSH2 0x18A JUMPI DUP2 DUP1 MSTORE DUP2 PUSH1 0x20 MSTORE PUSH1 0x40 DUP3 KECCAK256 DUP2 DUP4 MSTORE PUSH1 0x20 MSTORE PUSH1 0x40 DUP3 KECCAK256 PUSH1 0x1 PUSH1 0xFF NOT DUP3 SLOAD AND OR SWAP1 SSTORE CALLER SWAP2 PUSH32 0x2F8788117E7EFF1D82E926EC794901D17C78024A50270940304540A733656F0D DUP2 DUP1 LOG4 PUSH1 0x1 SWAP1 JUMP JUMPDEST POP SWAP1 JUMP INVALID PUSH1 0x80 DUP1 PUSH1 0x40 MSTORE PUSH1 0x4 CALLDATASIZE LT ISZERO PUSH2 0x13 JUMPI PUSH1 0x0 DUP1 REVERT JUMPDEST PUSH1 0x0 SWAP1 DUP2 CALLDATALOAD PUSH1 0xE0 SHR SWAP1 DUP2 PUSH4 0x1FFC9A7 EQ PUSH2 0xEBC JUMPI POP DUP1 PUSH4 0x13D6B15D EQ PUSH2 0xE81 JUMPI DUP1 PUSH4 0x2210532B EQ PUSH2 0xE5A JUMPI DUP1 PUSH4 0x248A9CA3 EQ PUSH2 0xE2E JUMPI DUP1 PUSH4 0x2F2FF15D EQ PUSH2 0xDF1 JUMPI DUP1 PUSH4 0x36568ABE EQ PUSH2 0xD91 JUMPI DUP1 PUSH4 0x4D44AC4F EQ PUSH2 0xC6A JUMPI DUP1 PUSH4 0x69D2D739 EQ PUSH2 0x45B JUMPI DUP1 PUSH4 0x91D14854 EQ PUSH2 0x40F JUMPI DUP1 PUSH4 0xA217FDDF EQ PUSH2 0x3F3 JUMPI DUP1 PUSH4 0xC701C994 EQ PUSH2 0x2AF JUMPI DUP1 PUSH4 0xD547741F EQ PUSH2 0x26E JUMPI DUP1 PUSH4 0xDA6C70E4 EQ PUSH2 0x22A JUMPI DUP1 PUSH4 0xE15AA67E EQ PUSH2 0x10C JUMPI PUSH4 0xFBFA77CF EQ PUSH2 0xC6 JUMPI PUSH1 0x0 DUP1 REVERT JUMPDEST CALLVALUE PUSH2 0x109 JUMPI DUP1 PUSH1 0x3 NOT CALLDATASIZE ADD SLT PUSH2 0x109 JUMPI PUSH1 0x20 PUSH1 0x40 MLOAD PUSH1 0x1 PUSH1 0x1 PUSH1 0xA0 SHL SUB PUSH32 0x0 AND DUP2 MSTORE RETURN JUMPDEST DUP1 REVERT JUMPDEST POP CALLVALUE PUSH2 0x109 JUMPI PUSH1 0x20 DUP1 PUSH1 0x3 NOT CALLDATASIZE ADD SLT PUSH2 0x226 JUMPI PUSH1 0x40 PUSH2 0x100 SWAP3 PUSH1 0x4 CALLDATALOAD DUP2 PUSH1 0xE0 DUP5 MLOAD PUSH2 0x136 DUP2 PUSH2 0xF77 JUMP JUMPDEST DUP3 DUP2 MSTORE DUP3 DUP8 DUP3 ADD MSTORE DUP3 DUP7 DUP3 ADD MSTORE DUP3 PUSH1 0x60 DUP3 ADD MSTORE DUP3 PUSH1 0x80 DUP3 ADD MSTORE DUP3 PUSH1 0xA0 DUP3 ADD MSTORE DUP3 PUSH1 0xC0 DUP3 ADD MSTORE ADD MSTORE DUP1 DUP3 MSTORE PUSH1 0x1 DUP5 MSTORE PUSH2 0x172 DUP4 DUP4 KECCAK256 SLOAD ISZERO ISZERO PUSH2 0x10CC JUMP JUMPDEST DUP2 MSTORE PUSH1 0x1 DUP4 MSTORE KECCAK256 PUSH1 0x40 MLOAD SWAP1 PUSH2 0x186 DUP3 PUSH2 0xF77 JUMP JUMPDEST DUP1 SLOAD SWAP3 DUP4 DUP4 MSTORE PUSH1 0x1 PUSH1 0x1 PUSH1 0xA0 SHL SUB DUP1 PUSH1 0x1 DUP5 ADD SLOAD AND SWAP2 DUP1 DUP6 ADD SWAP3 DUP4 MSTORE PUSH1 0x2 DUP5 ADD SLOAD PUSH1 0x40 DUP7 ADD SWAP1 DUP2 MSTORE PUSH1 0x3 DUP6 ADD SLOAD SWAP2 PUSH1 0x60 DUP8 ADD SWAP3 DUP4 MSTORE PUSH1 0x4 DUP7 ADD SLOAD SWAP4 PUSH1 0x80 DUP9 ADD SWAP5 DUP6 MSTORE PUSH1 0x5 DUP8 ADD SLOAD SWAP6 PUSH1 0xA0 DUP10 ADD SWAP7 DUP8 MSTORE PUSH1 0xE0 PUSH1 0xFF PUSH1 0x7 PUSH1 0x6 DUP12 ADD SLOAD SWAP11 PUSH1 0xC0 DUP14 ADD SWAP12 DUP13 MSTORE ADD SLOAD AND SWAP10 ADD SWAP9 ISZERO ISZERO DUP10 MSTORE PUSH1 0x40 MLOAD SWAP10 DUP11 MSTORE MLOAD AND SWAP1 DUP9 ADD MSTORE MLOAD PUSH1 0x40 DUP8 ADD MSTORE MLOAD PUSH1 0x60 DUP7 ADD MSTORE MLOAD PUSH1 0x80 DUP6 ADD MSTORE MLOAD PUSH1 0xA0 DUP5 ADD MSTORE MLOAD PUSH1 0xC0 DUP4 ADD MSTORE MLOAD ISZERO ISZERO PUSH1 0xE0 DUP3 ADD MSTORE RETURN JUMPDEST POP DUP1 REVERT JUMPDEST POP CALLVALUE PUSH2 0x109 JUMPI DUP1 PUSH1 0x3 NOT CALLDATASIZE ADD SLT PUSH2 0x109 JUMPI PUSH1 0x20 PUSH1 0x40 MLOAD PUSH1 0x1 PUSH1 0x1 PUSH1 0xA0 SHL SUB PUSH32 0x0 AND DUP2 MSTORE RETURN JUMPDEST POP CALLVALUE PUSH2 0x109 JUMPI PUSH1 0x40 CALLDATASIZE PUSH1 0x3 NOT ADD SLT PUSH2 0x109 JUMPI PUSH2 0x2AB PUSH1 0x4 CALLDATALOAD PUSH2 0x28E PUSH2 0xF5C JUMP JUMPDEST SWAP1 DUP1 DUP5 MSTORE DUP4 PUSH1 0x20 MSTORE PUSH2 0x2A6 PUSH1 0x1 PUSH1 0x40 DUP7 KECCAK256 ADD SLOAD PUSH2 0x1117 JUMP JUMPDEST PUSH2 0x11BC JUMP JUMPDEST POP DUP1 RETURN JUMPDEST POP CALLVALUE PUSH2 0x109 JUMPI PUSH1 0x20 DUP1 PUSH1 0x3 NOT CALLDATASIZE ADD SLT PUSH2 0x226 JUMPI PUSH1 0x4 CALLDATALOAD PUSH32 0xE42F0C8616404E22CBA428AC20C22164B434F2EF9F5A62C5C2DBBEACFBA3A0CD DUP1 PUSH1 0x0 MSTORE PUSH1 0x0 DUP4 MSTORE PUSH1 0x40 PUSH1 0x0 KECCAK256 CALLER PUSH1 0x0 MSTORE DUP4 MSTORE PUSH1 0xFF PUSH1 0x40 PUSH1 0x0 KECCAK256 SLOAD AND ISZERO PUSH2 0x3BC JUMPI POP DUP1 DUP4 MSTORE PUSH1 0x1 DUP3 MSTORE PUSH1 0x40 DUP4 KECCAK256 SWAP2 PUSH2 0x320 DUP4 SLOAD ISZERO ISZERO PUSH2 0x10CC JUMP JUMPDEST PUSH1 0x7 DUP4 ADD DUP1 SLOAD PUSH1 0xFF DUP2 AND PUSH2 0x378 JUMPI SWAP1 PUSH1 0x1 PUSH32 0x1846422A9F37947CDE9565D3F252FFB0BABB8E1F20A0EE77B13E9DCBFD1876DF SWAP4 SWAP3 PUSH1 0xFF NOT AND OR SWAP1 SSTORE PUSH1 0x5 PUSH1 0x1 PUSH1 0x1 PUSH1 0xA0 SHL SUB PUSH1 0x1 DUP7 ADD SLOAD AND SWAP5 ADD SLOAD PUSH1 0x40 MLOAD SWAP1 DUP2 MSTORE LOG3 DUP1 RETURN JUMPDEST PUSH1 0x64 DUP4 PUSH1 0x40 MLOAD SWAP1 PUSH3 0x461BCD PUSH1 0xE5 SHL DUP3 MSTORE PUSH1 0x4 DUP3 ADD MSTORE PUSH1 0xE PUSH1 0x24 DUP3 ADD MSTORE PUSH32 0x416C726561647920726570616964000000000000000000000000000000000000 PUSH1 0x44 DUP3 ADD MSTORE REVERT JUMPDEST PUSH1 0x44 SWAP1 PUSH1 0x40 MLOAD SWAP1 PUSH32 0xE2517D3F00000000000000000000000000000000000000000000000000000000 DUP3 MSTORE CALLER PUSH1 0x4 DUP4 ADD MSTORE PUSH1 0x24 DUP3 ADD MSTORE REVERT JUMPDEST POP CALLVALUE PUSH2 0x109 JUMPI DUP1 PUSH1 0x3 NOT CALLDATASIZE ADD SLT PUSH2 0x109 JUMPI PUSH1 0x20 SWAP1 PUSH1 0x40 MLOAD SWAP1 DUP2 MSTORE RETURN JUMPDEST POP CALLVALUE PUSH2 0x109 JUMPI PUSH1 0x40 CALLDATASIZE PUSH1 0x3 NOT ADD SLT PUSH2 0x109 JUMPI PUSH1 0x1 PUSH1 0x1 PUSH1 0xA0 SHL SUB PUSH1 0x40 PUSH2 0x433 PUSH2 0xF5C JUMP JUMPDEST SWAP3 PUSH1 0x4 CALLDATALOAD DUP2 MSTORE DUP1 PUSH1 0x20 MSTORE KECCAK256 SWAP2 AND PUSH1 0x0 MSTORE PUSH1 0x20 MSTORE PUSH1 0x20 PUSH1 0xFF PUSH1 0x40 PUSH1 0x0 KECCAK256 SLOAD AND PUSH1 0x40 MLOAD SWAP1 ISZERO ISZERO DUP2 MSTORE RETURN JUMPDEST POP CALLVALUE PUSH2 0x109 JUMPI PUSH1 0x60 CALLDATASIZE PUSH1 0x3 NOT ADD SLT PUSH2 0x109 JUMPI PUSH1 0x24 CALLDATALOAD PUSH1 0x44 CALLDATALOAD DUP2 ISZERO ISZERO DUP1 PUSH2 0xC5E JUMPI JUMPDEST ISZERO PUSH2 0xC1A JUMPI DUP1 ISZERO ISZERO DUP1 PUSH2 0xC0E JUMPI JUMPDEST ISZERO PUSH2 0xBCA JUMPI PUSH1 0x40 MLOAD SWAP2 PUSH32 0x3A23CC0A00000000000000000000000000000000000000000000000000000000 DUP4 MSTORE PUSH1 0x4 CALLDATALOAD PUSH1 0x4 DUP5 ADD MSTORE PUSH2 0x140 DUP1 DUP5 PUSH1 0x24 DUP2 PUSH1 0x1 PUSH1 0x1 PUSH1 0xA0 SHL SUB PUSH32 0x0 AND GAS STATICCALL SWAP4 DUP5 ISZERO PUSH2 0x939 JUMPI DUP6 SWAP5 PUSH2 0xAF3 JUMPI JUMPDEST POP POP PUSH1 0x1 PUSH1 0x1 PUSH1 0xA0 SHL SUB PUSH1 0x20 DUP5 ADD MLOAD AND CALLER SUB PUSH2 0xAAF JUMPI PUSH1 0xA0 DUP4 ADD MLOAD PUSH1 0x4 DUP2 LT ISZERO PUSH2 0xA9B JUMPI PUSH2 0xA57 JUMPI PUSH2 0x539 PUSH2 0x2710 SWAP2 PUSH1 0x60 DUP6 ADD MLOAD PUSH2 0x10AC JUMP JUMPDEST DIV SWAP2 DUP3 ISZERO PUSH2 0xA13 JUMPI PUSH1 0x80 ADD MLOAD PUSH3 0x37B1D0 SWAP2 PUSH2 0x576 SWAP2 TIMESTAMP DUP2 GT ISZERO PUSH2 0xA08 JUMPI PUSH3 0x15180 PUSH2 0x568 PUSH2 0x571 SWAP3 TIMESTAMP SWAP1 PUSH2 0x10BF JUMP JUMPDEST DIV SWAP2 JUMPDEST DUP6 PUSH2 0x10AC JUMP JUMPDEST PUSH2 0x10AC JUMP JUMPDEST DIV PUSH2 0x581 DUP2 DUP4 PUSH2 0x1075 JUMP JUMPDEST PUSH1 0x40 MLOAD PUSH32 0x35C7E92500000000000000000000000000000000000000000000000000000000 DUP2 MSTORE PUSH1 0x20 DUP2 PUSH1 0x4 DUP2 PUSH1 0x1 PUSH1 0x1 PUSH1 0xA0 SHL SUB PUSH32 0x0 AND GAS STATICCALL SWAP1 DUP2 ISZERO PUSH2 0x939 JUMPI DUP6 SWAP2 PUSH2 0x9D2 JUMPI JUMPDEST POP PUSH1 0x40 MLOAD PUSH32 0x307C4A100000000000000000000000000000000000000000000000000000000 DUP2 MSTORE PUSH1 0x20 DUP2 PUSH1 0x4 DUP2 PUSH1 0x1 PUSH1 0x1 PUSH1 0xA0 SHL SUB PUSH32 0x0 AND GAS STATICCALL DUP1 ISZERO PUSH2 0x9C7 JUMPI DUP6 SWAP2 DUP8 SWAP2 PUSH2 0x98C JUMPI JUMPDEST POP PUSH2 0x65A SWAP2 SWAP3 PUSH2 0x10BF JUMP JUMPDEST LT PUSH2 0x948 JUMPI PUSH1 0x1 PUSH1 0x1 PUSH1 0xA0 SHL SUB PUSH32 0x0 AND EXTCODESIZE ISZERO PUSH2 0x944 JUMPI PUSH1 0x40 MLOAD PUSH32 0xC5EBEAEC00000000000000000000000000000000000000000000000000000000 DUP2 MSTORE DUP4 PUSH1 0x4 DUP3 ADD MSTORE DUP5 DUP2 PUSH1 0x24 DUP2 DUP4 PUSH1 0x1 PUSH1 0x1 PUSH1 0xA0 SHL SUB PUSH32 0x0 AND GAS CALL DUP1 ISZERO PUSH2 0x939 JUMPI PUSH2 0x926 JUMPI JUMPDEST POP PUSH1 0x7 PUSH1 0x40 MLOAD PUSH2 0x707 DUP2 PUSH2 0xF77 JUMP JUMPDEST PUSH1 0x4 CALLDATALOAD DUP2 MSTORE PUSH1 0x20 DUP2 ADD SWAP3 CALLER DUP5 MSTORE PUSH1 0x40 DUP3 ADD SWAP1 DUP7 DUP3 MSTORE PUSH1 0x60 DUP4 ADD DUP8 DUP2 MSTORE PUSH1 0x80 DUP5 ADD SWAP1 DUP8 DUP3 MSTORE PUSH1 0xA0 DUP6 ADD SWAP3 DUP4 MSTORE PUSH1 0xC0 DUP6 ADD SWAP4 TIMESTAMP DUP6 MSTORE PUSH1 0xE0 DUP7 ADD SWAP8 DUP12 DUP10 MSTORE PUSH1 0x4 CALLDATALOAD DUP13 MSTORE PUSH1 0x1 PUSH1 0x20 MSTORE PUSH1 0x40 DUP13 KECCAK256 SWAP7 MLOAD DUP8 SSTORE PUSH1 0x1 PUSH1 0x1 PUSH1 0xA0 SHL SUB PUSH1 0x1 DUP9 ADD SWAP2 MLOAD AND PUSH32 0xFFFFFFFFFFFFFFFFFFFFFFFF0000000000000000000000000000000000000000 DUP3 SLOAD AND OR SWAP1 SSTORE MLOAD PUSH1 0x2 DUP7 ADD SSTORE MLOAD PUSH1 0x3 DUP6 ADD SSTORE MLOAD PUSH1 0x4 DUP5 ADD SSTORE MLOAD PUSH1 0x5 DUP4 ADD SSTORE MLOAD PUSH1 0x6 DUP3 ADD SSTORE ADD SWAP1 MLOAD ISZERO ISZERO PUSH1 0xFF DUP1 NOT DUP4 SLOAD AND SWAP2 AND OR SWAP1 SSTORE CALLER DUP4 MSTORE PUSH1 0x2 PUSH1 0x20 MSTORE PUSH1 0x40 DUP4 KECCAK256 DUP1 SLOAD SWAP1 PUSH9 0x10000000000000000 DUP3 LT ISZERO PUSH2 0x912 JUMPI PUSH1 0x1 DUP3 ADD DUP1 DUP3 SSTORE DUP3 LT ISZERO PUSH2 0x8FE JUMPI DUP5 MSTORE PUSH1 0x4 CALLDATALOAD SWAP1 PUSH1 0x20 DUP6 KECCAK256 ADD SSTORE PUSH1 0x1 PUSH1 0x1 PUSH1 0xA0 SHL SUB PUSH32 0x0 AND EXTCODESIZE ISZERO PUSH2 0x8EF JUMPI PUSH1 0x40 MLOAD PUSH32 0xB9AB755200000000000000000000000000000000000000000000000000000000 DUP2 MSTORE PUSH1 0x4 CALLDATALOAD PUSH1 0x4 DUP3 ADD MSTORE DUP3 PUSH1 0x24 DUP3 ADD MSTORE DUP4 DUP2 PUSH1 0x44 DUP2 DUP4 PUSH1 0x1 PUSH1 0x1 PUSH1 0xA0 SHL SUB PUSH32 0x0 AND GAS CALL DUP1 ISZERO PUSH2 0x8F3 JUMPI PUSH2 0x8DB JUMPI JUMPDEST PUSH1 0x20 DUP4 DUP4 PUSH1 0x40 MLOAD SWAP1 DUP3 DUP3 MSTORE DUP3 DUP5 DUP4 ADD MSTORE PUSH1 0x40 DUP3 ADD MSTORE CALLER SWAP1 PUSH32 0x55DED1156B969F08B4C4803D5B53E9865098181388841471CA44BF7E60F69B1D PUSH1 0x60 PUSH1 0x4 CALLDATALOAD SWAP3 LOG3 PUSH1 0x40 MLOAD SWAP1 DUP2 MSTORE RETURN JUMPDEST PUSH2 0x8E5 DUP5 SWAP2 PUSH2 0xFAA JUMP JUMPDEST PUSH2 0x8EF JUMPI DUP3 PUSH2 0x894 JUMP JUMPDEST DUP3 DUP1 REVERT JUMPDEST PUSH1 0x40 MLOAD RETURNDATASIZE DUP7 DUP3 RETURNDATACOPY RETURNDATASIZE SWAP1 REVERT JUMPDEST PUSH1 0x24 DUP6 PUSH4 0x4E487B71 PUSH1 0xE0 SHL DUP2 MSTORE PUSH1 0x32 PUSH1 0x4 MSTORE REVERT JUMPDEST PUSH1 0x24 DUP6 PUSH4 0x4E487B71 PUSH1 0xE0 SHL DUP2 MSTORE PUSH1 0x41 PUSH1 0x4 MSTORE REVERT JUMPDEST PUSH2 0x932 SWAP1 SWAP5 SWAP2 SWAP5 PUSH2 0xFAA JUMP JUMPDEST SWAP3 CODESIZE PUSH2 0x6F8 JUMP JUMPDEST PUSH1 0x40 MLOAD RETURNDATASIZE DUP8 DUP3 RETURNDATACOPY RETURNDATASIZE SWAP1 REVERT JUMPDEST DUP4 DUP1 REVERT JUMPDEST PUSH1 0x64 PUSH1 0x40 MLOAD PUSH3 0x461BCD PUSH1 0xE5 SHL DUP2 MSTORE PUSH1 0x20 PUSH1 0x4 DUP3 ADD MSTORE PUSH1 0x1C PUSH1 0x24 DUP3 ADD MSTORE PUSH32 0x496E73756666696369656E74207661756C74206C697175696469747900000000 PUSH1 0x44 DUP3 ADD MSTORE REVERT JUMPDEST SWAP2 POP POP PUSH1 0x20 DUP2 RETURNDATASIZE PUSH1 0x20 GT PUSH2 0x9BF JUMPI JUMPDEST DUP2 PUSH2 0x9A8 PUSH1 0x20 SWAP4 DUP4 PUSH2 0xFBE JUMP JUMPDEST DUP2 ADD SUB SLT PUSH2 0x9BB JUMPI MLOAD DUP5 SWAP1 PUSH2 0x65A PUSH2 0x64F JUMP JUMPDEST DUP6 DUP1 REVERT JUMPDEST RETURNDATASIZE SWAP2 POP PUSH2 0x99B JUMP JUMPDEST PUSH1 0x40 MLOAD RETURNDATASIZE DUP9 DUP3 RETURNDATACOPY RETURNDATASIZE SWAP1 REVERT JUMPDEST SWAP1 POP PUSH1 0x20 DUP2 RETURNDATASIZE PUSH1 0x20 GT PUSH2 0xA00 JUMPI JUMPDEST DUP2 PUSH2 0x9ED PUSH1 0x20 SWAP4 DUP4 PUSH2 0xFBE JUMP JUMPDEST DUP2 ADD SUB SLT PUSH2 0x9FC JUMPI MLOAD CODESIZE PUSH2 0x5E7 JUMP JUMPDEST DUP5 DUP1 REVERT JUMPDEST RETURNDATASIZE SWAP2 POP PUSH2 0x9E0 JUMP JUMPDEST POP PUSH2 0x571 DUP6 SWAP2 PUSH2 0x56B JUMP JUMPDEST PUSH1 0x64 PUSH1 0x40 MLOAD PUSH3 0x461BCD PUSH1 0xE5 SHL DUP2 MSTORE PUSH1 0x20 PUSH1 0x4 DUP3 ADD MSTORE PUSH1 0x11 PUSH1 0x24 DUP3 ADD MSTORE PUSH32 0x416476616E636520746F6F20736D616C6C000000000000000000000000000000 PUSH1 0x44 DUP3 ADD MSTORE REVERT JUMPDEST PUSH1 0x64 PUSH1 0x40 MLOAD PUSH3 0x461BCD PUSH1 0xE5 SHL DUP2 MSTORE PUSH1 0x20 PUSH1 0x4 DUP3 ADD MSTORE PUSH1 0xE PUSH1 0x24 DUP3 ADD MSTORE PUSH32 0x496E76616C696420737461747573000000000000000000000000000000000000 PUSH1 0x44 DUP3 ADD MSTORE REVERT JUMPDEST PUSH1 0x24 DUP6 PUSH4 0x4E487B71 PUSH1 0xE0 SHL DUP2 MSTORE PUSH1 0x21 PUSH1 0x4 MSTORE REVERT JUMPDEST PUSH1 0x64 PUSH1 0x40 MLOAD PUSH3 0x461BCD PUSH1 0xE5 SHL DUP2 MSTORE PUSH1 0x20 PUSH1 0x4 DUP3 ADD MSTORE PUSH1 0x12 PUSH1 0x24 DUP3 ADD MSTORE PUSH32 0x4E6F7420696E766F6963652073656C6C65720000000000000000000000000000 PUSH1 0x44 DUP3 ADD MSTORE REVERT JUMPDEST SWAP1 DUP1 SWAP3 SWAP5 POP DUP2 DUP2 RETURNDATASIZE DUP4 GT PUSH2 0xBC3 JUMPI JUMPDEST PUSH2 0xB0C DUP2 DUP4 PUSH2 0xFBE JUMP JUMPDEST DUP2 ADD SUB SLT PUSH2 0x9FC JUMPI PUSH1 0x40 MLOAD SWAP2 DUP3 ADD DUP3 DUP2 LT PUSH8 0xFFFFFFFFFFFFFFFF DUP3 GT OR PUSH2 0xBAF JUMPI PUSH1 0x40 MSTORE DUP1 MLOAD DUP3 MSTORE PUSH2 0xB40 PUSH1 0x20 DUP3 ADD PUSH2 0x1098 JUMP JUMPDEST PUSH1 0x20 DUP4 ADD MSTORE PUSH2 0xB51 PUSH1 0x40 DUP3 ADD PUSH2 0x1098 JUMP JUMPDEST PUSH1 0x40 DUP4 ADD MSTORE PUSH1 0x60 DUP2 ADD MLOAD PUSH1 0x60 DUP4 ADD MSTORE PUSH1 0x80 DUP2 ADD MLOAD PUSH1 0x80 DUP4 ADD MSTORE PUSH1 0xA0 DUP2 ADD MLOAD PUSH1 0x4 DUP2 LT ISZERO PUSH2 0x9BB JUMPI PUSH1 0xA0 DUP4 ADD MSTORE PUSH1 0xC0 DUP2 ADD MLOAD PUSH1 0xC0 DUP4 ADD MSTORE PUSH1 0xE0 DUP2 ADD MLOAD PUSH1 0xE0 DUP4 ADD MSTORE PUSH2 0x100 DUP1 DUP3 ADD MLOAD SWAP1 DUP4 ADD MSTORE PUSH2 0x120 DUP1 SWAP2 ADD MLOAD SWAP1 DUP3 ADD MSTORE SWAP2 CODESIZE DUP1 PUSH2 0x500 JUMP JUMPDEST PUSH1 0x24 DUP7 PUSH4 0x4E487B71 PUSH1 0xE0 SHL DUP2 MSTORE PUSH1 0x41 PUSH1 0x4 MSTORE REVERT JUMPDEST POP RETURNDATASIZE PUSH2 0xB02 JUMP JUMPDEST PUSH1 0x64 PUSH1 0x40 MLOAD PUSH3 0x461BCD PUSH1 0xE5 SHL DUP2 MSTORE PUSH1 0x20 PUSH1 0x4 DUP3 ADD MSTORE PUSH1 0xB PUSH1 0x24 DUP3 ADD MSTORE PUSH32 0x496E76616C696420415052000000000000000000000000000000000000000000 PUSH1 0x44 DUP3 ADD MSTORE REVERT JUMPDEST POP PUSH2 0x1388 DUP2 GT ISZERO PUSH2 0x48A JUMP JUMPDEST PUSH1 0x64 PUSH1 0x40 MLOAD PUSH3 0x461BCD PUSH1 0xE5 SHL DUP2 MSTORE PUSH1 0x20 PUSH1 0x4 DUP3 ADD MSTORE PUSH1 0xB PUSH1 0x24 DUP3 ADD MSTORE PUSH32 0x496E76616C6964204C5456000000000000000000000000000000000000000000 PUSH1 0x44 DUP3 ADD MSTORE REVERT JUMPDEST POP PUSH2 0x2710 DUP3 GT ISZERO PUSH2 0x47C JUMP JUMPDEST POP CALLVALUE PUSH2 0x109 JUMPI PUSH1 0x20 SWAP1 DUP2 PUSH1 0x3 NOT CALLDATASIZE ADD SLT PUSH2 0x109 JUMPI PUSH1 0x4 CALLDATALOAD SWAP1 PUSH1 0x1 PUSH1 0x1 PUSH1 0xA0 SHL SUB SWAP2 DUP3 DUP2 AND DUP1 SWAP2 SUB PUSH2 0x226 JUMPI DUP2 MSTORE PUSH1 0x2 SWAP2 PUSH1 0x2 DUP5 MSTORE PUSH1 0x40 DUP3 KECCAK256 SWAP2 PUSH1 0x40 MLOAD DUP1 DUP5 DUP8 DUP3 SWAP7 SLOAD SWAP4 DUP5 DUP2 MSTORE ADD SWAP1 DUP5 MSTORE DUP8 DUP5 KECCAK256 SWAP3 DUP5 JUMPDEST DUP10 DUP3 DUP3 LT PUSH2 0xD7B JUMPI POP POP POP PUSH2 0xCD1 SWAP3 POP SUB DUP5 PUSH2 0xFBE JUMP JUMPDEST DUP1 SWAP3 DUP2 JUMPDEST DUP2 MLOAD DUP2 LT ISZERO PUSH2 0xD71 JUMPI PUSH1 0x5 DUP8 DUP3 DUP3 SHL DUP5 ADD ADD MLOAD DUP5 MSTORE PUSH1 0x1 DUP1 DUP10 MSTORE PUSH1 0xFF PUSH1 0x7 PUSH1 0x40 DUP8 KECCAK256 SWAP4 DUP9 PUSH1 0x40 MLOAD SWAP5 PUSH2 0xD06 DUP7 PUSH2 0xF77 JUMP JUMPDEST DUP7 SLOAD DUP7 MSTORE DUP7 ADD SLOAD AND DUP13 DUP6 ADD MSTORE DUP11 DUP6 ADD SLOAD PUSH1 0x40 DUP6 ADD MSTORE PUSH1 0x3 DUP6 ADD SLOAD PUSH1 0x60 DUP6 ADD MSTORE PUSH1 0x4 DUP6 ADD SLOAD PUSH1 0x80 DUP6 ADD MSTORE DUP5 ADD SLOAD SWAP4 DUP5 PUSH1 0xA0 DUP6 ADD MSTORE PUSH1 0x6 DUP2 ADD SLOAD PUSH1 0xC0 DUP6 ADD MSTORE ADD SLOAD AND ISZERO SWAP1 PUSH1 0xE0 DUP3 ISZERO SWAP2 ADD MSTORE PUSH2 0xD5D JUMPI JUMPDEST POP PUSH1 0x1 ADD PUSH2 0xCD5 JUMP JUMPDEST PUSH2 0xD6A SWAP1 PUSH1 0x1 SWAP3 SWAP7 PUSH2 0x1075 JUMP JUMPDEST SWAP5 SWAP1 PUSH2 0xD54 JUMP JUMPDEST DUP7 DUP6 PUSH1 0x40 MLOAD SWAP1 DUP2 MSTORE RETURN JUMPDEST DUP6 SLOAD DUP5 MSTORE PUSH1 0x1 SWAP6 DUP7 ADD SWAP6 DUP10 SWAP6 POP SWAP4 ADD SWAP3 ADD PUSH2 0xCBA JUMP JUMPDEST POP CALLVALUE PUSH2 0x109 JUMPI PUSH1 0x40 CALLDATASIZE PUSH1 0x3 NOT ADD SLT PUSH2 0x109 JUMPI PUSH2 0xDAB PUSH2 0xF5C JUMP JUMPDEST CALLER PUSH1 0x1 PUSH1 0x1 PUSH1 0xA0 SHL SUB DUP3 AND SUB PUSH2 0xDC7 JUMPI PUSH2 0x2AB SWAP1 PUSH1 0x4 CALLDATALOAD PUSH2 0x11BC JUMP JUMPDEST PUSH1 0x4 PUSH1 0x40 MLOAD PUSH32 0x6697B23200000000000000000000000000000000000000000000000000000000 DUP2 MSTORE REVERT JUMPDEST POP CALLVALUE PUSH2 0x109 JUMPI PUSH1 0x40 CALLDATASIZE PUSH1 0x3 NOT ADD SLT PUSH2 0x109 JUMPI PUSH2 0x2AB PUSH1 0x4 CALLDATALOAD PUSH2 0xE11 PUSH2 0xF5C JUMP JUMPDEST SWAP1 DUP1 DUP5 MSTORE DUP4 PUSH1 0x20 MSTORE PUSH2 0xE29 PUSH1 0x1 PUSH1 0x40 DUP7 KECCAK256 ADD SLOAD PUSH2 0x1117 JUMP JUMPDEST PUSH2 0x113D JUMP JUMPDEST POP CALLVALUE PUSH2 0x109 JUMPI PUSH1 0x20 CALLDATASIZE PUSH1 0x3 NOT ADD SLT PUSH2 0x109 JUMPI PUSH1 0x1 PUSH1 0x40 PUSH1 0x20 SWAP3 PUSH1 0x4 CALLDATALOAD DUP2 MSTORE DUP1 DUP5 MSTORE KECCAK256 ADD SLOAD PUSH1 0x40 MLOAD SWAP1 DUP2 MSTORE RETURN JUMPDEST POP CALLVALUE PUSH2 0x109 JUMPI PUSH1 0x20 CALLDATASIZE PUSH1 0x3 NOT ADD SLT PUSH2 0x109 JUMPI PUSH1 0x20 PUSH2 0xE79 PUSH1 0x4 CALLDATALOAD PUSH2 0xFE0 JUMP JUMPDEST PUSH1 0x40 MLOAD SWAP1 DUP2 MSTORE RETURN JUMPDEST POP CALLVALUE PUSH2 0x109 JUMPI DUP1 PUSH1 0x3 NOT CALLDATASIZE ADD SLT PUSH2 0x109 JUMPI PUSH1 0x20 PUSH1 0x40 MLOAD PUSH32 0xE42F0C8616404E22CBA428AC20C22164B434F2EF9F5A62C5C2DBBEACFBA3A0CD DUP2 MSTORE RETURN JUMPDEST SWAP1 POP CALLVALUE PUSH2 0x226 JUMPI PUSH1 0x20 CALLDATASIZE PUSH1 0x3 NOT ADD SLT PUSH2 0x226 JUMPI PUSH1 0x4 CALLDATALOAD PUSH32 0xFFFFFFFF00000000000000000000000000000000000000000000000000000000 DUP2 AND DUP1 SWAP2 SUB PUSH2 0x8EF JUMPI PUSH1 0x20 SWAP3 POP PUSH32 0x7965DB0B00000000000000000000000000000000000000000000000000000000 DUP2 EQ SWAP1 DUP2 ISZERO PUSH2 0xF32 JUMPI JUMPDEST POP ISZERO ISZERO DUP2 MSTORE RETURN JUMPDEST PUSH32 0x1FFC9A700000000000000000000000000000000000000000000000000000000 SWAP2 POP EQ CODESIZE PUSH2 0xF2B JUMP JUMPDEST PUSH1 0x24 CALLDATALOAD SWAP1 PUSH1 0x1 PUSH1 0x1 PUSH1 0xA0 SHL SUB DUP3 AND DUP3 SUB PUSH2 0xF72 JUMPI JUMP JUMPDEST PUSH1 0x0 DUP1 REVERT JUMPDEST PUSH2 0x100 DUP2 ADD SWAP1 DUP2 LT PUSH8 0xFFFFFFFFFFFFFFFF DUP3 GT OR PUSH2 0xF94 JUMPI PUSH1 0x40 MSTORE JUMP JUMPDEST PUSH4 0x4E487B71 PUSH1 0xE0 SHL PUSH1 0x0 MSTORE PUSH1 0x41 PUSH1 0x4 MSTORE PUSH1 0x24 PUSH1 0x0 REVERT JUMPDEST PUSH8 0xFFFFFFFFFFFFFFFF DUP2 GT PUSH2 0xF94 JUMPI PUSH1 0x40 MSTORE JUMP JUMPDEST SWAP1 PUSH1 0x1F DUP1 NOT SWAP2 ADD AND DUP2 ADD SWAP1 DUP2 LT PUSH8 0xFFFFFFFFFFFFFFFF DUP3 GT OR PUSH2 0xF94 JUMPI PUSH1 0x40 MSTORE JUMP JUMPDEST PUSH1 0x0 MSTORE PUSH1 0x1 PUSH1 0x20 MSTORE PUSH1 0x40 PUSH1 0x0 KECCAK256 PUSH1 0xE0 PUSH1 0x40 MLOAD PUSH2 0xFFB DUP2 PUSH2 0xF77 JUMP JUMPDEST DUP3 SLOAD SWAP1 DUP2 DUP2 MSTORE PUSH1 0x1 PUSH1 0x1 PUSH1 0xA0 SHL SUB PUSH1 0x1 DUP6 ADD SLOAD AND PUSH1 0x20 DUP3 ADD MSTORE PUSH1 0x2 DUP5 ADD SLOAD PUSH1 0x40 DUP3 ADD MSTORE PUSH1 0x3 DUP5 ADD SLOAD PUSH1 0x60 DUP3 ADD MSTORE PUSH1 0x4 DUP5 ADD SLOAD PUSH1 0x80 DUP3 ADD MSTORE PUSH1 0xFF PUSH1 0x7 PUSH1 0x5 DUP7 ADD SLOAD SWAP6 DUP7 PUSH1 0xA0 DUP6 ADD MSTORE PUSH1 0x6 DUP2 ADD SLOAD PUSH1 0xC0 DUP6 ADD MSTORE ADD SLOAD AND ISZERO ISZERO SWAP3 DUP4 SWAP2 ADD MSTORE ISZERO SWAP1 DUP2 ISZERO PUSH2 0x106D JUMPI JUMPDEST POP PUSH2 0x1067 JUMPI SWAP1 JUMP JUMPDEST POP PUSH1 0x0 SWAP1 JUMP JUMPDEST SWAP1 POP CODESIZE PUSH2 0x105F JUMP JUMPDEST SWAP2 SWAP1 DUP3 ADD DUP1 SWAP3 GT PUSH2 0x1082 JUMPI JUMP JUMPDEST PUSH4 0x4E487B71 PUSH1 0xE0 SHL PUSH1 0x0 MSTORE PUSH1 0x11 PUSH1 0x4 MSTORE PUSH1 0x24 PUSH1 0x0 REVERT JUMPDEST MLOAD SWAP1 PUSH1 0x1 PUSH1 0x1 PUSH1 0xA0 SHL SUB DUP3 AND DUP3 SUB PUSH2 0xF72 JUMPI JUMP JUMPDEST DUP2 DUP2 MUL SWAP3 SWAP2 DUP2 ISZERO SWAP2 DUP5 DIV EQ OR ISZERO PUSH2 0x1082 JUMPI JUMP JUMPDEST SWAP2 SWAP1 DUP3 SUB SWAP2 DUP3 GT PUSH2 0x1082 JUMPI JUMP JUMPDEST ISZERO PUSH2 0x10D3 JUMPI JUMP JUMPDEST PUSH1 0x64 PUSH1 0x40 MLOAD PUSH3 0x461BCD PUSH1 0xE5 SHL DUP2 MSTORE PUSH1 0x20 PUSH1 0x4 DUP3 ADD MSTORE PUSH1 0x11 PUSH1 0x24 DUP3 ADD MSTORE PUSH32 0x416476616E6365206E6F7420666F756E64000000000000000000000000000000 PUSH1 0x44 DUP3 ADD MSTORE REVERT JUMPDEST DUP1 PUSH1 0x0 MSTORE PUSH1 0x0 PUSH1 0x20 MSTORE PUSH1 0x40 PUSH1 0x0 KECCAK256 CALLER PUSH1 0x0 MSTORE PUSH1 0x20 MSTORE PUSH1 0xFF PUSH1 0x40 PUSH1 0x0 KECCAK256 SLOAD AND ISZERO PUSH2 0x3BC JUMPI POP JUMP JUMPDEST SWAP1 PUSH1 0x0 SWAP2 DUP1 DUP4 MSTORE DUP3 PUSH1 0x20 MSTORE PUSH1 0x1 PUSH1 0x1 PUSH1 0xA0 SHL SUB PUSH1 0x40 DUP5 KECCAK256 SWAP3 AND SWAP2 DUP3 DUP5 MSTORE PUSH1 0x20 MSTORE PUSH1 0xFF PUSH1 0x40 DUP5 KECCAK256 SLOAD AND ISZERO PUSH1 0x0 EQ PUSH2 0x11B7 JUMPI DUP1 DUP4 MSTORE DUP3 PUSH1 0x20 MSTORE PUSH1 0x40 DUP4 KECCAK256 DUP3 DUP5 MSTORE PUSH1 0x20 MSTORE PUSH1 0x40 DUP4 KECCAK256 PUSH1 0x1 PUSH1 0xFF NOT DUP3 SLOAD AND OR SWAP1 SSTORE PUSH32 0x2F8788117E7EFF1D82E926EC794901D17C78024A50270940304540A733656F0D CALLER SWAP4 DUP1 LOG4 PUSH1 0x1 SWAP1 JUMP JUMPDEST POP POP SWAP1 JUMP JUMPDEST SWAP1 PUSH1 0x0 SWAP2 DUP1 DUP4 MSTORE DUP3 PUSH1 0x20 MSTORE PUSH1 0x1 PUSH1 0x1 PUSH1 0xA0 SHL SUB PUSH1 0x40 DUP5 KECCAK256 SWAP3 AND SWAP2 DUP3 DUP5 MSTORE PUSH1 0x20 MSTORE PUSH1 0xFF PUSH1 0x40 DUP5 KECCAK256 SLOAD AND PUSH1 0x0 EQ PUSH2 0x11B7 JUMPI DUP1 DUP4 MSTORE DUP3 PUSH1 0x20 MSTORE PUSH1 0x40 DUP4 KECCAK256 DUP3 DUP5 MSTORE PUSH1 0x20 MSTORE PUSH1 0x40 DUP4 KECCAK256 PUSH1 0xFF NOT DUP2 SLOAD AND SWAP1 SSTORE PUSH32 0xF6391F5C32D9C69D2A47EA670B442974B53935D1EDC7FD64EB21E047A839171B CALLER SWAP4 DUP1 LOG4 PUSH1 0x1 SWAP1 JUMP INVALID LOG2 PUSH5 0x6970667358 0x22 SLT KECCAK256 OR 0xE0 BYTE 0xEF MSTORE DUP12 POP OR JUMPI PC SWAP3 0xEE 0xD3 DUP10 PUSH29 0xD8D53631A7CF58F522FC11CCD904BD9F3264736F6C6343000818003300 "},"methodIdentifiers":{"DEFAULT_ADMIN_ROLE()":"a217fddf","SETTLEMENT_ROUTER_ROLE()":"13d6b15d","getAdvance(uint256)":"e15aa67e","getRepaymentAmount(uint256)":"2210532b","getRoleAdmin(bytes32)":"248a9ca3","getTotalDebt(address)":"4d44ac4f","grantRole(bytes32,address)":"2f2ff15d","hasRole(bytes32,address)":"91d14854","invoiceRegistry()":"da6c70e4","markRepaid(uint256)":"c701c994","renounceRole(bytes32,address)":"36568abe","requestAdvance(uint256,uint256,uint256)":"69d2d739","revokeRole(bytes32,address)":"d547741f","supportsInterface(bytes4)":"01ffc9a7","vault()":"fbfa77cf"}}}}}