{"contracts/Vault.sol":{"Vault":{"abi":[{"inputs":[{"internalType":"address","name":"_token","type":"address"},{"internalType":"address","name":"_usmtPlus","type":"address"},{"internalType":"address","name":"defaultAdmin","type":"address"}],"stateMutability":"nonpayable","type":"constructor"},{"inputs":[],"name":"AccessControlBadConfirmation","type":"error"},{"inputs":[{"internalType":"address","name":"account","type":"address"},{"internalType":"bytes32","name":"neededRole","type":"bytes32"}],"name":"AccessControlUnauthorizedAccount","type":"error"},{"inputs":[{"internalType":"address","name":"token","type":"address"}],"name":"SafeERC20FailedOperation","type":"error"},{"anonymous":false,"inputs":[{"indexed":true,"internalType":"address","name":"borrower","type":"address"},{"indexed":false,"internalType":"uint256","name":"amount","type":"uint256"}],"name":"Borrow","type":"event"},{"anonymous":false,"inputs":[{"indexed":true,"internalType":"address","name":"user","type":"address"},{"indexed":false,"internalType":"uint256","name":"amount","type":"uint256"},{"indexed":false,"internalType":"uint256","name":"shares","type":"uint256"}],"name":"Deposit","type":"event"},{"anonymous":false,"inputs":[{"indexed":true,"internalType":"address","name":"borrower","type":"address"},{"indexed":false,"internalType":"uint256","name":"amount","type":"uint256"}],"name":"Repay","type":"event"},{"anonymous":false,"inputs":[{"indexed":true,"internalType":"bytes32","name":"role","type":"bytes32"},{"indexed":true,"internalType":"bytes32","name":"previousAdminRole","type":"bytes32"},{"indexed":true,"internalType":"bytes32","name":"newAdminRole","type":"bytes32"}],"name":"RoleAdminChanged","type":"event"},{"anonymous":false,"inputs":[{"indexed":true,"internalType":"bytes32","name":"role","type":"bytes32"},{"indexed":true,"internalType":"address","name":"account","type":"address"},{"indexed":true,"internalType":"address","name":"sender","type":"address"}],"name":"RoleGranted","type":"event"},{"anonymous":false,"inputs":[{"indexed":true,"internalType":"bytes32","name":"role","type":"bytes32"},{"indexed":true,"internalType":"address","name":"account","type":"address"},{"indexed":true,"internalType":"address","name":"sender","type":"address"}],"name":"RoleRevoked","type":"event"},{"anonymous":false,"inputs":[{"indexed":true,"internalType":"address","name":"user","type":"address"},{"indexed":false,"internalType":"uint256","name":"shares","type":"uint256"},{"indexed":false,"internalType":"uint256","name":"amount","type":"uint256"}],"name":"Withdraw","type":"event"},{"inputs":[],"name":"BORROWER_ROLE","outputs":[{"internalType":"bytes32","name":"","type":"bytes32"}],"stateMutability":"view","type":"function"},{"inputs":[],"name":"DEFAULT_ADMIN_ROLE","outputs":[{"internalType":"bytes32","name":"","type":"bytes32"}],"stateMutability":"view","type":"function"},{"inputs":[{"internalType":"uint256","name":"amount","type":"uint256"}],"name":"borrow","outputs":[],"stateMutability":"nonpayable","type":"function"},{"inputs":[{"internalType":"uint256","name":"amount","type":"uint256"}],"name":"deposit","outputs":[{"internalType":"uint256","name":"usmtReceived","type":"uint256"}],"stateMutability":"nonpayable","type":"function"},{"inputs":[{"internalType":"address","name":"user","type":"address"}],"name":"getBalance","outputs":[{"internalType":"uint256","name":"","type":"uint256"}],"stateMutability":"view","type":"function"},{"inputs":[{"internalType":"bytes32","name":"role","type":"bytes32"}],"name":"getRoleAdmin","outputs":[{"internalType":"bytes32","name":"","type":"bytes32"}],"stateMutability":"view","type":"function"},{"inputs":[{"internalType":"address","name":"user","type":"address"}],"name":"getShares","outputs":[{"internalType":"uint256","name":"","type":"uint256"}],"stateMutability":"view","type":"function"},{"inputs":[],"name":"getTotalBorrowed","outputs":[{"internalType":"uint256","name":"","type":"uint256"}],"stateMutability":"view","type":"function"},{"inputs":[],"name":"getTotalLiquidity","outputs":[{"internalType":"uint256","name":"","type":"uint256"}],"stateMutability":"view","type":"function"},{"inputs":[],"name":"getUtilizationRate","outputs":[{"internalType":"uint256","name":"","type":"uint256"}],"stateMutability":"view","type":"function"},{"inputs":[{"internalType":"bytes32","name":"role","type":"bytes32"},{"internalType":"address","name":"account","type":"address"}],"name":"grantRole","outputs":[],"stateMutability":"nonpayable","type":"function"},{"inputs":[{"internalType":"bytes32","name":"role","type":"bytes32"},{"internalType":"address","name":"account","type":"address"}],"name":"hasRole","outputs":[{"internalType":"bool","name":"","type":"bool"}],"stateMutability":"view","type":"function"},{"inputs":[{"internalType":"bytes32","name":"role","type":"bytes32"},{"internalType":"address","name":"callerConfirmation","type":"address"}],"name":"renounceRole","outputs":[],"stateMutability":"nonpayable","type":"function"},{"inputs":[{"internalType":"uint256","name":"amount","type":"uint256"}],"name":"repay","outputs":[],"stateMutability":"nonpayable","type":"function"},{"inputs":[{"internalType":"bytes32","name":"role","type":"bytes32"},{"internalType":"address","name":"account","type":"address"}],"name":"revokeRole","outputs":[],"stateMutability":"nonpayable","type":"function"},{"inputs":[{"internalType":"bytes4","name":"interfaceId","type":"bytes4"}],"name":"supportsInterface","outputs":[{"internalType":"bool","name":"","type":"bool"}],"stateMutability":"view","type":"function"},{"inputs":[],"name":"token","outputs":[{"internalType":"contract IERC20","name":"","type":"address"}],"stateMutability":"view","type":"function"},{"inputs":[],"name":"totalBorrowed","outputs":[{"internalType":"uint256","name":"","type":"uint256"}],"stateMutability":"view","type":"function"},{"inputs":[],"name":"totalLiquidity","outputs":[{"internalType":"uint256","name":"","type":"uint256"}],"stateMutability":"view","type":"function"},{"inputs":[],"name":"totalShares","outputs":[{"internalType":"uint256","name":"","type":"uint256"}],"stateMutability":"view","type":"function"},{"inputs":[],"name":"usmtPlus","outputs":[{"internalType":"contract USMTPlus","name":"","type":"address"}],"stateMutability":"view","type":"function"},{"inputs":[{"internalType":"uint256","name":"usmtAmount","type":"uint256"}],"name":"withdraw","outputs":[{"internalType":"uint256","name":"amountReceived","type":"uint256"}],"stateMutability":"nonpayable","type":"function"}],"evm":{"bytecode":{"linkReferences":{},"object":"60c0346100d557601f610f9b38819003918201601f19168301916001600160401b038311848410176100da578084926060946040528339810103126100d5578061004b61007b926100f0565b610063604061005c602085016100f0565b93016100f0565b6001600160a01b03918216608052911660a052610104565b50604051610e069081610195823960805181818161013501528181610234015281816102ca015281816105af01526107ca015260a0518181816102f901528181610451015281816104ff0152818161073901526109ad0152f35b600080fd5b634e487b7160e01b600052604160045260246000fd5b51906001600160a01b03821682036100d557565b6001600160a01b031660008181527fad3228b676f7d3cd4284a5443f17f1962b36e491b30a40b2405849e597ba5fb5602052604081205490919060ff1661019057818052816020526040822081835260205260408220600160ff1982541617905533917f2f8788117e7eff1d82e926ec794901d17c78024a50270940304540a733656f0d8180a4600190565b509056fe608060408181526004918236101561001657600080fd5b600092833560e01c91826301ffc9a714610897575081630307c4a1146104755781630e7b949e1461085c57816315770f92146106b0578163248a9ca3146108325781632e1a7d4d146106f95781632f2ff15d146106cf57816335c7e925146106b057816336568abe14610651578163371fd8e61461057b5781633a98ef39146104b85781634a417a53146104945781634c19386c1461047557816385ca17061461043157816391d14854146103ec578163a217fddf146103d1578163b6b55f25146102a0578163c5ebeaec146101a5578163d547741f1461016257508063f04da65b1461015d578063f8b2cb4f1461015d5763fc0c546a1461011757600080fd5b34610159578160031936011261015957602090516001600160a01b037f0000000000000000000000000000000000000000000000000000000000000000168152f35b5080fd5b610950565b919050346101a157806003193601126101a15761019d91356101986001610187610935565b938387528660205286200154610bb8565b610c7b565b5080f35b8280fd5b919050346101a15760203660031901126101a1578135917f2344277e405079ec07749d374ba0b5862a4e45a6a05ac889dbb4a991c6f9354d8085528460205282852033865260205260ff838620541615610285575050610206821515610a20565b61022a826001546102258261021e6002548094610a6b565b1015610a8e565b610b4f565b60025561025882337f0000000000000000000000000000000000000000000000000000000000000000610b5c565b519081527fcbc04eca7e9da35cb1393a6135a199ca52e450d5e9251cbd99f7847d33a3675060203392a280f35b604492519163e2517d3f60e01b835233908301526024820152fd5b919050346101a15760203660031901126101a1578135916102c2831515610a20565b6102ee8330337f0000000000000000000000000000000000000000000000000000000000000000610cf1565b836001600160a01b037f00000000000000000000000000000000000000000000000000000000000000001691823b156101595783517f40c10f19000000000000000000000000000000000000000000000000000000008152339181019182526020820186905292839182908490829060400103925af180156103c757602094506103b8575b5061038082600154610b4f565b600155805182815282848201527f90890809c654f11d6e72a28fa60149770a0d11ec6c92319d6ceb2bb0a4ea1a15823392a251908152f35b6103c190610ad9565b38610373565b82513d86823e3d90fd5b50503461015957816003193601126101595751908152602090f35b9050346101a157816003193601126101a1578160209360ff9261040d610935565b903582528186526001600160a01b0383832091168252855220541690519015158152f35b505034610159578160031936011261015957602090516001600160a01b037f0000000000000000000000000000000000000000000000000000000000000000168152f35b5050346101595781600319360112610159576020906002549051908152f35b5050346101595781600319360112610159576020906104b1610b25565b9051908152f35b919050346101a157826003193601126101a1576020815180937f18160ddd000000000000000000000000000000000000000000000000000000008252816001600160a01b037f0000000000000000000000000000000000000000000000000000000000000000165afa918215610571578392610539575b6020838351908152f35b9091506020813d602011610569575b8161055560209383610b03565b810103126101a1576020925051903861052f565b3d9150610548565b81513d85823e3d90fd5b919050346101a15760203660031901126101a15781359161059d831515610a20565b826002541061060f57506105d38230337f0000000000000000000000000000000000000000000000000000000000000000610cf1565b6105df82600254610a6b565b600255519081527f5c16de4f8b59bd9caf0f49a545f25819a895ed223294290b408242e72a59423160203392a280f35b6020606492519162461bcd60e51b8352820152601660248201527f5265706179206578636565647320626f72726f776564000000000000000000006044820152fd5b83833461015957806003193601126101595761066b610935565b90336001600160a01b03831603610688575061019d919235610c7b565b8390517f6697b232000000000000000000000000000000000000000000000000000000008152fd5b5050346101595781600319360112610159576020906001549051908152f35b919050346101a157806003193601126101a15761019d91356106f46001610187610935565b610bfc565b919050346101a15760203660031901126101a15781359161071b831515610a20565b61072e8361021e60015460025490610a6b565b836001600160a01b037f00000000000000000000000000000000000000000000000000000000000000001691823b156101595783517f9dc29fac000000000000000000000000000000000000000000000000000000008152339181019182526020820186905292839182908490829060400103925af180156103c75760209450610823575b506107c082600154610a6b565b6001556107ee82337f0000000000000000000000000000000000000000000000000000000000000000610b5c565b805182815282848201527ff279e6a1f5e320cca91135676d9cb6e44ca8a08c0b88342bcdb1144f6511b568823392a251908152f35b61082c90610ad9565b386107b3565b9050346101a15760203660031901126101a157816020936001923581528085522001549051908152f35b505034610159578160031936011261015957602090517f2344277e405079ec07749d374ba0b5862a4e45a6a05ac889dbb4a991c6f9354d8152f35b8491346101a15760203660031901126101a157357fffffffff0000000000000000000000000000000000000000000000000000000081168091036101a157602092507f7965db0b00000000000000000000000000000000000000000000000000000000811490811561090b575b5015158152f35b7f01ffc9a70000000000000000000000000000000000000000000000000000000091501483610904565b602435906001600160a01b038216820361094b57565b600080fd5b3461094b5760208060031936011261094b576004356001600160a01b039081811680910361094b5782906024604051809481937f70a0823100000000000000000000000000000000000000000000000000000000835260048301527f0000000000000000000000000000000000000000000000000000000000000000165afa908115610a14576000916109e7575b50604051908152f35b90508181813d8311610a0d575b6109fe8183610b03565b8101031261094b5751386109de565b503d6109f4565b6040513d6000823e3d90fd5b15610a2757565b606460405162461bcd60e51b815260206004820152601260248201527f416d6f756e74206d757374206265203e203000000000000000000000000000006044820152fd5b91908203918211610a7857565b634e487b7160e01b600052601160045260246000fd5b15610a9557565b606460405162461bcd60e51b815260206004820152601660248201527f496e73756666696369656e74206c6971756964697479000000000000000000006044820152fd5b67ffffffffffffffff8111610aed57604052565b634e487b7160e01b600052604160045260246000fd5b90601f8019910116810190811067ffffffffffffffff821117610aed57604052565b6001548015610b495760025461271090818102918183041490151715610a78570490565b50600090565b91908201809211610a7857565b6040517fa9059cbb0000000000000000000000000000000000000000000000000000000060208201526001600160a01b03929092166024830152604480830193909352918152610bb691610bb1606483610b03565b610d5c565b565b80600052600060205260406000203360005260205260ff6040600020541615610bde5750565b6044906040519063e2517d3f60e01b82523360048301526024820152fd5b90600091808352826020526001600160a01b036040842092169182845260205260ff60408420541615600014610c7657808352826020526040832082845260205260408320600160ff198254161790557f2f8788117e7eff1d82e926ec794901d17c78024a50270940304540a733656f0d339380a4600190565b505090565b90600091808352826020526001600160a01b036040842092169182845260205260ff604084205416600014610c765780835282602052604083208284526020526040832060ff1981541690557ff6391f5c32d9c69d2a47ea670b442974b53935d1edc7fd64eb21e047a839171b339380a4600190565b9290604051927f23b872dd0000000000000000000000000000000000000000000000000000000060208501526001600160a01b03809216602485015216604483015260648201526064815260a081019181831067ffffffffffffffff841117610aed57610bb6926040525b906000602091828151910182855af115610a14576000513d610dc757506001600160a01b0381163b155b610d8d5750565b6024906001600160a01b03604051917f5274afe7000000000000000000000000000000000000000000000000000000008352166004820152fd5b60011415610d8656fea26469706673582212202228014f654034c224bd1ec46ebe12c38c36c7ab19d5bce071d74b96b4df9e9264736f6c63430008180033","opcodes":"PUSH1 0xC0 CALLVALUE PUSH2 0xD5 JUMPI PUSH1 0x1F PUSH2 0xF9B CODESIZE DUP2 SWAP1 SUB SWAP2 DUP3 ADD PUSH1 0x1F NOT AND DUP4 ADD SWAP2 PUSH1 0x1 PUSH1 0x1 PUSH1 0x40 SHL SUB DUP4 GT DUP5 DUP5 LT OR PUSH2 0xDA JUMPI DUP1 DUP5 SWAP3 PUSH1 0x60 SWAP5 PUSH1 0x40 MSTORE DUP4 CODECOPY DUP2 ADD SUB SLT PUSH2 0xD5 JUMPI DUP1 PUSH2 0x4B PUSH2 0x7B SWAP3 PUSH2 0xF0 JUMP JUMPDEST PUSH2 0x63 PUSH1 0x40 PUSH2 0x5C PUSH1 0x20 DUP6 ADD PUSH2 0xF0 JUMP JUMPDEST SWAP4 ADD PUSH2 0xF0 JUMP JUMPDEST PUSH1 0x1 PUSH1 0x1 PUSH1 0xA0 SHL SUB SWAP2 DUP3 AND PUSH1 0x80 MSTORE SWAP2 AND PUSH1 0xA0 MSTORE PUSH2 0x104 JUMP JUMPDEST POP PUSH1 0x40 MLOAD PUSH2 0xE06 SWAP1 DUP2 PUSH2 0x195 DUP3 CODECOPY PUSH1 0x80 MLOAD DUP2 DUP2 DUP2 PUSH2 0x135 ADD MSTORE DUP2 DUP2 PUSH2 0x234 ADD MSTORE DUP2 DUP2 PUSH2 0x2CA ADD MSTORE DUP2 DUP2 PUSH2 0x5AF ADD MSTORE PUSH2 0x7CA ADD MSTORE PUSH1 0xA0 MLOAD DUP2 DUP2 DUP2 PUSH2 0x2F9 ADD MSTORE DUP2 DUP2 PUSH2 0x451 ADD MSTORE DUP2 DUP2 PUSH2 0x4FF ADD MSTORE DUP2 DUP2 PUSH2 0x739 ADD MSTORE PUSH2 0x9AD ADD MSTORE RETURN JUMPDEST PUSH1 0x0 DUP1 REVERT JUMPDEST PUSH4 0x4E487B71 PUSH1 0xE0 SHL PUSH1 0x0 MSTORE PUSH1 0x41 PUSH1 0x4 MSTORE PUSH1 0x24 PUSH1 0x0 REVERT JUMPDEST MLOAD SWAP1 PUSH1 0x1 PUSH1 0x1 PUSH1 0xA0 SHL SUB DUP3 AND DUP3 SUB PUSH2 0xD5 JUMPI JUMP JUMPDEST PUSH1 0x1 PUSH1 0x1 PUSH1 0xA0 SHL SUB AND PUSH1 0x0 DUP2 DUP2 MSTORE PUSH32 0xAD3228B676F7D3CD4284A5443F17F1962B36E491B30A40B2405849E597BA5FB5 PUSH1 0x20 MSTORE PUSH1 0x40 DUP2 KECCAK256 SLOAD SWAP1 SWAP2 SWAP1 PUSH1 0xFF AND PUSH2 0x190 JUMPI DUP2 DUP1 MSTORE DUP2 PUSH1 0x20 MSTORE PUSH1 0x40 DUP3 KECCAK256 DUP2 DUP4 MSTORE PUSH1 0x20 MSTORE PUSH1 0x40 DUP3 KECCAK256 PUSH1 0x1 PUSH1 0xFF NOT DUP3 SLOAD AND OR SWAP1 SSTORE CALLER SWAP2 PUSH32 0x2F8788117E7EFF1D82E926EC794901D17C78024A50270940304540A733656F0D DUP2 DUP1 LOG4 PUSH1 0x1 SWAP1 JUMP JUMPDEST POP SWAP1 JUMP INVALID PUSH1 0x80 PUSH1 0x40 DUP2 DUP2 MSTORE PUSH1 0x4 SWAP2 DUP3 CALLDATASIZE LT ISZERO PUSH2 0x16 JUMPI PUSH1 0x0 DUP1 REVERT JUMPDEST PUSH1 0x0 SWAP3 DUP4 CALLDATALOAD PUSH1 0xE0 SHR SWAP2 DUP3 PUSH4 0x1FFC9A7 EQ PUSH2 0x897 JUMPI POP DUP2 PUSH4 0x307C4A1 EQ PUSH2 0x475 JUMPI DUP2 PUSH4 0xE7B949E EQ PUSH2 0x85C JUMPI DUP2 PUSH4 0x15770F92 EQ PUSH2 0x6B0 JUMPI DUP2 PUSH4 0x248A9CA3 EQ PUSH2 0x832 JUMPI DUP2 PUSH4 0x2E1A7D4D EQ PUSH2 0x6F9 JUMPI DUP2 PUSH4 0x2F2FF15D EQ PUSH2 0x6CF JUMPI DUP2 PUSH4 0x35C7E925 EQ PUSH2 0x6B0 JUMPI DUP2 PUSH4 0x36568ABE EQ PUSH2 0x651 JUMPI DUP2 PUSH4 0x371FD8E6 EQ PUSH2 0x57B JUMPI DUP2 PUSH4 0x3A98EF39 EQ PUSH2 0x4B8 JUMPI DUP2 PUSH4 0x4A417A53 EQ PUSH2 0x494 JUMPI DUP2 PUSH4 0x4C19386C EQ PUSH2 0x475 JUMPI DUP2 PUSH4 0x85CA1706 EQ PUSH2 0x431 JUMPI DUP2 PUSH4 0x91D14854 EQ PUSH2 0x3EC JUMPI DUP2 PUSH4 0xA217FDDF EQ PUSH2 0x3D1 JUMPI DUP2 PUSH4 0xB6B55F25 EQ PUSH2 0x2A0 JUMPI DUP2 PUSH4 0xC5EBEAEC EQ PUSH2 0x1A5 JUMPI DUP2 PUSH4 0xD547741F EQ PUSH2 0x162 JUMPI POP DUP1 PUSH4 0xF04DA65B EQ PUSH2 0x15D JUMPI DUP1 PUSH4 0xF8B2CB4F EQ PUSH2 0x15D JUMPI PUSH4 0xFC0C546A EQ PUSH2 0x117 JUMPI PUSH1 0x0 DUP1 REVERT JUMPDEST CALLVALUE PUSH2 0x159 JUMPI DUP2 PUSH1 0x3 NOT CALLDATASIZE ADD SLT PUSH2 0x159 JUMPI PUSH1 0x20 SWAP1 MLOAD PUSH1 0x1 PUSH1 0x1 PUSH1 0xA0 SHL SUB PUSH32 0x0 AND DUP2 MSTORE RETURN JUMPDEST POP DUP1 REVERT JUMPDEST PUSH2 0x950 JUMP JUMPDEST SWAP2 SWAP1 POP CALLVALUE PUSH2 0x1A1 JUMPI DUP1 PUSH1 0x3 NOT CALLDATASIZE ADD SLT PUSH2 0x1A1 JUMPI PUSH2 0x19D SWAP2 CALLDATALOAD PUSH2 0x198 PUSH1 0x1 PUSH2 0x187 PUSH2 0x935 JUMP JUMPDEST SWAP4 DUP4 DUP8 MSTORE DUP7 PUSH1 0x20 MSTORE DUP7 KECCAK256 ADD SLOAD PUSH2 0xBB8 JUMP JUMPDEST PUSH2 0xC7B JUMP JUMPDEST POP DUP1 RETURN JUMPDEST DUP3 DUP1 REVERT JUMPDEST SWAP2 SWAP1 POP CALLVALUE PUSH2 0x1A1 JUMPI PUSH1 0x20 CALLDATASIZE PUSH1 0x3 NOT ADD SLT PUSH2 0x1A1 JUMPI DUP2 CALLDATALOAD SWAP2 PUSH32 0x2344277E405079EC07749D374BA0B5862A4E45A6A05AC889DBB4A991C6F9354D DUP1 DUP6 MSTORE DUP5 PUSH1 0x20 MSTORE DUP3 DUP6 KECCAK256 CALLER DUP7 MSTORE PUSH1 0x20 MSTORE PUSH1 0xFF DUP4 DUP7 KECCAK256 SLOAD AND ISZERO PUSH2 0x285 JUMPI POP POP PUSH2 0x206 DUP3 ISZERO ISZERO PUSH2 0xA20 JUMP JUMPDEST PUSH2 0x22A DUP3 PUSH1 0x1 SLOAD PUSH2 0x225 DUP3 PUSH2 0x21E PUSH1 0x2 SLOAD DUP1 SWAP5 PUSH2 0xA6B JUMP JUMPDEST LT ISZERO PUSH2 0xA8E JUMP JUMPDEST PUSH2 0xB4F JUMP JUMPDEST PUSH1 0x2 SSTORE PUSH2 0x258 DUP3 CALLER PUSH32 0x0 PUSH2 0xB5C JUMP JUMPDEST MLOAD SWAP1 DUP2 MSTORE PUSH32 0xCBC04ECA7E9DA35CB1393A6135A199CA52E450D5E9251CBD99F7847D33A36750 PUSH1 0x20 CALLER SWAP3 LOG2 DUP1 RETURN JUMPDEST PUSH1 0x44 SWAP3 MLOAD SWAP2 PUSH4 0xE2517D3F PUSH1 0xE0 SHL DUP4 MSTORE CALLER SWAP1 DUP4 ADD MSTORE PUSH1 0x24 DUP3 ADD MSTORE REVERT JUMPDEST SWAP2 SWAP1 POP CALLVALUE PUSH2 0x1A1 JUMPI PUSH1 0x20 CALLDATASIZE PUSH1 0x3 NOT ADD SLT PUSH2 0x1A1 JUMPI DUP2 CALLDATALOAD SWAP2 PUSH2 0x2C2 DUP4 ISZERO ISZERO PUSH2 0xA20 JUMP JUMPDEST PUSH2 0x2EE DUP4 ADDRESS CALLER PUSH32 0x0 PUSH2 0xCF1 JUMP JUMPDEST DUP4 PUSH1 0x1 PUSH1 0x1 PUSH1 0xA0 SHL SUB PUSH32 0x0 AND SWAP2 DUP3 EXTCODESIZE ISZERO PUSH2 0x159 JUMPI DUP4 MLOAD PUSH32 0x40C10F1900000000000000000000000000000000000000000000000000000000 DUP2 MSTORE CALLER SWAP2 DUP2 ADD SWAP2 DUP3 MSTORE PUSH1 0x20 DUP3 ADD DUP7 SWAP1 MSTORE SWAP3 DUP4 SWAP2 DUP3 SWAP1 DUP5 SWAP1 DUP3 SWAP1 PUSH1 0x40 ADD SUB SWAP3 GAS CALL DUP1 ISZERO PUSH2 0x3C7 JUMPI PUSH1 0x20 SWAP5 POP PUSH2 0x3B8 JUMPI JUMPDEST POP PUSH2 0x380 DUP3 PUSH1 0x1 SLOAD PUSH2 0xB4F JUMP JUMPDEST PUSH1 0x1 SSTORE DUP1 MLOAD DUP3 DUP2 MSTORE DUP3 DUP5 DUP3 ADD MSTORE PUSH32 0x90890809C654F11D6E72A28FA60149770A0D11EC6C92319D6CEB2BB0A4EA1A15 DUP3 CALLER SWAP3 LOG2 MLOAD SWAP1 DUP2 MSTORE RETURN JUMPDEST PUSH2 0x3C1 SWAP1 PUSH2 0xAD9 JUMP JUMPDEST CODESIZE PUSH2 0x373 JUMP JUMPDEST DUP3 MLOAD RETURNDATASIZE DUP7 DUP3 RETURNDATACOPY RETURNDATASIZE SWAP1 REVERT JUMPDEST POP POP CALLVALUE PUSH2 0x159 JUMPI DUP2 PUSH1 0x3 NOT CALLDATASIZE ADD SLT PUSH2 0x159 JUMPI MLOAD SWAP1 DUP2 MSTORE PUSH1 0x20 SWAP1 RETURN JUMPDEST SWAP1 POP CALLVALUE PUSH2 0x1A1 JUMPI DUP2 PUSH1 0x3 NOT CALLDATASIZE ADD SLT PUSH2 0x1A1 JUMPI DUP2 PUSH1 0x20 SWAP4 PUSH1 0xFF SWAP3 PUSH2 0x40D PUSH2 0x935 JUMP JUMPDEST SWAP1 CALLDATALOAD DUP3 MSTORE DUP2 DUP7 MSTORE PUSH1 0x1 PUSH1 0x1 PUSH1 0xA0 SHL SUB DUP4 DUP4 KECCAK256 SWAP2 AND DUP3 MSTORE DUP6 MSTORE KECCAK256 SLOAD AND SWAP1 MLOAD SWAP1 ISZERO ISZERO DUP2 MSTORE RETURN JUMPDEST POP POP CALLVALUE PUSH2 0x159 JUMPI DUP2 PUSH1 0x3 NOT CALLDATASIZE ADD SLT PUSH2 0x159 JUMPI PUSH1 0x20 SWAP1 MLOAD PUSH1 0x1 PUSH1 0x1 PUSH1 0xA0 SHL SUB PUSH32 0x0 AND DUP2 MSTORE RETURN JUMPDEST POP POP CALLVALUE PUSH2 0x159 JUMPI DUP2 PUSH1 0x3 NOT CALLDATASIZE ADD SLT PUSH2 0x159 JUMPI PUSH1 0x20 SWAP1 PUSH1 0x2 SLOAD SWAP1 MLOAD SWAP1 DUP2 MSTORE RETURN JUMPDEST POP POP CALLVALUE PUSH2 0x159 JUMPI DUP2 PUSH1 0x3 NOT CALLDATASIZE ADD SLT PUSH2 0x159 JUMPI PUSH1 0x20 SWAP1 PUSH2 0x4B1 PUSH2 0xB25 JUMP JUMPDEST SWAP1 MLOAD SWAP1 DUP2 MSTORE RETURN JUMPDEST SWAP2 SWAP1 POP CALLVALUE PUSH2 0x1A1 JUMPI DUP3 PUSH1 0x3 NOT CALLDATASIZE ADD SLT PUSH2 0x1A1 JUMPI PUSH1 0x20 DUP2 MLOAD DUP1 SWAP4 PUSH32 0x18160DDD00000000000000000000000000000000000000000000000000000000 DUP3 MSTORE DUP2 PUSH1 0x1 PUSH1 0x1 PUSH1 0xA0 SHL SUB PUSH32 0x0 AND GAS STATICCALL SWAP2 DUP3 ISZERO PUSH2 0x571 JUMPI DUP4 SWAP3 PUSH2 0x539 JUMPI JUMPDEST PUSH1 0x20 DUP4 DUP4 MLOAD SWAP1 DUP2 MSTORE RETURN JUMPDEST SWAP1 SWAP2 POP PUSH1 0x20 DUP2 RETURNDATASIZE PUSH1 0x20 GT PUSH2 0x569 JUMPI JUMPDEST DUP2 PUSH2 0x555 PUSH1 0x20 SWAP4 DUP4 PUSH2 0xB03 JUMP JUMPDEST DUP2 ADD SUB SLT PUSH2 0x1A1 JUMPI PUSH1 0x20 SWAP3 POP MLOAD SWAP1 CODESIZE PUSH2 0x52F JUMP JUMPDEST RETURNDATASIZE SWAP2 POP PUSH2 0x548 JUMP JUMPDEST DUP2 MLOAD RETURNDATASIZE DUP6 DUP3 RETURNDATACOPY RETURNDATASIZE SWAP1 REVERT JUMPDEST SWAP2 SWAP1 POP CALLVALUE PUSH2 0x1A1 JUMPI PUSH1 0x20 CALLDATASIZE PUSH1 0x3 NOT ADD SLT PUSH2 0x1A1 JUMPI DUP2 CALLDATALOAD SWAP2 PUSH2 0x59D DUP4 ISZERO ISZERO PUSH2 0xA20 JUMP JUMPDEST DUP3 PUSH1 0x2 SLOAD LT PUSH2 0x60F JUMPI POP PUSH2 0x5D3 DUP3 ADDRESS CALLER PUSH32 0x0 PUSH2 0xCF1 JUMP JUMPDEST PUSH2 0x5DF DUP3 PUSH1 0x2 SLOAD PUSH2 0xA6B JUMP JUMPDEST PUSH1 0x2 SSTORE MLOAD SWAP1 DUP2 MSTORE PUSH32 0x5C16DE4F8B59BD9CAF0F49A545F25819A895ED223294290B408242E72A594231 PUSH1 0x20 CALLER SWAP3 LOG2 DUP1 RETURN JUMPDEST PUSH1 0x20 PUSH1 0x64 SWAP3 MLOAD SWAP2 PUSH3 0x461BCD PUSH1 0xE5 SHL DUP4 MSTORE DUP3 ADD MSTORE PUSH1 0x16 PUSH1 0x24 DUP3 ADD MSTORE PUSH32 0x5265706179206578636565647320626F72726F77656400000000000000000000 PUSH1 0x44 DUP3 ADD MSTORE REVERT JUMPDEST DUP4 DUP4 CALLVALUE PUSH2 0x159 JUMPI DUP1 PUSH1 0x3 NOT CALLDATASIZE ADD SLT PUSH2 0x159 JUMPI PUSH2 0x66B PUSH2 0x935 JUMP JUMPDEST SWAP1 CALLER PUSH1 0x1 PUSH1 0x1 PUSH1 0xA0 SHL SUB DUP4 AND SUB PUSH2 0x688 JUMPI POP PUSH2 0x19D SWAP2 SWAP3 CALLDATALOAD PUSH2 0xC7B JUMP JUMPDEST DUP4 SWAP1 MLOAD PUSH32 0x6697B23200000000000000000000000000000000000000000000000000000000 DUP2 MSTORE REVERT JUMPDEST POP POP CALLVALUE PUSH2 0x159 JUMPI DUP2 PUSH1 0x3 NOT CALLDATASIZE ADD SLT PUSH2 0x159 JUMPI PUSH1 0x20 SWAP1 PUSH1 0x1 SLOAD SWAP1 MLOAD SWAP1 DUP2 MSTORE RETURN JUMPDEST SWAP2 SWAP1 POP CALLVALUE PUSH2 0x1A1 JUMPI DUP1 PUSH1 0x3 NOT CALLDATASIZE ADD SLT PUSH2 0x1A1 JUMPI PUSH2 0x19D SWAP2 CALLDATALOAD PUSH2 0x6F4 PUSH1 0x1 PUSH2 0x187 PUSH2 0x935 JUMP JUMPDEST PUSH2 0xBFC JUMP JUMPDEST SWAP2 SWAP1 POP CALLVALUE PUSH2 0x1A1 JUMPI PUSH1 0x20 CALLDATASIZE PUSH1 0x3 NOT ADD SLT PUSH2 0x1A1 JUMPI DUP2 CALLDATALOAD SWAP2 PUSH2 0x71B DUP4 ISZERO ISZERO PUSH2 0xA20 JUMP JUMPDEST PUSH2 0x72E DUP4 PUSH2 0x21E PUSH1 0x1 SLOAD PUSH1 0x2 SLOAD SWAP1 PUSH2 0xA6B JUMP JUMPDEST DUP4 PUSH1 0x1 PUSH1 0x1 PUSH1 0xA0 SHL SUB PUSH32 0x0 AND SWAP2 DUP3 EXTCODESIZE ISZERO PUSH2 0x159 JUMPI DUP4 MLOAD PUSH32 0x9DC29FAC00000000000000000000000000000000000000000000000000000000 DUP2 MSTORE CALLER SWAP2 DUP2 ADD SWAP2 DUP3 MSTORE PUSH1 0x20 DUP3 ADD DUP7 SWAP1 MSTORE SWAP3 DUP4 SWAP2 DUP3 SWAP1 DUP5 SWAP1 DUP3 SWAP1 PUSH1 0x40 ADD SUB SWAP3 GAS CALL DUP1 ISZERO PUSH2 0x3C7 JUMPI PUSH1 0x20 SWAP5 POP PUSH2 0x823 JUMPI JUMPDEST POP PUSH2 0x7C0 DUP3 PUSH1 0x1 SLOAD PUSH2 0xA6B JUMP JUMPDEST PUSH1 0x1 SSTORE PUSH2 0x7EE DUP3 CALLER PUSH32 0x0 PUSH2 0xB5C JUMP JUMPDEST DUP1 MLOAD DUP3 DUP2 MSTORE DUP3 DUP5 DUP3 ADD MSTORE PUSH32 0xF279E6A1F5E320CCA91135676D9CB6E44CA8A08C0B88342BCDB1144F6511B568 DUP3 CALLER SWAP3 LOG2 MLOAD SWAP1 DUP2 MSTORE RETURN JUMPDEST PUSH2 0x82C SWAP1 PUSH2 0xAD9 JUMP JUMPDEST CODESIZE PUSH2 0x7B3 JUMP JUMPDEST SWAP1 POP CALLVALUE PUSH2 0x1A1 JUMPI PUSH1 0x20 CALLDATASIZE PUSH1 0x3 NOT ADD SLT PUSH2 0x1A1 JUMPI DUP2 PUSH1 0x20 SWAP4 PUSH1 0x1 SWAP3 CALLDATALOAD DUP2 MSTORE DUP1 DUP6 MSTORE KECCAK256 ADD SLOAD SWAP1 MLOAD SWAP1 DUP2 MSTORE RETURN JUMPDEST POP POP CALLVALUE PUSH2 0x159 JUMPI DUP2 PUSH1 0x3 NOT CALLDATASIZE ADD SLT PUSH2 0x159 JUMPI PUSH1 0x20 SWAP1 MLOAD PUSH32 0x2344277E405079EC07749D374BA0B5862A4E45A6A05AC889DBB4A991C6F9354D DUP2 MSTORE RETURN JUMPDEST DUP5 SWAP2 CALLVALUE PUSH2 0x1A1 JUMPI PUSH1 0x20 CALLDATASIZE PUSH1 0x3 NOT ADD SLT PUSH2 0x1A1 JUMPI CALLDATALOAD PUSH32 0xFFFFFFFF00000000000000000000000000000000000000000000000000000000 DUP2 AND DUP1 SWAP2 SUB PUSH2 0x1A1 JUMPI PUSH1 0x20 SWAP3 POP PUSH32 0x7965DB0B00000000000000000000000000000000000000000000000000000000 DUP2 EQ SWAP1 DUP2 ISZERO PUSH2 0x90B JUMPI JUMPDEST POP ISZERO ISZERO DUP2 MSTORE RETURN JUMPDEST PUSH32 0x1FFC9A700000000000000000000000000000000000000000000000000000000 SWAP2 POP EQ DUP4 PUSH2 0x904 JUMP JUMPDEST PUSH1 0x24 CALLDATALOAD SWAP1 PUSH1 0x1 PUSH1 0x1 PUSH1 0xA0 SHL SUB DUP3 AND DUP3 SUB PUSH2 0x94B JUMPI JUMP JUMPDEST PUSH1 0x0 DUP1 REVERT JUMPDEST CALLVALUE PUSH2 0x94B JUMPI PUSH1 0x20 DUP1 PUSH1 0x3 NOT CALLDATASIZE ADD SLT PUSH2 0x94B JUMPI PUSH1 0x4 CALLDATALOAD PUSH1 0x1 PUSH1 0x1 PUSH1 0xA0 SHL SUB SWAP1 DUP2 DUP2 AND DUP1 SWAP2 SUB PUSH2 0x94B JUMPI DUP3 SWAP1 PUSH1 0x24 PUSH1 0x40 MLOAD DUP1 SWAP5 DUP2 SWAP4 PUSH32 0x70A0823100000000000000000000000000000000000000000000000000000000 DUP4 MSTORE PUSH1 0x4 DUP4 ADD MSTORE PUSH32 0x0 AND GAS STATICCALL SWAP1 DUP2 ISZERO PUSH2 0xA14 JUMPI PUSH1 0x0 SWAP2 PUSH2 0x9E7 JUMPI JUMPDEST POP PUSH1 0x40 MLOAD SWAP1 DUP2 MSTORE RETURN JUMPDEST SWAP1 POP DUP2 DUP2 DUP2 RETURNDATASIZE DUP4 GT PUSH2 0xA0D JUMPI JUMPDEST PUSH2 0x9FE DUP2 DUP4 PUSH2 0xB03 JUMP JUMPDEST DUP2 ADD SUB SLT PUSH2 0x94B JUMPI MLOAD CODESIZE PUSH2 0x9DE JUMP JUMPDEST POP RETURNDATASIZE PUSH2 0x9F4 JUMP JUMPDEST PUSH1 0x40 MLOAD RETURNDATASIZE PUSH1 0x0 DUP3 RETURNDATACOPY RETURNDATASIZE SWAP1 REVERT JUMPDEST ISZERO PUSH2 0xA27 JUMPI JUMP JUMPDEST PUSH1 0x64 PUSH1 0x40 MLOAD PUSH3 0x461BCD PUSH1 0xE5 SHL DUP2 MSTORE PUSH1 0x20 PUSH1 0x4 DUP3 ADD MSTORE PUSH1 0x12 PUSH1 0x24 DUP3 ADD MSTORE PUSH32 0x416D6F756E74206D757374206265203E20300000000000000000000000000000 PUSH1 0x44 DUP3 ADD MSTORE REVERT JUMPDEST SWAP2 SWAP1 DUP3 SUB SWAP2 DUP3 GT PUSH2 0xA78 JUMPI JUMP JUMPDEST PUSH4 0x4E487B71 PUSH1 0xE0 SHL PUSH1 0x0 MSTORE PUSH1 0x11 PUSH1 0x4 MSTORE PUSH1 0x24 PUSH1 0x0 REVERT JUMPDEST ISZERO PUSH2 0xA95 JUMPI JUMP JUMPDEST PUSH1 0x64 PUSH1 0x40 MLOAD PUSH3 0x461BCD PUSH1 0xE5 SHL DUP2 MSTORE PUSH1 0x20 PUSH1 0x4 DUP3 ADD MSTORE PUSH1 0x16 PUSH1 0x24 DUP3 ADD MSTORE PUSH32 0x496E73756666696369656E74206C697175696469747900000000000000000000 PUSH1 0x44 DUP3 ADD MSTORE REVERT JUMPDEST PUSH8 0xFFFFFFFFFFFFFFFF DUP2 GT PUSH2 0xAED JUMPI PUSH1 0x40 MSTORE JUMP JUMPDEST PUSH4 0x4E487B71 PUSH1 0xE0 SHL PUSH1 0x0 MSTORE PUSH1 0x41 PUSH1 0x4 MSTORE PUSH1 0x24 PUSH1 0x0 REVERT JUMPDEST SWAP1 PUSH1 0x1F DUP1 NOT SWAP2 ADD AND DUP2 ADD SWAP1 DUP2 LT PUSH8 0xFFFFFFFFFFFFFFFF DUP3 GT OR PUSH2 0xAED JUMPI PUSH1 0x40 MSTORE JUMP JUMPDEST PUSH1 0x1 SLOAD DUP1 ISZERO PUSH2 0xB49 JUMPI PUSH1 0x2 SLOAD PUSH2 0x2710 SWAP1 DUP2 DUP2 MUL SWAP2 DUP2 DUP4 DIV EQ SWAP1 ISZERO OR ISZERO PUSH2 0xA78 JUMPI DIV SWAP1 JUMP JUMPDEST POP PUSH1 0x0 SWAP1 JUMP JUMPDEST SWAP2 SWAP1 DUP3 ADD DUP1 SWAP3 GT PUSH2 0xA78 JUMPI JUMP JUMPDEST PUSH1 0x40 MLOAD PUSH32 0xA9059CBB00000000000000000000000000000000000000000000000000000000 PUSH1 0x20 DUP3 ADD MSTORE PUSH1 0x1 PUSH1 0x1 PUSH1 0xA0 SHL SUB SWAP3 SWAP1 SWAP3 AND PUSH1 0x24 DUP4 ADD MSTORE PUSH1 0x44 DUP1 DUP4 ADD SWAP4 SWAP1 SWAP4 MSTORE SWAP2 DUP2 MSTORE PUSH2 0xBB6 SWAP2 PUSH2 0xBB1 PUSH1 0x64 DUP4 PUSH2 0xB03 JUMP JUMPDEST PUSH2 0xD5C JUMP JUMPDEST JUMP JUMPDEST DUP1 PUSH1 0x0 MSTORE PUSH1 0x0 PUSH1 0x20 MSTORE PUSH1 0x40 PUSH1 0x0 KECCAK256 CALLER PUSH1 0x0 MSTORE PUSH1 0x20 MSTORE PUSH1 0xFF PUSH1 0x40 PUSH1 0x0 KECCAK256 SLOAD AND ISZERO PUSH2 0xBDE JUMPI POP JUMP JUMPDEST PUSH1 0x44 SWAP1 PUSH1 0x40 MLOAD SWAP1 PUSH4 0xE2517D3F PUSH1 0xE0 SHL DUP3 MSTORE CALLER PUSH1 0x4 DUP4 ADD MSTORE PUSH1 0x24 DUP3 ADD MSTORE REVERT JUMPDEST SWAP1 PUSH1 0x0 SWAP2 DUP1 DUP4 MSTORE DUP3 PUSH1 0x20 MSTORE PUSH1 0x1 PUSH1 0x1 PUSH1 0xA0 SHL SUB PUSH1 0x40 DUP5 KECCAK256 SWAP3 AND SWAP2 DUP3 DUP5 MSTORE PUSH1 0x20 MSTORE PUSH1 0xFF PUSH1 0x40 DUP5 KECCAK256 SLOAD AND ISZERO PUSH1 0x0 EQ PUSH2 0xC76 JUMPI DUP1 DUP4 MSTORE DUP3 PUSH1 0x20 MSTORE PUSH1 0x40 DUP4 KECCAK256 DUP3 DUP5 MSTORE PUSH1 0x20 MSTORE PUSH1 0x40 DUP4 KECCAK256 PUSH1 0x1 PUSH1 0xFF NOT DUP3 SLOAD AND OR SWAP1 SSTORE PUSH32 0x2F8788117E7EFF1D82E926EC794901D17C78024A50270940304540A733656F0D CALLER SWAP4 DUP1 LOG4 PUSH1 0x1 SWAP1 JUMP JUMPDEST POP POP SWAP1 JUMP JUMPDEST SWAP1 PUSH1 0x0 SWAP2 DUP1 DUP4 MSTORE DUP3 PUSH1 0x20 MSTORE PUSH1 0x1 PUSH1 0x1 PUSH1 0xA0 SHL SUB PUSH1 0x40 DUP5 KECCAK256 SWAP3 AND SWAP2 DUP3 DUP5 MSTORE PUSH1 0x20 MSTORE PUSH1 0xFF PUSH1 0x40 DUP5 KECCAK256 SLOAD AND PUSH1 0x0 EQ PUSH2 0xC76 JUMPI DUP1 DUP4 MSTORE DUP3 PUSH1 0x20 MSTORE PUSH1 0x40 DUP4 KECCAK256 DUP3 DUP5 MSTORE PUSH1 0x20 MSTORE PUSH1 0x40 DUP4 KECCAK256 PUSH1 0xFF NOT DUP2 SLOAD AND SWAP1 SSTORE PUSH32 0xF6391F5C32D9C69D2A47EA670B442974B53935D1EDC7FD64EB21E047A839171B CALLER SWAP4 DUP1 LOG4 PUSH1 0x1 SWAP1 JUMP JUMPDEST SWAP3 SWAP1 PUSH1 0x40 MLOAD SWAP3 PUSH32 0x23B872DD00000000000000000000000000000000000000000000000000000000 PUSH1 0x20 DUP6 ADD MSTORE PUSH1 0x1 PUSH1 0x1 PUSH1 0xA0 SHL SUB DUP1 SWAP3 AND PUSH1 0x24 DUP6 ADD MSTORE AND PUSH1 0x44 DUP4 ADD MSTORE PUSH1 0x64 DUP3 ADD MSTORE PUSH1 0x64 DUP2 MSTORE PUSH1 0xA0 DUP2 ADD SWAP2 DUP2 DUP4 LT PUSH8 0xFFFFFFFFFFFFFFFF DUP5 GT OR PUSH2 0xAED JUMPI PUSH2 0xBB6 SWAP3 PUSH1 0x40 MSTORE JUMPDEST SWAP1 PUSH1 0x0 PUSH1 0x20 SWAP2 DUP3 DUP2 MLOAD SWAP2 ADD DUP3 DUP6 GAS CALL ISZERO PUSH2 0xA14 JUMPI PUSH1 0x0 MLOAD RETURNDATASIZE PUSH2 0xDC7 JUMPI POP PUSH1 0x1 PUSH1 0x1 PUSH1 0xA0 SHL SUB DUP2 AND EXTCODESIZE ISZERO JUMPDEST PUSH2 0xD8D JUMPI POP JUMP JUMPDEST PUSH1 0x24 SWAP1 PUSH1 0x1 PUSH1 0x1 PUSH1 0xA0 SHL SUB PUSH1 0x40 MLOAD SWAP2 PUSH32 0x5274AFE700000000000000000000000000000000000000000000000000000000 DUP4 MSTORE AND PUSH1 0x4 DUP3 ADD MSTORE REVERT JUMPDEST PUSH1 0x1 EQ ISZERO PUSH2 0xD86 JUMP INVALID LOG2 PUSH5 0x6970667358 0x22 SLT KECCAK256 0x22 0x28 ADD 0x4F PUSH6 0x4034C224BD1E 0xC4 PUSH15 0xBE12C38C36C7AB19D5BCE071D74B96 0xB4 0xDF SWAP15 SWAP3 PUSH5 0x736F6C6343 STOP ADDMOD XOR STOP CALLER "},"methodIdentifiers":{"BORROWER_ROLE()":"0e7b949e","DEFAULT_ADMIN_ROLE()":"a217fddf","borrow(uint256)":"c5ebeaec","deposit(uint256)":"b6b55f25","getBalance(address)":"f8b2cb4f","getRoleAdmin(bytes32)":"248a9ca3","getShares(address)":"f04da65b","getTotalBorrowed()":"0307c4a1","getTotalLiquidity()":"35c7e925","getUtilizationRate()":"4a417a53","grantRole(bytes32,address)":"2f2ff15d","hasRole(bytes32,address)":"91d14854","renounceRole(bytes32,address)":"36568abe","repay(uint256)":"371fd8e6","revokeRole(bytes32,address)":"d547741f","supportsInterface(bytes4)":"01ffc9a7","token()":"fc0c546a","totalBorrowed()":"4c19386c","totalLiquidity()":"15770f92","totalShares()":"3a98ef39","usmtPlus()":"85ca1706","withdraw(uint256)":"2e1a7d4d"}}}}}