{"contracts/InvoiceRegistry.sol":{"InvoiceRegistry":{"abi":[{"inputs":[{"internalType":"address","name":"_invoiceNFT","type":"address"},{"internalType":"address","name":"defaultAdmin","type":"address"}],"stateMutability":"nonpayable","type":"constructor"},{"inputs":[],"name":"AccessControlBadConfirmation","type":"error"},{"inputs":[{"internalType":"address","name":"account","type":"address"},{"internalType":"bytes32","name":"neededRole","type":"bytes32"}],"name":"AccessControlUnauthorizedAccount","type":"error"},{"anonymous":false,"inputs":[{"indexed":true,"internalType":"uint256","name":"invoiceId","type":"uint256"},{"indexed":true,"internalType":"address","name":"seller","type":"address"},{"indexed":false,"internalType":"uint256","name":"sellerAmount","type":"uint256"},{"indexed":false,"internalType":"uint256","name":"feeAmount","type":"uint256"},{"indexed":false,"internalType":"uint256","name":"repaymentAmount","type":"uint256"}],"name":"InvoiceCleared","type":"event"},{"anonymous":false,"inputs":[{"indexed":true,"internalType":"uint256","name":"invoiceId","type":"uint256"},{"indexed":true,"internalType":"address","name":"seller","type":"address"},{"indexed":true,"internalType":"address","name":"buyer","type":"address"},{"indexed":false,"internalType":"uint256","name":"amount","type":"uint256"},{"indexed":false,"internalType":"uint256","name":"dueDate","type":"uint256"},{"indexed":false,"internalType":"bytes32","name":"metadataHash","type":"bytes32"}],"name":"InvoiceCreated","type":"event"},{"anonymous":false,"inputs":[{"indexed":true,"internalType":"uint256","name":"invoiceId","type":"uint256"},{"indexed":true,"internalType":"address","name":"seller","type":"address"},{"indexed":false,"internalType":"uint256","name":"advanceAmount","type":"uint256"}],"name":"InvoiceFinanced","type":"event"},{"anonymous":false,"inputs":[{"indexed":true,"internalType":"uint256","name":"invoiceId","type":"uint256"},{"indexed":true,"internalType":"address","name":"buyer","type":"address"},{"indexed":false,"internalType":"uint256","name":"amount","type":"uint256"}],"name":"InvoicePaid","type":"event"},{"anonymous":false,"inputs":[{"indexed":true,"internalType":"bytes32","name":"role","type":"bytes32"},{"indexed":true,"internalType":"bytes32","name":"previousAdminRole","type":"bytes32"},{"indexed":true,"internalType":"bytes32","name":"newAdminRole","type":"bytes32"}],"name":"RoleAdminChanged","type":"event"},{"anonymous":false,"inputs":[{"indexed":true,"internalType":"bytes32","name":"role","type":"bytes32"},{"indexed":true,"internalType":"address","name":"account","type":"address"},{"indexed":true,"internalType":"address","name":"sender","type":"address"}],"name":"RoleGranted","type":"event"},{"anonymous":false,"inputs":[{"indexed":true,"internalType":"bytes32","name":"role","type":"bytes32"},{"indexed":true,"internalType":"address","name":"account","type":"address"},{"indexed":true,"internalType":"address","name":"sender","type":"address"}],"name":"RoleRevoked","type":"event"},{"inputs":[],"name":"ADVANCE_ENGINE_ROLE","outputs":[{"internalType":"bytes32","name":"","type":"bytes32"}],"stateMutability":"view","type":"function"},{"inputs":[],"name":"DEFAULT_ADMIN_ROLE","outputs":[{"internalType":"bytes32","name":"","type":"bytes32"}],"stateMutability":"view","type":"function"},{"inputs":[],"name":"SETTLEMENT_ROUTER_ROLE","outputs":[{"internalType":"bytes32","name":"","type":"bytes32"}],"stateMutability":"view","type":"function"},{"inputs":[{"internalType":"address","name":"buyer","type":"address"},{"internalType":"uint256","name":"amount","type":"uint256"},{"internalType":"uint256","name":"dueDate","type":"uint256"},{"internalType":"bytes32","name":"metadataHash","type":"bytes32"}],"name":"createInvoice","outputs":[{"internalType":"uint256","name":"","type":"uint256"}],"stateMutability":"nonpayable","type":"function"},{"inputs":[{"internalType":"uint256","name":"invoiceId","type":"uint256"}],"name":"getInvoice","outputs":[{"components":[{"internalType":"uint256","name":"invoiceId","type":"uint256"},{"internalType":"address","name":"seller","type":"address"},{"internalType":"address","name":"buyer","type":"address"},{"internalType":"uint256","name":"amount","type":"uint256"},{"internalType":"uint256","name":"dueDate","type":"uint256"},{"internalType":"enum IInvoiceRegistry.InvoiceStatus","name":"status","type":"uint8"},{"internalType":"bytes32","name":"metadataHash","type":"bytes32"},{"internalType":"uint256","name":"createdAt","type":"uint256"},{"internalType":"uint256","name":"paidAt","type":"uint256"},{"internalType":"uint256","name":"clearedAt","type":"uint256"}],"internalType":"struct IInvoiceRegistry.Invoice","name":"","type":"tuple"}],"stateMutability":"view","type":"function"},{"inputs":[{"internalType":"bytes32","name":"role","type":"bytes32"}],"name":"getRoleAdmin","outputs":[{"internalType":"bytes32","name":"","type":"bytes32"}],"stateMutability":"view","type":"function"},{"inputs":[{"internalType":"address","name":"seller","type":"address"}],"name":"getSellerInvoices","outputs":[{"internalType":"uint256[]","name":"","type":"uint256[]"}],"stateMutability":"view","type":"function"},{"inputs":[{"internalType":"bytes32","name":"role","type":"bytes32"},{"internalType":"address","name":"account","type":"address"}],"name":"grantRole","outputs":[],"stateMutability":"nonpayable","type":"function"},{"inputs":[{"internalType":"bytes32","name":"role","type":"bytes32"},{"internalType":"address","name":"account","type":"address"}],"name":"hasRole","outputs":[{"internalType":"bool","name":"","type":"bool"}],"stateMutability":"view","type":"function"},{"inputs":[],"name":"invoiceNFT","outputs":[{"internalType":"contract InvoiceNFT","name":"","type":"address"}],"stateMutability":"view","type":"function"},{"inputs":[{"internalType":"uint256","name":"invoiceId","type":"uint256"},{"internalType":"uint256","name":"sellerAmount","type":"uint256"},{"internalType":"uint256","name":"feeAmount","type":"uint256"},{"internalType":"uint256","name":"repaymentAmount","type":"uint256"}],"name":"markCleared","outputs":[],"stateMutability":"nonpayable","type":"function"},{"inputs":[{"internalType":"uint256","name":"invoiceId","type":"uint256"},{"internalType":"uint256","name":"advanceAmount","type":"uint256"}],"name":"markFinanced","outputs":[],"stateMutability":"nonpayable","type":"function"},{"inputs":[{"internalType":"bytes32","name":"role","type":"bytes32"},{"internalType":"address","name":"callerConfirmation","type":"address"}],"name":"renounceRole","outputs":[],"stateMutability":"nonpayable","type":"function"},{"inputs":[{"internalType":"bytes32","name":"role","type":"bytes32"},{"internalType":"address","name":"account","type":"address"}],"name":"revokeRole","outputs":[],"stateMutability":"nonpayable","type":"function"},{"inputs":[{"internalType":"bytes4","name":"interfaceId","type":"bytes4"}],"name":"supportsInterface","outputs":[{"internalType":"bool","name":"","type":"bool"}],"stateMutability":"view","type":"function"},{"inputs":[{"internalType":"uint256","name":"invoiceId","type":"uint256"},{"internalType":"enum IInvoiceRegistry.InvoiceStatus","name":"newStatus","type":"uint8"}],"name":"updateInvoiceStatus","outputs":[],"stateMutability":"nonpayable","type":"function"}],"evm":{"bytecode":{"linkReferences":{},"object":"60a03461008d57601f61134e38819003918201601f19168301916001600160401b0383118484101761009257808492604094855283398101031261008d5780610056602061004f61006d946100a8565b92016100a8565b600180556001600160a01b039091166080526100bc565b50604051611201908161014d82396080518181816105270152610a9f0152f35b600080fd5b634e487b7160e01b600052604160045260246000fd5b51906001600160a01b038216820361008d57565b6001600160a01b031660008181527fad3228b676f7d3cd4284a5443f17f1962b36e491b30a40b2405849e597ba5fb5602052604081205490919060ff1661014857818052816020526040822081835260205260408220600160ff1982541617905533917f2f8788117e7eff1d82e926ec794901d17c78024a50270940304540a733656f0d8180a4600190565b509056fe608080604052600436101561001357600080fd5b60003560e01c90816301ffc9a714610ec25750806313d6b15d14610e875780631ab31d0414610e4c578063248a9ca314610e1d5780632f21977214610cf45780632f2ff15d14610cb557806336568abe14610c565780633a23cc0a14610ac35780634bb6f06d14610a7f5780634cd78efa146106ee57806352d93e4c1461035557806391d1485414610307578063a217fddf146102eb578063b9ab7552146101c9578063cd7e5ab5146101155763d547741f146100cf57600080fd5b346101105760403660031901126101105761010e6004356100ee610f60565b90806000526000602052610109600160406000200154611079565b611155565b005b600080fd5b3461011057602080600319360112610110576001600160a01b03610137610f76565b1660005260038152604060002060405190818382549182815201908192600052846000209060005b868282106101b55786866101758288038361100c565b604051928392818401908285525180915260408401929160005b82811061019e57505050500390f35b83518552869550938101939281019260010161018f565b83548552909301926001928301920161015f565b34610110576040366003190112610110573360009081527fad462efdaae68a7286a1934a7ee76ab613d83857273256aa60e8dc14a49ac63f60209081526040909120546004359061021c9060ff16610f8c565b806000526002825260ff6005604060002001541660048110156102d5576102915780600052600282527ebd73a1f30db28699c3ae08849193ac828bcf9281a9e28a79aebc2d337d5beb6001600160a01b0360016040600020600581018260ff19825416179055015416926040516024358152a3005b6064826040519062461bcd60e51b82526004820152600e60248201527f496e76616c6964207374617475730000000000000000000000000000000000006044820152fd5b634e487b7160e01b600052602160045260246000fd5b3461011057600036600319011261011057602060405160008152f35b3461011057604036600319011261011057610320610f60565b60043560005260006020526001600160a01b0360406000209116600052602052602060ff604060002054166040519015158152f35b346101105760803660031901126101105761036e610f76565b6001600160a01b038116156106aa57602435156106665742604435111561062257600154600019811461060c57600181016001556040516103ae81610fef565b8181526020810133815260408201906001600160a01b0385168252606083019160243583526080840192604435845260a085016000815260c0860194606435865260e087019242845261010088019460008652610120890196600088528a6000526002602052604060002099518a556001600160a01b0360018b01915116907fffffffffffffffffffffffff000000000000000000000000000000000000000091828254161790556001600160a01b0360028b0192511690825416179055516003880155516004870155519360048510156102d55761049260099560058801610fd7565b5160068601555160078501555160088401555191015533600052600360205260406000208054680100000000000000008110156105f657600181018083558110156105e0578291600052602060002001556040517ff0dde46800000000000000000000000000000000000000000000000000000000815281600482015233602482015260208160448160006001600160a01b037f0000000000000000000000000000000000000000000000000000000000000000165af180156105d4576105a9575b506020916001600160a01b036040519160243583526044358584015260643560408401521690827fb9604491123b6173aee552af1d3296e3f5e13bd358ca3862025ba6cf7778859060603393a4604051908152f35b602090813d83116105cd575b6105bf818361100c565b810103126101105782610554565b503d6105b5565b6040513d6000823e3d90fd5b634e487b7160e01b600052603260045260246000fd5b634e487b7160e01b600052604160045260246000fd5b634e487b7160e01b600052601160045260246000fd5b606460405162461bcd60e51b815260206004820152601a60248201527f4475652064617465206d75737420626520696e206675747572650000000000006044820152fd5b606460405162461bcd60e51b815260206004820152601260248201527f416d6f756e74206d757374206265203e203000000000000000000000000000006044820152fd5b606460405162461bcd60e51b815260206004820152600d60248201527f496e76616c6964206275796572000000000000000000000000000000000000006044820152fd5b346101105760403660031901126101105760043560249081359160048310159283610110578260005260029060209282845260ff6005604060002001541660048110156109265786908061098b575061082d5760018214801561097e575b1561093b575b846000528284526040600020958061076c8854151561102e565b6109265760018303610884577f0a30a076bc412cd0f7fc17f72be722a1abf7ebb6217c920c83bd5a583676584160005260008552604060002033600052855260ff6040600020541615610841575b6107c78360058901610fd7565b61082d575080820361081757509060036001600160a01b037fa6abfda59e12fa300d17e1aa76bd3233eaf23ee4feb4b02b6516ad1d60be84009342600888015586015416940154604051908152a3005b915050600391501461082557005b600942910155005b634e487b7160e01b60005260216004526000fd5b6064856019846040519262461bcd60e51b845260048401528201527f4e6f7420617574686f72697a656420746f2066696e616e6365000000000000006044820152fd5b5060008383148015610919575b156107ba577fe42f0c8616404e22cba428ac20c22164b434f2ef9f5a62c5c2dbbeacfba3a0cd60005260008552604060002033600052855260ff604060002054166107ba576064856019846040519262461bcd60e51b845260048401528201527f4e6f7420617574686f72697a656420746f20534554544c2e65000000000000006044820152fd5b5050600060038314610891565b50634e487b7160e01b60005260216004526000fd5b83601e6064926040519262461bcd60e51b845260048401528201527f496e76616c6964207472616e736974696f6e2066726f6d2049737375656400006044820152fd5b506000955081831461074c565b9050600181036109e457508561082d5781831461075257606490846040519162461bcd60e51b83528160048401528201527f496e76616c6964207472616e736974696f6e2066726f6d2046696e616e6365646044820152fd5b9095508203610a3c5760009460038203156107525783601c6064926040519262461bcd60e51b845260048401528201527f496e76616c6964207472616e736974696f6e2066726f6d2050616964000000006044820152fd5b6064836017876040519262461bcd60e51b845260048401528201527f496e766f69636520616c726561647920636c65617265640000000000000000006044820152fd5b346101105760003660031901126101105760206040516001600160a01b037f0000000000000000000000000000000000000000000000000000000000000000168152f35b34610110576020366003190112610110576004356000610120604051610ae881610fef565b8281528260208201528260408201528260608201528260808201528260a08201528260c08201528260e0820152826101008201520152806000526002602052610b37604060002054151561102e565b6000526002602052604060002060405190610b5182610fef565b805482526001600160a01b0360018201541660208301526001600160a01b036002820154166040830152600381015460608301526004810154608083015260ff6005820154169060048210156102d55760099160a0840152600681015460c0840152600781015460e084015260088101546101008401520154610120820152604051815181526001600160a01b0360208301511660208201526001600160a01b036040830151166040820152606082015160608201526080820151608082015260a082015160048110156102d557610140926101209160a084015260c081015160c084015260e081015160e08401526101008101516101008401520151610120820152f35b3461011057604036600319011261011057610c6f610f60565b336001600160a01b03821603610c8b5761010e90600435611155565b60046040517f6697b232000000000000000000000000000000000000000000000000000000008152fd5b346101105760403660031901126101105761010e600435610cd4610f60565b90806000526000602052610cef600160406000200154611079565b6110d6565b34610110576080366003190112610110573360009081527f94498272be262d32a652267025b7a1438013e864d7ba3d13ccf7e0cfd57d06a5602090815260409091205460043590610d479060ff16610f8c565b806000526002825260ff6005604060002001541660048110156102d557600203610dd95780600052600282527f0ee181dbb3d086d59040716a7926a6717bcae0213db9861a3fe693229ce151d860606001600160a01b036001604060002060058101600360ff1982541617905542600982015501541693604051906024358252604435908201526064356040820152a3005b6064826040519062461bcd60e51b82526004820152600c60248201527f4d757374206265205061696400000000000000000000000000000000000000006044820152fd5b346101105760203660031901126101105760043560005260006020526020600160406000200154604051908152f35b346101105760003660031901126101105760206040517f0a30a076bc412cd0f7fc17f72be722a1abf7ebb6217c920c83bd5a58367658418152f35b346101105760003660031901126101105760206040517fe42f0c8616404e22cba428ac20c22164b434f2ef9f5a62c5c2dbbeacfba3a0cd8152f35b3461011057602036600319011261011057600435907fffffffff00000000000000000000000000000000000000000000000000000000821680920361011057817f7965db0b0000000000000000000000000000000000000000000000000000000060209314908115610f36575b5015158152f35b7f01ffc9a70000000000000000000000000000000000000000000000000000000091501483610f2f565b602435906001600160a01b038216820361011057565b600435906001600160a01b038216820361011057565b15610f9357565b606460405162461bcd60e51b815260206004820152600e60248201527f4e6f7420617574686f72697a65640000000000000000000000000000000000006044820152fd5b9060048110156102d55760ff80198354169116179055565b610140810190811067ffffffffffffffff8211176105f657604052565b90601f8019910116810190811067ffffffffffffffff8211176105f657604052565b1561103557565b606460405162461bcd60e51b815260206004820152601160248201527f496e766f696365206e6f7420666f756e640000000000000000000000000000006044820152fd5b80600052600060205260406000203360005260205260ff604060002054161561109f5750565b604490604051907fe2517d3f0000000000000000000000000000000000000000000000000000000082523360048301526024820152fd5b90600091808352826020526001600160a01b036040842092169182845260205260ff6040842054161560001461115057808352826020526040832082845260205260408320600160ff198254161790557f2f8788117e7eff1d82e926ec794901d17c78024a50270940304540a733656f0d339380a4600190565b505090565b90600091808352826020526001600160a01b036040842092169182845260205260ff6040842054166000146111505780835282602052604083208284526020526040832060ff1981541690557ff6391f5c32d9c69d2a47ea670b442974b53935d1edc7fd64eb21e047a839171b339380a460019056fea2646970667358221220f3e20b157d7a9589ff1561072918f13e5109c88e75a039e39fc4f939a6707d4f64736f6c63430008180033","opcodes":"PUSH1 0xA0 CALLVALUE PUSH2 0x8D JUMPI PUSH1 0x1F PUSH2 0x134E CODESIZE DUP2 SWAP1 SUB SWAP2 DUP3 ADD PUSH1 0x1F NOT AND DUP4 ADD SWAP2 PUSH1 0x1 PUSH1 0x1 PUSH1 0x40 SHL SUB DUP4 GT DUP5 DUP5 LT OR PUSH2 0x92 JUMPI DUP1 DUP5 SWAP3 PUSH1 0x40 SWAP5 DUP6 MSTORE DUP4 CODECOPY DUP2 ADD SUB SLT PUSH2 0x8D JUMPI DUP1 PUSH2 0x56 PUSH1 0x20 PUSH2 0x4F PUSH2 0x6D SWAP5 PUSH2 0xA8 JUMP JUMPDEST SWAP3 ADD PUSH2 0xA8 JUMP JUMPDEST PUSH1 0x1 DUP1 SSTORE PUSH1 0x1 PUSH1 0x1 PUSH1 0xA0 SHL SUB SWAP1 SWAP2 AND PUSH1 0x80 MSTORE PUSH2 0xBC JUMP JUMPDEST POP PUSH1 0x40 MLOAD PUSH2 0x1201 SWAP1 DUP2 PUSH2 0x14D DUP3 CODECOPY PUSH1 0x80 MLOAD DUP2 DUP2 DUP2 PUSH2 0x527 ADD MSTORE PUSH2 0xA9F ADD MSTORE RETURN JUMPDEST PUSH1 0x0 DUP1 REVERT JUMPDEST PUSH4 0x4E487B71 PUSH1 0xE0 SHL PUSH1 0x0 MSTORE PUSH1 0x41 PUSH1 0x4 MSTORE PUSH1 0x24 PUSH1 0x0 REVERT JUMPDEST MLOAD SWAP1 PUSH1 0x1 PUSH1 0x1 PUSH1 0xA0 SHL SUB DUP3 AND DUP3 SUB PUSH2 0x8D JUMPI JUMP JUMPDEST PUSH1 0x1 PUSH1 0x1 PUSH1 0xA0 SHL SUB AND PUSH1 0x0 DUP2 DUP2 MSTORE PUSH32 0xAD3228B676F7D3CD4284A5443F17F1962B36E491B30A40B2405849E597BA5FB5 PUSH1 0x20 MSTORE PUSH1 0x40 DUP2 KECCAK256 SLOAD SWAP1 SWAP2 SWAP1 PUSH1 0xFF AND PUSH2 0x148 JUMPI DUP2 DUP1 MSTORE DUP2 PUSH1 0x20 MSTORE PUSH1 0x40 DUP3 KECCAK256 DUP2 DUP4 MSTORE PUSH1 0x20 MSTORE PUSH1 0x40 DUP3 KECCAK256 PUSH1 0x1 PUSH1 0xFF NOT DUP3 SLOAD AND OR SWAP1 SSTORE CALLER SWAP2 PUSH32 0x2F8788117E7EFF1D82E926EC794901D17C78024A50270940304540A733656F0D DUP2 DUP1 LOG4 PUSH1 0x1 SWAP1 JUMP JUMPDEST POP SWAP1 JUMP INVALID PUSH1 0x80 DUP1 PUSH1 0x40 MSTORE PUSH1 0x4 CALLDATASIZE LT ISZERO PUSH2 0x13 JUMPI PUSH1 0x0 DUP1 REVERT JUMPDEST PUSH1 0x0 CALLDATALOAD PUSH1 0xE0 SHR SWAP1 DUP2 PUSH4 0x1FFC9A7 EQ PUSH2 0xEC2 JUMPI POP DUP1 PUSH4 0x13D6B15D EQ PUSH2 0xE87 JUMPI DUP1 PUSH4 0x1AB31D04 EQ PUSH2 0xE4C JUMPI DUP1 PUSH4 0x248A9CA3 EQ PUSH2 0xE1D JUMPI DUP1 PUSH4 0x2F219772 EQ PUSH2 0xCF4 JUMPI DUP1 PUSH4 0x2F2FF15D EQ PUSH2 0xCB5 JUMPI DUP1 PUSH4 0x36568ABE EQ PUSH2 0xC56 JUMPI DUP1 PUSH4 0x3A23CC0A EQ PUSH2 0xAC3 JUMPI DUP1 PUSH4 0x4BB6F06D EQ PUSH2 0xA7F JUMPI DUP1 PUSH4 0x4CD78EFA EQ PUSH2 0x6EE JUMPI DUP1 PUSH4 0x52D93E4C EQ PUSH2 0x355 JUMPI DUP1 PUSH4 0x91D14854 EQ PUSH2 0x307 JUMPI DUP1 PUSH4 0xA217FDDF EQ PUSH2 0x2EB JUMPI DUP1 PUSH4 0xB9AB7552 EQ PUSH2 0x1C9 JUMPI DUP1 PUSH4 0xCD7E5AB5 EQ PUSH2 0x115 JUMPI PUSH4 0xD547741F EQ PUSH2 0xCF JUMPI PUSH1 0x0 DUP1 REVERT JUMPDEST CALLVALUE PUSH2 0x110 JUMPI PUSH1 0x40 CALLDATASIZE PUSH1 0x3 NOT ADD SLT PUSH2 0x110 JUMPI PUSH2 0x10E PUSH1 0x4 CALLDATALOAD PUSH2 0xEE PUSH2 0xF60 JUMP JUMPDEST SWAP1 DUP1 PUSH1 0x0 MSTORE PUSH1 0x0 PUSH1 0x20 MSTORE PUSH2 0x109 PUSH1 0x1 PUSH1 0x40 PUSH1 0x0 KECCAK256 ADD SLOAD PUSH2 0x1079 JUMP JUMPDEST PUSH2 0x1155 JUMP JUMPDEST STOP JUMPDEST PUSH1 0x0 DUP1 REVERT JUMPDEST CALLVALUE PUSH2 0x110 JUMPI PUSH1 0x20 DUP1 PUSH1 0x3 NOT CALLDATASIZE ADD SLT PUSH2 0x110 JUMPI PUSH1 0x1 PUSH1 0x1 PUSH1 0xA0 SHL SUB PUSH2 0x137 PUSH2 0xF76 JUMP JUMPDEST AND PUSH1 0x0 MSTORE PUSH1 0x3 DUP2 MSTORE PUSH1 0x40 PUSH1 0x0 KECCAK256 PUSH1 0x40 MLOAD SWAP1 DUP2 DUP4 DUP3 SLOAD SWAP2 DUP3 DUP2 MSTORE ADD SWAP1 DUP2 SWAP3 PUSH1 0x0 MSTORE DUP5 PUSH1 0x0 KECCAK256 SWAP1 PUSH1 0x0 JUMPDEST DUP7 DUP3 DUP3 LT PUSH2 0x1B5 JUMPI DUP7 DUP7 PUSH2 0x175 DUP3 DUP9 SUB DUP4 PUSH2 0x100C JUMP JUMPDEST PUSH1 0x40 MLOAD SWAP3 DUP4 SWAP3 DUP2 DUP5 ADD SWAP1 DUP3 DUP6 MSTORE MLOAD DUP1 SWAP2 MSTORE PUSH1 0x40 DUP5 ADD SWAP3 SWAP2 PUSH1 0x0 JUMPDEST DUP3 DUP2 LT PUSH2 0x19E JUMPI POP POP POP POP SUB SWAP1 RETURN JUMPDEST DUP4 MLOAD DUP6 MSTORE DUP7 SWAP6 POP SWAP4 DUP2 ADD SWAP4 SWAP3 DUP2 ADD SWAP3 PUSH1 0x1 ADD PUSH2 0x18F JUMP JUMPDEST DUP4 SLOAD DUP6 MSTORE SWAP1 SWAP4 ADD SWAP3 PUSH1 0x1 SWAP3 DUP4 ADD SWAP3 ADD PUSH2 0x15F JUMP JUMPDEST CALLVALUE PUSH2 0x110 JUMPI PUSH1 0x40 CALLDATASIZE PUSH1 0x3 NOT ADD SLT PUSH2 0x110 JUMPI CALLER PUSH1 0x0 SWAP1 DUP2 MSTORE PUSH32 0xAD462EFDAAE68A7286A1934A7EE76AB613D83857273256AA60E8DC14A49AC63F PUSH1 0x20 SWAP1 DUP2 MSTORE PUSH1 0x40 SWAP1 SWAP2 KECCAK256 SLOAD PUSH1 0x4 CALLDATALOAD SWAP1 PUSH2 0x21C SWAP1 PUSH1 0xFF AND PUSH2 0xF8C JUMP JUMPDEST DUP1 PUSH1 0x0 MSTORE PUSH1 0x2 DUP3 MSTORE PUSH1 0xFF PUSH1 0x5 PUSH1 0x40 PUSH1 0x0 KECCAK256 ADD SLOAD AND PUSH1 0x4 DUP2 LT ISZERO PUSH2 0x2D5 JUMPI PUSH2 0x291 JUMPI DUP1 PUSH1 0x0 MSTORE PUSH1 0x2 DUP3 MSTORE PUSH31 0xBD73A1F30DB28699C3AE08849193AC828BCF9281A9E28A79AEBC2D337D5BEB PUSH1 0x1 PUSH1 0x1 PUSH1 0xA0 SHL SUB PUSH1 0x1 PUSH1 0x40 PUSH1 0x0 KECCAK256 PUSH1 0x5 DUP2 ADD DUP3 PUSH1 0xFF NOT DUP3 SLOAD AND OR SWAP1 SSTORE ADD SLOAD AND SWAP3 PUSH1 0x40 MLOAD PUSH1 0x24 CALLDATALOAD DUP2 MSTORE LOG3 STOP JUMPDEST PUSH1 0x64 DUP3 PUSH1 0x40 MLOAD SWAP1 PUSH3 0x461BCD PUSH1 0xE5 SHL DUP3 MSTORE PUSH1 0x4 DUP3 ADD MSTORE PUSH1 0xE PUSH1 0x24 DUP3 ADD MSTORE PUSH32 0x496E76616C696420737461747573000000000000000000000000000000000000 PUSH1 0x44 DUP3 ADD MSTORE REVERT JUMPDEST PUSH4 0x4E487B71 PUSH1 0xE0 SHL PUSH1 0x0 MSTORE PUSH1 0x21 PUSH1 0x4 MSTORE PUSH1 0x24 PUSH1 0x0 REVERT JUMPDEST CALLVALUE PUSH2 0x110 JUMPI PUSH1 0x0 CALLDATASIZE PUSH1 0x3 NOT ADD SLT PUSH2 0x110 JUMPI PUSH1 0x20 PUSH1 0x40 MLOAD PUSH1 0x0 DUP2 MSTORE RETURN JUMPDEST CALLVALUE PUSH2 0x110 JUMPI PUSH1 0x40 CALLDATASIZE PUSH1 0x3 NOT ADD SLT PUSH2 0x110 JUMPI PUSH2 0x320 PUSH2 0xF60 JUMP JUMPDEST PUSH1 0x4 CALLDATALOAD PUSH1 0x0 MSTORE PUSH1 0x0 PUSH1 0x20 MSTORE PUSH1 0x1 PUSH1 0x1 PUSH1 0xA0 SHL SUB PUSH1 0x40 PUSH1 0x0 KECCAK256 SWAP2 AND PUSH1 0x0 MSTORE PUSH1 0x20 MSTORE PUSH1 0x20 PUSH1 0xFF PUSH1 0x40 PUSH1 0x0 KECCAK256 SLOAD AND PUSH1 0x40 MLOAD SWAP1 ISZERO ISZERO DUP2 MSTORE RETURN JUMPDEST CALLVALUE PUSH2 0x110 JUMPI PUSH1 0x80 CALLDATASIZE PUSH1 0x3 NOT ADD SLT PUSH2 0x110 JUMPI PUSH2 0x36E PUSH2 0xF76 JUMP JUMPDEST PUSH1 0x1 PUSH1 0x1 PUSH1 0xA0 SHL SUB DUP2 AND ISZERO PUSH2 0x6AA JUMPI PUSH1 0x24 CALLDATALOAD ISZERO PUSH2 0x666 JUMPI TIMESTAMP PUSH1 0x44 CALLDATALOAD GT ISZERO PUSH2 0x622 JUMPI PUSH1 0x1 SLOAD PUSH1 0x0 NOT DUP2 EQ PUSH2 0x60C JUMPI PUSH1 0x1 DUP2 ADD PUSH1 0x1 SSTORE PUSH1 0x40 MLOAD PUSH2 0x3AE DUP2 PUSH2 0xFEF JUMP JUMPDEST DUP2 DUP2 MSTORE PUSH1 0x20 DUP2 ADD CALLER DUP2 MSTORE PUSH1 0x40 DUP3 ADD SWAP1 PUSH1 0x1 PUSH1 0x1 PUSH1 0xA0 SHL SUB DUP6 AND DUP3 MSTORE PUSH1 0x60 DUP4 ADD SWAP2 PUSH1 0x24 CALLDATALOAD DUP4 MSTORE PUSH1 0x80 DUP5 ADD SWAP3 PUSH1 0x44 CALLDATALOAD DUP5 MSTORE PUSH1 0xA0 DUP6 ADD PUSH1 0x0 DUP2 MSTORE PUSH1 0xC0 DUP7 ADD SWAP5 PUSH1 0x64 CALLDATALOAD DUP7 MSTORE PUSH1 0xE0 DUP8 ADD SWAP3 TIMESTAMP DUP5 MSTORE PUSH2 0x100 DUP9 ADD SWAP5 PUSH1 0x0 DUP7 MSTORE PUSH2 0x120 DUP10 ADD SWAP7 PUSH1 0x0 DUP9 MSTORE DUP11 PUSH1 0x0 MSTORE PUSH1 0x2 PUSH1 0x20 MSTORE PUSH1 0x40 PUSH1 0x0 KECCAK256 SWAP10 MLOAD DUP11 SSTORE PUSH1 0x1 PUSH1 0x1 PUSH1 0xA0 SHL SUB PUSH1 0x1 DUP12 ADD SWAP2 MLOAD AND SWAP1 PUSH32 0xFFFFFFFFFFFFFFFFFFFFFFFF0000000000000000000000000000000000000000 SWAP2 DUP3 DUP3 SLOAD AND OR SWAP1 SSTORE PUSH1 0x1 PUSH1 0x1 PUSH1 0xA0 SHL SUB PUSH1 0x2 DUP12 ADD SWAP3 MLOAD AND SWAP1 DUP3 SLOAD AND OR SWAP1 SSTORE MLOAD PUSH1 0x3 DUP9 ADD SSTORE MLOAD PUSH1 0x4 DUP8 ADD SSTORE MLOAD SWAP4 PUSH1 0x4 DUP6 LT ISZERO PUSH2 0x2D5 JUMPI PUSH2 0x492 PUSH1 0x9 SWAP6 PUSH1 0x5 DUP9 ADD PUSH2 0xFD7 JUMP JUMPDEST MLOAD PUSH1 0x6 DUP7 ADD SSTORE MLOAD PUSH1 0x7 DUP6 ADD SSTORE MLOAD PUSH1 0x8 DUP5 ADD SSTORE MLOAD SWAP2 ADD SSTORE CALLER PUSH1 0x0 MSTORE PUSH1 0x3 PUSH1 0x20 MSTORE PUSH1 0x40 PUSH1 0x0 KECCAK256 DUP1 SLOAD PUSH9 0x10000000000000000 DUP2 LT ISZERO PUSH2 0x5F6 JUMPI PUSH1 0x1 DUP2 ADD DUP1 DUP4 SSTORE DUP2 LT ISZERO PUSH2 0x5E0 JUMPI DUP3 SWAP2 PUSH1 0x0 MSTORE PUSH1 0x20 PUSH1 0x0 KECCAK256 ADD SSTORE PUSH1 0x40 MLOAD PUSH32 0xF0DDE46800000000000000000000000000000000000000000000000000000000 DUP2 MSTORE DUP2 PUSH1 0x4 DUP3 ADD MSTORE CALLER PUSH1 0x24 DUP3 ADD MSTORE PUSH1 0x20 DUP2 PUSH1 0x44 DUP2 PUSH1 0x0 PUSH1 0x1 PUSH1 0x1 PUSH1 0xA0 SHL SUB PUSH32 0x0 AND GAS CALL DUP1 ISZERO PUSH2 0x5D4 JUMPI PUSH2 0x5A9 JUMPI JUMPDEST POP PUSH1 0x20 SWAP2 PUSH1 0x1 PUSH1 0x1 PUSH1 0xA0 SHL SUB PUSH1 0x40 MLOAD SWAP2 PUSH1 0x24 CALLDATALOAD DUP4 MSTORE PUSH1 0x44 CALLDATALOAD DUP6 DUP5 ADD MSTORE PUSH1 0x64 CALLDATALOAD PUSH1 0x40 DUP5 ADD MSTORE AND SWAP1 DUP3 PUSH32 0xB9604491123B6173AEE552AF1D3296E3F5E13BD358CA3862025BA6CF77788590 PUSH1 0x60 CALLER SWAP4 LOG4 PUSH1 0x40 MLOAD SWAP1 DUP2 MSTORE RETURN JUMPDEST PUSH1 0x20 SWAP1 DUP2 RETURNDATASIZE DUP4 GT PUSH2 0x5CD JUMPI JUMPDEST PUSH2 0x5BF DUP2 DUP4 PUSH2 0x100C JUMP JUMPDEST DUP2 ADD SUB SLT PUSH2 0x110 JUMPI DUP3 PUSH2 0x554 JUMP JUMPDEST POP RETURNDATASIZE PUSH2 0x5B5 JUMP JUMPDEST PUSH1 0x40 MLOAD RETURNDATASIZE PUSH1 0x0 DUP3 RETURNDATACOPY RETURNDATASIZE SWAP1 REVERT JUMPDEST PUSH4 0x4E487B71 PUSH1 0xE0 SHL PUSH1 0x0 MSTORE PUSH1 0x32 PUSH1 0x4 MSTORE PUSH1 0x24 PUSH1 0x0 REVERT JUMPDEST PUSH4 0x4E487B71 PUSH1 0xE0 SHL PUSH1 0x0 MSTORE PUSH1 0x41 PUSH1 0x4 MSTORE PUSH1 0x24 PUSH1 0x0 REVERT JUMPDEST PUSH4 0x4E487B71 PUSH1 0xE0 SHL PUSH1 0x0 MSTORE PUSH1 0x11 PUSH1 0x4 MSTORE PUSH1 0x24 PUSH1 0x0 REVERT JUMPDEST PUSH1 0x64 PUSH1 0x40 MLOAD PUSH3 0x461BCD PUSH1 0xE5 SHL DUP2 MSTORE PUSH1 0x20 PUSH1 0x4 DUP3 ADD MSTORE PUSH1 0x1A PUSH1 0x24 DUP3 ADD MSTORE PUSH32 0x4475652064617465206D75737420626520696E20667574757265000000000000 PUSH1 0x44 DUP3 ADD MSTORE REVERT JUMPDEST PUSH1 0x64 PUSH1 0x40 MLOAD PUSH3 0x461BCD PUSH1 0xE5 SHL DUP2 MSTORE PUSH1 0x20 PUSH1 0x4 DUP3 ADD MSTORE PUSH1 0x12 PUSH1 0x24 DUP3 ADD MSTORE PUSH32 0x416D6F756E74206D757374206265203E20300000000000000000000000000000 PUSH1 0x44 DUP3 ADD MSTORE REVERT JUMPDEST PUSH1 0x64 PUSH1 0x40 MLOAD PUSH3 0x461BCD PUSH1 0xE5 SHL DUP2 MSTORE PUSH1 0x20 PUSH1 0x4 DUP3 ADD MSTORE PUSH1 0xD PUSH1 0x24 DUP3 ADD MSTORE PUSH32 0x496E76616C696420627579657200000000000000000000000000000000000000 PUSH1 0x44 DUP3 ADD MSTORE REVERT JUMPDEST CALLVALUE PUSH2 0x110 JUMPI PUSH1 0x40 CALLDATASIZE PUSH1 0x3 NOT ADD SLT PUSH2 0x110 JUMPI PUSH1 0x4 CALLDATALOAD PUSH1 0x24 SWAP1 DUP2 CALLDATALOAD SWAP2 PUSH1 0x4 DUP4 LT ISZERO SWAP3 DUP4 PUSH2 0x110 JUMPI DUP3 PUSH1 0x0 MSTORE PUSH1 0x2 SWAP1 PUSH1 0x20 SWAP3 DUP3 DUP5 MSTORE PUSH1 0xFF PUSH1 0x5 PUSH1 0x40 PUSH1 0x0 KECCAK256 ADD SLOAD AND PUSH1 0x4 DUP2 LT ISZERO PUSH2 0x926 JUMPI DUP7 SWAP1 DUP1 PUSH2 0x98B JUMPI POP PUSH2 0x82D JUMPI PUSH1 0x1 DUP3 EQ DUP1 ISZERO PUSH2 0x97E JUMPI JUMPDEST ISZERO PUSH2 0x93B JUMPI JUMPDEST DUP5 PUSH1 0x0 MSTORE DUP3 DUP5 MSTORE PUSH1 0x40 PUSH1 0x0 KECCAK256 SWAP6 DUP1 PUSH2 0x76C DUP9 SLOAD ISZERO ISZERO PUSH2 0x102E JUMP JUMPDEST PUSH2 0x926 JUMPI PUSH1 0x1 DUP4 SUB PUSH2 0x884 JUMPI PUSH32 0xA30A076BC412CD0F7FC17F72BE722A1ABF7EBB6217C920C83BD5A5836765841 PUSH1 0x0 MSTORE PUSH1 0x0 DUP6 MSTORE PUSH1 0x40 PUSH1 0x0 KECCAK256 CALLER PUSH1 0x0 MSTORE DUP6 MSTORE PUSH1 0xFF PUSH1 0x40 PUSH1 0x0 KECCAK256 SLOAD AND ISZERO PUSH2 0x841 JUMPI JUMPDEST PUSH2 0x7C7 DUP4 PUSH1 0x5 DUP10 ADD PUSH2 0xFD7 JUMP JUMPDEST PUSH2 0x82D JUMPI POP DUP1 DUP3 SUB PUSH2 0x817 JUMPI POP SWAP1 PUSH1 0x3 PUSH1 0x1 PUSH1 0x1 PUSH1 0xA0 SHL SUB PUSH32 0xA6ABFDA59E12FA300D17E1AA76BD3233EAF23EE4FEB4B02B6516AD1D60BE8400 SWAP4 TIMESTAMP PUSH1 0x8 DUP9 ADD SSTORE DUP7 ADD SLOAD AND SWAP5 ADD SLOAD PUSH1 0x40 MLOAD SWAP1 DUP2 MSTORE LOG3 STOP JUMPDEST SWAP2 POP POP PUSH1 0x3 SWAP2 POP EQ PUSH2 0x825 JUMPI STOP JUMPDEST PUSH1 0x9 TIMESTAMP SWAP2 ADD SSTORE STOP JUMPDEST PUSH4 0x4E487B71 PUSH1 0xE0 SHL PUSH1 0x0 MSTORE PUSH1 0x21 PUSH1 0x4 MSTORE PUSH1 0x0 REVERT JUMPDEST PUSH1 0x64 DUP6 PUSH1 0x19 DUP5 PUSH1 0x40 MLOAD SWAP3 PUSH3 0x461BCD PUSH1 0xE5 SHL DUP5 MSTORE PUSH1 0x4 DUP5 ADD MSTORE DUP3 ADD MSTORE PUSH32 0x4E6F7420617574686F72697A656420746F2066696E616E636500000000000000 PUSH1 0x44 DUP3 ADD MSTORE REVERT JUMPDEST POP PUSH1 0x0 DUP4 DUP4 EQ DUP1 ISZERO PUSH2 0x919 JUMPI JUMPDEST ISZERO PUSH2 0x7BA JUMPI PUSH32 0xE42F0C8616404E22CBA428AC20C22164B434F2EF9F5A62C5C2DBBEACFBA3A0CD PUSH1 0x0 MSTORE PUSH1 0x0 DUP6 MSTORE PUSH1 0x40 PUSH1 0x0 KECCAK256 CALLER PUSH1 0x0 MSTORE DUP6 MSTORE PUSH1 0xFF PUSH1 0x40 PUSH1 0x0 KECCAK256 SLOAD AND PUSH2 0x7BA JUMPI PUSH1 0x64 DUP6 PUSH1 0x19 DUP5 PUSH1 0x40 MLOAD SWAP3 PUSH3 0x461BCD PUSH1 0xE5 SHL DUP5 MSTORE PUSH1 0x4 DUP5 ADD MSTORE DUP3 ADD MSTORE PUSH32 0x4E6F7420617574686F72697A656420746F20534554544C2E6500000000000000 PUSH1 0x44 DUP3 ADD MSTORE REVERT JUMPDEST POP POP PUSH1 0x0 PUSH1 0x3 DUP4 EQ PUSH2 0x891 JUMP JUMPDEST POP PUSH4 0x4E487B71 PUSH1 0xE0 SHL PUSH1 0x0 MSTORE PUSH1 0x21 PUSH1 0x4 MSTORE PUSH1 0x0 REVERT JUMPDEST DUP4 PUSH1 0x1E PUSH1 0x64 SWAP3 PUSH1 0x40 MLOAD SWAP3 PUSH3 0x461BCD PUSH1 0xE5 SHL DUP5 MSTORE PUSH1 0x4 DUP5 ADD MSTORE DUP3 ADD MSTORE PUSH32 0x496E76616C6964207472616E736974696F6E2066726F6D204973737565640000 PUSH1 0x44 DUP3 ADD MSTORE REVERT JUMPDEST POP PUSH1 0x0 SWAP6 POP DUP2 DUP4 EQ PUSH2 0x74C JUMP JUMPDEST SWAP1 POP PUSH1 0x1 DUP2 SUB PUSH2 0x9E4 JUMPI POP DUP6 PUSH2 0x82D JUMPI DUP2 DUP4 EQ PUSH2 0x752 JUMPI PUSH1 0x64 SWAP1 DUP5 PUSH1 0x40 MLOAD SWAP2 PUSH3 0x461BCD PUSH1 0xE5 SHL DUP4 MSTORE DUP2 PUSH1 0x4 DUP5 ADD MSTORE DUP3 ADD MSTORE PUSH32 0x496E76616C6964207472616E736974696F6E2066726F6D2046696E616E636564 PUSH1 0x44 DUP3 ADD MSTORE REVERT JUMPDEST SWAP1 SWAP6 POP DUP3 SUB PUSH2 0xA3C JUMPI PUSH1 0x0 SWAP5 PUSH1 0x3 DUP3 SUB ISZERO PUSH2 0x752 JUMPI DUP4 PUSH1 0x1C PUSH1 0x64 SWAP3 PUSH1 0x40 MLOAD SWAP3 PUSH3 0x461BCD PUSH1 0xE5 SHL DUP5 MSTORE PUSH1 0x4 DUP5 ADD MSTORE DUP3 ADD MSTORE PUSH32 0x496E76616C6964207472616E736974696F6E2066726F6D205061696400000000 PUSH1 0x44 DUP3 ADD MSTORE REVERT JUMPDEST PUSH1 0x64 DUP4 PUSH1 0x17 DUP8 PUSH1 0x40 MLOAD SWAP3 PUSH3 0x461BCD PUSH1 0xE5 SHL DUP5 MSTORE PUSH1 0x4 DUP5 ADD MSTORE DUP3 ADD MSTORE PUSH32 0x496E766F69636520616C726561647920636C6561726564000000000000000000 PUSH1 0x44 DUP3 ADD MSTORE REVERT JUMPDEST CALLVALUE PUSH2 0x110 JUMPI PUSH1 0x0 CALLDATASIZE PUSH1 0x3 NOT ADD SLT PUSH2 0x110 JUMPI PUSH1 0x20 PUSH1 0x40 MLOAD PUSH1 0x1 PUSH1 0x1 PUSH1 0xA0 SHL SUB PUSH32 0x0 AND DUP2 MSTORE RETURN JUMPDEST CALLVALUE PUSH2 0x110 JUMPI PUSH1 0x20 CALLDATASIZE PUSH1 0x3 NOT ADD SLT PUSH2 0x110 JUMPI PUSH1 0x4 CALLDATALOAD PUSH1 0x0 PUSH2 0x120 PUSH1 0x40 MLOAD PUSH2 0xAE8 DUP2 PUSH2 0xFEF JUMP JUMPDEST DUP3 DUP2 MSTORE DUP3 PUSH1 0x20 DUP3 ADD MSTORE DUP3 PUSH1 0x40 DUP3 ADD MSTORE DUP3 PUSH1 0x60 DUP3 ADD MSTORE DUP3 PUSH1 0x80 DUP3 ADD MSTORE DUP3 PUSH1 0xA0 DUP3 ADD MSTORE DUP3 PUSH1 0xC0 DUP3 ADD MSTORE DUP3 PUSH1 0xE0 DUP3 ADD MSTORE DUP3 PUSH2 0x100 DUP3 ADD MSTORE ADD MSTORE DUP1 PUSH1 0x0 MSTORE PUSH1 0x2 PUSH1 0x20 MSTORE PUSH2 0xB37 PUSH1 0x40 PUSH1 0x0 KECCAK256 SLOAD ISZERO ISZERO PUSH2 0x102E JUMP JUMPDEST PUSH1 0x0 MSTORE PUSH1 0x2 PUSH1 0x20 MSTORE PUSH1 0x40 PUSH1 0x0 KECCAK256 PUSH1 0x40 MLOAD SWAP1 PUSH2 0xB51 DUP3 PUSH2 0xFEF JUMP JUMPDEST DUP1 SLOAD DUP3 MSTORE PUSH1 0x1 PUSH1 0x1 PUSH1 0xA0 SHL SUB PUSH1 0x1 DUP3 ADD SLOAD AND PUSH1 0x20 DUP4 ADD MSTORE PUSH1 0x1 PUSH1 0x1 PUSH1 0xA0 SHL SUB PUSH1 0x2 DUP3 ADD SLOAD AND PUSH1 0x40 DUP4 ADD MSTORE PUSH1 0x3 DUP2 ADD SLOAD PUSH1 0x60 DUP4 ADD MSTORE PUSH1 0x4 DUP2 ADD SLOAD PUSH1 0x80 DUP4 ADD MSTORE PUSH1 0xFF PUSH1 0x5 DUP3 ADD SLOAD AND SWAP1 PUSH1 0x4 DUP3 LT ISZERO PUSH2 0x2D5 JUMPI PUSH1 0x9 SWAP2 PUSH1 0xA0 DUP5 ADD MSTORE PUSH1 0x6 DUP2 ADD SLOAD PUSH1 0xC0 DUP5 ADD MSTORE PUSH1 0x7 DUP2 ADD SLOAD PUSH1 0xE0 DUP5 ADD MSTORE PUSH1 0x8 DUP2 ADD SLOAD PUSH2 0x100 DUP5 ADD MSTORE ADD SLOAD PUSH2 0x120 DUP3 ADD MSTORE PUSH1 0x40 MLOAD DUP2 MLOAD DUP2 MSTORE PUSH1 0x1 PUSH1 0x1 PUSH1 0xA0 SHL SUB PUSH1 0x20 DUP4 ADD MLOAD AND PUSH1 0x20 DUP3 ADD MSTORE PUSH1 0x1 PUSH1 0x1 PUSH1 0xA0 SHL SUB PUSH1 0x40 DUP4 ADD MLOAD AND PUSH1 0x40 DUP3 ADD MSTORE PUSH1 0x60 DUP3 ADD MLOAD PUSH1 0x60 DUP3 ADD MSTORE PUSH1 0x80 DUP3 ADD MLOAD PUSH1 0x80 DUP3 ADD MSTORE PUSH1 0xA0 DUP3 ADD MLOAD PUSH1 0x4 DUP2 LT ISZERO PUSH2 0x2D5 JUMPI PUSH2 0x140 SWAP3 PUSH2 0x120 SWAP2 PUSH1 0xA0 DUP5 ADD MSTORE PUSH1 0xC0 DUP2 ADD MLOAD PUSH1 0xC0 DUP5 ADD MSTORE PUSH1 0xE0 DUP2 ADD MLOAD PUSH1 0xE0 DUP5 ADD MSTORE PUSH2 0x100 DUP2 ADD MLOAD PUSH2 0x100 DUP5 ADD MSTORE ADD MLOAD PUSH2 0x120 DUP3 ADD MSTORE RETURN JUMPDEST CALLVALUE PUSH2 0x110 JUMPI PUSH1 0x40 CALLDATASIZE PUSH1 0x3 NOT ADD SLT PUSH2 0x110 JUMPI PUSH2 0xC6F PUSH2 0xF60 JUMP JUMPDEST CALLER PUSH1 0x1 PUSH1 0x1 PUSH1 0xA0 SHL SUB DUP3 AND SUB PUSH2 0xC8B JUMPI PUSH2 0x10E SWAP1 PUSH1 0x4 CALLDATALOAD PUSH2 0x1155 JUMP JUMPDEST PUSH1 0x4 PUSH1 0x40 MLOAD PUSH32 0x6697B23200000000000000000000000000000000000000000000000000000000 DUP2 MSTORE REVERT JUMPDEST CALLVALUE PUSH2 0x110 JUMPI PUSH1 0x40 CALLDATASIZE PUSH1 0x3 NOT ADD SLT PUSH2 0x110 JUMPI PUSH2 0x10E PUSH1 0x4 CALLDATALOAD PUSH2 0xCD4 PUSH2 0xF60 JUMP JUMPDEST SWAP1 DUP1 PUSH1 0x0 MSTORE PUSH1 0x0 PUSH1 0x20 MSTORE PUSH2 0xCEF PUSH1 0x1 PUSH1 0x40 PUSH1 0x0 KECCAK256 ADD SLOAD PUSH2 0x1079 JUMP JUMPDEST PUSH2 0x10D6 JUMP JUMPDEST CALLVALUE PUSH2 0x110 JUMPI PUSH1 0x80 CALLDATASIZE PUSH1 0x3 NOT ADD SLT PUSH2 0x110 JUMPI CALLER PUSH1 0x0 SWAP1 DUP2 MSTORE PUSH32 0x94498272BE262D32A652267025B7A1438013E864D7BA3D13CCF7E0CFD57D06A5 PUSH1 0x20 SWAP1 DUP2 MSTORE PUSH1 0x40 SWAP1 SWAP2 KECCAK256 SLOAD PUSH1 0x4 CALLDATALOAD SWAP1 PUSH2 0xD47 SWAP1 PUSH1 0xFF AND PUSH2 0xF8C JUMP JUMPDEST DUP1 PUSH1 0x0 MSTORE PUSH1 0x2 DUP3 MSTORE PUSH1 0xFF PUSH1 0x5 PUSH1 0x40 PUSH1 0x0 KECCAK256 ADD SLOAD AND PUSH1 0x4 DUP2 LT ISZERO PUSH2 0x2D5 JUMPI PUSH1 0x2 SUB PUSH2 0xDD9 JUMPI DUP1 PUSH1 0x0 MSTORE PUSH1 0x2 DUP3 MSTORE PUSH32 0xEE181DBB3D086D59040716A7926A6717BCAE0213DB9861A3FE693229CE151D8 PUSH1 0x60 PUSH1 0x1 PUSH1 0x1 PUSH1 0xA0 SHL SUB PUSH1 0x1 PUSH1 0x40 PUSH1 0x0 KECCAK256 PUSH1 0x5 DUP2 ADD PUSH1 0x3 PUSH1 0xFF NOT DUP3 SLOAD AND OR SWAP1 SSTORE TIMESTAMP PUSH1 0x9 DUP3 ADD SSTORE ADD SLOAD AND SWAP4 PUSH1 0x40 MLOAD SWAP1 PUSH1 0x24 CALLDATALOAD DUP3 MSTORE PUSH1 0x44 CALLDATALOAD SWAP1 DUP3 ADD MSTORE PUSH1 0x64 CALLDATALOAD PUSH1 0x40 DUP3 ADD MSTORE LOG3 STOP JUMPDEST PUSH1 0x64 DUP3 PUSH1 0x40 MLOAD SWAP1 PUSH3 0x461BCD PUSH1 0xE5 SHL DUP3 MSTORE PUSH1 0x4 DUP3 ADD MSTORE PUSH1 0xC PUSH1 0x24 DUP3 ADD MSTORE PUSH32 0x4D75737420626520506169640000000000000000000000000000000000000000 PUSH1 0x44 DUP3 ADD MSTORE REVERT JUMPDEST CALLVALUE PUSH2 0x110 JUMPI PUSH1 0x20 CALLDATASIZE PUSH1 0x3 NOT ADD SLT PUSH2 0x110 JUMPI PUSH1 0x4 CALLDATALOAD PUSH1 0x0 MSTORE PUSH1 0x0 PUSH1 0x20 MSTORE PUSH1 0x20 PUSH1 0x1 PUSH1 0x40 PUSH1 0x0 KECCAK256 ADD SLOAD PUSH1 0x40 MLOAD SWAP1 DUP2 MSTORE RETURN JUMPDEST CALLVALUE PUSH2 0x110 JUMPI PUSH1 0x0 CALLDATASIZE PUSH1 0x3 NOT ADD SLT PUSH2 0x110 JUMPI PUSH1 0x20 PUSH1 0x40 MLOAD PUSH32 0xA30A076BC412CD0F7FC17F72BE722A1ABF7EBB6217C920C83BD5A5836765841 DUP2 MSTORE RETURN JUMPDEST CALLVALUE PUSH2 0x110 JUMPI PUSH1 0x0 CALLDATASIZE PUSH1 0x3 NOT ADD SLT PUSH2 0x110 JUMPI PUSH1 0x20 PUSH1 0x40 MLOAD PUSH32 0xE42F0C8616404E22CBA428AC20C22164B434F2EF9F5A62C5C2DBBEACFBA3A0CD DUP2 MSTORE RETURN JUMPDEST CALLVALUE PUSH2 0x110 JUMPI PUSH1 0x20 CALLDATASIZE PUSH1 0x3 NOT ADD SLT PUSH2 0x110 JUMPI PUSH1 0x4 CALLDATALOAD SWAP1 PUSH32 0xFFFFFFFF00000000000000000000000000000000000000000000000000000000 DUP3 AND DUP1 SWAP3 SUB PUSH2 0x110 JUMPI DUP2 PUSH32 0x7965DB0B00000000000000000000000000000000000000000000000000000000 PUSH1 0x20 SWAP4 EQ SWAP1 DUP2 ISZERO PUSH2 0xF36 JUMPI JUMPDEST POP ISZERO ISZERO DUP2 MSTORE RETURN JUMPDEST PUSH32 0x1FFC9A700000000000000000000000000000000000000000000000000000000 SWAP2 POP EQ DUP4 PUSH2 0xF2F JUMP JUMPDEST PUSH1 0x24 CALLDATALOAD SWAP1 PUSH1 0x1 PUSH1 0x1 PUSH1 0xA0 SHL SUB DUP3 AND DUP3 SUB PUSH2 0x110 JUMPI JUMP JUMPDEST PUSH1 0x4 CALLDATALOAD SWAP1 PUSH1 0x1 PUSH1 0x1 PUSH1 0xA0 SHL SUB DUP3 AND DUP3 SUB PUSH2 0x110 JUMPI JUMP JUMPDEST ISZERO PUSH2 0xF93 JUMPI JUMP JUMPDEST PUSH1 0x64 PUSH1 0x40 MLOAD PUSH3 0x461BCD PUSH1 0xE5 SHL DUP2 MSTORE PUSH1 0x20 PUSH1 0x4 DUP3 ADD MSTORE PUSH1 0xE PUSH1 0x24 DUP3 ADD MSTORE PUSH32 0x4E6F7420617574686F72697A6564000000000000000000000000000000000000 PUSH1 0x44 DUP3 ADD MSTORE REVERT JUMPDEST SWAP1 PUSH1 0x4 DUP2 LT ISZERO PUSH2 0x2D5 JUMPI PUSH1 0xFF DUP1 NOT DUP4 SLOAD AND SWAP2 AND OR SWAP1 SSTORE JUMP JUMPDEST PUSH2 0x140 DUP2 ADD SWAP1 DUP2 LT PUSH8 0xFFFFFFFFFFFFFFFF DUP3 GT OR PUSH2 0x5F6 JUMPI PUSH1 0x40 MSTORE JUMP JUMPDEST SWAP1 PUSH1 0x1F DUP1 NOT SWAP2 ADD AND DUP2 ADD SWAP1 DUP2 LT PUSH8 0xFFFFFFFFFFFFFFFF DUP3 GT OR PUSH2 0x5F6 JUMPI PUSH1 0x40 MSTORE JUMP JUMPDEST ISZERO PUSH2 0x1035 JUMPI JUMP JUMPDEST PUSH1 0x64 PUSH1 0x40 MLOAD PUSH3 0x461BCD PUSH1 0xE5 SHL DUP2 MSTORE PUSH1 0x20 PUSH1 0x4 DUP3 ADD MSTORE PUSH1 0x11 PUSH1 0x24 DUP3 ADD MSTORE PUSH32 0x496E766F696365206E6F7420666F756E64000000000000000000000000000000 PUSH1 0x44 DUP3 ADD MSTORE REVERT JUMPDEST DUP1 PUSH1 0x0 MSTORE PUSH1 0x0 PUSH1 0x20 MSTORE PUSH1 0x40 PUSH1 0x0 KECCAK256 CALLER PUSH1 0x0 MSTORE PUSH1 0x20 MSTORE PUSH1 0xFF PUSH1 0x40 PUSH1 0x0 KECCAK256 SLOAD AND ISZERO PUSH2 0x109F JUMPI POP JUMP JUMPDEST PUSH1 0x44 SWAP1 PUSH1 0x40 MLOAD SWAP1 PUSH32 0xE2517D3F00000000000000000000000000000000000000000000000000000000 DUP3 MSTORE CALLER PUSH1 0x4 DUP4 ADD MSTORE PUSH1 0x24 DUP3 ADD MSTORE REVERT JUMPDEST SWAP1 PUSH1 0x0 SWAP2 DUP1 DUP4 MSTORE DUP3 PUSH1 0x20 MSTORE PUSH1 0x1 PUSH1 0x1 PUSH1 0xA0 SHL SUB PUSH1 0x40 DUP5 KECCAK256 SWAP3 AND SWAP2 DUP3 DUP5 MSTORE PUSH1 0x20 MSTORE PUSH1 0xFF PUSH1 0x40 DUP5 KECCAK256 SLOAD AND ISZERO PUSH1 0x0 EQ PUSH2 0x1150 JUMPI DUP1 DUP4 MSTORE DUP3 PUSH1 0x20 MSTORE PUSH1 0x40 DUP4 KECCAK256 DUP3 DUP5 MSTORE PUSH1 0x20 MSTORE PUSH1 0x40 DUP4 KECCAK256 PUSH1 0x1 PUSH1 0xFF NOT DUP3 SLOAD AND OR SWAP1 SSTORE PUSH32 0x2F8788117E7EFF1D82E926EC794901D17C78024A50270940304540A733656F0D CALLER SWAP4 DUP1 LOG4 PUSH1 0x1 SWAP1 JUMP JUMPDEST POP POP SWAP1 JUMP JUMPDEST SWAP1 PUSH1 0x0 SWAP2 DUP1 DUP4 MSTORE DUP3 PUSH1 0x20 MSTORE PUSH1 0x1 PUSH1 0x1 PUSH1 0xA0 SHL SUB PUSH1 0x40 DUP5 KECCAK256 SWAP3 AND SWAP2 DUP3 DUP5 MSTORE PUSH1 0x20 MSTORE PUSH1 0xFF PUSH1 0x40 DUP5 KECCAK256 SLOAD AND PUSH1 0x0 EQ PUSH2 0x1150 JUMPI DUP1 DUP4 MSTORE DUP3 PUSH1 0x20 MSTORE PUSH1 0x40 DUP4 KECCAK256 DUP3 DUP5 MSTORE PUSH1 0x20 MSTORE PUSH1 0x40 DUP4 KECCAK256 PUSH1 0xFF NOT DUP2 SLOAD AND SWAP1 SSTORE PUSH32 0xF6391F5C32D9C69D2A47EA670B442974B53935D1EDC7FD64EB21E047A839171B CALLER SWAP4 DUP1 LOG4 PUSH1 0x1 SWAP1 JUMP INVALID LOG2 PUSH5 0x6970667358 0x22 SLT KECCAK256 RETURN 0xE2 SIGNEXTEND ISZERO PUSH30 0x7A9589FF1561072918F13E5109C88E75A039E39FC4F939A6707D4F64736F PUSH13 0x63430008180033000000000000 "},"methodIdentifiers":{"ADVANCE_ENGINE_ROLE()":"1ab31d04","DEFAULT_ADMIN_ROLE()":"a217fddf","SETTLEMENT_ROUTER_ROLE()":"13d6b15d","createInvoice(address,uint256,uint256,bytes32)":"52d93e4c","getInvoice(uint256)":"3a23cc0a","getRoleAdmin(bytes32)":"248a9ca3","getSellerInvoices(address)":"cd7e5ab5","grantRole(bytes32,address)":"2f2ff15d","hasRole(bytes32,address)":"91d14854","invoiceNFT()":"4bb6f06d","markCleared(uint256,uint256,uint256,uint256)":"2f219772","markFinanced(uint256,uint256)":"b9ab7552","renounceRole(bytes32,address)":"36568abe","revokeRole(bytes32,address)":"d547741f","supportsInterface(bytes4)":"01ffc9a7","updateInvoiceStatus(uint256,uint8)":"4cd78efa"}}}}}