{"contracts/Staking.sol":{"Staking":{"abi":[{"inputs":[{"internalType":"address","name":"_usmtPlus","type":"address"},{"internalType":"address","name":"defaultAdmin","type":"address"}],"stateMutability":"nonpayable","type":"constructor"},{"inputs":[],"name":"AccessControlBadConfirmation","type":"error"},{"inputs":[{"internalType":"address","name":"account","type":"address"},{"internalType":"bytes32","name":"neededRole","type":"bytes32"}],"name":"AccessControlUnauthorizedAccount","type":"error"},{"inputs":[{"internalType":"address","name":"spender","type":"address"},{"internalType":"uint256","name":"allowance","type":"uint256"},{"internalType":"uint256","name":"needed","type":"uint256"}],"name":"ERC20InsufficientAllowance","type":"error"},{"inputs":[{"internalType":"address","name":"sender","type":"address"},{"internalType":"uint256","name":"balance","type":"uint256"},{"internalType":"uint256","name":"needed","type":"uint256"}],"name":"ERC20InsufficientBalance","type":"error"},{"inputs":[{"internalType":"address","name":"approver","type":"address"}],"name":"ERC20InvalidApprover","type":"error"},{"inputs":[{"internalType":"address","name":"receiver","type":"address"}],"name":"ERC20InvalidReceiver","type":"error"},{"inputs":[{"internalType":"address","name":"sender","type":"address"}],"name":"ERC20InvalidSender","type":"error"},{"inputs":[{"internalType":"address","name":"spender","type":"address"}],"name":"ERC20InvalidSpender","type":"error"},{"inputs":[{"internalType":"address","name":"token","type":"address"}],"name":"SafeERC20FailedOperation","type":"error"},{"anonymous":false,"inputs":[{"indexed":true,"internalType":"address","name":"owner","type":"address"},{"indexed":true,"internalType":"address","name":"spender","type":"address"},{"indexed":false,"internalType":"uint256","name":"value","type":"uint256"}],"name":"Approval","type":"event"},{"anonymous":false,"inputs":[{"indexed":false,"internalType":"uint256","name":"totalAmount","type":"uint256"}],"name":"RewardsDistributed","type":"event"},{"anonymous":false,"inputs":[{"indexed":true,"internalType":"bytes32","name":"role","type":"bytes32"},{"indexed":true,"internalType":"bytes32","name":"previousAdminRole","type":"bytes32"},{"indexed":true,"internalType":"bytes32","name":"newAdminRole","type":"bytes32"}],"name":"RoleAdminChanged","type":"event"},{"anonymous":false,"inputs":[{"indexed":true,"internalType":"bytes32","name":"role","type":"bytes32"},{"indexed":true,"internalType":"address","name":"account","type":"address"},{"indexed":true,"internalType":"address","name":"sender","type":"address"}],"name":"RoleGranted","type":"event"},{"anonymous":false,"inputs":[{"indexed":true,"internalType":"bytes32","name":"role","type":"bytes32"},{"indexed":true,"internalType":"address","name":"account","type":"address"},{"indexed":true,"internalType":"address","name":"sender","type":"address"}],"name":"RoleRevoked","type":"event"},{"anonymous":false,"inputs":[{"indexed":true,"internalType":"address","name":"user","type":"address"},{"indexed":false,"internalType":"uint256","name":"usmtAmount","type":"uint256"},{"indexed":false,"internalType":"uint256","name":"susmtAmount","type":"uint256"}],"name":"Stake","type":"event"},{"anonymous":false,"inputs":[{"indexed":true,"internalType":"address","name":"from","type":"address"},{"indexed":true,"internalType":"address","name":"to","type":"address"},{"indexed":false,"internalType":"uint256","name":"value","type":"uint256"}],"name":"Transfer","type":"event"},{"anonymous":false,"inputs":[{"indexed":true,"internalType":"address","name":"user","type":"address"},{"indexed":false,"internalType":"uint256","name":"usmtAmount","type":"uint256"},{"indexed":false,"internalType":"uint256","name":"susmtAmount","type":"uint256"}],"name":"Unstake","type":"event"},{"inputs":[],"name":"DEFAULT_ADMIN_ROLE","outputs":[{"internalType":"bytes32","name":"","type":"bytes32"}],"stateMutability":"view","type":"function"},{"inputs":[],"name":"REWARDS_DISTRIBUTOR_ROLE","outputs":[{"internalType":"bytes32","name":"","type":"bytes32"}],"stateMutability":"view","type":"function"},{"inputs":[{"internalType":"address","name":"owner","type":"address"},{"internalType":"address","name":"spender","type":"address"}],"name":"allowance","outputs":[{"internalType":"uint256","name":"","type":"uint256"}],"stateMutability":"view","type":"function"},{"inputs":[{"internalType":"address","name":"spender","type":"address"},{"internalType":"uint256","name":"value","type":"uint256"}],"name":"approve","outputs":[{"internalType":"bool","name":"","type":"bool"}],"stateMutability":"nonpayable","type":"function"},{"inputs":[{"internalType":"address","name":"account","type":"address"}],"name":"balanceOf","outputs":[{"internalType":"uint256","name":"","type":"uint256"}],"stateMutability":"view","type":"function"},{"inputs":[],"name":"decimals","outputs":[{"internalType":"uint8","name":"","type":"uint8"}],"stateMutability":"pure","type":"function"},{"inputs":[{"internalType":"uint256","name":"amount","type":"uint256"}],"name":"distributeRewards","outputs":[],"stateMutability":"nonpayable","type":"function"},{"inputs":[{"internalType":"bytes32","name":"role","type":"bytes32"}],"name":"getRoleAdmin","outputs":[{"internalType":"bytes32","name":"","type":"bytes32"}],"stateMutability":"view","type":"function"},{"inputs":[{"internalType":"address","name":"user","type":"address"}],"name":"getStakedBalance","outputs":[{"internalType":"uint256","name":"","type":"uint256"}],"stateMutability":"view","type":"function"},{"inputs":[{"internalType":"address","name":"user","type":"address"}],"name":"getSusmtBalance","outputs":[{"internalType":"uint256","name":"","type":"uint256"}],"stateMutability":"view","type":"function"},{"inputs":[{"internalType":"bytes32","name":"role","type":"bytes32"},{"internalType":"address","name":"account","type":"address"}],"name":"grantRole","outputs":[],"stateMutability":"nonpayable","type":"function"},{"inputs":[{"internalType":"bytes32","name":"role","type":"bytes32"},{"internalType":"address","name":"account","type":"address"}],"name":"hasRole","outputs":[{"internalType":"bool","name":"","type":"bool"}],"stateMutability":"view","type":"function"},{"inputs":[],"name":"name","outputs":[{"internalType":"string","name":"","type":"string"}],"stateMutability":"view","type":"function"},{"inputs":[{"internalType":"bytes32","name":"role","type":"bytes32"},{"internalType":"address","name":"callerConfirmation","type":"address"}],"name":"renounceRole","outputs":[],"stateMutability":"nonpayable","type":"function"},{"inputs":[{"internalType":"bytes32","name":"role","type":"bytes32"},{"internalType":"address","name":"account","type":"address"}],"name":"revokeRole","outputs":[],"stateMutability":"nonpayable","type":"function"},{"inputs":[{"internalType":"uint256","name":"amount","type":"uint256"}],"name":"stake","outputs":[{"internalType":"uint256","name":"susmtAmount","type":"uint256"}],"stateMutability":"nonpayable","type":"function"},{"inputs":[{"internalType":"address","name":"","type":"address"}],"name":"stakedBalance","outputs":[{"internalType":"uint256","name":"","type":"uint256"}],"stateMutability":"view","type":"function"},{"inputs":[{"internalType":"bytes4","name":"interfaceId","type":"bytes4"}],"name":"supportsInterface","outputs":[{"internalType":"bool","name":"","type":"bool"}],"stateMutability":"view","type":"function"},{"inputs":[],"name":"symbol","outputs":[{"internalType":"string","name":"","type":"string"}],"stateMutability":"view","type":"function"},{"inputs":[],"name":"totalRewardsDistributed","outputs":[{"internalType":"uint256","name":"","type":"uint256"}],"stateMutability":"view","type":"function"},{"inputs":[],"name":"totalStaked","outputs":[{"internalType":"uint256","name":"","type":"uint256"}],"stateMutability":"view","type":"function"},{"inputs":[],"name":"totalSupply","outputs":[{"internalType":"uint256","name":"","type":"uint256"}],"stateMutability":"view","type":"function"},{"inputs":[{"internalType":"address","name":"to","type":"address"},{"internalType":"uint256","name":"value","type":"uint256"}],"name":"transfer","outputs":[{"internalType":"bool","name":"","type":"bool"}],"stateMutability":"nonpayable","type":"function"},{"inputs":[{"internalType":"address","name":"from","type":"address"},{"internalType":"address","name":"to","type":"address"},{"internalType":"uint256","name":"value","type":"uint256"}],"name":"transferFrom","outputs":[{"internalType":"bool","name":"","type":"bool"}],"stateMutability":"nonpayable","type":"function"},{"inputs":[{"internalType":"uint256","name":"susmtAmount","type":"uint256"}],"name":"unstake","outputs":[{"internalType":"uint256","name":"usmtAmount","type":"uint256"}],"stateMutability":"nonpayable","type":"function"},{"inputs":[],"name":"usmtPlus","outputs":[{"internalType":"contract IERC20","name":"","type":"address"}],"stateMutability":"view","type":"function"}],"evm":{"bytecode":{"linkReferences":{},"object":"60a0346200037a57601f906001600160401b03601f196200159838819003858101831685019190848311868410176200027e5780869260409485528339810103126200037a5762000050836200039f565b916200006060208095016200039f565b936200006b6200037f565b600c81526b5374616b65642055534d542b60a01b828201526200008d6200037f565b9660068852657355534d542b60d01b838901528151928484116200027e5760039384546001948582811c921680156200036f575b848310146200035957818584931162000303575b508390858311600114620002a05760009262000294575b505060001982871b1c191690841b1784555b88519485116200027e5760049586548481811c9116801562000273575b838210146200025e5783811162000213575b5081928611600114620001a55750508392918391620001719960009562000199575b50501b92600019911b1c19161790555b6001600160a01b0316608052620003b4565b5060405161115190816200044782396080518181816102dc0152818161059e015261086d0152f35b0151935038806200014f565b85949291939516988660005283600020936000905b8b8210620001fb57505084620001719a10620001e0575b50505050811b0190556200015f565b01519060f884600019921b161c1916905538808080620001d1565b808885978294968601518155019601930190620001ba565b87600052826000208480890160051c820192858a1062000254575b0160051c019085905b828110620002475750506200012d565b6000815501859062000237565b925081926200022e565b602288634e487b7160e01b6000525260246000fd5b90607f16906200011b565b634e487b7160e01b600052604160045260246000fd5b015190503880620000ec565b90898794169188600052856000209260005b87828210620002ec5750508411620002d3575b505050811b018455620000fe565b015160001983891b60f8161c19169055388080620002c5565b8385015186558a97909501949384019301620002b2565b90915086600052836000208580850160051c8201928686106200034f575b918891869594930160051c01915b8281106200033f575050620000d5565b600081558594508891016200032f565b9250819262000321565b634e487b7160e01b600052602260045260246000fd5b91607f1691620000c1565b600080fd5b60408051919082016001600160401b038111838210176200027e57604052565b51906001600160a01b03821682036200037a57565b6001600160a01b031660008181527f05b8ccbb9d4d8fb16ea74ce3c29a41f1b461fbdaff4714a0d9a8eb05499746bc602052604081205490919060ff16620004425781805260056020526040822081835260205260408220600160ff1982541617905533917f2f8788117e7eff1d82e926ec794901d17c78024a50270940304540a733656f0d8180a4600190565b509056fe608060408181526004918236101561001657600080fd5b600092833560e01c91826301ffc9a714610cb75750816306fdde0314610bc0578163095ea7b314610b1857816318160ddd14610af957816323b872dd146109ed578163248a9ca3146109c25781632e17de78146107755781632f2ff15d1461074b578163313ce5671461072f57816336568abe146106d05781633a02a42d146105e157816359974e381461061857816360217267146105e157816370a08231146103d6578163817b1cd2146105c257816385ca17061461057e57816391d148541461053857816395d89b4114610433578163a217fddf14610418578163a30e8d46146103d6578163a694fc3a1461025c578163a9059cbb1461022b578163c34c2289146101f0578163d547741f146101ac57508063dd62ed3e146101645763ee1725461461014357600080fd5b346101605781600319360112610160576020906007549051908152f35b5080fd5b503461016057806003193601126101605780602092610181610d9e565b610189610db9565b6001600160a01b0391821683526001865283832091168252845220549051908152f35b919050346101ec57806003193601126101ec576101e891356101e360016101d1610db9565b93838752600560205286200154610f5e565b611023565b5080f35b8280fd5b505034610160578160031936011261016057602090517f9df62d436bfc9f3be4953ab398f3aa862316b013d490e2138c80b4b2eadeabd78152f35b50503461016057806003193601126101605760209061025561024b610d9e565b6024359033610e82565b5160018152f35b919050346101ec57602092836003193601126103d357823592610280841515610e07565b82517f23b872dd00000000000000000000000000000000000000000000000000000000868201523360248201523060448201528460648201526064815260a0810181811067ffffffffffffffff8211176103c0578452610300907f000000000000000000000000000000000000000000000000000000000000000061109b565b33156103ab5750819061031584600254610e75565b6002553381528085528181208481540190558151848152817fddf252ad1be2c89b69c2b068fc378daa952ba7f163c4a11628f55a4df523b3ef873393a33381526008855220610365838254610e75565b905561037382600654610e75565b600655805182815282848201527f5af417134f72a9d41143ace85b0a26dce6f550f894f2cbc1eeee8810603d91b6823392a251908152f35b90602492519163ec442f0560e01b8352820152fd5b602484604185634e487b7160e01b835252fd5b80fd5b505034610160576020366003190112610160576020906104116103f7610d9e565b6001600160a01b0316600052600060205260406000205490565b9051908152f35b50503461016057816003193601126101605751908152602090f35b83833461016057816003193601126101605780519180938054916001908360011c926001851694851561052e575b602095868610811461051b578589529081156104f7575060011461049f575b61049b8787610491828c0383610dcf565b5191829182610d55565b0390f35b81529295507f8a35acfbc15ff81a39ae7d344fd709f28e8600b4aa8c65c6b64bfe7fe36bd19b5b8284106104e4575050508261049b9461049192820101948680610480565b80548685018801529286019281016104c6565b60ff19168887015250505050151560051b83010192506104918261049b8680610480565b602484602285634e487b7160e01b835252fd5b93607f1693610461565b9050346101ec57816003193601126101ec578160209360ff92610559610db9565b90358252600586526001600160a01b0383832091168252855220541690519015158152f35b505034610160578160031936011261016057602090516001600160a01b037f0000000000000000000000000000000000000000000000000000000000000000168152f35b5050346101605781600319360112610160576020906006549051908152f35b50503461016057602036600319011261016057806020926001600160a01b03610608610d9e565b1681526008845220549051908152f35b919050346101ec5760203660031901126101ec578135917f9df62d436bfc9f3be4953ab398f3aa862316b013d490e2138c80b4b2eadeabd7808552600560205282852033865260205260ff8386205416156106b557847f6d1c76d614228b523baa4dcd9539e2c713b54ff4ab3ff2d1627e7f6cd32be4426020868661069e821515610e07565b6106aa82600754610e75565b60075551908152a180f35b604492519163e2517d3f60e01b835233908301526024820152fd5b8383346101605780600319360112610160576106ea610db9565b90336001600160a01b0383160361070757506101e8919235611023565b8390517f6697b232000000000000000000000000000000000000000000000000000000008152fd5b5050346101605781600319360112610160576020905160068152f35b919050346101ec57806003193601126101ec576101e8913561077060016101d1610db9565b610fa2565b919050346101ec57602092836003193601126103d357823592610799841515610e07565b338252818552838383205410610980573382526008855283838320541061093e57331561092957338252818552828220548481106108fd578490338452838752038383205583600254036002558183518581527fddf252ad1be2c89b69c2b068fc378daa952ba7f163c4a11628f55a4df523b3ef873392a38251907fa9059cbb000000000000000000000000000000000000000000000000000000008683015233602483015284604483015260448252608082019082821067ffffffffffffffff8311176108ea57508392916108919184527f000000000000000000000000000000000000000000000000000000000000000061109b565b33815260088552206108a4838254610e52565b90556108b282600654610e52565b600655805182815282848201527ff960dbf9e5d0682f7a298ed974e33a28b4464914b7a2bfac12ae419a9afeb280823392a251908152f35b836041602492634e487b7160e01b835252fd5b835163391434e360e21b8152339281019283526020830191909152604082018590529081906060010390fd5b906024925191634b637e8f60e11b8352820152fd5b6064908584519162461bcd60e51b8352820152601b60248201527f496e73756666696369656e74207374616b65642062616c616e636500000000006044820152fd5b6064908584519162461bcd60e51b8352820152601b60248201527f496e73756666696369656e74207355534d542b2062616c616e636500000000006044820152fd5b9050346101ec5760203660031901126101ec5781602093600192358152600585522001549051908152f35b905082346103d35760603660031901126103d357610a09610d9e565b610a11610db9565b91604435936001600160a01b038316808352600160205286832033845260205286832054916000198310610a4e575b602088610255898989610e82565b868310610ab4578115610a9e573315610a885750825260016020908152868320338452815291869020908590039055829061025587610a40565b60249084895191634a1406b160e11b8352820152fd5b6024908489519163e602df0560e01b8352820152fd5b87517ffb8f41b2000000000000000000000000000000000000000000000000000000008152339181019182526020820193909352604081018790528291506060010390fd5b5050346101605781600319360112610160576020906002549051908152f35b9050346101ec57816003193601126101ec57610b32610d9e565b602435903315610baa576001600160a01b0316918215610b9457508083602095338152600187528181208582528752205582519081527f8c5be1e5ebec7d5bd14f71427d1e84f3dd0314c0f7b2291e5b200ac8c7c3b925843392a35160018152f35b60249085855191634a1406b160e11b8352820152fd5b6024838686519163e602df0560e01b8352820152fd5b919050346101ec57826003193601126101ec5780519183600354906001908260011c92600181168015610cad575b6020958686108214610c9a5750848852908115610c785750600114610c1f575b61049b8686610491828b0383610dcf565b929550600383527fc2575a0e9e593c00f959f8c92f12db2869c3395a3b0502d05e2516446f71f85b5b828410610c65575050508261049b94610491928201019438610c0e565b8054868501880152928601928101610c48565b60ff191687860152505050151560051b83010192506104918261049b38610c0e565b836022602492634e487b7160e01b835252fd5b93607f1693610bee565b8491346101ec5760203660031901126101ec57357fffffffff0000000000000000000000000000000000000000000000000000000081168091036101ec57602092507f7965db0b000000000000000000000000000000000000000000000000000000008114908115610d2b575b5015158152f35b7f01ffc9a70000000000000000000000000000000000000000000000000000000091501483610d24565b6020808252825181830181905290939260005b828110610d8a57505060409293506000838284010152601f8019910116010190565b818101860151848201604001528501610d68565b600435906001600160a01b0382168203610db457565b600080fd5b602435906001600160a01b0382168203610db457565b90601f8019910116810190811067ffffffffffffffff821117610df157604052565b634e487b7160e01b600052604160045260246000fd5b15610e0e57565b606460405162461bcd60e51b815260206004820152601260248201527f416d6f756e74206d757374206265203e203000000000000000000000000000006044820152fd5b91908203918211610e5f57565b634e487b7160e01b600052601160045260246000fd5b91908201809211610e5f57565b916001600160a01b03808416928315610f465716928315610f2e5760009083825281602052604082205490838210610efc575091604082827fddf252ad1be2c89b69c2b068fc378daa952ba7f163c4a11628f55a4df523b3ef958760209652828652038282205586815220818154019055604051908152a3565b60405163391434e360e21b81526001600160a01b03919091166004820152602481019190915260448101839052606490fd5b602460405163ec442f0560e01b815260006004820152fd5b6024604051634b637e8f60e11b815260006004820152fd5b80600052600560205260406000203360005260205260ff6040600020541615610f845750565b6044906040519063e2517d3f60e01b82523360048301526024820152fd5b9060009180835260056020526001600160a01b036040842092169182845260205260ff6040842054161560001461101e5780835260056020526040832082845260205260408320600160ff198254161790557f2f8788117e7eff1d82e926ec794901d17c78024a50270940304540a733656f0d339380a4600190565b505090565b9060009180835260056020526001600160a01b036040842092169182845260205260ff60408420541660001461101e578083526005602052604083208284526020526040832060ff1981541690557ff6391f5c32d9c69d2a47ea670b442974b53935d1edc7fd64eb21e047a839171b339380a4600190565b906000602091828151910182855af11561110f576000513d61110657506001600160a01b0381163b155b6110cc5750565b6024906001600160a01b03604051917f5274afe7000000000000000000000000000000000000000000000000000000008352166004820152fd5b600114156110c5565b6040513d6000823e3d90fdfea26469706673582212203e7efacad28ed3079d53e7c3836e9e89f806432d1fd431820767af10af04f38464736f6c63430008180033","opcodes":"PUSH1 0xA0 CALLVALUE PUSH3 0x37A JUMPI PUSH1 0x1F SWAP1 PUSH1 0x1 PUSH1 0x1 PUSH1 0x40 SHL SUB PUSH1 0x1F NOT PUSH3 0x1598 CODESIZE DUP2 SWAP1 SUB DUP6 DUP2 ADD DUP4 AND DUP6 ADD SWAP2 SWAP1 DUP5 DUP4 GT DUP7 DUP5 LT OR PUSH3 0x27E JUMPI DUP1 DUP7 SWAP3 PUSH1 0x40 SWAP5 DUP6 MSTORE DUP4 CODECOPY DUP2 ADD SUB SLT PUSH3 0x37A JUMPI PUSH3 0x50 DUP4 PUSH3 0x39F JUMP JUMPDEST SWAP2 PUSH3 0x60 PUSH1 0x20 DUP1 SWAP6 ADD PUSH3 0x39F JUMP JUMPDEST SWAP4 PUSH3 0x6B PUSH3 0x37F JUMP JUMPDEST PUSH1 0xC DUP2 MSTORE PUSH12 0x5374616B65642055534D542B PUSH1 0xA0 SHL DUP3 DUP3 ADD MSTORE PUSH3 0x8D PUSH3 0x37F JUMP JUMPDEST SWAP7 PUSH1 0x6 DUP9 MSTORE PUSH6 0x7355534D542B PUSH1 0xD0 SHL DUP4 DUP10 ADD MSTORE DUP2 MLOAD SWAP3 DUP5 DUP5 GT PUSH3 0x27E JUMPI PUSH1 0x3 SWAP4 DUP5 SLOAD PUSH1 0x1 SWAP5 DUP6 DUP3 DUP2 SHR SWAP3 AND DUP1 ISZERO PUSH3 0x36F JUMPI JUMPDEST DUP5 DUP4 LT EQ PUSH3 0x359 JUMPI DUP2 DUP6 DUP5 SWAP4 GT PUSH3 0x303 JUMPI JUMPDEST POP DUP4 SWAP1 DUP6 DUP4 GT PUSH1 0x1 EQ PUSH3 0x2A0 JUMPI PUSH1 0x0 SWAP3 PUSH3 0x294 JUMPI JUMPDEST POP POP PUSH1 0x0 NOT DUP3 DUP8 SHL SHR NOT AND SWAP1 DUP5 SHL OR DUP5 SSTORE JUMPDEST DUP9 MLOAD SWAP5 DUP6 GT PUSH3 0x27E JUMPI PUSH1 0x4 SWAP6 DUP7 SLOAD DUP5 DUP2 DUP2 SHR SWAP2 AND DUP1 ISZERO PUSH3 0x273 JUMPI JUMPDEST DUP4 DUP3 LT EQ PUSH3 0x25E JUMPI DUP4 DUP2 GT PUSH3 0x213 JUMPI JUMPDEST POP DUP2 SWAP3 DUP7 GT PUSH1 0x1 EQ PUSH3 0x1A5 JUMPI POP POP DUP4 SWAP3 SWAP2 DUP4 SWAP2 PUSH3 0x171 SWAP10 PUSH1 0x0 SWAP6 PUSH3 0x199 JUMPI JUMPDEST POP POP SHL SWAP3 PUSH1 0x0 NOT SWAP2 SHL SHR NOT AND OR SWAP1 SSTORE JUMPDEST PUSH1 0x1 PUSH1 0x1 PUSH1 0xA0 SHL SUB AND PUSH1 0x80 MSTORE PUSH3 0x3B4 JUMP JUMPDEST POP PUSH1 0x40 MLOAD PUSH2 0x1151 SWAP1 DUP2 PUSH3 0x447 DUP3 CODECOPY PUSH1 0x80 MLOAD DUP2 DUP2 DUP2 PUSH2 0x2DC ADD MSTORE DUP2 DUP2 PUSH2 0x59E ADD MSTORE PUSH2 0x86D ADD MSTORE RETURN JUMPDEST ADD MLOAD SWAP4 POP CODESIZE DUP1 PUSH3 0x14F JUMP JUMPDEST DUP6 SWAP5 SWAP3 SWAP2 SWAP4 SWAP6 AND SWAP9 DUP7 PUSH1 0x0 MSTORE DUP4 PUSH1 0x0 KECCAK256 SWAP4 PUSH1 0x0 SWAP1 JUMPDEST DUP12 DUP3 LT PUSH3 0x1FB JUMPI POP POP DUP5 PUSH3 0x171 SWAP11 LT PUSH3 0x1E0 JUMPI JUMPDEST POP POP POP POP DUP2 SHL ADD SWAP1 SSTORE PUSH3 0x15F JUMP JUMPDEST ADD MLOAD SWAP1 PUSH1 0xF8 DUP5 PUSH1 0x0 NOT SWAP3 SHL AND SHR NOT AND SWAP1 SSTORE CODESIZE DUP1 DUP1 DUP1 PUSH3 0x1D1 JUMP JUMPDEST DUP1 DUP9 DUP6 SWAP8 DUP3 SWAP5 SWAP7 DUP7 ADD MLOAD DUP2 SSTORE ADD SWAP7 ADD SWAP4 ADD SWAP1 PUSH3 0x1BA JUMP JUMPDEST DUP8 PUSH1 0x0 MSTORE DUP3 PUSH1 0x0 KECCAK256 DUP5 DUP1 DUP10 ADD PUSH1 0x5 SHR DUP3 ADD SWAP3 DUP6 DUP11 LT PUSH3 0x254 JUMPI JUMPDEST ADD PUSH1 0x5 SHR ADD SWAP1 DUP6 SWAP1 JUMPDEST DUP3 DUP2 LT PUSH3 0x247 JUMPI POP POP PUSH3 0x12D JUMP JUMPDEST PUSH1 0x0 DUP2 SSTORE ADD DUP6 SWAP1 PUSH3 0x237 JUMP JUMPDEST SWAP3 POP DUP2 SWAP3 PUSH3 0x22E JUMP JUMPDEST PUSH1 0x22 DUP9 PUSH4 0x4E487B71 PUSH1 0xE0 SHL PUSH1 0x0 MSTORE MSTORE PUSH1 0x24 PUSH1 0x0 REVERT JUMPDEST SWAP1 PUSH1 0x7F AND SWAP1 PUSH3 0x11B JUMP JUMPDEST PUSH4 0x4E487B71 PUSH1 0xE0 SHL PUSH1 0x0 MSTORE PUSH1 0x41 PUSH1 0x4 MSTORE PUSH1 0x24 PUSH1 0x0 REVERT JUMPDEST ADD MLOAD SWAP1 POP CODESIZE DUP1 PUSH3 0xEC JUMP JUMPDEST SWAP1 DUP10 DUP8 SWAP5 AND SWAP2 DUP9 PUSH1 0x0 MSTORE DUP6 PUSH1 0x0 KECCAK256 SWAP3 PUSH1 0x0 JUMPDEST DUP8 DUP3 DUP3 LT PUSH3 0x2EC JUMPI POP POP DUP5 GT PUSH3 0x2D3 JUMPI JUMPDEST POP POP POP DUP2 SHL ADD DUP5 SSTORE PUSH3 0xFE JUMP JUMPDEST ADD MLOAD PUSH1 0x0 NOT DUP4 DUP10 SHL PUSH1 0xF8 AND SHR NOT AND SWAP1 SSTORE CODESIZE DUP1 DUP1 PUSH3 0x2C5 JUMP JUMPDEST DUP4 DUP6 ADD MLOAD DUP7 SSTORE DUP11 SWAP8 SWAP1 SWAP6 ADD SWAP5 SWAP4 DUP5 ADD SWAP4 ADD PUSH3 0x2B2 JUMP JUMPDEST SWAP1 SWAP2 POP DUP7 PUSH1 0x0 MSTORE DUP4 PUSH1 0x0 KECCAK256 DUP6 DUP1 DUP6 ADD PUSH1 0x5 SHR DUP3 ADD SWAP3 DUP7 DUP7 LT PUSH3 0x34F JUMPI JUMPDEST SWAP2 DUP9 SWAP2 DUP7 SWAP6 SWAP5 SWAP4 ADD PUSH1 0x5 SHR ADD SWAP2 JUMPDEST DUP3 DUP2 LT PUSH3 0x33F JUMPI POP POP PUSH3 0xD5 JUMP JUMPDEST PUSH1 0x0 DUP2 SSTORE DUP6 SWAP5 POP DUP9 SWAP2 ADD PUSH3 0x32F JUMP JUMPDEST SWAP3 POP DUP2 SWAP3 PUSH3 0x321 JUMP JUMPDEST PUSH4 0x4E487B71 PUSH1 0xE0 SHL PUSH1 0x0 MSTORE PUSH1 0x22 PUSH1 0x4 MSTORE PUSH1 0x24 PUSH1 0x0 REVERT JUMPDEST SWAP2 PUSH1 0x7F AND SWAP2 PUSH3 0xC1 JUMP JUMPDEST PUSH1 0x0 DUP1 REVERT JUMPDEST PUSH1 0x40 DUP1 MLOAD SWAP2 SWAP1 DUP3 ADD PUSH1 0x1 PUSH1 0x1 PUSH1 0x40 SHL SUB DUP2 GT DUP4 DUP3 LT OR PUSH3 0x27E JUMPI PUSH1 0x40 MSTORE JUMP JUMPDEST MLOAD SWAP1 PUSH1 0x1 PUSH1 0x1 PUSH1 0xA0 SHL SUB DUP3 AND DUP3 SUB PUSH3 0x37A JUMPI JUMP JUMPDEST PUSH1 0x1 PUSH1 0x1 PUSH1 0xA0 SHL SUB AND PUSH1 0x0 DUP2 DUP2 MSTORE PUSH32 0x5B8CCBB9D4D8FB16EA74CE3C29A41F1B461FBDAFF4714A0D9A8EB05499746BC PUSH1 0x20 MSTORE PUSH1 0x40 DUP2 KECCAK256 SLOAD SWAP1 SWAP2 SWAP1 PUSH1 0xFF AND PUSH3 0x442 JUMPI DUP2 DUP1 MSTORE PUSH1 0x5 PUSH1 0x20 MSTORE PUSH1 0x40 DUP3 KECCAK256 DUP2 DUP4 MSTORE PUSH1 0x20 MSTORE PUSH1 0x40 DUP3 KECCAK256 PUSH1 0x1 PUSH1 0xFF NOT DUP3 SLOAD AND OR SWAP1 SSTORE CALLER SWAP2 PUSH32 0x2F8788117E7EFF1D82E926EC794901D17C78024A50270940304540A733656F0D DUP2 DUP1 LOG4 PUSH1 0x1 SWAP1 JUMP JUMPDEST POP SWAP1 JUMP INVALID PUSH1 0x80 PUSH1 0x40 DUP2 DUP2 MSTORE PUSH1 0x4 SWAP2 DUP3 CALLDATASIZE LT ISZERO PUSH2 0x16 JUMPI PUSH1 0x0 DUP1 REVERT JUMPDEST PUSH1 0x0 SWAP3 DUP4 CALLDATALOAD PUSH1 0xE0 SHR SWAP2 DUP3 PUSH4 0x1FFC9A7 EQ PUSH2 0xCB7 JUMPI POP DUP2 PUSH4 0x6FDDE03 EQ PUSH2 0xBC0 JUMPI DUP2 PUSH4 0x95EA7B3 EQ PUSH2 0xB18 JUMPI DUP2 PUSH4 0x18160DDD EQ PUSH2 0xAF9 JUMPI DUP2 PUSH4 0x23B872DD EQ PUSH2 0x9ED JUMPI DUP2 PUSH4 0x248A9CA3 EQ PUSH2 0x9C2 JUMPI DUP2 PUSH4 0x2E17DE78 EQ PUSH2 0x775 JUMPI DUP2 PUSH4 0x2F2FF15D EQ PUSH2 0x74B JUMPI DUP2 PUSH4 0x313CE567 EQ PUSH2 0x72F JUMPI DUP2 PUSH4 0x36568ABE EQ PUSH2 0x6D0 JUMPI DUP2 PUSH4 0x3A02A42D EQ PUSH2 0x5E1 JUMPI DUP2 PUSH4 0x59974E38 EQ PUSH2 0x618 JUMPI DUP2 PUSH4 0x60217267 EQ PUSH2 0x5E1 JUMPI DUP2 PUSH4 0x70A08231 EQ PUSH2 0x3D6 JUMPI DUP2 PUSH4 0x817B1CD2 EQ PUSH2 0x5C2 JUMPI DUP2 PUSH4 0x85CA1706 EQ PUSH2 0x57E JUMPI DUP2 PUSH4 0x91D14854 EQ PUSH2 0x538 JUMPI DUP2 PUSH4 0x95D89B41 EQ PUSH2 0x433 JUMPI DUP2 PUSH4 0xA217FDDF EQ PUSH2 0x418 JUMPI DUP2 PUSH4 0xA30E8D46 EQ PUSH2 0x3D6 JUMPI DUP2 PUSH4 0xA694FC3A EQ PUSH2 0x25C JUMPI DUP2 PUSH4 0xA9059CBB EQ PUSH2 0x22B JUMPI DUP2 PUSH4 0xC34C2289 EQ PUSH2 0x1F0 JUMPI DUP2 PUSH4 0xD547741F EQ PUSH2 0x1AC JUMPI POP DUP1 PUSH4 0xDD62ED3E EQ PUSH2 0x164 JUMPI PUSH4 0xEE172546 EQ PUSH2 0x143 JUMPI PUSH1 0x0 DUP1 REVERT JUMPDEST CALLVALUE PUSH2 0x160 JUMPI DUP2 PUSH1 0x3 NOT CALLDATASIZE ADD SLT PUSH2 0x160 JUMPI PUSH1 0x20 SWAP1 PUSH1 0x7 SLOAD SWAP1 MLOAD SWAP1 DUP2 MSTORE RETURN JUMPDEST POP DUP1 REVERT JUMPDEST POP CALLVALUE PUSH2 0x160 JUMPI DUP1 PUSH1 0x3 NOT CALLDATASIZE ADD SLT PUSH2 0x160 JUMPI DUP1 PUSH1 0x20 SWAP3 PUSH2 0x181 PUSH2 0xD9E JUMP JUMPDEST PUSH2 0x189 PUSH2 0xDB9 JUMP JUMPDEST PUSH1 0x1 PUSH1 0x1 PUSH1 0xA0 SHL SUB SWAP2 DUP3 AND DUP4 MSTORE PUSH1 0x1 DUP7 MSTORE DUP4 DUP4 KECCAK256 SWAP2 AND DUP3 MSTORE DUP5 MSTORE KECCAK256 SLOAD SWAP1 MLOAD SWAP1 DUP2 MSTORE RETURN JUMPDEST SWAP2 SWAP1 POP CALLVALUE PUSH2 0x1EC JUMPI DUP1 PUSH1 0x3 NOT CALLDATASIZE ADD SLT PUSH2 0x1EC JUMPI PUSH2 0x1E8 SWAP2 CALLDATALOAD PUSH2 0x1E3 PUSH1 0x1 PUSH2 0x1D1 PUSH2 0xDB9 JUMP JUMPDEST SWAP4 DUP4 DUP8 MSTORE PUSH1 0x5 PUSH1 0x20 MSTORE DUP7 KECCAK256 ADD SLOAD PUSH2 0xF5E JUMP JUMPDEST PUSH2 0x1023 JUMP JUMPDEST POP DUP1 RETURN JUMPDEST DUP3 DUP1 REVERT JUMPDEST POP POP CALLVALUE PUSH2 0x160 JUMPI DUP2 PUSH1 0x3 NOT CALLDATASIZE ADD SLT PUSH2 0x160 JUMPI PUSH1 0x20 SWAP1 MLOAD PUSH32 0x9DF62D436BFC9F3BE4953AB398F3AA862316B013D490E2138C80B4B2EADEABD7 DUP2 MSTORE RETURN JUMPDEST POP POP CALLVALUE PUSH2 0x160 JUMPI DUP1 PUSH1 0x3 NOT CALLDATASIZE ADD SLT PUSH2 0x160 JUMPI PUSH1 0x20 SWAP1 PUSH2 0x255 PUSH2 0x24B PUSH2 0xD9E JUMP JUMPDEST PUSH1 0x24 CALLDATALOAD SWAP1 CALLER PUSH2 0xE82 JUMP JUMPDEST MLOAD PUSH1 0x1 DUP2 MSTORE RETURN JUMPDEST SWAP2 SWAP1 POP CALLVALUE PUSH2 0x1EC JUMPI PUSH1 0x20 SWAP3 DUP4 PUSH1 0x3 NOT CALLDATASIZE ADD SLT PUSH2 0x3D3 JUMPI DUP3 CALLDATALOAD SWAP3 PUSH2 0x280 DUP5 ISZERO ISZERO PUSH2 0xE07 JUMP JUMPDEST DUP3 MLOAD PUSH32 0x23B872DD00000000000000000000000000000000000000000000000000000000 DUP7 DUP3 ADD MSTORE CALLER PUSH1 0x24 DUP3 ADD MSTORE ADDRESS PUSH1 0x44 DUP3 ADD MSTORE DUP5 PUSH1 0x64 DUP3 ADD MSTORE PUSH1 0x64 DUP2 MSTORE PUSH1 0xA0 DUP2 ADD DUP2 DUP2 LT PUSH8 0xFFFFFFFFFFFFFFFF DUP3 GT OR PUSH2 0x3C0 JUMPI DUP5 MSTORE PUSH2 0x300 SWAP1 PUSH32 0x0 PUSH2 0x109B JUMP JUMPDEST CALLER ISZERO PUSH2 0x3AB JUMPI POP DUP2 SWAP1 PUSH2 0x315 DUP5 PUSH1 0x2 SLOAD PUSH2 0xE75 JUMP JUMPDEST PUSH1 0x2 SSTORE CALLER DUP2 MSTORE DUP1 DUP6 MSTORE DUP2 DUP2 KECCAK256 DUP5 DUP2 SLOAD ADD SWAP1 SSTORE DUP2 MLOAD DUP5 DUP2 MSTORE DUP2 PUSH32 0xDDF252AD1BE2C89B69C2B068FC378DAA952BA7F163C4A11628F55A4DF523B3EF DUP8 CALLER SWAP4 LOG3 CALLER DUP2 MSTORE PUSH1 0x8 DUP6 MSTORE KECCAK256 PUSH2 0x365 DUP4 DUP3 SLOAD PUSH2 0xE75 JUMP JUMPDEST SWAP1 SSTORE PUSH2 0x373 DUP3 PUSH1 0x6 SLOAD PUSH2 0xE75 JUMP JUMPDEST PUSH1 0x6 SSTORE DUP1 MLOAD DUP3 DUP2 MSTORE DUP3 DUP5 DUP3 ADD MSTORE PUSH32 0x5AF417134F72A9D41143ACE85B0A26DCE6F550F894F2CBC1EEEE8810603D91B6 DUP3 CALLER SWAP3 LOG2 MLOAD SWAP1 DUP2 MSTORE RETURN JUMPDEST SWAP1 PUSH1 0x24 SWAP3 MLOAD SWAP2 PUSH4 0xEC442F05 PUSH1 0xE0 SHL DUP4 MSTORE DUP3 ADD MSTORE REVERT JUMPDEST PUSH1 0x24 DUP5 PUSH1 0x41 DUP6 PUSH4 0x4E487B71 PUSH1 0xE0 SHL DUP4 MSTORE MSTORE REVERT JUMPDEST DUP1 REVERT JUMPDEST POP POP CALLVALUE PUSH2 0x160 JUMPI PUSH1 0x20 CALLDATASIZE PUSH1 0x3 NOT ADD SLT PUSH2 0x160 JUMPI PUSH1 0x20 SWAP1 PUSH2 0x411 PUSH2 0x3F7 PUSH2 0xD9E JUMP JUMPDEST PUSH1 0x1 PUSH1 0x1 PUSH1 0xA0 SHL SUB AND PUSH1 0x0 MSTORE PUSH1 0x0 PUSH1 0x20 MSTORE PUSH1 0x40 PUSH1 0x0 KECCAK256 SLOAD SWAP1 JUMP JUMPDEST SWAP1 MLOAD SWAP1 DUP2 MSTORE RETURN JUMPDEST POP POP CALLVALUE PUSH2 0x160 JUMPI DUP2 PUSH1 0x3 NOT CALLDATASIZE ADD SLT PUSH2 0x160 JUMPI MLOAD SWAP1 DUP2 MSTORE PUSH1 0x20 SWAP1 RETURN JUMPDEST DUP4 DUP4 CALLVALUE PUSH2 0x160 JUMPI DUP2 PUSH1 0x3 NOT CALLDATASIZE ADD SLT PUSH2 0x160 JUMPI DUP1 MLOAD SWAP2 DUP1 SWAP4 DUP1 SLOAD SWAP2 PUSH1 0x1 SWAP1 DUP4 PUSH1 0x1 SHR SWAP3 PUSH1 0x1 DUP6 AND SWAP5 DUP6 ISZERO PUSH2 0x52E JUMPI JUMPDEST PUSH1 0x20 SWAP6 DUP7 DUP7 LT DUP2 EQ PUSH2 0x51B JUMPI DUP6 DUP10 MSTORE SWAP1 DUP2 ISZERO PUSH2 0x4F7 JUMPI POP PUSH1 0x1 EQ PUSH2 0x49F JUMPI JUMPDEST PUSH2 0x49B DUP8 DUP8 PUSH2 0x491 DUP3 DUP13 SUB DUP4 PUSH2 0xDCF JUMP JUMPDEST MLOAD SWAP2 DUP3 SWAP2 DUP3 PUSH2 0xD55 JUMP JUMPDEST SUB SWAP1 RETURN JUMPDEST DUP2 MSTORE SWAP3 SWAP6 POP PUSH32 0x8A35ACFBC15FF81A39AE7D344FD709F28E8600B4AA8C65C6B64BFE7FE36BD19B JUMPDEST DUP3 DUP5 LT PUSH2 0x4E4 JUMPI POP POP POP DUP3 PUSH2 0x49B SWAP5 PUSH2 0x491 SWAP3 DUP3 ADD ADD SWAP5 DUP7 DUP1 PUSH2 0x480 JUMP JUMPDEST DUP1 SLOAD DUP7 DUP6 ADD DUP9 ADD MSTORE SWAP3 DUP7 ADD SWAP3 DUP2 ADD PUSH2 0x4C6 JUMP JUMPDEST PUSH1 0xFF NOT AND DUP9 DUP8 ADD MSTORE POP POP POP POP ISZERO ISZERO PUSH1 0x5 SHL DUP4 ADD ADD SWAP3 POP PUSH2 0x491 DUP3 PUSH2 0x49B DUP7 DUP1 PUSH2 0x480 JUMP JUMPDEST PUSH1 0x24 DUP5 PUSH1 0x22 DUP6 PUSH4 0x4E487B71 PUSH1 0xE0 SHL DUP4 MSTORE MSTORE REVERT JUMPDEST SWAP4 PUSH1 0x7F AND SWAP4 PUSH2 0x461 JUMP JUMPDEST SWAP1 POP CALLVALUE PUSH2 0x1EC JUMPI DUP2 PUSH1 0x3 NOT CALLDATASIZE ADD SLT PUSH2 0x1EC JUMPI DUP2 PUSH1 0x20 SWAP4 PUSH1 0xFF SWAP3 PUSH2 0x559 PUSH2 0xDB9 JUMP JUMPDEST SWAP1 CALLDATALOAD DUP3 MSTORE PUSH1 0x5 DUP7 MSTORE PUSH1 0x1 PUSH1 0x1 PUSH1 0xA0 SHL SUB DUP4 DUP4 KECCAK256 SWAP2 AND DUP3 MSTORE DUP6 MSTORE KECCAK256 SLOAD AND SWAP1 MLOAD SWAP1 ISZERO ISZERO DUP2 MSTORE RETURN JUMPDEST POP POP CALLVALUE PUSH2 0x160 JUMPI DUP2 PUSH1 0x3 NOT CALLDATASIZE ADD SLT PUSH2 0x160 JUMPI PUSH1 0x20 SWAP1 MLOAD PUSH1 0x1 PUSH1 0x1 PUSH1 0xA0 SHL SUB PUSH32 0x0 AND DUP2 MSTORE RETURN JUMPDEST POP POP CALLVALUE PUSH2 0x160 JUMPI DUP2 PUSH1 0x3 NOT CALLDATASIZE ADD SLT PUSH2 0x160 JUMPI PUSH1 0x20 SWAP1 PUSH1 0x6 SLOAD SWAP1 MLOAD SWAP1 DUP2 MSTORE RETURN JUMPDEST POP POP CALLVALUE PUSH2 0x160 JUMPI PUSH1 0x20 CALLDATASIZE PUSH1 0x3 NOT ADD SLT PUSH2 0x160 JUMPI DUP1 PUSH1 0x20 SWAP3 PUSH1 0x1 PUSH1 0x1 PUSH1 0xA0 SHL SUB PUSH2 0x608 PUSH2 0xD9E JUMP JUMPDEST AND DUP2 MSTORE PUSH1 0x8 DUP5 MSTORE KECCAK256 SLOAD SWAP1 MLOAD SWAP1 DUP2 MSTORE RETURN JUMPDEST SWAP2 SWAP1 POP CALLVALUE PUSH2 0x1EC JUMPI PUSH1 0x20 CALLDATASIZE PUSH1 0x3 NOT ADD SLT PUSH2 0x1EC JUMPI DUP2 CALLDATALOAD SWAP2 PUSH32 0x9DF62D436BFC9F3BE4953AB398F3AA862316B013D490E2138C80B4B2EADEABD7 DUP1 DUP6 MSTORE PUSH1 0x5 PUSH1 0x20 MSTORE DUP3 DUP6 KECCAK256 CALLER DUP7 MSTORE PUSH1 0x20 MSTORE PUSH1 0xFF DUP4 DUP7 KECCAK256 SLOAD AND ISZERO PUSH2 0x6B5 JUMPI DUP5 PUSH32 0x6D1C76D614228B523BAA4DCD9539E2C713B54FF4AB3FF2D1627E7F6CD32BE442 PUSH1 0x20 DUP7 DUP7 PUSH2 0x69E DUP3 ISZERO ISZERO PUSH2 0xE07 JUMP JUMPDEST PUSH2 0x6AA DUP3 PUSH1 0x7 SLOAD PUSH2 0xE75 JUMP JUMPDEST PUSH1 0x7 SSTORE MLOAD SWAP1 DUP2 MSTORE LOG1 DUP1 RETURN JUMPDEST PUSH1 0x44 SWAP3 MLOAD SWAP2 PUSH4 0xE2517D3F PUSH1 0xE0 SHL DUP4 MSTORE CALLER SWAP1 DUP4 ADD MSTORE PUSH1 0x24 DUP3 ADD MSTORE REVERT JUMPDEST DUP4 DUP4 CALLVALUE PUSH2 0x160 JUMPI DUP1 PUSH1 0x3 NOT CALLDATASIZE ADD SLT PUSH2 0x160 JUMPI PUSH2 0x6EA PUSH2 0xDB9 JUMP JUMPDEST SWAP1 CALLER PUSH1 0x1 PUSH1 0x1 PUSH1 0xA0 SHL SUB DUP4 AND SUB PUSH2 0x707 JUMPI POP PUSH2 0x1E8 SWAP2 SWAP3 CALLDATALOAD PUSH2 0x1023 JUMP JUMPDEST DUP4 SWAP1 MLOAD PUSH32 0x6697B23200000000000000000000000000000000000000000000000000000000 DUP2 MSTORE REVERT JUMPDEST POP POP CALLVALUE PUSH2 0x160 JUMPI DUP2 PUSH1 0x3 NOT CALLDATASIZE ADD SLT PUSH2 0x160 JUMPI PUSH1 0x20 SWAP1 MLOAD PUSH1 0x6 DUP2 MSTORE RETURN JUMPDEST SWAP2 SWAP1 POP CALLVALUE PUSH2 0x1EC JUMPI DUP1 PUSH1 0x3 NOT CALLDATASIZE ADD SLT PUSH2 0x1EC JUMPI PUSH2 0x1E8 SWAP2 CALLDATALOAD PUSH2 0x770 PUSH1 0x1 PUSH2 0x1D1 PUSH2 0xDB9 JUMP JUMPDEST PUSH2 0xFA2 JUMP JUMPDEST SWAP2 SWAP1 POP CALLVALUE PUSH2 0x1EC JUMPI PUSH1 0x20 SWAP3 DUP4 PUSH1 0x3 NOT CALLDATASIZE ADD SLT PUSH2 0x3D3 JUMPI DUP3 CALLDATALOAD SWAP3 PUSH2 0x799 DUP5 ISZERO ISZERO PUSH2 0xE07 JUMP JUMPDEST CALLER DUP3 MSTORE DUP2 DUP6 MSTORE DUP4 DUP4 DUP4 KECCAK256 SLOAD LT PUSH2 0x980 JUMPI CALLER DUP3 MSTORE PUSH1 0x8 DUP6 MSTORE DUP4 DUP4 DUP4 KECCAK256 SLOAD LT PUSH2 0x93E JUMPI CALLER ISZERO PUSH2 0x929 JUMPI CALLER DUP3 MSTORE DUP2 DUP6 MSTORE DUP3 DUP3 KECCAK256 SLOAD DUP5 DUP2 LT PUSH2 0x8FD JUMPI DUP5 SWAP1 CALLER DUP5 MSTORE DUP4 DUP8 MSTORE SUB DUP4 DUP4 KECCAK256 SSTORE DUP4 PUSH1 0x2 SLOAD SUB PUSH1 0x2 SSTORE DUP2 DUP4 MLOAD DUP6 DUP2 MSTORE PUSH32 0xDDF252AD1BE2C89B69C2B068FC378DAA952BA7F163C4A11628F55A4DF523B3EF DUP8 CALLER SWAP3 LOG3 DUP3 MLOAD SWAP1 PUSH32 0xA9059CBB00000000000000000000000000000000000000000000000000000000 DUP7 DUP4 ADD MSTORE CALLER PUSH1 0x24 DUP4 ADD MSTORE DUP5 PUSH1 0x44 DUP4 ADD MSTORE PUSH1 0x44 DUP3 MSTORE PUSH1 0x80 DUP3 ADD SWAP1 DUP3 DUP3 LT PUSH8 0xFFFFFFFFFFFFFFFF DUP4 GT OR PUSH2 0x8EA JUMPI POP DUP4 SWAP3 SWAP2 PUSH2 0x891 SWAP2 DUP5 MSTORE PUSH32 0x0 PUSH2 0x109B JUMP JUMPDEST CALLER DUP2 MSTORE PUSH1 0x8 DUP6 MSTORE KECCAK256 PUSH2 0x8A4 DUP4 DUP3 SLOAD PUSH2 0xE52 JUMP JUMPDEST SWAP1 SSTORE PUSH2 0x8B2 DUP3 PUSH1 0x6 SLOAD PUSH2 0xE52 JUMP JUMPDEST PUSH1 0x6 SSTORE DUP1 MLOAD DUP3 DUP2 MSTORE DUP3 DUP5 DUP3 ADD MSTORE PUSH32 0xF960DBF9E5D0682F7A298ED974E33A28B4464914B7A2BFAC12AE419A9AFEB280 DUP3 CALLER SWAP3 LOG2 MLOAD SWAP1 DUP2 MSTORE RETURN JUMPDEST DUP4 PUSH1 0x41 PUSH1 0x24 SWAP3 PUSH4 0x4E487B71 PUSH1 0xE0 SHL DUP4 MSTORE MSTORE REVERT JUMPDEST DUP4 MLOAD PUSH4 0x391434E3 PUSH1 0xE2 SHL DUP2 MSTORE CALLER SWAP3 DUP2 ADD SWAP3 DUP4 MSTORE PUSH1 0x20 DUP4 ADD SWAP2 SWAP1 SWAP2 MSTORE PUSH1 0x40 DUP3 ADD DUP6 SWAP1 MSTORE SWAP1 DUP2 SWAP1 PUSH1 0x60 ADD SUB SWAP1 REVERT JUMPDEST SWAP1 PUSH1 0x24 SWAP3 MLOAD SWAP2 PUSH4 0x4B637E8F PUSH1 0xE1 SHL DUP4 MSTORE DUP3 ADD MSTORE REVERT JUMPDEST PUSH1 0x64 SWAP1 DUP6 DUP5 MLOAD SWAP2 PUSH3 0x461BCD PUSH1 0xE5 SHL DUP4 MSTORE DUP3 ADD MSTORE PUSH1 0x1B PUSH1 0x24 DUP3 ADD MSTORE PUSH32 0x496E73756666696369656E74207374616B65642062616C616E63650000000000 PUSH1 0x44 DUP3 ADD MSTORE REVERT JUMPDEST PUSH1 0x64 SWAP1 DUP6 DUP5 MLOAD SWAP2 PUSH3 0x461BCD PUSH1 0xE5 SHL DUP4 MSTORE DUP3 ADD MSTORE PUSH1 0x1B PUSH1 0x24 DUP3 ADD MSTORE PUSH32 0x496E73756666696369656E74207355534D542B2062616C616E63650000000000 PUSH1 0x44 DUP3 ADD MSTORE REVERT JUMPDEST SWAP1 POP CALLVALUE PUSH2 0x1EC JUMPI PUSH1 0x20 CALLDATASIZE PUSH1 0x3 NOT ADD SLT PUSH2 0x1EC JUMPI DUP2 PUSH1 0x20 SWAP4 PUSH1 0x1 SWAP3 CALLDATALOAD DUP2 MSTORE PUSH1 0x5 DUP6 MSTORE KECCAK256 ADD SLOAD SWAP1 MLOAD SWAP1 DUP2 MSTORE RETURN JUMPDEST SWAP1 POP DUP3 CALLVALUE PUSH2 0x3D3 JUMPI PUSH1 0x60 CALLDATASIZE PUSH1 0x3 NOT ADD SLT PUSH2 0x3D3 JUMPI PUSH2 0xA09 PUSH2 0xD9E JUMP JUMPDEST PUSH2 0xA11 PUSH2 0xDB9 JUMP JUMPDEST SWAP2 PUSH1 0x44 CALLDATALOAD SWAP4 PUSH1 0x1 PUSH1 0x1 PUSH1 0xA0 SHL SUB DUP4 AND DUP1 DUP4 MSTORE PUSH1 0x1 PUSH1 0x20 MSTORE DUP7 DUP4 KECCAK256 CALLER DUP5 MSTORE PUSH1 0x20 MSTORE DUP7 DUP4 KECCAK256 SLOAD SWAP2 PUSH1 0x0 NOT DUP4 LT PUSH2 0xA4E JUMPI JUMPDEST PUSH1 0x20 DUP9 PUSH2 0x255 DUP10 DUP10 DUP10 PUSH2 0xE82 JUMP JUMPDEST DUP7 DUP4 LT PUSH2 0xAB4 JUMPI DUP2 ISZERO PUSH2 0xA9E JUMPI CALLER ISZERO PUSH2 0xA88 JUMPI POP DUP3 MSTORE PUSH1 0x1 PUSH1 0x20 SWAP1 DUP2 MSTORE DUP7 DUP4 KECCAK256 CALLER DUP5 MSTORE DUP2 MSTORE SWAP2 DUP7 SWAP1 KECCAK256 SWAP1 DUP6 SWAP1 SUB SWAP1 SSTORE DUP3 SWAP1 PUSH2 0x255 DUP8 PUSH2 0xA40 JUMP JUMPDEST PUSH1 0x24 SWAP1 DUP5 DUP10 MLOAD SWAP2 PUSH4 0x4A1406B1 PUSH1 0xE1 SHL DUP4 MSTORE DUP3 ADD MSTORE REVERT JUMPDEST PUSH1 0x24 SWAP1 DUP5 DUP10 MLOAD SWAP2 PUSH4 0xE602DF05 PUSH1 0xE0 SHL DUP4 MSTORE DUP3 ADD MSTORE REVERT JUMPDEST DUP8 MLOAD PUSH32 0xFB8F41B200000000000000000000000000000000000000000000000000000000 DUP2 MSTORE CALLER SWAP2 DUP2 ADD SWAP2 DUP3 MSTORE PUSH1 0x20 DUP3 ADD SWAP4 SWAP1 SWAP4 MSTORE PUSH1 0x40 DUP2 ADD DUP8 SWAP1 MSTORE DUP3 SWAP2 POP PUSH1 0x60 ADD SUB SWAP1 REVERT JUMPDEST POP POP CALLVALUE PUSH2 0x160 JUMPI DUP2 PUSH1 0x3 NOT CALLDATASIZE ADD SLT PUSH2 0x160 JUMPI PUSH1 0x20 SWAP1 PUSH1 0x2 SLOAD SWAP1 MLOAD SWAP1 DUP2 MSTORE RETURN JUMPDEST SWAP1 POP CALLVALUE PUSH2 0x1EC JUMPI DUP2 PUSH1 0x3 NOT CALLDATASIZE ADD SLT PUSH2 0x1EC JUMPI PUSH2 0xB32 PUSH2 0xD9E JUMP JUMPDEST PUSH1 0x24 CALLDATALOAD SWAP1 CALLER ISZERO PUSH2 0xBAA JUMPI PUSH1 0x1 PUSH1 0x1 PUSH1 0xA0 SHL SUB AND SWAP2 DUP3 ISZERO PUSH2 0xB94 JUMPI POP DUP1 DUP4 PUSH1 0x20 SWAP6 CALLER DUP2 MSTORE PUSH1 0x1 DUP8 MSTORE DUP2 DUP2 KECCAK256 DUP6 DUP3 MSTORE DUP8 MSTORE KECCAK256 SSTORE DUP3 MLOAD SWAP1 DUP2 MSTORE PUSH32 0x8C5BE1E5EBEC7D5BD14F71427D1E84F3DD0314C0F7B2291E5B200AC8C7C3B925 DUP5 CALLER SWAP3 LOG3 MLOAD PUSH1 0x1 DUP2 MSTORE RETURN JUMPDEST PUSH1 0x24 SWAP1 DUP6 DUP6 MLOAD SWAP2 PUSH4 0x4A1406B1 PUSH1 0xE1 SHL DUP4 MSTORE DUP3 ADD MSTORE REVERT JUMPDEST PUSH1 0x24 DUP4 DUP7 DUP7 MLOAD SWAP2 PUSH4 0xE602DF05 PUSH1 0xE0 SHL DUP4 MSTORE DUP3 ADD MSTORE REVERT JUMPDEST SWAP2 SWAP1 POP CALLVALUE PUSH2 0x1EC JUMPI DUP3 PUSH1 0x3 NOT CALLDATASIZE ADD SLT PUSH2 0x1EC JUMPI DUP1 MLOAD SWAP2 DUP4 PUSH1 0x3 SLOAD SWAP1 PUSH1 0x1 SWAP1 DUP3 PUSH1 0x1 SHR SWAP3 PUSH1 0x1 DUP2 AND DUP1 ISZERO PUSH2 0xCAD JUMPI JUMPDEST PUSH1 0x20 SWAP6 DUP7 DUP7 LT DUP3 EQ PUSH2 0xC9A JUMPI POP DUP5 DUP9 MSTORE SWAP1 DUP2 ISZERO PUSH2 0xC78 JUMPI POP PUSH1 0x1 EQ PUSH2 0xC1F JUMPI JUMPDEST PUSH2 0x49B DUP7 DUP7 PUSH2 0x491 DUP3 DUP12 SUB DUP4 PUSH2 0xDCF JUMP JUMPDEST SWAP3 SWAP6 POP PUSH1 0x3 DUP4 MSTORE PUSH32 0xC2575A0E9E593C00F959F8C92F12DB2869C3395A3B0502D05E2516446F71F85B JUMPDEST DUP3 DUP5 LT PUSH2 0xC65 JUMPI POP POP POP DUP3 PUSH2 0x49B SWAP5 PUSH2 0x491 SWAP3 DUP3 ADD ADD SWAP5 CODESIZE PUSH2 0xC0E JUMP JUMPDEST DUP1 SLOAD DUP7 DUP6 ADD DUP9 ADD MSTORE SWAP3 DUP7 ADD SWAP3 DUP2 ADD PUSH2 0xC48 JUMP JUMPDEST PUSH1 0xFF NOT AND DUP8 DUP7 ADD MSTORE POP POP POP ISZERO ISZERO PUSH1 0x5 SHL DUP4 ADD ADD SWAP3 POP PUSH2 0x491 DUP3 PUSH2 0x49B CODESIZE PUSH2 0xC0E JUMP JUMPDEST DUP4 PUSH1 0x22 PUSH1 0x24 SWAP3 PUSH4 0x4E487B71 PUSH1 0xE0 SHL DUP4 MSTORE MSTORE REVERT JUMPDEST SWAP4 PUSH1 0x7F AND SWAP4 PUSH2 0xBEE JUMP JUMPDEST DUP5 SWAP2 CALLVALUE PUSH2 0x1EC JUMPI PUSH1 0x20 CALLDATASIZE PUSH1 0x3 NOT ADD SLT PUSH2 0x1EC JUMPI CALLDATALOAD PUSH32 0xFFFFFFFF00000000000000000000000000000000000000000000000000000000 DUP2 AND DUP1 SWAP2 SUB PUSH2 0x1EC JUMPI PUSH1 0x20 SWAP3 POP PUSH32 0x7965DB0B00000000000000000000000000000000000000000000000000000000 DUP2 EQ SWAP1 DUP2 ISZERO PUSH2 0xD2B JUMPI JUMPDEST POP ISZERO ISZERO DUP2 MSTORE RETURN JUMPDEST PUSH32 0x1FFC9A700000000000000000000000000000000000000000000000000000000 SWAP2 POP EQ DUP4 PUSH2 0xD24 JUMP JUMPDEST PUSH1 0x20 DUP1 DUP3 MSTORE DUP3 MLOAD DUP2 DUP4 ADD DUP2 SWAP1 MSTORE SWAP1 SWAP4 SWAP3 PUSH1 0x0 JUMPDEST DUP3 DUP2 LT PUSH2 0xD8A JUMPI POP POP PUSH1 0x40 SWAP3 SWAP4 POP PUSH1 0x0 DUP4 DUP3 DUP5 ADD ADD MSTORE PUSH1 0x1F DUP1 NOT SWAP2 ADD AND ADD ADD SWAP1 JUMP JUMPDEST DUP2 DUP2 ADD DUP7 ADD MLOAD DUP5 DUP3 ADD PUSH1 0x40 ADD MSTORE DUP6 ADD PUSH2 0xD68 JUMP JUMPDEST PUSH1 0x4 CALLDATALOAD SWAP1 PUSH1 0x1 PUSH1 0x1 PUSH1 0xA0 SHL SUB DUP3 AND DUP3 SUB PUSH2 0xDB4 JUMPI JUMP JUMPDEST PUSH1 0x0 DUP1 REVERT JUMPDEST PUSH1 0x24 CALLDATALOAD SWAP1 PUSH1 0x1 PUSH1 0x1 PUSH1 0xA0 SHL SUB DUP3 AND DUP3 SUB PUSH2 0xDB4 JUMPI JUMP JUMPDEST SWAP1 PUSH1 0x1F DUP1 NOT SWAP2 ADD AND DUP2 ADD SWAP1 DUP2 LT PUSH8 0xFFFFFFFFFFFFFFFF DUP3 GT OR PUSH2 0xDF1 JUMPI PUSH1 0x40 MSTORE JUMP JUMPDEST PUSH4 0x4E487B71 PUSH1 0xE0 SHL PUSH1 0x0 MSTORE PUSH1 0x41 PUSH1 0x4 MSTORE PUSH1 0x24 PUSH1 0x0 REVERT JUMPDEST ISZERO PUSH2 0xE0E JUMPI JUMP JUMPDEST PUSH1 0x64 PUSH1 0x40 MLOAD PUSH3 0x461BCD PUSH1 0xE5 SHL DUP2 MSTORE PUSH1 0x20 PUSH1 0x4 DUP3 ADD MSTORE PUSH1 0x12 PUSH1 0x24 DUP3 ADD MSTORE PUSH32 0x416D6F756E74206D757374206265203E20300000000000000000000000000000 PUSH1 0x44 DUP3 ADD MSTORE REVERT JUMPDEST SWAP2 SWAP1 DUP3 SUB SWAP2 DUP3 GT PUSH2 0xE5F JUMPI JUMP JUMPDEST PUSH4 0x4E487B71 PUSH1 0xE0 SHL PUSH1 0x0 MSTORE PUSH1 0x11 PUSH1 0x4 MSTORE PUSH1 0x24 PUSH1 0x0 REVERT JUMPDEST SWAP2 SWAP1 DUP3 ADD DUP1 SWAP3 GT PUSH2 0xE5F JUMPI JUMP JUMPDEST SWAP2 PUSH1 0x1 PUSH1 0x1 PUSH1 0xA0 SHL SUB DUP1 DUP5 AND SWAP3 DUP4 ISZERO PUSH2 0xF46 JUMPI AND SWAP3 DUP4 ISZERO PUSH2 0xF2E JUMPI PUSH1 0x0 SWAP1 DUP4 DUP3 MSTORE DUP2 PUSH1 0x20 MSTORE PUSH1 0x40 DUP3 KECCAK256 SLOAD SWAP1 DUP4 DUP3 LT PUSH2 0xEFC JUMPI POP SWAP2 PUSH1 0x40 DUP3 DUP3 PUSH32 0xDDF252AD1BE2C89B69C2B068FC378DAA952BA7F163C4A11628F55A4DF523B3EF SWAP6 DUP8 PUSH1 0x20 SWAP7 MSTORE DUP3 DUP7 MSTORE SUB DUP3 DUP3 KECCAK256 SSTORE DUP7 DUP2 MSTORE KECCAK256 DUP2 DUP2 SLOAD ADD SWAP1 SSTORE PUSH1 0x40 MLOAD SWAP1 DUP2 MSTORE LOG3 JUMP JUMPDEST PUSH1 0x40 MLOAD PUSH4 0x391434E3 PUSH1 0xE2 SHL DUP2 MSTORE PUSH1 0x1 PUSH1 0x1 PUSH1 0xA0 SHL SUB SWAP2 SWAP1 SWAP2 AND PUSH1 0x4 DUP3 ADD MSTORE PUSH1 0x24 DUP2 ADD SWAP2 SWAP1 SWAP2 MSTORE PUSH1 0x44 DUP2 ADD DUP4 SWAP1 MSTORE PUSH1 0x64 SWAP1 REVERT JUMPDEST PUSH1 0x24 PUSH1 0x40 MLOAD PUSH4 0xEC442F05 PUSH1 0xE0 SHL DUP2 MSTORE PUSH1 0x0 PUSH1 0x4 DUP3 ADD MSTORE REVERT JUMPDEST PUSH1 0x24 PUSH1 0x40 MLOAD PUSH4 0x4B637E8F PUSH1 0xE1 SHL DUP2 MSTORE PUSH1 0x0 PUSH1 0x4 DUP3 ADD MSTORE REVERT JUMPDEST DUP1 PUSH1 0x0 MSTORE PUSH1 0x5 PUSH1 0x20 MSTORE PUSH1 0x40 PUSH1 0x0 KECCAK256 CALLER PUSH1 0x0 MSTORE PUSH1 0x20 MSTORE PUSH1 0xFF PUSH1 0x40 PUSH1 0x0 KECCAK256 SLOAD AND ISZERO PUSH2 0xF84 JUMPI POP JUMP JUMPDEST PUSH1 0x44 SWAP1 PUSH1 0x40 MLOAD SWAP1 PUSH4 0xE2517D3F PUSH1 0xE0 SHL DUP3 MSTORE CALLER PUSH1 0x4 DUP4 ADD MSTORE PUSH1 0x24 DUP3 ADD MSTORE REVERT JUMPDEST SWAP1 PUSH1 0x0 SWAP2 DUP1 DUP4 MSTORE PUSH1 0x5 PUSH1 0x20 MSTORE PUSH1 0x1 PUSH1 0x1 PUSH1 0xA0 SHL SUB PUSH1 0x40 DUP5 KECCAK256 SWAP3 AND SWAP2 DUP3 DUP5 MSTORE PUSH1 0x20 MSTORE PUSH1 0xFF PUSH1 0x40 DUP5 KECCAK256 SLOAD AND ISZERO PUSH1 0x0 EQ PUSH2 0x101E JUMPI DUP1 DUP4 MSTORE PUSH1 0x5 PUSH1 0x20 MSTORE PUSH1 0x40 DUP4 KECCAK256 DUP3 DUP5 MSTORE PUSH1 0x20 MSTORE PUSH1 0x40 DUP4 KECCAK256 PUSH1 0x1 PUSH1 0xFF NOT DUP3 SLOAD AND OR SWAP1 SSTORE PUSH32 0x2F8788117E7EFF1D82E926EC794901D17C78024A50270940304540A733656F0D CALLER SWAP4 DUP1 LOG4 PUSH1 0x1 SWAP1 JUMP JUMPDEST POP POP SWAP1 JUMP JUMPDEST SWAP1 PUSH1 0x0 SWAP2 DUP1 DUP4 MSTORE PUSH1 0x5 PUSH1 0x20 MSTORE PUSH1 0x1 PUSH1 0x1 PUSH1 0xA0 SHL SUB PUSH1 0x40 DUP5 KECCAK256 SWAP3 AND SWAP2 DUP3 DUP5 MSTORE PUSH1 0x20 MSTORE PUSH1 0xFF PUSH1 0x40 DUP5 KECCAK256 SLOAD AND PUSH1 0x0 EQ PUSH2 0x101E JUMPI DUP1 DUP4 MSTORE PUSH1 0x5 PUSH1 0x20 MSTORE PUSH1 0x40 DUP4 KECCAK256 DUP3 DUP5 MSTORE PUSH1 0x20 MSTORE PUSH1 0x40 DUP4 KECCAK256 PUSH1 0xFF NOT DUP2 SLOAD AND SWAP1 SSTORE PUSH32 0xF6391F5C32D9C69D2A47EA670B442974B53935D1EDC7FD64EB21E047A839171B CALLER SWAP4 DUP1 LOG4 PUSH1 0x1 SWAP1 JUMP JUMPDEST SWAP1 PUSH1 0x0 PUSH1 0x20 SWAP2 DUP3 DUP2 MLOAD SWAP2 ADD DUP3 DUP6 GAS CALL ISZERO PUSH2 0x110F JUMPI PUSH1 0x0 MLOAD RETURNDATASIZE PUSH2 0x1106 JUMPI POP PUSH1 0x1 PUSH1 0x1 PUSH1 0xA0 SHL SUB DUP2 AND EXTCODESIZE ISZERO JUMPDEST PUSH2 0x10CC JUMPI POP JUMP JUMPDEST PUSH1 0x24 SWAP1 PUSH1 0x1 PUSH1 0x1 PUSH1 0xA0 SHL SUB PUSH1 0x40 MLOAD SWAP2 PUSH32 0x5274AFE700000000000000000000000000000000000000000000000000000000 DUP4 MSTORE AND PUSH1 0x4 DUP3 ADD MSTORE REVERT JUMPDEST PUSH1 0x1 EQ ISZERO PUSH2 0x10C5 JUMP JUMPDEST PUSH1 0x40 MLOAD RETURNDATASIZE PUSH1 0x0 DUP3 RETURNDATACOPY RETURNDATASIZE SWAP1 REVERT INVALID LOG2 PUSH5 0x6970667358 0x22 SLT KECCAK256 RETURNDATACOPY PUSH31 0xFACAD28ED3079D53E7C3836E9E89F806432D1FD431820767AF10AF04F38464 PUSH20 0x6F6C634300081800330000000000000000000000 "},"methodIdentifiers":{"DEFAULT_ADMIN_ROLE()":"a217fddf","REWARDS_DISTRIBUTOR_ROLE()":"c34c2289","allowance(address,address)":"dd62ed3e","approve(address,uint256)":"095ea7b3","balanceOf(address)":"70a08231","decimals()":"313ce567","distributeRewards(uint256)":"59974e38","getRoleAdmin(bytes32)":"248a9ca3","getStakedBalance(address)":"3a02a42d","getSusmtBalance(address)":"a30e8d46","grantRole(bytes32,address)":"2f2ff15d","hasRole(bytes32,address)":"91d14854","name()":"06fdde03","renounceRole(bytes32,address)":"36568abe","revokeRole(bytes32,address)":"d547741f","stake(uint256)":"a694fc3a","stakedBalance(address)":"60217267","supportsInterface(bytes4)":"01ffc9a7","symbol()":"95d89b41","totalRewardsDistributed()":"ee172546","totalStaked()":"817b1cd2","totalSupply()":"18160ddd","transfer(address,uint256)":"a9059cbb","transferFrom(address,address,uint256)":"23b872dd","unstake(uint256)":"2e17de78","usmtPlus()":"85ca1706"}}}}}