{
  "_format": "hh-sol-artifact-1",
  "contractName": "InvoiceNFT",
  "sourceName": "contracts/InvoiceNFT.sol",
  "abi": [
    {
      "inputs": [
        {
          "internalType": "address",
          "name": "defaultAdmin",
          "type": "address"
        }
      ],
      "stateMutability": "nonpayable",
      "type": "constructor"
    },
    {
      "inputs": [],
      "name": "AccessControlBadConfirmation",
      "type": "error"
    },
    {
      "inputs": [
        {
          "internalType": "address",
          "name": "account",
          "type": "address"
        },
        {
          "internalType": "bytes32",
          "name": "neededRole",
          "type": "bytes32"
        }
      ],
      "name": "AccessControlUnauthorizedAccount",
      "type": "error"
    },
    {
      "inputs": [
        {
          "internalType": "address",
          "name": "sender",
          "type": "address"
        },
        {
          "internalType": "uint256",
          "name": "tokenId",
          "type": "uint256"
        },
        {
          "internalType": "address",
          "name": "owner",
          "type": "address"
        }
      ],
      "name": "ERC721IncorrectOwner",
      "type": "error"
    },
    {
      "inputs": [
        {
          "internalType": "address",
          "name": "operator",
          "type": "address"
        },
        {
          "internalType": "uint256",
          "name": "tokenId",
          "type": "uint256"
        }
      ],
      "name": "ERC721InsufficientApproval",
      "type": "error"
    },
    {
      "inputs": [
        {
          "internalType": "address",
          "name": "approver",
          "type": "address"
        }
      ],
      "name": "ERC721InvalidApprover",
      "type": "error"
    },
    {
      "inputs": [
        {
          "internalType": "address",
          "name": "operator",
          "type": "address"
        }
      ],
      "name": "ERC721InvalidOperator",
      "type": "error"
    },
    {
      "inputs": [
        {
          "internalType": "address",
          "name": "owner",
          "type": "address"
        }
      ],
      "name": "ERC721InvalidOwner",
      "type": "error"
    },
    {
      "inputs": [
        {
          "internalType": "address",
          "name": "receiver",
          "type": "address"
        }
      ],
      "name": "ERC721InvalidReceiver",
      "type": "error"
    },
    {
      "inputs": [
        {
          "internalType": "address",
          "name": "sender",
          "type": "address"
        }
      ],
      "name": "ERC721InvalidSender",
      "type": "error"
    },
    {
      "inputs": [
        {
          "internalType": "uint256",
          "name": "tokenId",
          "type": "uint256"
        }
      ],
      "name": "ERC721NonexistentToken",
      "type": "error"
    },
    {
      "anonymous": false,
      "inputs": [
        {
          "indexed": true,
          "internalType": "address",
          "name": "owner",
          "type": "address"
        },
        {
          "indexed": true,
          "internalType": "address",
          "name": "approved",
          "type": "address"
        },
        {
          "indexed": true,
          "internalType": "uint256",
          "name": "tokenId",
          "type": "uint256"
        }
      ],
      "name": "Approval",
      "type": "event"
    },
    {
      "anonymous": false,
      "inputs": [
        {
          "indexed": true,
          "internalType": "address",
          "name": "owner",
          "type": "address"
        },
        {
          "indexed": true,
          "internalType": "address",
          "name": "operator",
          "type": "address"
        },
        {
          "indexed": false,
          "internalType": "bool",
          "name": "approved",
          "type": "bool"
        }
      ],
      "name": "ApprovalForAll",
      "type": "event"
    },
    {
      "anonymous": false,
      "inputs": [
        {
          "indexed": false,
          "internalType": "uint256",
          "name": "_fromTokenId",
          "type": "uint256"
        },
        {
          "indexed": false,
          "internalType": "uint256",
          "name": "_toTokenId",
          "type": "uint256"
        }
      ],
      "name": "BatchMetadataUpdate",
      "type": "event"
    },
    {
      "anonymous": false,
      "inputs": [
        {
          "indexed": true,
          "internalType": "uint256",
          "name": "tokenId",
          "type": "uint256"
        },
        {
          "indexed": true,
          "internalType": "uint256",
          "name": "invoiceId",
          "type": "uint256"
        },
        {
          "indexed": true,
          "internalType": "address",
          "name": "to",
          "type": "address"
        }
      ],
      "name": "InvoiceNFTMinted",
      "type": "event"
    },
    {
      "anonymous": false,
      "inputs": [
        {
          "indexed": false,
          "internalType": "uint256",
          "name": "_tokenId",
          "type": "uint256"
        }
      ],
      "name": "MetadataUpdate",
      "type": "event"
    },
    {
      "anonymous": false,
      "inputs": [
        {
          "indexed": true,
          "internalType": "bytes32",
          "name": "role",
          "type": "bytes32"
        },
        {
          "indexed": true,
          "internalType": "bytes32",
          "name": "previousAdminRole",
          "type": "bytes32"
        },
        {
          "indexed": true,
          "internalType": "bytes32",
          "name": "newAdminRole",
          "type": "bytes32"
        }
      ],
      "name": "RoleAdminChanged",
      "type": "event"
    },
    {
      "anonymous": false,
      "inputs": [
        {
          "indexed": true,
          "internalType": "bytes32",
          "name": "role",
          "type": "bytes32"
        },
        {
          "indexed": true,
          "internalType": "address",
          "name": "account",
          "type": "address"
        },
        {
          "indexed": true,
          "internalType": "address",
          "name": "sender",
          "type": "address"
        }
      ],
      "name": "RoleGranted",
      "type": "event"
    },
    {
      "anonymous": false,
      "inputs": [
        {
          "indexed": true,
          "internalType": "bytes32",
          "name": "role",
          "type": "bytes32"
        },
        {
          "indexed": true,
          "internalType": "address",
          "name": "account",
          "type": "address"
        },
        {
          "indexed": true,
          "internalType": "address",
          "name": "sender",
          "type": "address"
        }
      ],
      "name": "RoleRevoked",
      "type": "event"
    },
    {
      "anonymous": false,
      "inputs": [
        {
          "indexed": true,
          "internalType": "address",
          "name": "from",
          "type": "address"
        },
        {
          "indexed": true,
          "internalType": "address",
          "name": "to",
          "type": "address"
        },
        {
          "indexed": true,
          "internalType": "uint256",
          "name": "tokenId",
          "type": "uint256"
        }
      ],
      "name": "Transfer",
      "type": "event"
    },
    {
      "inputs": [],
      "name": "DEFAULT_ADMIN_ROLE",
      "outputs": [
        {
          "internalType": "bytes32",
          "name": "",
          "type": "bytes32"
        }
      ],
      "stateMutability": "view",
      "type": "function"
    },
    {
      "inputs": [],
      "name": "MINTER_ROLE",
      "outputs": [
        {
          "internalType": "bytes32",
          "name": "",
          "type": "bytes32"
        }
      ],
      "stateMutability": "view",
      "type": "function"
    },
    {
      "inputs": [
        {
          "internalType": "address",
          "name": "to",
          "type": "address"
        },
        {
          "internalType": "uint256",
          "name": "tokenId",
          "type": "uint256"
        }
      ],
      "name": "approve",
      "outputs": [],
      "stateMutability": "nonpayable",
      "type": "function"
    },
    {
      "inputs": [
        {
          "internalType": "address",
          "name": "owner",
          "type": "address"
        }
      ],
      "name": "balanceOf",
      "outputs": [
        {
          "internalType": "uint256",
          "name": "",
          "type": "uint256"
        }
      ],
      "stateMutability": "view",
      "type": "function"
    },
    {
      "inputs": [
        {
          "internalType": "uint256",
          "name": "tokenId",
          "type": "uint256"
        }
      ],
      "name": "getApproved",
      "outputs": [
        {
          "internalType": "address",
          "name": "",
          "type": "address"
        }
      ],
      "stateMutability": "view",
      "type": "function"
    },
    {
      "inputs": [
        {
          "internalType": "uint256",
          "name": "tokenId",
          "type": "uint256"
        }
      ],
      "name": "getInvoiceForToken",
      "outputs": [
        {
          "components": [
            {
              "internalType": "uint256",
              "name": "invoiceId",
              "type": "uint256"
            },
            {
              "internalType": "address",
              "name": "seller",
              "type": "address"
            },
            {
              "internalType": "address",
              "name": "buyer",
              "type": "address"
            },
            {
              "internalType": "uint256",
              "name": "amount",
              "type": "uint256"
            },
            {
              "internalType": "uint256",
              "name": "dueDate",
              "type": "uint256"
            },
            {
              "internalType": "enum IInvoiceRegistry.InvoiceStatus",
              "name": "status",
              "type": "uint8"
            },
            {
              "internalType": "bytes32",
              "name": "metadataHash",
              "type": "bytes32"
            },
            {
              "internalType": "uint256",
              "name": "createdAt",
              "type": "uint256"
            },
            {
              "internalType": "uint256",
              "name": "paidAt",
              "type": "uint256"
            },
            {
              "internalType": "uint256",
              "name": "clearedAt",
              "type": "uint256"
            }
          ],
          "internalType": "struct IInvoiceRegistry.Invoice",
          "name": "",
          "type": "tuple"
        }
      ],
      "stateMutability": "view",
      "type": "function"
    },
    {
      "inputs": [
        {
          "internalType": "uint256",
          "name": "tokenId",
          "type": "uint256"
        }
      ],
      "name": "getInvoiceId",
      "outputs": [
        {
          "internalType": "uint256",
          "name": "",
          "type": "uint256"
        }
      ],
      "stateMutability": "view",
      "type": "function"
    },
    {
      "inputs": [
        {
          "internalType": "bytes32",
          "name": "role",
          "type": "bytes32"
        }
      ],
      "name": "getRoleAdmin",
      "outputs": [
        {
          "internalType": "bytes32",
          "name": "",
          "type": "bytes32"
        }
      ],
      "stateMutability": "view",
      "type": "function"
    },
    {
      "inputs": [
        {
          "internalType": "uint256",
          "name": "invoiceId",
          "type": "uint256"
        }
      ],
      "name": "getTokenId",
      "outputs": [
        {
          "internalType": "uint256",
          "name": "",
          "type": "uint256"
        }
      ],
      "stateMutability": "view",
      "type": "function"
    },
    {
      "inputs": [
        {
          "internalType": "bytes32",
          "name": "role",
          "type": "bytes32"
        },
        {
          "internalType": "address",
          "name": "account",
          "type": "address"
        }
      ],
      "name": "grantRole",
      "outputs": [],
      "stateMutability": "nonpayable",
      "type": "function"
    },
    {
      "inputs": [
        {
          "internalType": "bytes32",
          "name": "role",
          "type": "bytes32"
        },
        {
          "internalType": "address",
          "name": "account",
          "type": "address"
        }
      ],
      "name": "hasRole",
      "outputs": [
        {
          "internalType": "bool",
          "name": "",
          "type": "bool"
        }
      ],
      "stateMutability": "view",
      "type": "function"
    },
    {
      "inputs": [],
      "name": "invoiceRegistry",
      "outputs": [
        {
          "internalType": "contract IInvoiceRegistry",
          "name": "",
          "type": "address"
        }
      ],
      "stateMutability": "view",
      "type": "function"
    },
    {
      "inputs": [
        {
          "internalType": "address",
          "name": "owner",
          "type": "address"
        },
        {
          "internalType": "address",
          "name": "operator",
          "type": "address"
        }
      ],
      "name": "isApprovedForAll",
      "outputs": [
        {
          "internalType": "bool",
          "name": "",
          "type": "bool"
        }
      ],
      "stateMutability": "view",
      "type": "function"
    },
    {
      "inputs": [
        {
          "internalType": "uint256",
          "name": "invoiceId",
          "type": "uint256"
        },
        {
          "internalType": "address",
          "name": "to",
          "type": "address"
        }
      ],
      "name": "mintInvoiceNFT",
      "outputs": [
        {
          "internalType": "uint256",
          "name": "",
          "type": "uint256"
        }
      ],
      "stateMutability": "nonpayable",
      "type": "function"
    },
    {
      "inputs": [],
      "name": "name",
      "outputs": [
        {
          "internalType": "string",
          "name": "",
          "type": "string"
        }
      ],
      "stateMutability": "view",
      "type": "function"
    },
    {
      "inputs": [
        {
          "internalType": "uint256",
          "name": "tokenId",
          "type": "uint256"
        }
      ],
      "name": "ownerOf",
      "outputs": [
        {
          "internalType": "address",
          "name": "",
          "type": "address"
        }
      ],
      "stateMutability": "view",
      "type": "function"
    },
    {
      "inputs": [
        {
          "internalType": "bytes32",
          "name": "role",
          "type": "bytes32"
        },
        {
          "internalType": "address",
          "name": "callerConfirmation",
          "type": "address"
        }
      ],
      "name": "renounceRole",
      "outputs": [],
      "stateMutability": "nonpayable",
      "type": "function"
    },
    {
      "inputs": [
        {
          "internalType": "bytes32",
          "name": "role",
          "type": "bytes32"
        },
        {
          "internalType": "address",
          "name": "account",
          "type": "address"
        }
      ],
      "name": "revokeRole",
      "outputs": [],
      "stateMutability": "nonpayable",
      "type": "function"
    },
    {
      "inputs": [
        {
          "internalType": "address",
          "name": "from",
          "type": "address"
        },
        {
          "internalType": "address",
          "name": "to",
          "type": "address"
        },
        {
          "internalType": "uint256",
          "name": "tokenId",
          "type": "uint256"
        }
      ],
      "name": "safeTransferFrom",
      "outputs": [],
      "stateMutability": "nonpayable",
      "type": "function"
    },
    {
      "inputs": [
        {
          "internalType": "address",
          "name": "from",
          "type": "address"
        },
        {
          "internalType": "address",
          "name": "to",
          "type": "address"
        },
        {
          "internalType": "uint256",
          "name": "tokenId",
          "type": "uint256"
        },
        {
          "internalType": "bytes",
          "name": "data",
          "type": "bytes"
        }
      ],
      "name": "safeTransferFrom",
      "outputs": [],
      "stateMutability": "nonpayable",
      "type": "function"
    },
    {
      "inputs": [
        {
          "internalType": "address",
          "name": "operator",
          "type": "address"
        },
        {
          "internalType": "bool",
          "name": "approved",
          "type": "bool"
        }
      ],
      "name": "setApprovalForAll",
      "outputs": [],
      "stateMutability": "nonpayable",
      "type": "function"
    },
    {
      "inputs": [
        {
          "internalType": "address",
          "name": "_invoiceRegistry",
          "type": "address"
        }
      ],
      "name": "setInvoiceRegistry",
      "outputs": [],
      "stateMutability": "nonpayable",
      "type": "function"
    },
    {
      "inputs": [
        {
          "internalType": "bytes4",
          "name": "interfaceId",
          "type": "bytes4"
        }
      ],
      "name": "supportsInterface",
      "outputs": [
        {
          "internalType": "bool",
          "name": "",
          "type": "bool"
        }
      ],
      "stateMutability": "view",
      "type": "function"
    },
    {
      "inputs": [],
      "name": "symbol",
      "outputs": [
        {
          "internalType": "string",
          "name": "",
          "type": "string"
        }
      ],
      "stateMutability": "view",
      "type": "function"
    },
    {
      "inputs": [
        {
          "internalType": "uint256",
          "name": "tokenId",
          "type": "uint256"
        }
      ],
      "name": "tokenURI",
      "outputs": [
        {
          "internalType": "string",
          "name": "",
          "type": "string"
        }
      ],
      "stateMutability": "view",
      "type": "function"
    },
    {
      "inputs": [
        {
          "internalType": "address",
          "name": "from",
          "type": "address"
        },
        {
          "internalType": "address",
          "name": "to",
          "type": "address"
        },
        {
          "internalType": "uint256",
          "name": "tokenId",
          "type": "uint256"
        }
      ],
      "name": "transferFrom",
      "outputs": [],
      "stateMutability": "nonpayable",
      "type": "function"
    }
  ],
  "bytecode": "0x6080346200037a57601f1990601f906001600160401b03620036c238819003848101861684018381118582101762000364578492829160405283396020938491810103126200037a5751926001600160a01b03841684036200037a57620000656200037f565b92601184527014d155151308125b9d9bda58d948139195607a1b818501526200008d6200037f565b90600982526829a2aa2a2616a4a72b60b91b8183015284519684881162000364576000978854966001978881811c9116801562000359575b858210146200034557908187849311620002f2575b50849087831160011462000291578b9262000285575b5050600019600383901b1c191690871b1788555b8251948511620002715785548681811c9116801562000266575b8382101462000252578481116200020a575b5081938511600114620001a157505090829162000177969262000195575b5050600019600383901b1c191690821b1781555b600b5562000170816200039f565b5062000420565b506008805460ff60a01b191690556040516131de9081620004c48239f35b0151905038806200014e565b8588528188209497908816915b828210620001f2575050918493918762000177989410620001d8575b505050811b01815562000162565b015160001960f88460031b161c19169055388080620001ca565b808786978294978701518155019601940190620001ae565b8689528289208580880160051c82019285891062000248575b0160051c019087905b8281106200023c57505062000130565b8a81550187906200022c565b9250819262000223565b634e487b7160e01b89526022600452602489fd5b90607f16906200011e565b634e487b7160e01b88526041600452602488fd5b015190503880620000f0565b90848a9416918c8052868d20928d5b88828210620002db5750508411620002c1575b505050811b01885562000104565b015160001960f88460031b161c19169055388080620002b3565b8385015186558d97909501949384019301620002a0565b9091508a8052848b208780850160051c8201928786106200033b575b918b91869594930160051c01915b8281106200032c575050620000da565b8d81558594508b91016200031c565b925081926200030e565b634e487b7160e01b8b52602260045260248bfd5b90607f1690620000c5565b634e487b7160e01b600052604160045260246000fd5b600080fd5b60408051919082016001600160401b038111838210176200036457604052565b6001600160a01b031660008181527f6d5257204ebe7d88fd91ae87941cb2dd9d8062b64ae5a2bd2d28ec40b9fbf6df602052604081205490919060ff166200041c5781805260076020526040822081835260205260408220600160ff198254161790553391600080516020620036a28339815191528180a4600190565b5090565b6001600160a01b031660008181527fa4bfd7afe708e2e87e7f0e2ad9b4d545417e0f795f57b5c5ab5d799c565a04f460205260408120549091907f9f2df0fed2c77648de5860a4cc508cd0818c85b8b8a1ab4ceeef8d981c8956a69060ff16620004be5780835260076020526040832082845260205260408320600160ff19825416179055600080516020620036a2833981519152339380a4600190565b50509056fe6080604052600436101561001257600080fd5b60003560e01c806301ffc9a7146101b757806306fdde03146101b2578063081812fc146101ad578063095ea7b3146101a857806314ff5ea3146101a357806323b872dd1461019e578063248a9ca3146101995780632f2ff15d1461019457806336568abe1461018f57806342842e0e1461018a5780636352211e1461018557806370a082311461018057806391d148541461017b57806395d89b411461017657806398a0e06814610171578063a217fddf1461016c578063a22cb46514610167578063b88d4fde14610162578063c141fa941461015d578063c81c424c14610158578063c87b56dd14610153578063d53913931461014e578063d547741f14610149578063da6c70e414610144578063e985e9c51461013f5763f0dde4681461013a57600080fd5b610fe9565b610f8b565b610f64565b610f22565b610ee7565b610eb4565b610e1d565b610d01565b610bc1565b610a0e565b6109f2565b6108f7565b610850565b6107f9565b610784565b610755565b61072d565b6106ca565b610688565b610659565b610642565b6105ea565b6104b6565b610466565b61037f565b6101eb565b7fffffffff000000000000000000000000000000000000000000000000000000008116036101e657565b600080fd5b346101e65760203660031901126101e65760207fffffffff0000000000000000000000000000000000000000000000000000000060043561022b816101bc565b167f7965db0b000000000000000000000000000000000000000000000000000000008114908115610262575b506040519015158152f35b7f4906490600000000000000000000000000000000000000000000000000000000811491508115610295575b5038610257565b7f80ac58cd000000000000000000000000000000000000000000000000000000008114915081156102f9575b81156102cf575b503861028e565b7f01ffc9a700000000000000000000000000000000000000000000000000000000915014386102c8565b7f5b5e139f00000000000000000000000000000000000000000000000000000000811491506102c1565b60005b8381106103365750506000910152565b8181015183820152602001610326565b9060209161035f81518092818552858086019101610323565b601f01601f1916010190565b90602061037c928181520190610346565b90565b346101e6576000806003193601126104635760405190808054906103a282611159565b8085529160209160019182811690811561043657506001146103df575b6103db866103cf81880382610b74565b6040519182918261036b565b0390f35b80809550527f290decd9548b62a8d60345a988386fc84ba6bc95484008f6362f93160ef3e5635b838510610423575050505081016020016103cf826103db386103bf565b8054868601840152938201938101610406565b90508695506103db969350602092506103cf94915060ff191682840152151560051b8201019293386103bf565b80fd5b346101e65760203660031901126101e657600435610483816118da565b50600052600460205260206001600160a01b0360406000205416604051908152f35b6001600160a01b038116036101e657565b346101e65760403660031901126101e6576004356104d3816104a5565b602435906104e0826118da565b331515806105d7575b80610599575b61056857826105669361053e926001600160a01b0380861691167f8c5be1e5ebec7d5bd14f71427d1e84f3dd0314c0f7b2291e5b200ac8c7c3b925600080a46000526004602052604060002090565b906001600160a01b031673ffffffffffffffffffffffffffffffffffffffff19825416179055565b005b6040517fa9fbf51f000000000000000000000000000000000000000000000000000000008152336004820152602490fd5b506001600160a01b038116600052600560205260ff6105cf336040600020906001600160a01b0316600052602052604060002090565b5416156104ef565b50336001600160a01b03821614156104e9565b346101e65760203660031901126101e65760043560005260096020526020604060002054604051908152f35b60609060031901126101e65760043561062e816104a5565b9060243561063b816104a5565b9060443590565b346101e65761056661065336610616565b91611193565b346101e65760203660031901126101e65760043560005260076020526020600160406000200154604051908152f35b346101e65760403660031901126101e6576105666024356004356106ab826104a5565b8060005260076020526106c56001604060002001546119e8565b611a14565b346101e65760403660031901126101e6576024356106e7816104a5565b336001600160a01b038216036107035761056690600435611aae565b60046040517f6697b232000000000000000000000000000000000000000000000000000000008152fd5b346101e65761056661073e36610616565b906040519261074c84610b20565b600084526113ec565b346101e65760203660031901126101e65760206107736004356118da565b6001600160a01b0360405191168152f35b346101e65760203660031901126101e6576001600160a01b036004356107a9816104a5565b1680156107c85760005260036020526020604060002054604051908152f35b60246040517f89c62b6400000000000000000000000000000000000000000000000000000000815260006004820152fd5b346101e65760403660031901126101e657602060ff61084460243561081d816104a5565b600435600052600784526040600020906001600160a01b0316600052602052604060002090565b54166040519015158152f35b346101e657600080600319360112610463576040519080600180549061087582611159565b8086529260209260018116908115610436575060011461089f576103db866103cf81880382610b74565b9350600184527fb10e2d527612073b26eecdfd717e6a320cf44b4afac2b0732d9fcbe2b7fa0cf65b8385106108e4575050505081016020016103cf826103db386103bf565b80548686018401529382019381016108c7565b346101e65760203660031901126101e657600435610914816104a5565b61091c611915565b60ff60085460a01c166109ae576001600160a01b0361096a91166109418115156113a1565b6001600160a01b031673ffffffffffffffffffffffffffffffffffffffff196008541617600855565b610566740100000000000000000000000000000000000000007fffffffffffffffffffffff00ffffffffffffffffffffffffffffffffffffffff6008541617600855565b606460405162461bcd60e51b815260206004820152601b60248201527f496e766f696365526567697374727920616c72656164792073657400000000006044820152fd5b346101e65760003660031901126101e657602060405160008152f35b346101e65760403660031901126101e657600435610a2b816104a5565b602435801515908181036101e6576001600160a01b038316928315610ab75790610a78610a89923360005260056020526040600020906001600160a01b0316600052602052604060002090565b9060ff801983541691151516179055565b6040519081527f17307eab39ab6107e8899845ad3d59bd9653f200f220920489ca2b5937696c3160203392a3005b602484604051907f5b08ba180000000000000000000000000000000000000000000000000000000082526004820152fd5b634e487b7160e01b600052604160045260246000fd5b610140810190811067ffffffffffffffff821117610b1b57604052565b610ae8565b6020810190811067ffffffffffffffff821117610b1b57604052565b6040810190811067ffffffffffffffff821117610b1b57604052565b6060810190811067ffffffffffffffff821117610b1b57604052565b90601f8019910116810190811067ffffffffffffffff821117610b1b57604052565b60405190610ba382610afe565b565b67ffffffffffffffff8111610b1b57601f01601f191660200190565b346101e65760803660031901126101e657600435610bde816104a5565b602435610bea816104a5565b6064359167ffffffffffffffff83116101e657366023840112156101e657826004013591610c1783610ba5565b92610c256040519485610b74565b80845236602482870101116101e657602081600092602461056698018388013785010152604435916113ec565b60041115610c5c57565b634e487b7160e01b600052602160045260246000fd5b906004821015610c5c5752565b815181526020808301516001600160a01b031690820152610140810192916040818101516001600160a01b0316908301526060810151606083015260808101516080830152610cd660a082015160a0840190610c72565b60c081015160c083015260e081015160e0830152610100808201519083015261012080910151910152565b346101e65760203660031901126101e657610120604051610d2181610afe565b60009181838093528260208201528260408201528260608201528260808201528260a08201528260c08201528260e0820152826101008201520152610dc8610d75600435600052600a602052604060002090565b54610d81811515611523565b610da2610d966008546001600160a01b031690565b6001600160a01b031690565b906040518092631d11e60560e11b82528180610140968795600483019190602083019252565b03915afa918215610e18576103db9392610deb575b505060405191829182610c7f565b610e0a9250803d10610e11575b610e028183610b74565b8101906115ac565b3880610ddd565b503d610df8565b611639565b346101e65760203660031901126101e6576004358060005260026020526001600160a01b036040600020541615610e7057600052600a6020526103db604060002054604051918291829190602083019252565b606460405162461bcd60e51b815260206004820152601460248201527f546f6b656e20646f6573206e6f742065786973740000000000000000000000006044820152fd5b346101e65760203660031901126101e6576103db610ed360043561169d565b604051918291602083526020830190610346565b346101e65760003660031901126101e65760206040517f9f2df0fed2c77648de5860a4cc508cd0818c85b8b8a1ab4ceeef8d981c8956a68152f35b346101e65760403660031901126101e657610566602435600435610f45826104a5565b806000526007602052610f5f6001604060002001546119e8565b611aae565b346101e65760003660031901126101e65760206001600160a01b0360085416604051908152f35b346101e65760403660031901126101e657602060ff610844600435610faf816104a5565b6001600160a01b0360243591610fc4836104a5565b16600052600584526040600020906001600160a01b0316600052602052604060002090565b346101e65760403660031901126101e657602435600435611009826104a5565b61101161196c565b6008549161102460ff8460a01c16611784565b6001600160a01b03908181169361103c8515156117cf565b61105a611053856000526009602052604060002090565b541561181a565b60405192838092631d11e60560e11b8252610140958693816110848a600483019190602083019252565b0392165afa928315610e18576103db93611107926111019260009261113c575b50506110b281511515611865565b6110fc600b5480956110cb6110c6836118c6565b600b55565b816110e08a6000526009602052604060002090565b55886110f683600052600a602052604060002090565b55611be6565b611dc1565b826122e1565b604051938493827f051ac2174bbb0718fb0ed41fbb12aecc07fefc61530cb6da62d8ad9f4565f0d3600080a482526020820190565b6111529250803d10610e1157610e028183610b74565b38806110a4565b90600182811c92168015611189575b602083101461117357565b634e487b7160e01b600052602260045260246000fd5b91607f1691611168565b90916001600160a01b0380841692831561137657826000948186526002602052604096848888205416968791331515806112ab575b509061122d7fddf252ad1be2c89b69c2b068fc378daa952ba7f163c4a11628f55a4df523b3ef9284611278575b611212816001600160a01b03166000526003602052604060002090565b6001815401905561053e876000526002602052604060002090565b80a4169283830361123e5750505050565b6064945051927f64283d7b000000000000000000000000000000000000000000000000000000008452600484015260248301526044820152fd5b6112818761242f565b61129e856001600160a01b03166000526003602052604060002090565b80546000190190556111f5565b9193945091508061131f575b156112c7578592918791386111c8565b8786886112e7579051637e27328960e01b81526004810191909152602490fd5b90517f177e802f0000000000000000000000000000000000000000000000000000000081523360048201526024810191909152604490fd5b503387148015611345575b806112b75750858252600460205233858984205416146112b7565b50868252600560205260ff61136f338a8520906001600160a01b0316600052602052604060002090565b541661132a565b6024604051633250574960e11b815260006004820152fd5b6040519061139b82610b20565b60008252565b156113a857565b606460405162461bcd60e51b815260206004820152600f60248201527f496e76616c6964206164647265737300000000000000000000000000000000006044820152fd5b919290926113fb818585611193565b833b611408575b50505050565b6114469160209160405193849283927f150b7a0200000000000000000000000000000000000000000000000000000000978885523360048601611b5b565b038160006001600160a01b0388165af1600091816114f2575b5061149e578261146d611b8a565b805191908261149757604051633250574960e11b81526001600160a01b0383166004820152602490fd5b6020915001fd5b7fffffffff0000000000000000000000000000000000000000000000000000000016036114cf575038808080611402565b604051633250574960e11b81526001600160a01b03919091166004820152602490fd5b61151591925060203d60201161151c575b61150d8183610b74565b810190611b46565b903861145f565b503d611503565b1561152a57565b608460405162461bcd60e51b815260206004820152602660248201527f546f6b656e20646f6573206e6f742068617665206173736f636961746564206960448201527f6e766f69636500000000000000000000000000000000000000000000000000006064820152fd5b5190610ba3826104a5565b519060048210156101e657565b90816101409103126101e6576115c0610b96565b90805182526115d160208201611594565b60208301526115e260408201611594565b6040830152606081015160608301526080810151608083015261160760a0820161159f565b60a083015260c081015160c083015260e081015160e08301526101008082015190830152610120809101519082015290565b6040513d6000823e3d90fd5b9061165860209282815194859201610323565b0190565b6020610ba391939293604051948161167d8793518092868087019101610323565b820161169182518093868085019101610323565b01038085520183610b74565b6116a6816118da565b50600081815260206006815260408220604051928391818154906116c982611159565b808652926001928084169081156117605750600114611723575b505050506116f392500382610b74565b6116fb61138e565b80511561171d57815161171357505061037c90611bba565b61037c925061165c565b50905090565b815285812095935091905b8183106117485750506116f39350820101388080806116e3565b8554878401850152948501948694509183019161172e565b93505050506116f394925060ff191682840152151560051b820101388080806116e3565b1561178b57565b606460405162461bcd60e51b815260206004820152601760248201527f496e766f6963655265676973747279206e6f74207365740000000000000000006044820152fd5b156117d657565b606460405162461bcd60e51b815260206004820152601160248201527f496e76616c696420726563697069656e740000000000000000000000000000006044820152fd5b1561182157565b606460405162461bcd60e51b815260206004820152601960248201527f496e766f69636520616c726561647920746f6b656e697a6564000000000000006044820152fd5b1561186c57565b606460405162461bcd60e51b815260206004820152601160248201527f496e766f696365206e6f7420666f756e640000000000000000000000000000006044820152fd5b634e487b7160e01b600052601160045260246000fd5b60001981146118d55760010190565b6118b0565b8060005260026020526001600160a01b03604060002054169081156118fd575090565b60249060405190637e27328960e01b82526004820152fd5b3360009081527f6d5257204ebe7d88fd91ae87941cb2dd9d8062b64ae5a2bd2d28ec40b9fbf6df602052604090205460ff161561194e57565b604460405163e2517d3f60e01b815233600482015260006024820152fd5b3360009081527fa4bfd7afe708e2e87e7f0e2ad9b4d545417e0f795f57b5c5ab5d799c565a04f4602052604090207f9f2df0fed2c77648de5860a4cc508cd0818c85b8b8a1ab4ceeef8d981c8956a69060ff905b5416156119ca5750565b6044906040519063e2517d3f60e01b82523360048301526024820152fd5b80600052600760205260ff6119c0336040600020906001600160a01b0316600052602052604060002090565b600090808252600760205260ff611a418460408520906001600160a01b0316600052602052604060002090565b541661171d578082526007602052611a6f8360408420906001600160a01b0316600052602052604060002090565b600160ff198254161790557f2f8788117e7eff1d82e926ec794901d17c78024a50270940304540a733656f0d6001600160a01b033394169280a4600190565b600090808252600760205260ff611adb8460408520906001600160a01b0316600052602052604060002090565b54161561171d578082526007602052611b0a8360408420906001600160a01b0316600052602052604060002090565b60ff1981541690557ff6391f5c32d9c69d2a47ea670b442974b53935d1edc7fd64eb21e047a839171b6001600160a01b033394169280a4600190565b908160209103126101e6575161037c816101bc565b909261037c94936080936001600160a01b03809216845216602083015260408201528160608201520190610346565b3d15611bb5573d90611b9b82610ba5565b91611ba96040519384610b74565b82523d6000602084013e565b606090565b611bc3906118da565b506000604051611bd281610b20565b52604051611bdf81610b20565b6000815290565b906001600160a01b038083169081156113765782600052600260205260406000205416611c4e8115159485611caa575b611c33816001600160a01b03166000526003602052604060002090565b6001815401905561053e856000526002602052604060002090565b7fddf252ad1be2c89b69c2b068fc378daa952ba7f163c4a11628f55a4df523b3ef600080a4611c7957565b60246040517f73c6ac6e00000000000000000000000000000000000000000000000000000000815260006004820152fd5b611cb38561242f565b611cd0836001600160a01b03166000526003602052604060002090565b8054600019019055611c16565b60405190611cea82610b3c565b600782527f436c6561726564000000000000000000000000000000000000000000000000006020830152565b60405190611d2382610b3c565b600482527f50616964000000000000000000000000000000000000000000000000000000006020830152565b60405190611d5c82610b3c565b600882527f46696e616e6365640000000000000000000000000000000000000000000000006020830152565b60405190611d9582610b3c565b600682527f49737375656400000000000000000000000000000000000000000000000000006020830152565b60a081018051611dd081610c52565b611dd981610c52565b6122375750611de6611d88565b8151611df190612575565b90611dfb83612717565b928051611e0790612575565b916060820151611e1690612c2a565b906020830151611e2c906001600160a01b031690565b611e3590612dec565b916040840151611e4b906001600160a01b031690565b611e5490612dec565b9360800151611e6290612575565b6040517f7b226e616d65223a22496e766f69636520230000000000000000000000000000602082015297889791969160328901611e9e91611645565b61088b60f21b81526002017f226465736372697074696f6e223a22546f6b656e697a656420696e766f69636581527f20726570726573656e74696e672061207265616c2d776f726c6420726563656960208201527f7661626c65206f6e20534554544c222c0000000000000000000000000000000060408201526050017f22696d616765223a22646174613a696d6167652f7376672b786d6c3b6261736581527f36342c00000000000000000000000000000000000000000000000000000000006020820152602301611f7091611645565b61088b60f21b81526002017f2261747472696275746573223a5b0000000000000000000000000000000000008152600e017f7b2274726169745f74797065223a22496e766f696365204944222c2276616c7581527f65223a00000000000000000000000000000000000000000000000000000000006020820152602301611ff691611645565b7f7d2c00000000000000000000000000000000000000000000000000000000000081526002017f7b2274726169745f74797065223a22416d6f756e74222c2276616c7565223a2281527f2400000000000000000000000000000000000000000000000000000000000000602082015260210161207191611645565b62089f4b60ea1b81526003017f7b2274726169745f74797065223a22537461747573222c2276616c7565223a2281526020016120ac91611645565b62089f4b60ea1b81526003017f7b2274726169745f74797065223a2253656c6c6572222c2276616c7565223a2281526020016120e791611645565b62089f4b60ea1b81526003017f7b2274726169745f74797065223a224275796572222c2276616c7565223a22008152601f0161212291611645565b62089f4b60ea1b81526003017f7b2274726169745f74797065223a224475652044617465222c2276616c75652281527f3a00000000000000000000000000000000000000000000000000000000000000602082015260210161218391611645565b7f7d0000000000000000000000000000000000000000000000000000000000000081526001017f5d7d00000000000000000000000000000000000000000000000000000000000081526002010390601f199182810182526121e49082610b74565b6121ed90612f27565b6040517f646174613a6170706c69636174696f6e2f6a736f6e3b6261736536342c000000602082015291908290603d820161222791611645565b03908101825261037c9082610b74565b6001815161224481610c52565b61224d81610c52565b03612260575061225b611d4f565b611de6565b6002905161226d81610c52565b61227681610c52565b036122835761225b611d16565b61225b611cdd565b90601f811161229957505050565b6000916000526020600020906020601f850160051c830194106122d7575b601f0160051c01915b8281106122cc57505050565b8181556001016122c0565b90925082906122b7565b919091806000526020600660205260406000209084519067ffffffffffffffff8211610b1b5761231b826123158554611159565b8561228b565b602090601f8311600114612398575081612388949392612375927ff8e1a15aba9398e019f0b49df1a4fde98ee17ae345cb5f6b5e2c27f5033e8ce7979860009261238d575b50508160011b916000199060031b1c19161790565b90555b6040519081529081906020820190565b0390a1565b015190503880612360565b90601f198316966123ae85600052602060002090565b926000905b8982106124175750509183916001936123889796957ff8e1a15aba9398e019f0b49df1a4fde98ee17ae345cb5f6b5e2c27f5033e8ce7999a106123fe575b505050811b019055612378565b015160001960f88460031b161c191690553880806123f1565b806001859682949686015181550195019301906123b3565b612443906000526004602052604060002090565b73ffffffffffffffffffffffffffffffffffffffff198154169055565b6040519061246d82610b58565b602a82526040366020840137565b9061248582610ba5565b6124926040519182610b74565b82815280926124a3601f1991610ba5565b0190602036910137565b6000198101919082116118d557565b60300190816030116118d557565b90600c82018092116118d557565b60020190816002116118d557565b60030190816003116118d557565b90600282018092116118d557565b90602082018092116118d557565b90600382018092116118d557565b90600182018092116118d557565b634e487b7160e01b600052603260045260246000fd5b80511561254f5760200190565b61252c565b80516001101561254f5760210190565b90815181101561254f570160200190565b8015612615576000818181805b6125fd57506125908161247b565b935b61259c5750505090565b6125a5906124ad565b90600a906125e86125c06125ba8484066124bc565b60ff1690565b60f81b7fff000000000000000000000000000000000000000000000000000000000000001690565b841a6125f48487612564565b53049081612592565b915061260a600a916118c6565b910480849291612582565b5060405161262281610b3c565b60018152600360fc1b602082015290565b6040519061264082610b3c565b600782527f23363336364631000000000000000000000000000000000000000000000000006020830152565b6040519061267982610b3c565b600782527f23313042393831000000000000000000000000000000000000000000000000006020830152565b604051906126b282610b3c565b600782527f23463539453042000000000000000000000000000000000000000000000000006020830152565b604051906126eb82610b3c565b600782527f23334238324636000000000000000000000000000000000000000000000000006020830152565b60a08101805161272681610c52565b61272f81610c52565b612bc9575061273c6126de565b815161274790612575565b916060015161275590612c2a565b604051928392602084016127d9906057907f3c73766720786d6c6e733d22687474703a2f2f7777772e77332e6f72672f323081527f30302f737667222077696474683d2234303022206865696768743d223430302260208201527f2076696577426f783d223020302034303020343030223e00000000000000000060408201520190565b7f3c726563742077696474683d2234303022206865696768743d2234303022206681527f696c6c3d2223316531653265222f3e00000000000000000000000000000000006020820152602f017f3c7265637420783d2232302220793d223230222077696474683d22333630222081527f6865696768743d22333630222072783d223230222066696c6c3d22233261326160208201527f336522207374726f6b653d2200000000000000000000000000000000000000006040820152604c016128a19082611645565b7f22207374726f6b652d77696474683d2234222f3e00000000000000000000000081526014017f3c7465787420783d223230302220793d2238302220666f6e742d66616d696c7981527f3d22417269616c2c2073616e732d73657269662220666f6e742d73697a653d2260208201527f33322220666f6e742d7765696768743d22626f6c64222066696c6c3d2277686960408201527f74652220746578742d616e63686f723d226d6964646c65223e534554544c204960608201527f6e766f6963653c2f746578743e000000000000000000000000000000000000006080820152608d017f3c7465787420783d223230302220793d223134302220666f6e742d66616d696c81527f793d22417269616c2c2073616e732d73657269662220666f6e742d73697a653d60208201527f2234382220666f6e742d7765696768743d22626f6c64222066696c6c3d2200006040820152605e01612a0091611645565b7f2220746578742d616e63686f723d226d6964646c65223e494e562d00000000008152601b01612a2f91611645565b661e17ba32bc3a1f60c91b81526007017f3c7465787420783d223230302220793d223232302220666f6e742d66616d696c81527f793d22417269616c2c2073616e732d73657269662220666f6e742d73697a653d60208201527f2233362220666f6e742d7765696768743d22626f6c64222066696c6c3d22776860408201527f6974652220746578742d616e63686f723d226d6964646c65223e2400000000006060820152607b01612ae091611645565b661e17ba32bc3a1f60c91b81526007017f3c7465787420783d223230302220793d223238302220666f6e742d66616d696c81527f793d22417269616c2c2073616e732d73657269662220666f6e742d73697a653d60208201527f223230222066696c6c3d22233838382220746578742d616e63686f723d226d6960408201527f64646c65223e546f6b656e697a6564205257413c2f746578743e0000000000006060820152607a017f3c2f7376673e0000000000000000000000000000000000000000000000000000815260060103601f1981018252612bc09082610b74565b61037c90612f27565b60018151612bd681610c52565b612bdf81610c52565b03612bf25750612bed6126a5565b61273c565b60029051612bff81610c52565b612c0881610c52565b03612c1557612bed61266c565b612bed612633565b80156118d5576000190190565b620f424080820491068015612d6357612c4290612575565b600681511015612c8257604051600360fc1b602082015290612c7d908290612c6f90602183015b90611645565b03601f198101835282610b74565b612c42565b90612c8d82516124ad565b6002811015612ce8575b50612cbf91612c6f612cab61037c93612575565b91612c696040519586946020860190611645565b7f2e00000000000000000000000000000000000000000000000000000000000000815260010190565b600360fc1b612d48612d23612cfd8487612564565b517fff000000000000000000000000000000000000000000000000000000000000001690565b7fff000000000000000000000000000000000000000000000000000000000000001690565b03612d5e5780612d59918452612c1d565b612c8d565b612c97565b5061037c90612575565b60405190612d7a82610b3c565b601082527f30313233343536373839616263646566000000000000000000000000000000006020830152565b908160011b91808304600214901517156118d557565b908160021b917f3fffffffffffffffffffffffffffffffffffffffffffffffffffffffffffffff8116036118d557565b6001600160a01b0316612dfd612d6d565b612e05612460565b916030612e1184612542565b536078612e1d84612554565b5360009060005b60148110612e33575050505090565b612e3c816124ca565b906020918281101561254f57612e60612cfd8592600f9384911a60041c1688612564565b612e7e612e74612e6f85612da6565b6124d8565b91871a9189612564565b53612e88826124ca565b9283101561254f57612cfd612ea391856001951a1687612564565b612ec1612eb7612eb284612da6565b6124e6565b91861a9188612564565b5301612e24565b60405190612ed582610b58565b604082527f6768696a6b6c6d6e6f707172737475767778797a303132333435363738392b2f6040837f4142434445464748494a4b4c4d4e4f505152535455565758595a61626364656660208201520152565b90612f30612ec8565b91612f5d612f58612f53612f4e612f4785516124f4565b6003900490565b612dbc565b612502565b61247b565b90600090815b612f6c81612510565b8251106130785780613055612cfd612f966125ba612f90612cfd6130739789612564565b60f81c90565b612fb16125ba612f90612cfd612fab8861251e565b8a612564565b90612fcd6125ba612f90612cfd612fc7896124f4565b8b612564565b9160081b9060101b1717612fe7612cfd8260121c8c612564565b96612fff612ff4826118c6565b9860001a918a612564565b53603f90613015612cfd8383600c1c168d612564565b9761302d613022826118c6565b9960001a918b612564565b53613040612cfd838360061c168d612564565b9761304d613022826118c6565b531689612564565b9361306d613062826118c6565b9560001a9187612564565b53612510565b612f63565b949293948151811061308d575b505082525090565b6130a06125ba612f90612cfd8486612564565b6130a98261251e565b835111156131a1576130cc6125ba612f90612cfd6130c68661251e565b87612564565b60081b9060101b17916130e5612cfd8460121c87612564565b936130fd6130f2826118c6565b9560001a9188612564565b53613134613114612cfd603f86600c1c1688612564565b9261311e866118c6565b9561312e879560001a918a612564565b5361251e565b9051111561318a57506131529192603f612cfd9260061c1690612564565b9061316a61315f826118c6565b9260001a9184612564565b535b603d61318161317a836118c6565b9284612564565b53803880613085565b92505061319b61317a603d926118c6565b5361316c565b60006130cc56fea2646970667358221220176881a2f01aed373d8c62e746d6f7fe203d205cc9167733e83abd7d73a2a15c64736f6c634300081800332f8788117e7eff1d82e926ec794901d17c78024a50270940304540a733656f0d",
  "linkReferences": {},
  "deployedLinkReferences": {}
}