{
  "_format": "hh-sol-artifact-1",
  "contractName": "InvoiceRegistry",
  "sourceName": "contracts/InvoiceRegistry.sol",
  "abi": [
    {
      "inputs": [
        {
          "internalType": "address",
          "name": "_invoiceNFT",
          "type": "address"
        },
        {
          "internalType": "address",
          "name": "defaultAdmin",
          "type": "address"
        }
      ],
      "stateMutability": "nonpayable",
      "type": "constructor"
    },
    {
      "inputs": [],
      "name": "AccessControlBadConfirmation",
      "type": "error"
    },
    {
      "inputs": [
        {
          "internalType": "address",
          "name": "account",
          "type": "address"
        },
        {
          "internalType": "bytes32",
          "name": "neededRole",
          "type": "bytes32"
        }
      ],
      "name": "AccessControlUnauthorizedAccount",
      "type": "error"
    },
    {
      "anonymous": false,
      "inputs": [
        {
          "indexed": true,
          "internalType": "uint256",
          "name": "invoiceId",
          "type": "uint256"
        },
        {
          "indexed": true,
          "internalType": "address",
          "name": "seller",
          "type": "address"
        },
        {
          "indexed": false,
          "internalType": "uint256",
          "name": "sellerAmount",
          "type": "uint256"
        },
        {
          "indexed": false,
          "internalType": "uint256",
          "name": "feeAmount",
          "type": "uint256"
        },
        {
          "indexed": false,
          "internalType": "uint256",
          "name": "repaymentAmount",
          "type": "uint256"
        }
      ],
      "name": "InvoiceCleared",
      "type": "event"
    },
    {
      "anonymous": false,
      "inputs": [
        {
          "indexed": true,
          "internalType": "uint256",
          "name": "invoiceId",
          "type": "uint256"
        },
        {
          "indexed": true,
          "internalType": "address",
          "name": "seller",
          "type": "address"
        },
        {
          "indexed": true,
          "internalType": "address",
          "name": "buyer",
          "type": "address"
        },
        {
          "indexed": false,
          "internalType": "uint256",
          "name": "amount",
          "type": "uint256"
        },
        {
          "indexed": false,
          "internalType": "uint256",
          "name": "dueDate",
          "type": "uint256"
        },
        {
          "indexed": false,
          "internalType": "bytes32",
          "name": "metadataHash",
          "type": "bytes32"
        }
      ],
      "name": "InvoiceCreated",
      "type": "event"
    },
    {
      "anonymous": false,
      "inputs": [
        {
          "indexed": true,
          "internalType": "uint256",
          "name": "invoiceId",
          "type": "uint256"
        },
        {
          "indexed": true,
          "internalType": "address",
          "name": "seller",
          "type": "address"
        },
        {
          "indexed": false,
          "internalType": "uint256",
          "name": "advanceAmount",
          "type": "uint256"
        }
      ],
      "name": "InvoiceFinanced",
      "type": "event"
    },
    {
      "anonymous": false,
      "inputs": [
        {
          "indexed": true,
          "internalType": "uint256",
          "name": "invoiceId",
          "type": "uint256"
        },
        {
          "indexed": true,
          "internalType": "address",
          "name": "buyer",
          "type": "address"
        },
        {
          "indexed": false,
          "internalType": "uint256",
          "name": "amount",
          "type": "uint256"
        }
      ],
      "name": "InvoicePaid",
      "type": "event"
    },
    {
      "anonymous": false,
      "inputs": [
        {
          "indexed": true,
          "internalType": "bytes32",
          "name": "role",
          "type": "bytes32"
        },
        {
          "indexed": true,
          "internalType": "bytes32",
          "name": "previousAdminRole",
          "type": "bytes32"
        },
        {
          "indexed": true,
          "internalType": "bytes32",
          "name": "newAdminRole",
          "type": "bytes32"
        }
      ],
      "name": "RoleAdminChanged",
      "type": "event"
    },
    {
      "anonymous": false,
      "inputs": [
        {
          "indexed": true,
          "internalType": "bytes32",
          "name": "role",
          "type": "bytes32"
        },
        {
          "indexed": true,
          "internalType": "address",
          "name": "account",
          "type": "address"
        },
        {
          "indexed": true,
          "internalType": "address",
          "name": "sender",
          "type": "address"
        }
      ],
      "name": "RoleGranted",
      "type": "event"
    },
    {
      "anonymous": false,
      "inputs": [
        {
          "indexed": true,
          "internalType": "bytes32",
          "name": "role",
          "type": "bytes32"
        },
        {
          "indexed": true,
          "internalType": "address",
          "name": "account",
          "type": "address"
        },
        {
          "indexed": true,
          "internalType": "address",
          "name": "sender",
          "type": "address"
        }
      ],
      "name": "RoleRevoked",
      "type": "event"
    },
    {
      "inputs": [],
      "name": "ADVANCE_ENGINE_ROLE",
      "outputs": [
        {
          "internalType": "bytes32",
          "name": "",
          "type": "bytes32"
        }
      ],
      "stateMutability": "view",
      "type": "function"
    },
    {
      "inputs": [],
      "name": "DEFAULT_ADMIN_ROLE",
      "outputs": [
        {
          "internalType": "bytes32",
          "name": "",
          "type": "bytes32"
        }
      ],
      "stateMutability": "view",
      "type": "function"
    },
    {
      "inputs": [],
      "name": "SETTLEMENT_ROUTER_ROLE",
      "outputs": [
        {
          "internalType": "bytes32",
          "name": "",
          "type": "bytes32"
        }
      ],
      "stateMutability": "view",
      "type": "function"
    },
    {
      "inputs": [
        {
          "internalType": "address",
          "name": "buyer",
          "type": "address"
        },
        {
          "internalType": "uint256",
          "name": "amount",
          "type": "uint256"
        },
        {
          "internalType": "uint256",
          "name": "dueDate",
          "type": "uint256"
        },
        {
          "internalType": "bytes32",
          "name": "metadataHash",
          "type": "bytes32"
        }
      ],
      "name": "createInvoice",
      "outputs": [
        {
          "internalType": "uint256",
          "name": "",
          "type": "uint256"
        }
      ],
      "stateMutability": "nonpayable",
      "type": "function"
    },
    {
      "inputs": [
        {
          "internalType": "uint256",
          "name": "invoiceId",
          "type": "uint256"
        }
      ],
      "name": "getInvoice",
      "outputs": [
        {
          "components": [
            {
              "internalType": "uint256",
              "name": "invoiceId",
              "type": "uint256"
            },
            {
              "internalType": "address",
              "name": "seller",
              "type": "address"
            },
            {
              "internalType": "address",
              "name": "buyer",
              "type": "address"
            },
            {
              "internalType": "uint256",
              "name": "amount",
              "type": "uint256"
            },
            {
              "internalType": "uint256",
              "name": "dueDate",
              "type": "uint256"
            },
            {
              "internalType": "enum IInvoiceRegistry.InvoiceStatus",
              "name": "status",
              "type": "uint8"
            },
            {
              "internalType": "bytes32",
              "name": "metadataHash",
              "type": "bytes32"
            },
            {
              "internalType": "uint256",
              "name": "createdAt",
              "type": "uint256"
            },
            {
              "internalType": "uint256",
              "name": "paidAt",
              "type": "uint256"
            },
            {
              "internalType": "uint256",
              "name": "clearedAt",
              "type": "uint256"
            }
          ],
          "internalType": "struct IInvoiceRegistry.Invoice",
          "name": "",
          "type": "tuple"
        }
      ],
      "stateMutability": "view",
      "type": "function"
    },
    {
      "inputs": [
        {
          "internalType": "bytes32",
          "name": "role",
          "type": "bytes32"
        }
      ],
      "name": "getRoleAdmin",
      "outputs": [
        {
          "internalType": "bytes32",
          "name": "",
          "type": "bytes32"
        }
      ],
      "stateMutability": "view",
      "type": "function"
    },
    {
      "inputs": [
        {
          "internalType": "address",
          "name": "seller",
          "type": "address"
        }
      ],
      "name": "getSellerInvoices",
      "outputs": [
        {
          "internalType": "uint256[]",
          "name": "",
          "type": "uint256[]"
        }
      ],
      "stateMutability": "view",
      "type": "function"
    },
    {
      "inputs": [
        {
          "internalType": "bytes32",
          "name": "role",
          "type": "bytes32"
        },
        {
          "internalType": "address",
          "name": "account",
          "type": "address"
        }
      ],
      "name": "grantRole",
      "outputs": [],
      "stateMutability": "nonpayable",
      "type": "function"
    },
    {
      "inputs": [
        {
          "internalType": "bytes32",
          "name": "role",
          "type": "bytes32"
        },
        {
          "internalType": "address",
          "name": "account",
          "type": "address"
        }
      ],
      "name": "hasRole",
      "outputs": [
        {
          "internalType": "bool",
          "name": "",
          "type": "bool"
        }
      ],
      "stateMutability": "view",
      "type": "function"
    },
    {
      "inputs": [],
      "name": "invoiceNFT",
      "outputs": [
        {
          "internalType": "contract InvoiceNFT",
          "name": "",
          "type": "address"
        }
      ],
      "stateMutability": "view",
      "type": "function"
    },
    {
      "inputs": [
        {
          "internalType": "uint256",
          "name": "invoiceId",
          "type": "uint256"
        },
        {
          "internalType": "uint256",
          "name": "sellerAmount",
          "type": "uint256"
        },
        {
          "internalType": "uint256",
          "name": "feeAmount",
          "type": "uint256"
        },
        {
          "internalType": "uint256",
          "name": "repaymentAmount",
          "type": "uint256"
        }
      ],
      "name": "markCleared",
      "outputs": [],
      "stateMutability": "nonpayable",
      "type": "function"
    },
    {
      "inputs": [
        {
          "internalType": "uint256",
          "name": "invoiceId",
          "type": "uint256"
        },
        {
          "internalType": "uint256",
          "name": "advanceAmount",
          "type": "uint256"
        }
      ],
      "name": "markFinanced",
      "outputs": [],
      "stateMutability": "nonpayable",
      "type": "function"
    },
    {
      "inputs": [
        {
          "internalType": "bytes32",
          "name": "role",
          "type": "bytes32"
        },
        {
          "internalType": "address",
          "name": "callerConfirmation",
          "type": "address"
        }
      ],
      "name": "renounceRole",
      "outputs": [],
      "stateMutability": "nonpayable",
      "type": "function"
    },
    {
      "inputs": [
        {
          "internalType": "bytes32",
          "name": "role",
          "type": "bytes32"
        },
        {
          "internalType": "address",
          "name": "account",
          "type": "address"
        }
      ],
      "name": "revokeRole",
      "outputs": [],
      "stateMutability": "nonpayable",
      "type": "function"
    },
    {
      "inputs": [
        {
          "internalType": "bytes4",
          "name": "interfaceId",
          "type": "bytes4"
        }
      ],
      "name": "supportsInterface",
      "outputs": [
        {
          "internalType": "bool",
          "name": "",
          "type": "bool"
        }
      ],
      "stateMutability": "view",
      "type": "function"
    },
    {
      "inputs": [
        {
          "internalType": "uint256",
          "name": "invoiceId",
          "type": "uint256"
        },
        {
          "internalType": "enum IInvoiceRegistry.InvoiceStatus",
          "name": "newStatus",
          "type": "uint8"
        }
      ],
      "name": "updateInvoiceStatus",
      "outputs": [],
      "stateMutability": "nonpayable",
      "type": "function"
    }
  ],
  "bytecode": "0x60a03461008d57601f61134e38819003918201601f19168301916001600160401b0383118484101761009257808492604094855283398101031261008d5780610056602061004f61006d946100a8565b92016100a8565b600180556001600160a01b039091166080526100bc565b50604051611201908161014d82396080518181816105270152610a9f0152f35b600080fd5b634e487b7160e01b600052604160045260246000fd5b51906001600160a01b038216820361008d57565b6001600160a01b031660008181527fad3228b676f7d3cd4284a5443f17f1962b36e491b30a40b2405849e597ba5fb5602052604081205490919060ff1661014857818052816020526040822081835260205260408220600160ff1982541617905533917f2f8788117e7eff1d82e926ec794901d17c78024a50270940304540a733656f0d8180a4600190565b509056fe608080604052600436101561001357600080fd5b60003560e01c90816301ffc9a714610ec25750806313d6b15d14610e875780631ab31d0414610e4c578063248a9ca314610e1d5780632f21977214610cf45780632f2ff15d14610cb557806336568abe14610c565780633a23cc0a14610ac35780634bb6f06d14610a7f5780634cd78efa146106ee57806352d93e4c1461035557806391d1485414610307578063a217fddf146102eb578063b9ab7552146101c9578063cd7e5ab5146101155763d547741f146100cf57600080fd5b346101105760403660031901126101105761010e6004356100ee610f60565b90806000526000602052610109600160406000200154611079565b611155565b005b600080fd5b3461011057602080600319360112610110576001600160a01b03610137610f76565b1660005260038152604060002060405190818382549182815201908192600052846000209060005b868282106101b55786866101758288038361100c565b604051928392818401908285525180915260408401929160005b82811061019e57505050500390f35b83518552869550938101939281019260010161018f565b83548552909301926001928301920161015f565b34610110576040366003190112610110573360009081527fad462efdaae68a7286a1934a7ee76ab613d83857273256aa60e8dc14a49ac63f60209081526040909120546004359061021c9060ff16610f8c565b806000526002825260ff6005604060002001541660048110156102d5576102915780600052600282527ebd73a1f30db28699c3ae08849193ac828bcf9281a9e28a79aebc2d337d5beb6001600160a01b0360016040600020600581018260ff19825416179055015416926040516024358152a3005b6064826040519062461bcd60e51b82526004820152600e60248201527f496e76616c6964207374617475730000000000000000000000000000000000006044820152fd5b634e487b7160e01b600052602160045260246000fd5b3461011057600036600319011261011057602060405160008152f35b3461011057604036600319011261011057610320610f60565b60043560005260006020526001600160a01b0360406000209116600052602052602060ff604060002054166040519015158152f35b346101105760803660031901126101105761036e610f76565b6001600160a01b038116156106aa57602435156106665742604435111561062257600154600019811461060c57600181016001556040516103ae81610fef565b8181526020810133815260408201906001600160a01b0385168252606083019160243583526080840192604435845260a085016000815260c0860194606435865260e087019242845261010088019460008652610120890196600088528a6000526002602052604060002099518a556001600160a01b0360018b01915116907fffffffffffffffffffffffff000000000000000000000000000000000000000091828254161790556001600160a01b0360028b0192511690825416179055516003880155516004870155519360048510156102d55761049260099560058801610fd7565b5160068601555160078501555160088401555191015533600052600360205260406000208054680100000000000000008110156105f657600181018083558110156105e0578291600052602060002001556040517ff0dde46800000000000000000000000000000000000000000000000000000000815281600482015233602482015260208160448160006001600160a01b037f0000000000000000000000000000000000000000000000000000000000000000165af180156105d4576105a9575b506020916001600160a01b036040519160243583526044358584015260643560408401521690827fb9604491123b6173aee552af1d3296e3f5e13bd358ca3862025ba6cf7778859060603393a4604051908152f35b602090813d83116105cd575b6105bf818361100c565b810103126101105782610554565b503d6105b5565b6040513d6000823e3d90fd5b634e487b7160e01b600052603260045260246000fd5b634e487b7160e01b600052604160045260246000fd5b634e487b7160e01b600052601160045260246000fd5b606460405162461bcd60e51b815260206004820152601a60248201527f4475652064617465206d75737420626520696e206675747572650000000000006044820152fd5b606460405162461bcd60e51b815260206004820152601260248201527f416d6f756e74206d757374206265203e203000000000000000000000000000006044820152fd5b606460405162461bcd60e51b815260206004820152600d60248201527f496e76616c6964206275796572000000000000000000000000000000000000006044820152fd5b346101105760403660031901126101105760043560249081359160048310159283610110578260005260029060209282845260ff6005604060002001541660048110156109265786908061098b575061082d5760018214801561097e575b1561093b575b846000528284526040600020958061076c8854151561102e565b6109265760018303610884577f0a30a076bc412cd0f7fc17f72be722a1abf7ebb6217c920c83bd5a583676584160005260008552604060002033600052855260ff6040600020541615610841575b6107c78360058901610fd7565b61082d575080820361081757509060036001600160a01b037fa6abfda59e12fa300d17e1aa76bd3233eaf23ee4feb4b02b6516ad1d60be84009342600888015586015416940154604051908152a3005b915050600391501461082557005b600942910155005b634e487b7160e01b60005260216004526000fd5b6064856019846040519262461bcd60e51b845260048401528201527f4e6f7420617574686f72697a656420746f2066696e616e6365000000000000006044820152fd5b5060008383148015610919575b156107ba577fe42f0c8616404e22cba428ac20c22164b434f2ef9f5a62c5c2dbbeacfba3a0cd60005260008552604060002033600052855260ff604060002054166107ba576064856019846040519262461bcd60e51b845260048401528201527f4e6f7420617574686f72697a656420746f20534554544c2e65000000000000006044820152fd5b5050600060038314610891565b50634e487b7160e01b60005260216004526000fd5b83601e6064926040519262461bcd60e51b845260048401528201527f496e76616c6964207472616e736974696f6e2066726f6d2049737375656400006044820152fd5b506000955081831461074c565b9050600181036109e457508561082d5781831461075257606490846040519162461bcd60e51b83528160048401528201527f496e76616c6964207472616e736974696f6e2066726f6d2046696e616e6365646044820152fd5b9095508203610a3c5760009460038203156107525783601c6064926040519262461bcd60e51b845260048401528201527f496e76616c6964207472616e736974696f6e2066726f6d2050616964000000006044820152fd5b6064836017876040519262461bcd60e51b845260048401528201527f496e766f69636520616c726561647920636c65617265640000000000000000006044820152fd5b346101105760003660031901126101105760206040516001600160a01b037f0000000000000000000000000000000000000000000000000000000000000000168152f35b34610110576020366003190112610110576004356000610120604051610ae881610fef565b8281528260208201528260408201528260608201528260808201528260a08201528260c08201528260e0820152826101008201520152806000526002602052610b37604060002054151561102e565b6000526002602052604060002060405190610b5182610fef565b805482526001600160a01b0360018201541660208301526001600160a01b036002820154166040830152600381015460608301526004810154608083015260ff6005820154169060048210156102d55760099160a0840152600681015460c0840152600781015460e084015260088101546101008401520154610120820152604051815181526001600160a01b0360208301511660208201526001600160a01b036040830151166040820152606082015160608201526080820151608082015260a082015160048110156102d557610140926101209160a084015260c081015160c084015260e081015160e08401526101008101516101008401520151610120820152f35b3461011057604036600319011261011057610c6f610f60565b336001600160a01b03821603610c8b5761010e90600435611155565b60046040517f6697b232000000000000000000000000000000000000000000000000000000008152fd5b346101105760403660031901126101105761010e600435610cd4610f60565b90806000526000602052610cef600160406000200154611079565b6110d6565b34610110576080366003190112610110573360009081527f94498272be262d32a652267025b7a1438013e864d7ba3d13ccf7e0cfd57d06a5602090815260409091205460043590610d479060ff16610f8c565b806000526002825260ff6005604060002001541660048110156102d557600203610dd95780600052600282527f0ee181dbb3d086d59040716a7926a6717bcae0213db9861a3fe693229ce151d860606001600160a01b036001604060002060058101600360ff1982541617905542600982015501541693604051906024358252604435908201526064356040820152a3005b6064826040519062461bcd60e51b82526004820152600c60248201527f4d757374206265205061696400000000000000000000000000000000000000006044820152fd5b346101105760203660031901126101105760043560005260006020526020600160406000200154604051908152f35b346101105760003660031901126101105760206040517f0a30a076bc412cd0f7fc17f72be722a1abf7ebb6217c920c83bd5a58367658418152f35b346101105760003660031901126101105760206040517fe42f0c8616404e22cba428ac20c22164b434f2ef9f5a62c5c2dbbeacfba3a0cd8152f35b3461011057602036600319011261011057600435907fffffffff00000000000000000000000000000000000000000000000000000000821680920361011057817f7965db0b0000000000000000000000000000000000000000000000000000000060209314908115610f36575b5015158152f35b7f01ffc9a70000000000000000000000000000000000000000000000000000000091501483610f2f565b602435906001600160a01b038216820361011057565b600435906001600160a01b038216820361011057565b15610f9357565b606460405162461bcd60e51b815260206004820152600e60248201527f4e6f7420617574686f72697a65640000000000000000000000000000000000006044820152fd5b9060048110156102d55760ff80198354169116179055565b610140810190811067ffffffffffffffff8211176105f657604052565b90601f8019910116810190811067ffffffffffffffff8211176105f657604052565b1561103557565b606460405162461bcd60e51b815260206004820152601160248201527f496e766f696365206e6f7420666f756e640000000000000000000000000000006044820152fd5b80600052600060205260406000203360005260205260ff604060002054161561109f5750565b604490604051907fe2517d3f0000000000000000000000000000000000000000000000000000000082523360048301526024820152fd5b90600091808352826020526001600160a01b036040842092169182845260205260ff6040842054161560001461115057808352826020526040832082845260205260408320600160ff198254161790557f2f8788117e7eff1d82e926ec794901d17c78024a50270940304540a733656f0d339380a4600190565b505090565b90600091808352826020526001600160a01b036040842092169182845260205260ff6040842054166000146111505780835282602052604083208284526020526040832060ff1981541690557ff6391f5c32d9c69d2a47ea670b442974b53935d1edc7fd64eb21e047a839171b339380a460019056fea2646970667358221220f3e20b157d7a9589ff1561072918f13e5109c88e75a039e39fc4f939a6707d4f64736f6c63430008180033",
  "linkReferences": {},
  "deployedLinkReferences": {}
}