{
  "_format": "hh-sol-artifact-1",
  "contractName": "DemoUSDC",
  "sourceName": "contracts/DemoUSDC.sol",
  "abi": [
    {
      "inputs": [
        {
          "internalType": "address",
          "name": "initialOwner",
          "type": "address"
        }
      ],
      "stateMutability": "nonpayable",
      "type": "constructor"
    },
    {
      "inputs": [
        {
          "internalType": "address",
          "name": "spender",
          "type": "address"
        },
        {
          "internalType": "uint256",
          "name": "allowance",
          "type": "uint256"
        },
        {
          "internalType": "uint256",
          "name": "needed",
          "type": "uint256"
        }
      ],
      "name": "ERC20InsufficientAllowance",
      "type": "error"
    },
    {
      "inputs": [
        {
          "internalType": "address",
          "name": "sender",
          "type": "address"
        },
        {
          "internalType": "uint256",
          "name": "balance",
          "type": "uint256"
        },
        {
          "internalType": "uint256",
          "name": "needed",
          "type": "uint256"
        }
      ],
      "name": "ERC20InsufficientBalance",
      "type": "error"
    },
    {
      "inputs": [
        {
          "internalType": "address",
          "name": "approver",
          "type": "address"
        }
      ],
      "name": "ERC20InvalidApprover",
      "type": "error"
    },
    {
      "inputs": [
        {
          "internalType": "address",
          "name": "receiver",
          "type": "address"
        }
      ],
      "name": "ERC20InvalidReceiver",
      "type": "error"
    },
    {
      "inputs": [
        {
          "internalType": "address",
          "name": "sender",
          "type": "address"
        }
      ],
      "name": "ERC20InvalidSender",
      "type": "error"
    },
    {
      "inputs": [
        {
          "internalType": "address",
          "name": "spender",
          "type": "address"
        }
      ],
      "name": "ERC20InvalidSpender",
      "type": "error"
    },
    {
      "inputs": [
        {
          "internalType": "address",
          "name": "owner",
          "type": "address"
        }
      ],
      "name": "OwnableInvalidOwner",
      "type": "error"
    },
    {
      "inputs": [
        {
          "internalType": "address",
          "name": "account",
          "type": "address"
        }
      ],
      "name": "OwnableUnauthorizedAccount",
      "type": "error"
    },
    {
      "anonymous": false,
      "inputs": [
        {
          "indexed": true,
          "internalType": "address",
          "name": "owner",
          "type": "address"
        },
        {
          "indexed": true,
          "internalType": "address",
          "name": "spender",
          "type": "address"
        },
        {
          "indexed": false,
          "internalType": "uint256",
          "name": "value",
          "type": "uint256"
        }
      ],
      "name": "Approval",
      "type": "event"
    },
    {
      "anonymous": false,
      "inputs": [
        {
          "indexed": true,
          "internalType": "address",
          "name": "previousOwner",
          "type": "address"
        },
        {
          "indexed": true,
          "internalType": "address",
          "name": "newOwner",
          "type": "address"
        }
      ],
      "name": "OwnershipTransferred",
      "type": "event"
    },
    {
      "anonymous": false,
      "inputs": [
        {
          "indexed": true,
          "internalType": "address",
          "name": "from",
          "type": "address"
        },
        {
          "indexed": true,
          "internalType": "address",
          "name": "to",
          "type": "address"
        },
        {
          "indexed": false,
          "internalType": "uint256",
          "name": "value",
          "type": "uint256"
        }
      ],
      "name": "Transfer",
      "type": "event"
    },
    {
      "inputs": [
        {
          "internalType": "address",
          "name": "owner",
          "type": "address"
        },
        {
          "internalType": "address",
          "name": "spender",
          "type": "address"
        }
      ],
      "name": "allowance",
      "outputs": [
        {
          "internalType": "uint256",
          "name": "",
          "type": "uint256"
        }
      ],
      "stateMutability": "view",
      "type": "function"
    },
    {
      "inputs": [
        {
          "internalType": "address",
          "name": "spender",
          "type": "address"
        },
        {
          "internalType": "uint256",
          "name": "value",
          "type": "uint256"
        }
      ],
      "name": "approve",
      "outputs": [
        {
          "internalType": "bool",
          "name": "",
          "type": "bool"
        }
      ],
      "stateMutability": "nonpayable",
      "type": "function"
    },
    {
      "inputs": [
        {
          "internalType": "address",
          "name": "account",
          "type": "address"
        }
      ],
      "name": "balanceOf",
      "outputs": [
        {
          "internalType": "uint256",
          "name": "",
          "type": "uint256"
        }
      ],
      "stateMutability": "view",
      "type": "function"
    },
    {
      "inputs": [
        {
          "internalType": "address[]",
          "name": "recipients",
          "type": "address[]"
        },
        {
          "internalType": "uint256[]",
          "name": "amounts",
          "type": "uint256[]"
        }
      ],
      "name": "batchMint",
      "outputs": [],
      "stateMutability": "nonpayable",
      "type": "function"
    },
    {
      "inputs": [],
      "name": "decimals",
      "outputs": [
        {
          "internalType": "uint8",
          "name": "",
          "type": "uint8"
        }
      ],
      "stateMutability": "pure",
      "type": "function"
    },
    {
      "inputs": [
        {
          "internalType": "address",
          "name": "to",
          "type": "address"
        },
        {
          "internalType": "uint256",
          "name": "amount",
          "type": "uint256"
        }
      ],
      "name": "mint",
      "outputs": [],
      "stateMutability": "nonpayable",
      "type": "function"
    },
    {
      "inputs": [],
      "name": "name",
      "outputs": [
        {
          "internalType": "string",
          "name": "",
          "type": "string"
        }
      ],
      "stateMutability": "view",
      "type": "function"
    },
    {
      "inputs": [],
      "name": "owner",
      "outputs": [
        {
          "internalType": "address",
          "name": "",
          "type": "address"
        }
      ],
      "stateMutability": "view",
      "type": "function"
    },
    {
      "inputs": [],
      "name": "renounceOwnership",
      "outputs": [],
      "stateMutability": "nonpayable",
      "type": "function"
    },
    {
      "inputs": [],
      "name": "symbol",
      "outputs": [
        {
          "internalType": "string",
          "name": "",
          "type": "string"
        }
      ],
      "stateMutability": "view",
      "type": "function"
    },
    {
      "inputs": [],
      "name": "totalSupply",
      "outputs": [
        {
          "internalType": "uint256",
          "name": "",
          "type": "uint256"
        }
      ],
      "stateMutability": "view",
      "type": "function"
    },
    {
      "inputs": [
        {
          "internalType": "address",
          "name": "to",
          "type": "address"
        },
        {
          "internalType": "uint256",
          "name": "value",
          "type": "uint256"
        }
      ],
      "name": "transfer",
      "outputs": [
        {
          "internalType": "bool",
          "name": "",
          "type": "bool"
        }
      ],
      "stateMutability": "nonpayable",
      "type": "function"
    },
    {
      "inputs": [
        {
          "internalType": "address",
          "name": "from",
          "type": "address"
        },
        {
          "internalType": "address",
          "name": "to",
          "type": "address"
        },
        {
          "internalType": "uint256",
          "name": "value",
          "type": "uint256"
        }
      ],
      "name": "transferFrom",
      "outputs": [
        {
          "internalType": "bool",
          "name": "",
          "type": "bool"
        }
      ],
      "stateMutability": "nonpayable",
      "type": "function"
    },
    {
      "inputs": [
        {
          "internalType": "address",
          "name": "newOwner",
          "type": "address"
        }
      ],
      "name": "transferOwnership",
      "outputs": [],
      "stateMutability": "nonpayable",
      "type": "function"
    }
  ],
  "bytecode": "0x6080346200037957601f906001600160401b0390601f1962000efa3881900385810183168401858111858210176200027d578492829160405283396020938491810103126200037957516001600160a01b039485821694918590036200037957620000696200037e565b620000736200037e565b918151928484116200027d5760039384546001948582811c921680156200036e575b8a8310146200035857818584931162000302575b5089908583116001146200029f5760009262000293575b505060001982871b1c191690841b1784555b80519485116200027d5760049687548481811c9116801562000272575b828210146200025d5783811162000212575b5080928611600114620001a65750849550908492916000956200019a575b50501b92600019911b1c19161781555b8115620001825750600580546001600160a01b03198116831790915560405192167f8be0079c531659141344cd1fd0a4f28419497f9722a3daafe3b4186f6b6457e0600080a3610b4a9081620003b08239f35b602490600060405191631e4fbdf760e01b8352820152fd5b0151935038806200011f565b939295859081168860005285600020956000905b89838310620001f75750505010620001dc575b50505050811b0181556200012f565b01519060f884600019921b161c1916905538808080620001cd565b858701518955909701969485019488935090810190620001ba565b88600052816000208480890160051c820192848a1062000253575b0160051c019085905b8281106200024657505062000101565b6000815501859062000236565b925081926200022d565b602289634e487b7160e01b6000525260246000fd5b90607f1690620000ef565b634e487b7160e01b600052604160045260246000fd5b015190503880620000c0565b908987941691886000528b6000209260005b8d828210620002eb5750508411620002d2575b505050811b018455620000d2565b015160001983891b60f8161c19169055388080620002c4565b8385015186558a97909501949384019301620002b1565b90915086600052896000208580850160051c8201928c86106200034e575b918891869594930160051c01915b8281106200033e575050620000a9565b600081558594508891016200032e565b9250819262000320565b634e487b7160e01b600052602260045260246000fd5b91607f169162000095565b600080fd5b60408051919082016001600160401b038111838210176200027d5760405260048252635553444360e01b602083015256fe6080604081815260048036101561001557600080fd5b600092833560e01c90816306fdde03146106f457508063095ea7b31461064d57806318160ddd1461062e57806323b872dd14610523578063313ce5671461050757806340c10f19146104d457806368573107146103d757806370a08231146103a1578063715018a6146103365780638da5cb5b1461030e57806395d89b41146101ec578063a9059cbb146101bb578063dd62ed3e1461016e5763f2fde38b146100bd57600080fd5b3461016a57602036600319011261016a576100d6610834565b906100df610ad0565b6001600160a01b0380921692831561013b5750506005548273ffffffffffffffffffffffffffffffffffffffff19821617600555167f8be0079c531659141344cd1fd0a4f28419497f9722a3daafe3b4186f6b6457e08380a380f35b908460249251917f1e4fbdf7000000000000000000000000000000000000000000000000000000008352820152fd5b8280fd5b5050346101b757806003193601126101b7578060209261018c610834565b61019461084f565b6001600160a01b0391821683526001865283832091168252845220549051908152f35b5080fd5b5050346101b757806003193601126101b7576020906101e56101db610834565b6024359033610907565b5160018152f35b509190346101b757816003193601126101b75780519082845460018160011c9060018316928315610304575b60209384841081146102f1578388529081156102d55750600114610280575b505050829003601f01601f191682019267ffffffffffffffff84118385101761026d57508291826102699252826107eb565b0390f35b80604186634e487b7160e01b6024945252fd5b8787529192508591837f8a35acfbc15ff81a39ae7d344fd709f28e8600b4aa8c65c6b64bfe7fe36bd19b5b8385106102c15750505050830101388080610237565b8054888601830152930192849082016102ab565b60ff1916878501525050151560051b8401019050388080610237565b60248960228c634e487b7160e01b835252fd5b91607f1691610218565b5050346101b757816003193601126101b7576020906001600160a01b03600554169051908152f35b833461039e578060031936011261039e5761034f610ad0565b806001600160a01b0360055473ffffffffffffffffffffffffffffffffffffffff198116600555167f8be0079c531659141344cd1fd0a4f28419497f9722a3daafe3b4186f6b6457e08280a380f35b80fd5b5050346101b75760203660031901126101b757806020926001600160a01b036103c8610834565b16815280845220549051908152f35b503461016a578160031936011261016a5767ffffffffffffffff9181358381116104d0576104089036908401610865565b90936024359081116104cc576104219036908501610865565b93909261043461042f610a2e565b610896565b848303610489575050845b81811061044a578580f35b6104558183876108e1565b35906001600160a01b03821682036104855761047f6001926104788388886108e1565b3590610a59565b0161043f565b8680fd5b906020606492519162461bcd60e51b8352820152601960248201527f44656d6f555344433a204c656e677468206d69736d61746368000000000000006044820152fd5b8580fd5b8480fd5b5050346101b75736600319011261039e576105046104f0610834565b6104fb61042f610a2e565b60243590610a59565b80f35b5050346101b757816003193601126101b7576020905160068152f35b50823461039e57606036600319011261039e5761053e610834565b61054661084f565b91604435936001600160a01b038316808352600160205286832033845260205286832054916000198310610583575b6020886101e5898989610907565b8683106105e95781156105d35733156105bd575082526001602090815286832033845281529186902090859003905582906101e587610575565b60249084895191634a1406b160e11b8352820152fd5b6024908489519163e602df0560e01b8352820152fd5b87517ffb8f41b2000000000000000000000000000000000000000000000000000000008152339181019182526020820193909352604081018790528291506060010390fd5b5050346101b757816003193601126101b7576020906002549051908152f35b503461016a578160031936011261016a57610666610834565b6024359033156106de576001600160a01b03169182156106c857508083602095338152600187528181208582528752205582519081527f8c5be1e5ebec7d5bd14f71427d1e84f3dd0314c0f7b2291e5b200ac8c7c3b925843392a35160018152f35b60249085855191634a1406b160e11b8352820152fd5b6024838686519163e602df0560e01b8352820152fd5b849150833461016a578260031936011261016a578260035460018160011c90600183169283156107e1575b60209384841081146102f1578388529081156107c5575060011461076f57505050829003601f01601f191682019267ffffffffffffffff84118385101761026d57508291826102699252826107eb565b600387529192508591837fc2575a0e9e593c00f959f8c92f12db2869c3395a3b0502d05e2516446f71f85b5b8385106107b15750505050830101858080610237565b80548886018301529301928490820161079b565b60ff1916878501525050151560051b8401019050858080610237565b91607f169161071f565b6020808252825181830181905290939260005b82811061082057505060409293506000838284010152601f8019910116010190565b8181018601518482016040015285016107fe565b600435906001600160a01b038216820361084a57565b600080fd5b602435906001600160a01b038216820361084a57565b9181601f8401121561084a5782359167ffffffffffffffff831161084a576020808501948460051b01011161084a57565b1561089d57565b606460405162461bcd60e51b815260206004820152601660248201527f44656d6f555344433a20546573746e6574206f6e6c79000000000000000000006044820152fd5b91908110156108f15760051b0190565b634e487b7160e01b600052603260045260246000fd5b916001600160a01b038084169283156109fd57169283156109cc5760009083825281602052604082205490838210610981575091604082827fddf252ad1be2c89b69c2b068fc378daa952ba7f163c4a11628f55a4df523b3ef958760209652828652038282205586815220818154019055604051908152a3565b6040517fe450d38c0000000000000000000000000000000000000000000000000000000081526001600160a01b03919091166004820152602481019190915260448101839052606490fd5b60246040517fec442f0500000000000000000000000000000000000000000000000000000000815260006004820152fd5b60246040517f96c6fd1e00000000000000000000000000000000000000000000000000000000815260006004820152fd5b61138b46148015610a4d575b8015610a435790565b5062aa36a7461490565b5062066eee4614610a3a565b6001600160a01b03169081156109cc5760025490808201809211610aba5760207fddf252ad1be2c89b69c2b068fc378daa952ba7f163c4a11628f55a4df523b3ef9160009360025584845283825260408420818154019055604051908152a3565b634e487b7160e01b600052601160045260246000fd5b6001600160a01b03600554163303610ae457565b60246040517f118cdaa7000000000000000000000000000000000000000000000000000000008152336004820152fdfea26469706673582212205446c2b1a61e485a60b3963da05edaed9883523cea111ce485ab4bd1f6af758c64736f6c63430008180033",
  "linkReferences": {},
  "deployedLinkReferences": {}
}