{
  "_format": "hh-sol-artifact-1",
  "contractName": "AdvanceEngine",
  "sourceName": "contracts/AdvanceEngine.sol",
  "abi": [
    {
      "inputs": [
        {
          "internalType": "address",
          "name": "_invoiceRegistry",
          "type": "address"
        },
        {
          "internalType": "address",
          "name": "_vault",
          "type": "address"
        },
        {
          "internalType": "address",
          "name": "defaultAdmin",
          "type": "address"
        }
      ],
      "stateMutability": "nonpayable",
      "type": "constructor"
    },
    {
      "inputs": [],
      "name": "AccessControlBadConfirmation",
      "type": "error"
    },
    {
      "inputs": [
        {
          "internalType": "address",
          "name": "account",
          "type": "address"
        },
        {
          "internalType": "bytes32",
          "name": "neededRole",
          "type": "bytes32"
        }
      ],
      "name": "AccessControlUnauthorizedAccount",
      "type": "error"
    },
    {
      "anonymous": false,
      "inputs": [
        {
          "indexed": true,
          "internalType": "uint256",
          "name": "invoiceId",
          "type": "uint256"
        },
        {
          "indexed": true,
          "internalType": "address",
          "name": "seller",
          "type": "address"
        },
        {
          "indexed": false,
          "internalType": "uint256",
          "name": "repaymentAmount",
          "type": "uint256"
        }
      ],
      "name": "AdvanceRepaid",
      "type": "event"
    },
    {
      "anonymous": false,
      "inputs": [
        {
          "indexed": true,
          "internalType": "uint256",
          "name": "invoiceId",
          "type": "uint256"
        },
        {
          "indexed": true,
          "internalType": "address",
          "name": "seller",
          "type": "address"
        },
        {
          "indexed": false,
          "internalType": "uint256",
          "name": "advanceAmount",
          "type": "uint256"
        },
        {
          "indexed": false,
          "internalType": "uint256",
          "name": "principal",
          "type": "uint256"
        },
        {
          "indexed": false,
          "internalType": "uint256",
          "name": "interest",
          "type": "uint256"
        }
      ],
      "name": "AdvanceRequested",
      "type": "event"
    },
    {
      "anonymous": false,
      "inputs": [
        {
          "indexed": true,
          "internalType": "bytes32",
          "name": "role",
          "type": "bytes32"
        },
        {
          "indexed": true,
          "internalType": "bytes32",
          "name": "previousAdminRole",
          "type": "bytes32"
        },
        {
          "indexed": true,
          "internalType": "bytes32",
          "name": "newAdminRole",
          "type": "bytes32"
        }
      ],
      "name": "RoleAdminChanged",
      "type": "event"
    },
    {
      "anonymous": false,
      "inputs": [
        {
          "indexed": true,
          "internalType": "bytes32",
          "name": "role",
          "type": "bytes32"
        },
        {
          "indexed": true,
          "internalType": "address",
          "name": "account",
          "type": "address"
        },
        {
          "indexed": true,
          "internalType": "address",
          "name": "sender",
          "type": "address"
        }
      ],
      "name": "RoleGranted",
      "type": "event"
    },
    {
      "anonymous": false,
      "inputs": [
        {
          "indexed": true,
          "internalType": "bytes32",
          "name": "role",
          "type": "bytes32"
        },
        {
          "indexed": true,
          "internalType": "address",
          "name": "account",
          "type": "address"
        },
        {
          "indexed": true,
          "internalType": "address",
          "name": "sender",
          "type": "address"
        }
      ],
      "name": "RoleRevoked",
      "type": "event"
    },
    {
      "inputs": [],
      "name": "DEFAULT_ADMIN_ROLE",
      "outputs": [
        {
          "internalType": "bytes32",
          "name": "",
          "type": "bytes32"
        }
      ],
      "stateMutability": "view",
      "type": "function"
    },
    {
      "inputs": [],
      "name": "SETTLEMENT_ROUTER_ROLE",
      "outputs": [
        {
          "internalType": "bytes32",
          "name": "",
          "type": "bytes32"
        }
      ],
      "stateMutability": "view",
      "type": "function"
    },
    {
      "inputs": [
        {
          "internalType": "uint256",
          "name": "invoiceId",
          "type": "uint256"
        }
      ],
      "name": "getAdvance",
      "outputs": [
        {
          "components": [
            {
              "internalType": "uint256",
              "name": "invoiceId",
              "type": "uint256"
            },
            {
              "internalType": "address",
              "name": "seller",
              "type": "address"
            },
            {
              "internalType": "uint256",
              "name": "advanceAmount",
              "type": "uint256"
            },
            {
              "internalType": "uint256",
              "name": "principal",
              "type": "uint256"
            },
            {
              "internalType": "uint256",
              "name": "interest",
              "type": "uint256"
            },
            {
              "internalType": "uint256",
              "name": "totalRepayment",
              "type": "uint256"
            },
            {
              "internalType": "uint256",
              "name": "requestedAt",
              "type": "uint256"
            },
            {
              "internalType": "bool",
              "name": "repaid",
              "type": "bool"
            }
          ],
          "internalType": "struct IAdvanceEngine.Advance",
          "name": "",
          "type": "tuple"
        }
      ],
      "stateMutability": "view",
      "type": "function"
    },
    {
      "inputs": [
        {
          "internalType": "uint256",
          "name": "invoiceId",
          "type": "uint256"
        }
      ],
      "name": "getRepaymentAmount",
      "outputs": [
        {
          "internalType": "uint256",
          "name": "",
          "type": "uint256"
        }
      ],
      "stateMutability": "view",
      "type": "function"
    },
    {
      "inputs": [
        {
          "internalType": "bytes32",
          "name": "role",
          "type": "bytes32"
        }
      ],
      "name": "getRoleAdmin",
      "outputs": [
        {
          "internalType": "bytes32",
          "name": "",
          "type": "bytes32"
        }
      ],
      "stateMutability": "view",
      "type": "function"
    },
    {
      "inputs": [
        {
          "internalType": "address",
          "name": "seller",
          "type": "address"
        }
      ],
      "name": "getTotalDebt",
      "outputs": [
        {
          "internalType": "uint256",
          "name": "",
          "type": "uint256"
        }
      ],
      "stateMutability": "view",
      "type": "function"
    },
    {
      "inputs": [
        {
          "internalType": "bytes32",
          "name": "role",
          "type": "bytes32"
        },
        {
          "internalType": "address",
          "name": "account",
          "type": "address"
        }
      ],
      "name": "grantRole",
      "outputs": [],
      "stateMutability": "nonpayable",
      "type": "function"
    },
    {
      "inputs": [
        {
          "internalType": "bytes32",
          "name": "role",
          "type": "bytes32"
        },
        {
          "internalType": "address",
          "name": "account",
          "type": "address"
        }
      ],
      "name": "hasRole",
      "outputs": [
        {
          "internalType": "bool",
          "name": "",
          "type": "bool"
        }
      ],
      "stateMutability": "view",
      "type": "function"
    },
    {
      "inputs": [],
      "name": "invoiceRegistry",
      "outputs": [
        {
          "internalType": "contract IInvoiceRegistry",
          "name": "",
          "type": "address"
        }
      ],
      "stateMutability": "view",
      "type": "function"
    },
    {
      "inputs": [
        {
          "internalType": "uint256",
          "name": "invoiceId",
          "type": "uint256"
        }
      ],
      "name": "markRepaid",
      "outputs": [],
      "stateMutability": "nonpayable",
      "type": "function"
    },
    {
      "inputs": [
        {
          "internalType": "bytes32",
          "name": "role",
          "type": "bytes32"
        },
        {
          "internalType": "address",
          "name": "callerConfirmation",
          "type": "address"
        }
      ],
      "name": "renounceRole",
      "outputs": [],
      "stateMutability": "nonpayable",
      "type": "function"
    },
    {
      "inputs": [
        {
          "internalType": "uint256",
          "name": "invoiceId",
          "type": "uint256"
        },
        {
          "internalType": "uint256",
          "name": "ltvBps",
          "type": "uint256"
        },
        {
          "internalType": "uint256",
          "name": "aprBps",
          "type": "uint256"
        }
      ],
      "name": "requestAdvance",
      "outputs": [
        {
          "internalType": "uint256",
          "name": "advanceAmount",
          "type": "uint256"
        }
      ],
      "stateMutability": "nonpayable",
      "type": "function"
    },
    {
      "inputs": [
        {
          "internalType": "bytes32",
          "name": "role",
          "type": "bytes32"
        },
        {
          "internalType": "address",
          "name": "account",
          "type": "address"
        }
      ],
      "name": "revokeRole",
      "outputs": [],
      "stateMutability": "nonpayable",
      "type": "function"
    },
    {
      "inputs": [
        {
          "internalType": "bytes4",
          "name": "interfaceId",
          "type": "bytes4"
        }
      ],
      "name": "supportsInterface",
      "outputs": [
        {
          "internalType": "bool",
          "name": "",
          "type": "bool"
        }
      ],
      "stateMutability": "view",
      "type": "function"
    },
    {
      "inputs": [],
      "name": "vault",
      "outputs": [
        {
          "internalType": "contract IVault",
          "name": "",
          "type": "address"
        }
      ],
      "stateMutability": "view",
      "type": "function"
    }
  ],
  "bytecode": "0x60c0346100cf57601f620013f738819003918201601f19168301916001600160401b038311848410176100d4578084926060946040528339810103126100cf578061004c61007c926100ea565b610064604061005d602085016100ea565b93016100ea565b6001600160a01b03918216608052911660a0526100fe565b5060405161126890816200018f823960805181818161024a015281816104d0015281816107fd0152610867015260a05181818160e5015281816105b70152818161061e0152818161066901526106cb0152f35b600080fd5b634e487b7160e01b600052604160045260246000fd5b51906001600160a01b03821682036100cf57565b6001600160a01b031660008181527fad3228b676f7d3cd4284a5443f17f1962b36e491b30a40b2405849e597ba5fb5602052604081205490919060ff1661018a57818052816020526040822081835260205260408220600160ff1982541617905533917f2f8788117e7eff1d82e926ec794901d17c78024a50270940304540a733656f0d8180a4600190565b509056fe608080604052600436101561001357600080fd5b600090813560e01c90816301ffc9a714610ebc5750806313d6b15d14610e815780632210532b14610e5a578063248a9ca314610e2e5780632f2ff15d14610df157806336568abe14610d915780634d44ac4f14610c6a57806369d2d7391461045b57806391d148541461040f578063a217fddf146103f3578063c701c994146102af578063d547741f1461026e578063da6c70e41461022a578063e15aa67e1461010c5763fbfa77cf146100c657600080fd5b3461010957806003193601126101095760206040516001600160a01b037f0000000000000000000000000000000000000000000000000000000000000000168152f35b80fd5b503461010957602080600319360112610226576040610100926004358160e0845161013681610f77565b828152828782015282868201528260608201528260808201528260a08201528260c08201520152808252600184526101728383205415156110cc565b815260018352206040519061018682610f77565b8054928383526001600160a01b038060018401541691808501928352600284015460408601908152600385015491606087019283526004860154936080880194855260058701549560a0890196875260e060ff600760068b01549a60c08d019b8c5201541699019815158952604051998a525116908801525160408701525160608601525160808501525160a08401525160c083015251151560e0820152f35b5080fd5b503461010957806003193601126101095760206040516001600160a01b037f0000000000000000000000000000000000000000000000000000000000000000168152f35b5034610109576040366003190112610109576102ab60043561028e610f5c565b90808452836020526102a66001604086200154611117565b6111bc565b5080f35b503461010957602080600319360112610226576004357fe42f0c8616404e22cba428ac20c22164b434f2ef9f5a62c5c2dbbeacfba3a0cd8060005260008352604060002033600052835260ff60406000205416156103bc5750808352600182526040832091610320835415156110cc565b60078301805460ff8116610378579060017f1846422a9f37947cde9565d3f252ffb0babb8e1f20a0ee77b13e9dcbfd1876df939260ff191617905560056001600160a01b03600186015416940154604051908152a380f35b6064836040519062461bcd60e51b82526004820152600e60248201527f416c7265616479207265706169640000000000000000000000000000000000006044820152fd5b604490604051907fe2517d3f0000000000000000000000000000000000000000000000000000000082523360048301526024820152fd5b5034610109578060031936011261010957602090604051908152f35b5034610109576040366003190112610109576001600160a01b036040610433610f5c565b92600435815280602052209116600052602052602060ff604060002054166040519015158152f35b50346101095760603660031901126101095760243560443581151580610c5e575b15610c1a5780151580610c0e575b15610bca57604051917f3a23cc0a000000000000000000000000000000000000000000000000000000008352600435600484015261014080846024816001600160a01b037f0000000000000000000000000000000000000000000000000000000000000000165afa938415610939578594610af3575b50506001600160a01b036020840151163303610aaf5760a08301516004811015610a9b57610a57576105396127109160608501516110ac565b04918215610a1357608001516237b1d0916105769142811115610a0857620151806105686105719242906110bf565b04915b856110ac565b6110ac565b046105818183611075565b6040517f35c7e9250000000000000000000000000000000000000000000000000000000081526020816004816001600160a01b037f0000000000000000000000000000000000000000000000000000000000000000165afa9081156109395785916109d2575b506040517f0307c4a10000000000000000000000000000000000000000000000000000000081526020816004816001600160a01b037f0000000000000000000000000000000000000000000000000000000000000000165afa80156109c7578591879161098c575b5061065a91926110bf565b10610948576001600160a01b037f0000000000000000000000000000000000000000000000000000000000000000163b15610944576040517fc5ebeaec0000000000000000000000000000000000000000000000000000000081528360048201528481602481836001600160a01b037f0000000000000000000000000000000000000000000000000000000000000000165af1801561093957610926575b50600760405161070781610f77565b60043581526020810192338452604082019086825260608301878152608084019087825260a0850192835260c085019342855260e08601978b89526004358c52600160205260408c20965187556001600160a01b03600188019151167fffffffffffffffffffffffff0000000000000000000000000000000000000000825416179055516002860155516003850155516004840155516005830155516006820155019051151560ff801983541691161790553383526002602052604083208054906801000000000000000082101561091257600182018082558210156108fe578452600435906020852001556001600160a01b037f0000000000000000000000000000000000000000000000000000000000000000163b156108ef576040517fb9ab755200000000000000000000000000000000000000000000000000000000815260043560048201528260248201528381604481836001600160a01b037f0000000000000000000000000000000000000000000000000000000000000000165af180156108f3576108db575b60208383604051908282528284830152604082015233907f55ded1156b969f08b4c4803d5b53e9865098181388841471ca44bf7e60f69b1d606060043592a3604051908152f35b6108e58491610faa565b6108ef5782610894565b8280fd5b6040513d86823e3d90fd5b602485634e487b7160e01b81526032600452fd5b602485634e487b7160e01b81526041600452fd5b61093290949194610faa565b92386106f8565b6040513d87823e3d90fd5b8380fd5b606460405162461bcd60e51b815260206004820152601c60248201527f496e73756666696369656e74207661756c74206c6971756964697479000000006044820152fd5b9150506020813d6020116109bf575b816109a860209383610fbe565b810103126109bb5751849061065a61064f565b8580fd5b3d915061099b565b6040513d88823e3d90fd5b90506020813d602011610a00575b816109ed60209383610fbe565b810103126109fc5751386105e7565b8480fd5b3d91506109e0565b50610571859161056b565b606460405162461bcd60e51b815260206004820152601160248201527f416476616e636520746f6f20736d616c6c0000000000000000000000000000006044820152fd5b606460405162461bcd60e51b815260206004820152600e60248201527f496e76616c6964207374617475730000000000000000000000000000000000006044820152fd5b602485634e487b7160e01b81526021600452fd5b606460405162461bcd60e51b815260206004820152601260248201527f4e6f7420696e766f6963652073656c6c657200000000000000000000000000006044820152fd5b908092945081813d8311610bc3575b610b0c8183610fbe565b810103126109fc5760405191820182811067ffffffffffffffff821117610baf5760405280518252610b4060208201611098565b6020830152610b5160408201611098565b6040830152606081015160608301526080810151608083015260a081015160048110156109bb5760a083015260c081015160c083015260e081015160e083015261010080820151908301526101208091015190820152913880610500565b602486634e487b7160e01b81526041600452fd5b503d610b02565b606460405162461bcd60e51b815260206004820152600b60248201527f496e76616c6964204150520000000000000000000000000000000000000000006044820152fd5b5061138881111561048a565b606460405162461bcd60e51b815260206004820152600b60248201527f496e76616c6964204c54560000000000000000000000000000000000000000006044820152fd5b5061271082111561047c565b5034610109576020908160031936011261010957600435906001600160a01b0391828116809103610226578152600291600284526040822091604051808487829654938481520190845287842092845b89828210610d7b57505050610cd192500384610fbe565b8092815b8151811015610d715760058782821b840101518452600180895260ff600760408720938860405194610d0686610f77565b86548652860154168c8501528a85015460408501526003850154606085015260048501546080850152840154938460a0850152600681015460c0850152015416159060e08215910152610d5d575b50600101610cd5565b610d6a9060019296611075565b9490610d54565b8685604051908152f35b8554845260019586019589955093019201610cba565b503461010957604036600319011261010957610dab610f5c565b336001600160a01b03821603610dc7576102ab906004356111bc565b60046040517f6697b232000000000000000000000000000000000000000000000000000000008152fd5b5034610109576040366003190112610109576102ab600435610e11610f5c565b9080845283602052610e296001604086200154611117565b61113d565b503461010957602036600319011261010957600160406020926004358152808452200154604051908152f35b5034610109576020366003190112610109576020610e79600435610fe0565b604051908152f35b503461010957806003193601126101095760206040517fe42f0c8616404e22cba428ac20c22164b434f2ef9f5a62c5c2dbbeacfba3a0cd8152f35b905034610226576020366003190112610226576004357fffffffff0000000000000000000000000000000000000000000000000000000081168091036108ef57602092507f7965db0b000000000000000000000000000000000000000000000000000000008114908115610f32575b5015158152f35b7f01ffc9a70000000000000000000000000000000000000000000000000000000091501438610f2b565b602435906001600160a01b0382168203610f7257565b600080fd5b610100810190811067ffffffffffffffff821117610f9457604052565b634e487b7160e01b600052604160045260246000fd5b67ffffffffffffffff8111610f9457604052565b90601f8019910116810190811067ffffffffffffffff821117610f9457604052565b6000526001602052604060002060e0604051610ffb81610f77565b8254908181526001600160a01b03600185015416602082015260028401546040820152600384015460608201526004840154608082015260ff60076005860154958660a0850152600681015460c0850152015416151592839101521590811561106d575b506110675790565b50600090565b90503861105f565b9190820180921161108257565b634e487b7160e01b600052601160045260246000fd5b51906001600160a01b0382168203610f7257565b8181029291811591840414171561108257565b9190820391821161108257565b156110d357565b606460405162461bcd60e51b815260206004820152601160248201527f416476616e6365206e6f7420666f756e640000000000000000000000000000006044820152fd5b80600052600060205260406000203360005260205260ff60406000205416156103bc5750565b90600091808352826020526001600160a01b036040842092169182845260205260ff604084205416156000146111b757808352826020526040832082845260205260408320600160ff198254161790557f2f8788117e7eff1d82e926ec794901d17c78024a50270940304540a733656f0d339380a4600190565b505090565b90600091808352826020526001600160a01b036040842092169182845260205260ff6040842054166000146111b75780835282602052604083208284526020526040832060ff1981541690557ff6391f5c32d9c69d2a47ea670b442974b53935d1edc7fd64eb21e047a839171b339380a460019056fea264697066735822122017e01aef528b5017575892eed3897cd8d53631a7cf58f522fc11ccd904bd9f3264736f6c63430008180033",
  "linkReferences": {},
  "deployedLinkReferences": {}
}