{
  "_format": "hh-sol-artifact-1",
  "contractName": "Vault",
  "sourceName": "contracts/Vault.sol",
  "abi": [
    {
      "inputs": [
        {
          "internalType": "address",
          "name": "_token",
          "type": "address"
        },
        {
          "internalType": "address",
          "name": "_usmtPlus",
          "type": "address"
        },
        {
          "internalType": "address",
          "name": "defaultAdmin",
          "type": "address"
        }
      ],
      "stateMutability": "nonpayable",
      "type": "constructor"
    },
    {
      "inputs": [],
      "name": "AccessControlBadConfirmation",
      "type": "error"
    },
    {
      "inputs": [
        {
          "internalType": "address",
          "name": "account",
          "type": "address"
        },
        {
          "internalType": "bytes32",
          "name": "neededRole",
          "type": "bytes32"
        }
      ],
      "name": "AccessControlUnauthorizedAccount",
      "type": "error"
    },
    {
      "inputs": [
        {
          "internalType": "address",
          "name": "token",
          "type": "address"
        }
      ],
      "name": "SafeERC20FailedOperation",
      "type": "error"
    },
    {
      "anonymous": false,
      "inputs": [
        {
          "indexed": true,
          "internalType": "address",
          "name": "borrower",
          "type": "address"
        },
        {
          "indexed": false,
          "internalType": "uint256",
          "name": "amount",
          "type": "uint256"
        }
      ],
      "name": "Borrow",
      "type": "event"
    },
    {
      "anonymous": false,
      "inputs": [
        {
          "indexed": true,
          "internalType": "address",
          "name": "user",
          "type": "address"
        },
        {
          "indexed": false,
          "internalType": "uint256",
          "name": "amount",
          "type": "uint256"
        },
        {
          "indexed": false,
          "internalType": "uint256",
          "name": "shares",
          "type": "uint256"
        }
      ],
      "name": "Deposit",
      "type": "event"
    },
    {
      "anonymous": false,
      "inputs": [
        {
          "indexed": true,
          "internalType": "address",
          "name": "borrower",
          "type": "address"
        },
        {
          "indexed": false,
          "internalType": "uint256",
          "name": "amount",
          "type": "uint256"
        }
      ],
      "name": "Repay",
      "type": "event"
    },
    {
      "anonymous": false,
      "inputs": [
        {
          "indexed": true,
          "internalType": "bytes32",
          "name": "role",
          "type": "bytes32"
        },
        {
          "indexed": true,
          "internalType": "bytes32",
          "name": "previousAdminRole",
          "type": "bytes32"
        },
        {
          "indexed": true,
          "internalType": "bytes32",
          "name": "newAdminRole",
          "type": "bytes32"
        }
      ],
      "name": "RoleAdminChanged",
      "type": "event"
    },
    {
      "anonymous": false,
      "inputs": [
        {
          "indexed": true,
          "internalType": "bytes32",
          "name": "role",
          "type": "bytes32"
        },
        {
          "indexed": true,
          "internalType": "address",
          "name": "account",
          "type": "address"
        },
        {
          "indexed": true,
          "internalType": "address",
          "name": "sender",
          "type": "address"
        }
      ],
      "name": "RoleGranted",
      "type": "event"
    },
    {
      "anonymous": false,
      "inputs": [
        {
          "indexed": true,
          "internalType": "bytes32",
          "name": "role",
          "type": "bytes32"
        },
        {
          "indexed": true,
          "internalType": "address",
          "name": "account",
          "type": "address"
        },
        {
          "indexed": true,
          "internalType": "address",
          "name": "sender",
          "type": "address"
        }
      ],
      "name": "RoleRevoked",
      "type": "event"
    },
    {
      "anonymous": false,
      "inputs": [
        {
          "indexed": true,
          "internalType": "address",
          "name": "user",
          "type": "address"
        },
        {
          "indexed": false,
          "internalType": "uint256",
          "name": "shares",
          "type": "uint256"
        },
        {
          "indexed": false,
          "internalType": "uint256",
          "name": "amount",
          "type": "uint256"
        }
      ],
      "name": "Withdraw",
      "type": "event"
    },
    {
      "inputs": [],
      "name": "BORROWER_ROLE",
      "outputs": [
        {
          "internalType": "bytes32",
          "name": "",
          "type": "bytes32"
        }
      ],
      "stateMutability": "view",
      "type": "function"
    },
    {
      "inputs": [],
      "name": "DEFAULT_ADMIN_ROLE",
      "outputs": [
        {
          "internalType": "bytes32",
          "name": "",
          "type": "bytes32"
        }
      ],
      "stateMutability": "view",
      "type": "function"
    },
    {
      "inputs": [
        {
          "internalType": "uint256",
          "name": "amount",
          "type": "uint256"
        }
      ],
      "name": "borrow",
      "outputs": [],
      "stateMutability": "nonpayable",
      "type": "function"
    },
    {
      "inputs": [
        {
          "internalType": "uint256",
          "name": "amount",
          "type": "uint256"
        }
      ],
      "name": "deposit",
      "outputs": [
        {
          "internalType": "uint256",
          "name": "usmtReceived",
          "type": "uint256"
        }
      ],
      "stateMutability": "nonpayable",
      "type": "function"
    },
    {
      "inputs": [
        {
          "internalType": "address",
          "name": "user",
          "type": "address"
        }
      ],
      "name": "getBalance",
      "outputs": [
        {
          "internalType": "uint256",
          "name": "",
          "type": "uint256"
        }
      ],
      "stateMutability": "view",
      "type": "function"
    },
    {
      "inputs": [
        {
          "internalType": "bytes32",
          "name": "role",
          "type": "bytes32"
        }
      ],
      "name": "getRoleAdmin",
      "outputs": [
        {
          "internalType": "bytes32",
          "name": "",
          "type": "bytes32"
        }
      ],
      "stateMutability": "view",
      "type": "function"
    },
    {
      "inputs": [
        {
          "internalType": "address",
          "name": "user",
          "type": "address"
        }
      ],
      "name": "getShares",
      "outputs": [
        {
          "internalType": "uint256",
          "name": "",
          "type": "uint256"
        }
      ],
      "stateMutability": "view",
      "type": "function"
    },
    {
      "inputs": [],
      "name": "getTotalBorrowed",
      "outputs": [
        {
          "internalType": "uint256",
          "name": "",
          "type": "uint256"
        }
      ],
      "stateMutability": "view",
      "type": "function"
    },
    {
      "inputs": [],
      "name": "getTotalLiquidity",
      "outputs": [
        {
          "internalType": "uint256",
          "name": "",
          "type": "uint256"
        }
      ],
      "stateMutability": "view",
      "type": "function"
    },
    {
      "inputs": [],
      "name": "getUtilizationRate",
      "outputs": [
        {
          "internalType": "uint256",
          "name": "",
          "type": "uint256"
        }
      ],
      "stateMutability": "view",
      "type": "function"
    },
    {
      "inputs": [
        {
          "internalType": "bytes32",
          "name": "role",
          "type": "bytes32"
        },
        {
          "internalType": "address",
          "name": "account",
          "type": "address"
        }
      ],
      "name": "grantRole",
      "outputs": [],
      "stateMutability": "nonpayable",
      "type": "function"
    },
    {
      "inputs": [
        {
          "internalType": "bytes32",
          "name": "role",
          "type": "bytes32"
        },
        {
          "internalType": "address",
          "name": "account",
          "type": "address"
        }
      ],
      "name": "hasRole",
      "outputs": [
        {
          "internalType": "bool",
          "name": "",
          "type": "bool"
        }
      ],
      "stateMutability": "view",
      "type": "function"
    },
    {
      "inputs": [
        {
          "internalType": "bytes32",
          "name": "role",
          "type": "bytes32"
        },
        {
          "internalType": "address",
          "name": "callerConfirmation",
          "type": "address"
        }
      ],
      "name": "renounceRole",
      "outputs": [],
      "stateMutability": "nonpayable",
      "type": "function"
    },
    {
      "inputs": [
        {
          "internalType": "uint256",
          "name": "amount",
          "type": "uint256"
        }
      ],
      "name": "repay",
      "outputs": [],
      "stateMutability": "nonpayable",
      "type": "function"
    },
    {
      "inputs": [
        {
          "internalType": "bytes32",
          "name": "role",
          "type": "bytes32"
        },
        {
          "internalType": "address",
          "name": "account",
          "type": "address"
        }
      ],
      "name": "revokeRole",
      "outputs": [],
      "stateMutability": "nonpayable",
      "type": "function"
    },
    {
      "inputs": [
        {
          "internalType": "bytes4",
          "name": "interfaceId",
          "type": "bytes4"
        }
      ],
      "name": "supportsInterface",
      "outputs": [
        {
          "internalType": "bool",
          "name": "",
          "type": "bool"
        }
      ],
      "stateMutability": "view",
      "type": "function"
    },
    {
      "inputs": [],
      "name": "token",
      "outputs": [
        {
          "internalType": "contract IERC20",
          "name": "",
          "type": "address"
        }
      ],
      "stateMutability": "view",
      "type": "function"
    },
    {
      "inputs": [],
      "name": "totalBorrowed",
      "outputs": [
        {
          "internalType": "uint256",
          "name": "",
          "type": "uint256"
        }
      ],
      "stateMutability": "view",
      "type": "function"
    },
    {
      "inputs": [],
      "name": "totalLiquidity",
      "outputs": [
        {
          "internalType": "uint256",
          "name": "",
          "type": "uint256"
        }
      ],
      "stateMutability": "view",
      "type": "function"
    },
    {
      "inputs": [],
      "name": "totalShares",
      "outputs": [
        {
          "internalType": "uint256",
          "name": "",
          "type": "uint256"
        }
      ],
      "stateMutability": "view",
      "type": "function"
    },
    {
      "inputs": [],
      "name": "usmtPlus",
      "outputs": [
        {
          "internalType": "contract USMTPlus",
          "name": "",
          "type": "address"
        }
      ],
      "stateMutability": "view",
      "type": "function"
    },
    {
      "inputs": [
        {
          "internalType": "uint256",
          "name": "usmtAmount",
          "type": "uint256"
        }
      ],
      "name": "withdraw",
      "outputs": [
        {
          "internalType": "uint256",
          "name": "amountReceived",
          "type": "uint256"
        }
      ],
      "stateMutability": "nonpayable",
      "type": "function"
    }
  ],
  "bytecode": "0x60c0346100d557601f610f9b38819003918201601f19168301916001600160401b038311848410176100da578084926060946040528339810103126100d5578061004b61007b926100f0565b610063604061005c602085016100f0565b93016100f0565b6001600160a01b03918216608052911660a052610104565b50604051610e069081610195823960805181818161013501528181610234015281816102ca015281816105af01526107ca015260a0518181816102f901528181610451015281816104ff0152818161073901526109ad0152f35b600080fd5b634e487b7160e01b600052604160045260246000fd5b51906001600160a01b03821682036100d557565b6001600160a01b031660008181527fad3228b676f7d3cd4284a5443f17f1962b36e491b30a40b2405849e597ba5fb5602052604081205490919060ff1661019057818052816020526040822081835260205260408220600160ff1982541617905533917f2f8788117e7eff1d82e926ec794901d17c78024a50270940304540a733656f0d8180a4600190565b509056fe608060408181526004918236101561001657600080fd5b600092833560e01c91826301ffc9a714610897575081630307c4a1146104755781630e7b949e1461085c57816315770f92146106b0578163248a9ca3146108325781632e1a7d4d146106f95781632f2ff15d146106cf57816335c7e925146106b057816336568abe14610651578163371fd8e61461057b5781633a98ef39146104b85781634a417a53146104945781634c19386c1461047557816385ca17061461043157816391d14854146103ec578163a217fddf146103d1578163b6b55f25146102a0578163c5ebeaec146101a5578163d547741f1461016257508063f04da65b1461015d578063f8b2cb4f1461015d5763fc0c546a1461011757600080fd5b34610159578160031936011261015957602090516001600160a01b037f0000000000000000000000000000000000000000000000000000000000000000168152f35b5080fd5b610950565b919050346101a157806003193601126101a15761019d91356101986001610187610935565b938387528660205286200154610bb8565b610c7b565b5080f35b8280fd5b919050346101a15760203660031901126101a1578135917f2344277e405079ec07749d374ba0b5862a4e45a6a05ac889dbb4a991c6f9354d8085528460205282852033865260205260ff838620541615610285575050610206821515610a20565b61022a826001546102258261021e6002548094610a6b565b1015610a8e565b610b4f565b60025561025882337f0000000000000000000000000000000000000000000000000000000000000000610b5c565b519081527fcbc04eca7e9da35cb1393a6135a199ca52e450d5e9251cbd99f7847d33a3675060203392a280f35b604492519163e2517d3f60e01b835233908301526024820152fd5b919050346101a15760203660031901126101a1578135916102c2831515610a20565b6102ee8330337f0000000000000000000000000000000000000000000000000000000000000000610cf1565b836001600160a01b037f00000000000000000000000000000000000000000000000000000000000000001691823b156101595783517f40c10f19000000000000000000000000000000000000000000000000000000008152339181019182526020820186905292839182908490829060400103925af180156103c757602094506103b8575b5061038082600154610b4f565b600155805182815282848201527f90890809c654f11d6e72a28fa60149770a0d11ec6c92319d6ceb2bb0a4ea1a15823392a251908152f35b6103c190610ad9565b38610373565b82513d86823e3d90fd5b50503461015957816003193601126101595751908152602090f35b9050346101a157816003193601126101a1578160209360ff9261040d610935565b903582528186526001600160a01b0383832091168252855220541690519015158152f35b505034610159578160031936011261015957602090516001600160a01b037f0000000000000000000000000000000000000000000000000000000000000000168152f35b5050346101595781600319360112610159576020906002549051908152f35b5050346101595781600319360112610159576020906104b1610b25565b9051908152f35b919050346101a157826003193601126101a1576020815180937f18160ddd000000000000000000000000000000000000000000000000000000008252816001600160a01b037f0000000000000000000000000000000000000000000000000000000000000000165afa918215610571578392610539575b6020838351908152f35b9091506020813d602011610569575b8161055560209383610b03565b810103126101a1576020925051903861052f565b3d9150610548565b81513d85823e3d90fd5b919050346101a15760203660031901126101a15781359161059d831515610a20565b826002541061060f57506105d38230337f0000000000000000000000000000000000000000000000000000000000000000610cf1565b6105df82600254610a6b565b600255519081527f5c16de4f8b59bd9caf0f49a545f25819a895ed223294290b408242e72a59423160203392a280f35b6020606492519162461bcd60e51b8352820152601660248201527f5265706179206578636565647320626f72726f776564000000000000000000006044820152fd5b83833461015957806003193601126101595761066b610935565b90336001600160a01b03831603610688575061019d919235610c7b565b8390517f6697b232000000000000000000000000000000000000000000000000000000008152fd5b5050346101595781600319360112610159576020906001549051908152f35b919050346101a157806003193601126101a15761019d91356106f46001610187610935565b610bfc565b919050346101a15760203660031901126101a15781359161071b831515610a20565b61072e8361021e60015460025490610a6b565b836001600160a01b037f00000000000000000000000000000000000000000000000000000000000000001691823b156101595783517f9dc29fac000000000000000000000000000000000000000000000000000000008152339181019182526020820186905292839182908490829060400103925af180156103c75760209450610823575b506107c082600154610a6b565b6001556107ee82337f0000000000000000000000000000000000000000000000000000000000000000610b5c565b805182815282848201527ff279e6a1f5e320cca91135676d9cb6e44ca8a08c0b88342bcdb1144f6511b568823392a251908152f35b61082c90610ad9565b386107b3565b9050346101a15760203660031901126101a157816020936001923581528085522001549051908152f35b505034610159578160031936011261015957602090517f2344277e405079ec07749d374ba0b5862a4e45a6a05ac889dbb4a991c6f9354d8152f35b8491346101a15760203660031901126101a157357fffffffff0000000000000000000000000000000000000000000000000000000081168091036101a157602092507f7965db0b00000000000000000000000000000000000000000000000000000000811490811561090b575b5015158152f35b7f01ffc9a70000000000000000000000000000000000000000000000000000000091501483610904565b602435906001600160a01b038216820361094b57565b600080fd5b3461094b5760208060031936011261094b576004356001600160a01b039081811680910361094b5782906024604051809481937f70a0823100000000000000000000000000000000000000000000000000000000835260048301527f0000000000000000000000000000000000000000000000000000000000000000165afa908115610a14576000916109e7575b50604051908152f35b90508181813d8311610a0d575b6109fe8183610b03565b8101031261094b5751386109de565b503d6109f4565b6040513d6000823e3d90fd5b15610a2757565b606460405162461bcd60e51b815260206004820152601260248201527f416d6f756e74206d757374206265203e203000000000000000000000000000006044820152fd5b91908203918211610a7857565b634e487b7160e01b600052601160045260246000fd5b15610a9557565b606460405162461bcd60e51b815260206004820152601660248201527f496e73756666696369656e74206c6971756964697479000000000000000000006044820152fd5b67ffffffffffffffff8111610aed57604052565b634e487b7160e01b600052604160045260246000fd5b90601f8019910116810190811067ffffffffffffffff821117610aed57604052565b6001548015610b495760025461271090818102918183041490151715610a78570490565b50600090565b91908201809211610a7857565b6040517fa9059cbb0000000000000000000000000000000000000000000000000000000060208201526001600160a01b03929092166024830152604480830193909352918152610bb691610bb1606483610b03565b610d5c565b565b80600052600060205260406000203360005260205260ff6040600020541615610bde5750565b6044906040519063e2517d3f60e01b82523360048301526024820152fd5b90600091808352826020526001600160a01b036040842092169182845260205260ff60408420541615600014610c7657808352826020526040832082845260205260408320600160ff198254161790557f2f8788117e7eff1d82e926ec794901d17c78024a50270940304540a733656f0d339380a4600190565b505090565b90600091808352826020526001600160a01b036040842092169182845260205260ff604084205416600014610c765780835282602052604083208284526020526040832060ff1981541690557ff6391f5c32d9c69d2a47ea670b442974b53935d1edc7fd64eb21e047a839171b339380a4600190565b9290604051927f23b872dd0000000000000000000000000000000000000000000000000000000060208501526001600160a01b03809216602485015216604483015260648201526064815260a081019181831067ffffffffffffffff841117610aed57610bb6926040525b906000602091828151910182855af115610a14576000513d610dc757506001600160a01b0381163b155b610d8d5750565b6024906001600160a01b03604051917f5274afe7000000000000000000000000000000000000000000000000000000008352166004820152fd5b60011415610d8656fea26469706673582212202228014f654034c224bd1ec46ebe12c38c36c7ab19d5bce071d74b96b4df9e9264736f6c63430008180033",
  "linkReferences": {},
  "deployedLinkReferences": {}
}