{
  "_format": "hh-sol-artifact-1",
  "contractName": "SettlementRouter",
  "sourceName": "contracts/SettlementRouter.sol",
  "abi": [
    {
      "inputs": [
        {
          "internalType": "address",
          "name": "_token",
          "type": "address"
        },
        {
          "internalType": "address",
          "name": "_invoiceRegistry",
          "type": "address"
        },
        {
          "internalType": "address",
          "name": "_vault",
          "type": "address"
        },
        {
          "internalType": "address",
          "name": "_advanceEngine",
          "type": "address"
        },
        {
          "internalType": "address",
          "name": "_reputation",
          "type": "address"
        },
        {
          "internalType": "address",
          "name": "_treasury",
          "type": "address"
        },
        {
          "internalType": "uint256",
          "name": "_protocolFeeBps",
          "type": "uint256"
        },
        {
          "internalType": "address",
          "name": "defaultAdmin",
          "type": "address"
        }
      ],
      "stateMutability": "nonpayable",
      "type": "constructor"
    },
    {
      "inputs": [],
      "name": "AccessControlBadConfirmation",
      "type": "error"
    },
    {
      "inputs": [
        {
          "internalType": "address",
          "name": "account",
          "type": "address"
        },
        {
          "internalType": "bytes32",
          "name": "neededRole",
          "type": "bytes32"
        }
      ],
      "name": "AccessControlUnauthorizedAccount",
      "type": "error"
    },
    {
      "inputs": [
        {
          "internalType": "address",
          "name": "token",
          "type": "address"
        }
      ],
      "name": "SafeERC20FailedOperation",
      "type": "error"
    },
    {
      "anonymous": false,
      "inputs": [
        {
          "indexed": true,
          "internalType": "uint256",
          "name": "invoiceId",
          "type": "uint256"
        },
        {
          "indexed": true,
          "internalType": "address",
          "name": "buyer",
          "type": "address"
        },
        {
          "indexed": true,
          "internalType": "address",
          "name": "seller",
          "type": "address"
        },
        {
          "indexed": false,
          "internalType": "uint256",
          "name": "invoiceAmount",
          "type": "uint256"
        },
        {
          "indexed": false,
          "internalType": "uint256",
          "name": "feeAmount",
          "type": "uint256"
        },
        {
          "indexed": false,
          "internalType": "uint256",
          "name": "repaymentAmount",
          "type": "uint256"
        },
        {
          "indexed": false,
          "internalType": "uint256",
          "name": "sellerAmount",
          "type": "uint256"
        }
      ],
      "name": "InvoiceSettled",
      "type": "event"
    },
    {
      "anonymous": false,
      "inputs": [
        {
          "indexed": true,
          "internalType": "bytes32",
          "name": "role",
          "type": "bytes32"
        },
        {
          "indexed": true,
          "internalType": "bytes32",
          "name": "previousAdminRole",
          "type": "bytes32"
        },
        {
          "indexed": true,
          "internalType": "bytes32",
          "name": "newAdminRole",
          "type": "bytes32"
        }
      ],
      "name": "RoleAdminChanged",
      "type": "event"
    },
    {
      "anonymous": false,
      "inputs": [
        {
          "indexed": true,
          "internalType": "bytes32",
          "name": "role",
          "type": "bytes32"
        },
        {
          "indexed": true,
          "internalType": "address",
          "name": "account",
          "type": "address"
        },
        {
          "indexed": true,
          "internalType": "address",
          "name": "sender",
          "type": "address"
        }
      ],
      "name": "RoleGranted",
      "type": "event"
    },
    {
      "anonymous": false,
      "inputs": [
        {
          "indexed": true,
          "internalType": "bytes32",
          "name": "role",
          "type": "bytes32"
        },
        {
          "indexed": true,
          "internalType": "address",
          "name": "account",
          "type": "address"
        },
        {
          "indexed": true,
          "internalType": "address",
          "name": "sender",
          "type": "address"
        }
      ],
      "name": "RoleRevoked",
      "type": "event"
    },
    {
      "inputs": [],
      "name": "DEFAULT_ADMIN_ROLE",
      "outputs": [
        {
          "internalType": "bytes32",
          "name": "",
          "type": "bytes32"
        }
      ],
      "stateMutability": "view",
      "type": "function"
    },
    {
      "inputs": [],
      "name": "advanceEngine",
      "outputs": [
        {
          "internalType": "contract IAdvanceEngine",
          "name": "",
          "type": "address"
        }
      ],
      "stateMutability": "view",
      "type": "function"
    },
    {
      "inputs": [
        {
          "internalType": "bytes32",
          "name": "role",
          "type": "bytes32"
        }
      ],
      "name": "getRoleAdmin",
      "outputs": [
        {
          "internalType": "bytes32",
          "name": "",
          "type": "bytes32"
        }
      ],
      "stateMutability": "view",
      "type": "function"
    },
    {
      "inputs": [
        {
          "internalType": "bytes32",
          "name": "role",
          "type": "bytes32"
        },
        {
          "internalType": "address",
          "name": "account",
          "type": "address"
        }
      ],
      "name": "grantRole",
      "outputs": [],
      "stateMutability": "nonpayable",
      "type": "function"
    },
    {
      "inputs": [
        {
          "internalType": "bytes32",
          "name": "role",
          "type": "bytes32"
        },
        {
          "internalType": "address",
          "name": "account",
          "type": "address"
        }
      ],
      "name": "hasRole",
      "outputs": [
        {
          "internalType": "bool",
          "name": "",
          "type": "bool"
        }
      ],
      "stateMutability": "view",
      "type": "function"
    },
    {
      "inputs": [],
      "name": "invoiceRegistry",
      "outputs": [
        {
          "internalType": "contract IInvoiceRegistry",
          "name": "",
          "type": "address"
        }
      ],
      "stateMutability": "view",
      "type": "function"
    },
    {
      "inputs": [
        {
          "internalType": "uint256",
          "name": "invoiceId",
          "type": "uint256"
        }
      ],
      "name": "payInvoice",
      "outputs": [],
      "stateMutability": "nonpayable",
      "type": "function"
    },
    {
      "inputs": [],
      "name": "protocolFeeBps",
      "outputs": [
        {
          "internalType": "uint256",
          "name": "",
          "type": "uint256"
        }
      ],
      "stateMutability": "view",
      "type": "function"
    },
    {
      "inputs": [
        {
          "internalType": "bytes32",
          "name": "role",
          "type": "bytes32"
        },
        {
          "internalType": "address",
          "name": "callerConfirmation",
          "type": "address"
        }
      ],
      "name": "renounceRole",
      "outputs": [],
      "stateMutability": "nonpayable",
      "type": "function"
    },
    {
      "inputs": [],
      "name": "reputation",
      "outputs": [
        {
          "internalType": "contract IReputation",
          "name": "",
          "type": "address"
        }
      ],
      "stateMutability": "view",
      "type": "function"
    },
    {
      "inputs": [
        {
          "internalType": "bytes32",
          "name": "role",
          "type": "bytes32"
        },
        {
          "internalType": "address",
          "name": "account",
          "type": "address"
        }
      ],
      "name": "revokeRole",
      "outputs": [],
      "stateMutability": "nonpayable",
      "type": "function"
    },
    {
      "inputs": [
        {
          "internalType": "uint256",
          "name": "newFeeBps",
          "type": "uint256"
        }
      ],
      "name": "setProtocolFee",
      "outputs": [],
      "stateMutability": "nonpayable",
      "type": "function"
    },
    {
      "inputs": [
        {
          "internalType": "address",
          "name": "newTreasury",
          "type": "address"
        }
      ],
      "name": "setTreasury",
      "outputs": [],
      "stateMutability": "nonpayable",
      "type": "function"
    },
    {
      "inputs": [
        {
          "internalType": "bytes4",
          "name": "interfaceId",
          "type": "bytes4"
        }
      ],
      "name": "supportsInterface",
      "outputs": [
        {
          "internalType": "bool",
          "name": "",
          "type": "bool"
        }
      ],
      "stateMutability": "view",
      "type": "function"
    },
    {
      "inputs": [],
      "name": "token",
      "outputs": [
        {
          "internalType": "contract IERC20",
          "name": "",
          "type": "address"
        }
      ],
      "stateMutability": "view",
      "type": "function"
    },
    {
      "inputs": [],
      "name": "treasury",
      "outputs": [
        {
          "internalType": "address",
          "name": "",
          "type": "address"
        }
      ],
      "stateMutability": "view",
      "type": "function"
    },
    {
      "inputs": [],
      "name": "vault",
      "outputs": [
        {
          "internalType": "contract IVault",
          "name": "",
          "type": "address"
        }
      ],
      "stateMutability": "view",
      "type": "function"
    }
  ],
  "bytecode": "0x61012034620001af57620015e438819003601f8101601f191683016001600160401b03811184821017620001b45783928291604052833961010092839181010312620001af578062000055620000f692620001ca565b906200006460208201620001ca565b916200007360408301620001ca565b906200008260608401620001ca565b936200009160808501620001ca565b6200009f60a08601620001ca565b92620000b360e060c08801519701620001ca565b6001600160a01b0391821660805292811660a05293841660c05294831660e0529382168652600180546001600160a01b03191691909216179055600255620001df565b50604051611373918262000271833960805182818160fb015281816103f201528181610791015281816108120152818161092f0152610a97015260a05182818161022f0152818161032a015281816104200152818161048b01528181610596015261060c015260c051828181610142015281816107c90152818161084a015281816108ad01526108f3015260e05182818161050f01528181610967015281816109cc0152610e680152518181816102b4015261064e0152f35b600080fd5b634e487b7160e01b600052604160045260246000fd5b51906001600160a01b0382168203620001af57565b6001600160a01b031660008181527fad3228b676f7d3cd4284a5443f17f1962b36e491b30a40b2405849e597ba5fb5602052604081205490919060ff166200026c57818052816020526040822081835260205260408220600160ff1982541617905533917f2f8788117e7eff1d82e926ec794901d17c78024a50270940304540a733656f0d8180a4600190565b509056fe608080604052600436101561001357600080fd5b600090813560e01c90816301ffc9a714610f7357508063248a9ca314610f475780632f2ff15d14610f0a57806335659fb814610eec57806336568abe14610e8c57806358078eb614610e4857806361d027b314610e21578063787dce3d14610db157806391d1485414610d6a578063a217fddf14610d4e578063ac60a6cd146102d8578063c52164c614610294578063d547741f14610253578063da6c70e41461020f578063f0f4426014610166578063fbfa77cf146101225763fc0c546a146100dc57600080fd5b3461011f578060031936011261011f5760206040516001600160a01b037f0000000000000000000000000000000000000000000000000000000000000000168152f35b80fd5b503461011f578060031936011261011f5760206040516001600160a01b037f0000000000000000000000000000000000000000000000000000000000000000168152f35b503461011f57602036600319011261011f576004356001600160a01b03811680910361020a576101946110d5565b80156101c6577fffffffffffffffffffffffff0000000000000000000000000000000000000000600154161760015580f35b606460405162461bcd60e51b815260206004820152601060248201527f496e76616c6964207472656173757279000000000000000000000000000000006044820152fd5b600080fd5b503461011f578060031936011261011f5760206040516001600160a01b037f0000000000000000000000000000000000000000000000000000000000000000168152f35b503461011f57604036600319011261011f57610290600435610273611017565b908084528360205261028b6001604086200154611146565b6111eb565b5080f35b503461011f578060031936011261011f5760206040516001600160a01b037f0000000000000000000000000000000000000000000000000000000000000000168152f35b503461011f57602036600319011261011f576040517f3a23cc0a000000000000000000000000000000000000000000000000000000008152600435600482015261014080826024816001600160a01b037f0000000000000000000000000000000000000000000000000000000000000000165afa918215610d43578392610c6e575b5050805115610c2a5760a08101516004811015610c1657600314610bd2576001600160a01b036040820151163303610b8e5760608101908151604051907f23b872dd00000000000000000000000000000000000000000000000000000000602083015233602483015230604483015260648201526064815260a0810181811067ffffffffffffffff821117610b7a57604052610416907f00000000000000000000000000000000000000000000000000000000000000006112bd565b6001600160a01b037f0000000000000000000000000000000000000000000000000000000000000000163b15610b76576040517f4cd78efa0000000000000000000000000000000000000000000000000000000081526004356004820152600260248201528381604481836001600160a01b037f0000000000000000000000000000000000000000000000000000000000000000165af18015610b6b57610b58575b50815160025490818102918183041490151715610b445783916040517f2210532b00000000000000000000000000000000000000000000000000000000815260043560048201526020816024816001600160a01b037f0000000000000000000000000000000000000000000000000000000000000000165afa869181610b0c575b50610b04575b50610558836105536127108504875161108d565b61108d565b61056f8161056a8661271087046110b0565b6110b0565b855103610ac0576127108304610a81575b836107ba575b8061077d575b6001600160a01b037f0000000000000000000000000000000000000000000000000000000000000000163b15610756576040517f2f219772000000000000000000000000000000000000000000000000000000008152600480359082015260248101829052612710840460448201526064810185905286908181608481837f00000000000000000000000000000000000000000000000000000000000000006001600160a01b03165af1801561075a57610769575b5060206001600160a01b037f0000000000000000000000000000000000000000000000000000000000000000169301926001600160a01b038451168751823b15610765576040517ff5c91a080000000000000000000000000000000000000000000000000000000081526001600160a01b0392909216600483015260248201529082908290604490829084905af1801561075a57610742575b50506001600160a01b037fdde5c1ff45b05d86e937c381599dd001b98cb038ba0dae2490ac828dcb6bae2192511694519361073c6040519283923397612710600435980490859094939260609260808301968352602083015260408201520152565b0390a480f35b61074b9061102d565b6107565785386106da565b8580fd5b6040513d84823e3d90fd5b8380fd5b6107729061102d565b610756578538610641565b6107b5816001600160a01b036020850151167f0000000000000000000000000000000000000000000000000000000000000000611261565b61058c565b60405163095ea7b360e01b81527f00000000000000000000000000000000000000000000000000000000000000006001600160a01b0316600482015260248101859052602081806044810103818a6001600160a01b037f0000000000000000000000000000000000000000000000000000000000000000165af18015610a4357610a62575b506001600160a01b037f0000000000000000000000000000000000000000000000000000000000000000163b1561075657856040517f371fd8e60000000000000000000000000000000000000000000000000000000081528560048201528181602481836001600160a01b037f0000000000000000000000000000000000000000000000000000000000000000165af1801561075a57610a4e575b505060405163095ea7b360e01b81526001600160a01b037f00000000000000000000000000000000000000000000000000000000000000001660048201528660248201526020816044818a6001600160a01b037f0000000000000000000000000000000000000000000000000000000000000000165af18015610a4357610a14575b506001600160a01b037f0000000000000000000000000000000000000000000000000000000000000000163b1561075657856040517fc701c99400000000000000000000000000000000000000000000000000000000815260043560048201528181602481836001600160a01b037f0000000000000000000000000000000000000000000000000000000000000000165af1801561075a57610a00575b5050610586565b610a099061102d565b6107565785386109f9565b610a359060203d602011610a3c575b610a2d8183611057565b8101906110bd565b503861095c565b503d610a23565b6040513d89823e3d90fd5b610a579061102d565b6107565785386108da565b610a7a9060203d602011610a3c57610a2d8183611057565b503861083f565b610abb61271084046001600160a01b03600154167f0000000000000000000000000000000000000000000000000000000000000000611261565b610580565b606460405162461bcd60e51b815260206004820152601960248201527f534554544c2e656d656e74206d617468206d69736d61746368000000000000006044820152fd5b92503861053f565b9091506020813d602011610b3c575b81610b2860209383611057565b81010312610b3857519038610539565b8680fd5b3d9150610b1b565b602484634e487b7160e01b81526011600452fd5b610b649093919361102d565b91386104b8565b6040513d86823e3d90fd5b8280fd5b602485634e487b7160e01b81526041600452fd5b606460405162461bcd60e51b815260206004820152601160248201527f4e6f7420696e766f6963652062757965720000000000000000000000000000006044820152fd5b606460405162461bcd60e51b815260206004820152600f60248201527f416c726561647920636c656172656400000000000000000000000000000000006044820152fd5b602483634e487b7160e01b81526021600452fd5b606460405162461bcd60e51b815260206004820152601160248201527f496e766f696365206e6f7420666f756e640000000000000000000000000000006044820152fd5b9080925081813d8311610d3c575b610c868183611057565b81010312610b765760405191820182811067ffffffffffffffff821117610d285760405280518252610cba60208201611079565b6020830152610ccb60408201611079565b6040830152606081015160608301526080810151608083015260a081015160048110156107655760a083015260c081015160c083015260e081015160e083015261010080820151908301526101208091015190820152388061035a565b602484634e487b7160e01b81526041600452fd5b503d610c7c565b6040513d85823e3d90fd5b503461011f578060031936011261011f57602090604051908152f35b503461011f57604036600319011261011f5760ff6040602092610d8b611017565b60043582528185526001600160a01b038383209116825284522054166040519015158152f35b503461011f57602036600319011261011f57600435610dce6110d5565b6101f48111610ddd5760025580f35b606460405162461bcd60e51b815260206004820152600c60248201527f46656520746f6f206869676800000000000000000000000000000000000000006044820152fd5b503461011f578060031936011261011f5760206001600160a01b0360015416604051908152f35b503461011f578060031936011261011f5760206040516001600160a01b037f0000000000000000000000000000000000000000000000000000000000000000168152f35b503461011f57604036600319011261011f57610ea6611017565b336001600160a01b03821603610ec257610290906004356111eb565b60046040517f6697b232000000000000000000000000000000000000000000000000000000008152fd5b503461011f578060031936011261011f576020600254604051908152f35b503461011f57604036600319011261011f57610290600435610f2a611017565b9080845283602052610f426001604086200154611146565b61116c565b503461011f57602036600319011261011f57600160406020926004358152808452200154604051908152f35b905034611013576020366003190112611013576004357fffffffff000000000000000000000000000000000000000000000000000000008116809103610b7657602092507f7965db0b000000000000000000000000000000000000000000000000000000008114908115610fe9575b5015158152f35b7f01ffc9a70000000000000000000000000000000000000000000000000000000091501438610fe2565b5080fd5b602435906001600160a01b038216820361020a57565b67ffffffffffffffff811161104157604052565b634e487b7160e01b600052604160045260246000fd5b90601f8019910116810190811067ffffffffffffffff82111761104157604052565b51906001600160a01b038216820361020a57565b9190820391821161109a57565b634e487b7160e01b600052601160045260246000fd5b9190820180921161109a57565b9081602091031261020a5751801515810361020a5790565b3360009081527fad3228b676f7d3cd4284a5443f17f1962b36e491b30a40b2405849e597ba5fb5602052604081205460ff161561110f5750565b604490604051907fe2517d3f0000000000000000000000000000000000000000000000000000000082523360048301526024820152fd5b80600052600060205260406000203360005260205260ff604060002054161561110f5750565b90600091808352826020526001600160a01b036040842092169182845260205260ff604084205416156000146111e657808352826020526040832082845260205260408320600160ff198254161790557f2f8788117e7eff1d82e926ec794901d17c78024a50270940304540a733656f0d339380a4600190565b505090565b90600091808352826020526001600160a01b036040842092169182845260205260ff6040842054166000146111e65780835282602052604083208284526020526040832060ff1981541690557ff6391f5c32d9c69d2a47ea670b442974b53935d1edc7fd64eb21e047a839171b339380a4600190565b6040517fa9059cbb0000000000000000000000000000000000000000000000000000000060208201526001600160a01b039290921660248301526044808301939093529181526112bb916112b6606483611057565b6112bd565b565b906000602091828151910182855af115611331576000513d61132857506001600160a01b0381163b155b6112ee5750565b6024906001600160a01b03604051917f5274afe7000000000000000000000000000000000000000000000000000000008352166004820152fd5b600114156112e7565b6040513d6000823e3d90fdfea26469706673582212205335953cf69e26db9c958b31b502cde608c8653feaf84e2f5e6ead35806bc05564736f6c63430008180033",
  "linkReferences": {},
  "deployedLinkReferences": {}
}