{
  "_format": "hh-sol-artifact-1",
  "contractName": "Staking",
  "sourceName": "contracts/Staking.sol",
  "abi": [
    {
      "inputs": [
        {
          "internalType": "address",
          "name": "_usmtPlus",
          "type": "address"
        },
        {
          "internalType": "address",
          "name": "defaultAdmin",
          "type": "address"
        }
      ],
      "stateMutability": "nonpayable",
      "type": "constructor"
    },
    {
      "inputs": [],
      "name": "AccessControlBadConfirmation",
      "type": "error"
    },
    {
      "inputs": [
        {
          "internalType": "address",
          "name": "account",
          "type": "address"
        },
        {
          "internalType": "bytes32",
          "name": "neededRole",
          "type": "bytes32"
        }
      ],
      "name": "AccessControlUnauthorizedAccount",
      "type": "error"
    },
    {
      "inputs": [
        {
          "internalType": "address",
          "name": "spender",
          "type": "address"
        },
        {
          "internalType": "uint256",
          "name": "allowance",
          "type": "uint256"
        },
        {
          "internalType": "uint256",
          "name": "needed",
          "type": "uint256"
        }
      ],
      "name": "ERC20InsufficientAllowance",
      "type": "error"
    },
    {
      "inputs": [
        {
          "internalType": "address",
          "name": "sender",
          "type": "address"
        },
        {
          "internalType": "uint256",
          "name": "balance",
          "type": "uint256"
        },
        {
          "internalType": "uint256",
          "name": "needed",
          "type": "uint256"
        }
      ],
      "name": "ERC20InsufficientBalance",
      "type": "error"
    },
    {
      "inputs": [
        {
          "internalType": "address",
          "name": "approver",
          "type": "address"
        }
      ],
      "name": "ERC20InvalidApprover",
      "type": "error"
    },
    {
      "inputs": [
        {
          "internalType": "address",
          "name": "receiver",
          "type": "address"
        }
      ],
      "name": "ERC20InvalidReceiver",
      "type": "error"
    },
    {
      "inputs": [
        {
          "internalType": "address",
          "name": "sender",
          "type": "address"
        }
      ],
      "name": "ERC20InvalidSender",
      "type": "error"
    },
    {
      "inputs": [
        {
          "internalType": "address",
          "name": "spender",
          "type": "address"
        }
      ],
      "name": "ERC20InvalidSpender",
      "type": "error"
    },
    {
      "inputs": [
        {
          "internalType": "address",
          "name": "token",
          "type": "address"
        }
      ],
      "name": "SafeERC20FailedOperation",
      "type": "error"
    },
    {
      "anonymous": false,
      "inputs": [
        {
          "indexed": true,
          "internalType": "address",
          "name": "owner",
          "type": "address"
        },
        {
          "indexed": true,
          "internalType": "address",
          "name": "spender",
          "type": "address"
        },
        {
          "indexed": false,
          "internalType": "uint256",
          "name": "value",
          "type": "uint256"
        }
      ],
      "name": "Approval",
      "type": "event"
    },
    {
      "anonymous": false,
      "inputs": [
        {
          "indexed": false,
          "internalType": "uint256",
          "name": "totalAmount",
          "type": "uint256"
        }
      ],
      "name": "RewardsDistributed",
      "type": "event"
    },
    {
      "anonymous": false,
      "inputs": [
        {
          "indexed": true,
          "internalType": "bytes32",
          "name": "role",
          "type": "bytes32"
        },
        {
          "indexed": true,
          "internalType": "bytes32",
          "name": "previousAdminRole",
          "type": "bytes32"
        },
        {
          "indexed": true,
          "internalType": "bytes32",
          "name": "newAdminRole",
          "type": "bytes32"
        }
      ],
      "name": "RoleAdminChanged",
      "type": "event"
    },
    {
      "anonymous": false,
      "inputs": [
        {
          "indexed": true,
          "internalType": "bytes32",
          "name": "role",
          "type": "bytes32"
        },
        {
          "indexed": true,
          "internalType": "address",
          "name": "account",
          "type": "address"
        },
        {
          "indexed": true,
          "internalType": "address",
          "name": "sender",
          "type": "address"
        }
      ],
      "name": "RoleGranted",
      "type": "event"
    },
    {
      "anonymous": false,
      "inputs": [
        {
          "indexed": true,
          "internalType": "bytes32",
          "name": "role",
          "type": "bytes32"
        },
        {
          "indexed": true,
          "internalType": "address",
          "name": "account",
          "type": "address"
        },
        {
          "indexed": true,
          "internalType": "address",
          "name": "sender",
          "type": "address"
        }
      ],
      "name": "RoleRevoked",
      "type": "event"
    },
    {
      "anonymous": false,
      "inputs": [
        {
          "indexed": true,
          "internalType": "address",
          "name": "user",
          "type": "address"
        },
        {
          "indexed": false,
          "internalType": "uint256",
          "name": "usmtAmount",
          "type": "uint256"
        },
        {
          "indexed": false,
          "internalType": "uint256",
          "name": "susmtAmount",
          "type": "uint256"
        }
      ],
      "name": "Stake",
      "type": "event"
    },
    {
      "anonymous": false,
      "inputs": [
        {
          "indexed": true,
          "internalType": "address",
          "name": "from",
          "type": "address"
        },
        {
          "indexed": true,
          "internalType": "address",
          "name": "to",
          "type": "address"
        },
        {
          "indexed": false,
          "internalType": "uint256",
          "name": "value",
          "type": "uint256"
        }
      ],
      "name": "Transfer",
      "type": "event"
    },
    {
      "anonymous": false,
      "inputs": [
        {
          "indexed": true,
          "internalType": "address",
          "name": "user",
          "type": "address"
        },
        {
          "indexed": false,
          "internalType": "uint256",
          "name": "usmtAmount",
          "type": "uint256"
        },
        {
          "indexed": false,
          "internalType": "uint256",
          "name": "susmtAmount",
          "type": "uint256"
        }
      ],
      "name": "Unstake",
      "type": "event"
    },
    {
      "inputs": [],
      "name": "DEFAULT_ADMIN_ROLE",
      "outputs": [
        {
          "internalType": "bytes32",
          "name": "",
          "type": "bytes32"
        }
      ],
      "stateMutability": "view",
      "type": "function"
    },
    {
      "inputs": [],
      "name": "REWARDS_DISTRIBUTOR_ROLE",
      "outputs": [
        {
          "internalType": "bytes32",
          "name": "",
          "type": "bytes32"
        }
      ],
      "stateMutability": "view",
      "type": "function"
    },
    {
      "inputs": [
        {
          "internalType": "address",
          "name": "owner",
          "type": "address"
        },
        {
          "internalType": "address",
          "name": "spender",
          "type": "address"
        }
      ],
      "name": "allowance",
      "outputs": [
        {
          "internalType": "uint256",
          "name": "",
          "type": "uint256"
        }
      ],
      "stateMutability": "view",
      "type": "function"
    },
    {
      "inputs": [
        {
          "internalType": "address",
          "name": "spender",
          "type": "address"
        },
        {
          "internalType": "uint256",
          "name": "value",
          "type": "uint256"
        }
      ],
      "name": "approve",
      "outputs": [
        {
          "internalType": "bool",
          "name": "",
          "type": "bool"
        }
      ],
      "stateMutability": "nonpayable",
      "type": "function"
    },
    {
      "inputs": [
        {
          "internalType": "address",
          "name": "account",
          "type": "address"
        }
      ],
      "name": "balanceOf",
      "outputs": [
        {
          "internalType": "uint256",
          "name": "",
          "type": "uint256"
        }
      ],
      "stateMutability": "view",
      "type": "function"
    },
    {
      "inputs": [],
      "name": "decimals",
      "outputs": [
        {
          "internalType": "uint8",
          "name": "",
          "type": "uint8"
        }
      ],
      "stateMutability": "pure",
      "type": "function"
    },
    {
      "inputs": [
        {
          "internalType": "uint256",
          "name": "amount",
          "type": "uint256"
        }
      ],
      "name": "distributeRewards",
      "outputs": [],
      "stateMutability": "nonpayable",
      "type": "function"
    },
    {
      "inputs": [
        {
          "internalType": "bytes32",
          "name": "role",
          "type": "bytes32"
        }
      ],
      "name": "getRoleAdmin",
      "outputs": [
        {
          "internalType": "bytes32",
          "name": "",
          "type": "bytes32"
        }
      ],
      "stateMutability": "view",
      "type": "function"
    },
    {
      "inputs": [
        {
          "internalType": "address",
          "name": "user",
          "type": "address"
        }
      ],
      "name": "getStakedBalance",
      "outputs": [
        {
          "internalType": "uint256",
          "name": "",
          "type": "uint256"
        }
      ],
      "stateMutability": "view",
      "type": "function"
    },
    {
      "inputs": [
        {
          "internalType": "address",
          "name": "user",
          "type": "address"
        }
      ],
      "name": "getSusmtBalance",
      "outputs": [
        {
          "internalType": "uint256",
          "name": "",
          "type": "uint256"
        }
      ],
      "stateMutability": "view",
      "type": "function"
    },
    {
      "inputs": [
        {
          "internalType": "bytes32",
          "name": "role",
          "type": "bytes32"
        },
        {
          "internalType": "address",
          "name": "account",
          "type": "address"
        }
      ],
      "name": "grantRole",
      "outputs": [],
      "stateMutability": "nonpayable",
      "type": "function"
    },
    {
      "inputs": [
        {
          "internalType": "bytes32",
          "name": "role",
          "type": "bytes32"
        },
        {
          "internalType": "address",
          "name": "account",
          "type": "address"
        }
      ],
      "name": "hasRole",
      "outputs": [
        {
          "internalType": "bool",
          "name": "",
          "type": "bool"
        }
      ],
      "stateMutability": "view",
      "type": "function"
    },
    {
      "inputs": [],
      "name": "name",
      "outputs": [
        {
          "internalType": "string",
          "name": "",
          "type": "string"
        }
      ],
      "stateMutability": "view",
      "type": "function"
    },
    {
      "inputs": [
        {
          "internalType": "bytes32",
          "name": "role",
          "type": "bytes32"
        },
        {
          "internalType": "address",
          "name": "callerConfirmation",
          "type": "address"
        }
      ],
      "name": "renounceRole",
      "outputs": [],
      "stateMutability": "nonpayable",
      "type": "function"
    },
    {
      "inputs": [
        {
          "internalType": "bytes32",
          "name": "role",
          "type": "bytes32"
        },
        {
          "internalType": "address",
          "name": "account",
          "type": "address"
        }
      ],
      "name": "revokeRole",
      "outputs": [],
      "stateMutability": "nonpayable",
      "type": "function"
    },
    {
      "inputs": [
        {
          "internalType": "uint256",
          "name": "amount",
          "type": "uint256"
        }
      ],
      "name": "stake",
      "outputs": [
        {
          "internalType": "uint256",
          "name": "susmtAmount",
          "type": "uint256"
        }
      ],
      "stateMutability": "nonpayable",
      "type": "function"
    },
    {
      "inputs": [
        {
          "internalType": "address",
          "name": "",
          "type": "address"
        }
      ],
      "name": "stakedBalance",
      "outputs": [
        {
          "internalType": "uint256",
          "name": "",
          "type": "uint256"
        }
      ],
      "stateMutability": "view",
      "type": "function"
    },
    {
      "inputs": [
        {
          "internalType": "bytes4",
          "name": "interfaceId",
          "type": "bytes4"
        }
      ],
      "name": "supportsInterface",
      "outputs": [
        {
          "internalType": "bool",
          "name": "",
          "type": "bool"
        }
      ],
      "stateMutability": "view",
      "type": "function"
    },
    {
      "inputs": [],
      "name": "symbol",
      "outputs": [
        {
          "internalType": "string",
          "name": "",
          "type": "string"
        }
      ],
      "stateMutability": "view",
      "type": "function"
    },
    {
      "inputs": [],
      "name": "totalRewardsDistributed",
      "outputs": [
        {
          "internalType": "uint256",
          "name": "",
          "type": "uint256"
        }
      ],
      "stateMutability": "view",
      "type": "function"
    },
    {
      "inputs": [],
      "name": "totalStaked",
      "outputs": [
        {
          "internalType": "uint256",
          "name": "",
          "type": "uint256"
        }
      ],
      "stateMutability": "view",
      "type": "function"
    },
    {
      "inputs": [],
      "name": "totalSupply",
      "outputs": [
        {
          "internalType": "uint256",
          "name": "",
          "type": "uint256"
        }
      ],
      "stateMutability": "view",
      "type": "function"
    },
    {
      "inputs": [
        {
          "internalType": "address",
          "name": "to",
          "type": "address"
        },
        {
          "internalType": "uint256",
          "name": "value",
          "type": "uint256"
        }
      ],
      "name": "transfer",
      "outputs": [
        {
          "internalType": "bool",
          "name": "",
          "type": "bool"
        }
      ],
      "stateMutability": "nonpayable",
      "type": "function"
    },
    {
      "inputs": [
        {
          "internalType": "address",
          "name": "from",
          "type": "address"
        },
        {
          "internalType": "address",
          "name": "to",
          "type": "address"
        },
        {
          "internalType": "uint256",
          "name": "value",
          "type": "uint256"
        }
      ],
      "name": "transferFrom",
      "outputs": [
        {
          "internalType": "bool",
          "name": "",
          "type": "bool"
        }
      ],
      "stateMutability": "nonpayable",
      "type": "function"
    },
    {
      "inputs": [
        {
          "internalType": "uint256",
          "name": "susmtAmount",
          "type": "uint256"
        }
      ],
      "name": "unstake",
      "outputs": [
        {
          "internalType": "uint256",
          "name": "usmtAmount",
          "type": "uint256"
        }
      ],
      "stateMutability": "nonpayable",
      "type": "function"
    },
    {
      "inputs": [],
      "name": "usmtPlus",
      "outputs": [
        {
          "internalType": "contract IERC20",
          "name": "",
          "type": "address"
        }
      ],
      "stateMutability": "view",
      "type": "function"
    }
  ],
  "bytecode": "0x60a0346200037a57601f906001600160401b03601f196200159838819003858101831685019190848311868410176200027e5780869260409485528339810103126200037a5762000050836200039f565b916200006060208095016200039f565b936200006b6200037f565b600c81526b5374616b65642055534d542b60a01b828201526200008d6200037f565b9660068852657355534d542b60d01b838901528151928484116200027e5760039384546001948582811c921680156200036f575b848310146200035957818584931162000303575b508390858311600114620002a05760009262000294575b505060001982871b1c191690841b1784555b88519485116200027e5760049586548481811c9116801562000273575b838210146200025e5783811162000213575b5081928611600114620001a55750508392918391620001719960009562000199575b50501b92600019911b1c19161790555b6001600160a01b0316608052620003b4565b5060405161115190816200044782396080518181816102dc0152818161059e015261086d0152f35b0151935038806200014f565b85949291939516988660005283600020936000905b8b8210620001fb57505084620001719a10620001e0575b50505050811b0190556200015f565b01519060f884600019921b161c1916905538808080620001d1565b808885978294968601518155019601930190620001ba565b87600052826000208480890160051c820192858a1062000254575b0160051c019085905b828110620002475750506200012d565b6000815501859062000237565b925081926200022e565b602288634e487b7160e01b6000525260246000fd5b90607f16906200011b565b634e487b7160e01b600052604160045260246000fd5b015190503880620000ec565b90898794169188600052856000209260005b87828210620002ec5750508411620002d3575b505050811b018455620000fe565b015160001983891b60f8161c19169055388080620002c5565b8385015186558a97909501949384019301620002b2565b90915086600052836000208580850160051c8201928686106200034f575b918891869594930160051c01915b8281106200033f575050620000d5565b600081558594508891016200032f565b9250819262000321565b634e487b7160e01b600052602260045260246000fd5b91607f1691620000c1565b600080fd5b60408051919082016001600160401b038111838210176200027e57604052565b51906001600160a01b03821682036200037a57565b6001600160a01b031660008181527f05b8ccbb9d4d8fb16ea74ce3c29a41f1b461fbdaff4714a0d9a8eb05499746bc602052604081205490919060ff16620004425781805260056020526040822081835260205260408220600160ff1982541617905533917f2f8788117e7eff1d82e926ec794901d17c78024a50270940304540a733656f0d8180a4600190565b509056fe608060408181526004918236101561001657600080fd5b600092833560e01c91826301ffc9a714610cb75750816306fdde0314610bc0578163095ea7b314610b1857816318160ddd14610af957816323b872dd146109ed578163248a9ca3146109c25781632e17de78146107755781632f2ff15d1461074b578163313ce5671461072f57816336568abe146106d05781633a02a42d146105e157816359974e381461061857816360217267146105e157816370a08231146103d6578163817b1cd2146105c257816385ca17061461057e57816391d148541461053857816395d89b4114610433578163a217fddf14610418578163a30e8d46146103d6578163a694fc3a1461025c578163a9059cbb1461022b578163c34c2289146101f0578163d547741f146101ac57508063dd62ed3e146101645763ee1725461461014357600080fd5b346101605781600319360112610160576020906007549051908152f35b5080fd5b503461016057806003193601126101605780602092610181610d9e565b610189610db9565b6001600160a01b0391821683526001865283832091168252845220549051908152f35b919050346101ec57806003193601126101ec576101e891356101e360016101d1610db9565b93838752600560205286200154610f5e565b611023565b5080f35b8280fd5b505034610160578160031936011261016057602090517f9df62d436bfc9f3be4953ab398f3aa862316b013d490e2138c80b4b2eadeabd78152f35b50503461016057806003193601126101605760209061025561024b610d9e565b6024359033610e82565b5160018152f35b919050346101ec57602092836003193601126103d357823592610280841515610e07565b82517f23b872dd00000000000000000000000000000000000000000000000000000000868201523360248201523060448201528460648201526064815260a0810181811067ffffffffffffffff8211176103c0578452610300907f000000000000000000000000000000000000000000000000000000000000000061109b565b33156103ab5750819061031584600254610e75565b6002553381528085528181208481540190558151848152817fddf252ad1be2c89b69c2b068fc378daa952ba7f163c4a11628f55a4df523b3ef873393a33381526008855220610365838254610e75565b905561037382600654610e75565b600655805182815282848201527f5af417134f72a9d41143ace85b0a26dce6f550f894f2cbc1eeee8810603d91b6823392a251908152f35b90602492519163ec442f0560e01b8352820152fd5b602484604185634e487b7160e01b835252fd5b80fd5b505034610160576020366003190112610160576020906104116103f7610d9e565b6001600160a01b0316600052600060205260406000205490565b9051908152f35b50503461016057816003193601126101605751908152602090f35b83833461016057816003193601126101605780519180938054916001908360011c926001851694851561052e575b602095868610811461051b578589529081156104f7575060011461049f575b61049b8787610491828c0383610dcf565b5191829182610d55565b0390f35b81529295507f8a35acfbc15ff81a39ae7d344fd709f28e8600b4aa8c65c6b64bfe7fe36bd19b5b8284106104e4575050508261049b9461049192820101948680610480565b80548685018801529286019281016104c6565b60ff19168887015250505050151560051b83010192506104918261049b8680610480565b602484602285634e487b7160e01b835252fd5b93607f1693610461565b9050346101ec57816003193601126101ec578160209360ff92610559610db9565b90358252600586526001600160a01b0383832091168252855220541690519015158152f35b505034610160578160031936011261016057602090516001600160a01b037f0000000000000000000000000000000000000000000000000000000000000000168152f35b5050346101605781600319360112610160576020906006549051908152f35b50503461016057602036600319011261016057806020926001600160a01b03610608610d9e565b1681526008845220549051908152f35b919050346101ec5760203660031901126101ec578135917f9df62d436bfc9f3be4953ab398f3aa862316b013d490e2138c80b4b2eadeabd7808552600560205282852033865260205260ff8386205416156106b557847f6d1c76d614228b523baa4dcd9539e2c713b54ff4ab3ff2d1627e7f6cd32be4426020868661069e821515610e07565b6106aa82600754610e75565b60075551908152a180f35b604492519163e2517d3f60e01b835233908301526024820152fd5b8383346101605780600319360112610160576106ea610db9565b90336001600160a01b0383160361070757506101e8919235611023565b8390517f6697b232000000000000000000000000000000000000000000000000000000008152fd5b5050346101605781600319360112610160576020905160068152f35b919050346101ec57806003193601126101ec576101e8913561077060016101d1610db9565b610fa2565b919050346101ec57602092836003193601126103d357823592610799841515610e07565b338252818552838383205410610980573382526008855283838320541061093e57331561092957338252818552828220548481106108fd578490338452838752038383205583600254036002558183518581527fddf252ad1be2c89b69c2b068fc378daa952ba7f163c4a11628f55a4df523b3ef873392a38251907fa9059cbb000000000000000000000000000000000000000000000000000000008683015233602483015284604483015260448252608082019082821067ffffffffffffffff8311176108ea57508392916108919184527f000000000000000000000000000000000000000000000000000000000000000061109b565b33815260088552206108a4838254610e52565b90556108b282600654610e52565b600655805182815282848201527ff960dbf9e5d0682f7a298ed974e33a28b4464914b7a2bfac12ae419a9afeb280823392a251908152f35b836041602492634e487b7160e01b835252fd5b835163391434e360e21b8152339281019283526020830191909152604082018590529081906060010390fd5b906024925191634b637e8f60e11b8352820152fd5b6064908584519162461bcd60e51b8352820152601b60248201527f496e73756666696369656e74207374616b65642062616c616e636500000000006044820152fd5b6064908584519162461bcd60e51b8352820152601b60248201527f496e73756666696369656e74207355534d542b2062616c616e636500000000006044820152fd5b9050346101ec5760203660031901126101ec5781602093600192358152600585522001549051908152f35b905082346103d35760603660031901126103d357610a09610d9e565b610a11610db9565b91604435936001600160a01b038316808352600160205286832033845260205286832054916000198310610a4e575b602088610255898989610e82565b868310610ab4578115610a9e573315610a885750825260016020908152868320338452815291869020908590039055829061025587610a40565b60249084895191634a1406b160e11b8352820152fd5b6024908489519163e602df0560e01b8352820152fd5b87517ffb8f41b2000000000000000000000000000000000000000000000000000000008152339181019182526020820193909352604081018790528291506060010390fd5b5050346101605781600319360112610160576020906002549051908152f35b9050346101ec57816003193601126101ec57610b32610d9e565b602435903315610baa576001600160a01b0316918215610b9457508083602095338152600187528181208582528752205582519081527f8c5be1e5ebec7d5bd14f71427d1e84f3dd0314c0f7b2291e5b200ac8c7c3b925843392a35160018152f35b60249085855191634a1406b160e11b8352820152fd5b6024838686519163e602df0560e01b8352820152fd5b919050346101ec57826003193601126101ec5780519183600354906001908260011c92600181168015610cad575b6020958686108214610c9a5750848852908115610c785750600114610c1f575b61049b8686610491828b0383610dcf565b929550600383527fc2575a0e9e593c00f959f8c92f12db2869c3395a3b0502d05e2516446f71f85b5b828410610c65575050508261049b94610491928201019438610c0e565b8054868501880152928601928101610c48565b60ff191687860152505050151560051b83010192506104918261049b38610c0e565b836022602492634e487b7160e01b835252fd5b93607f1693610bee565b8491346101ec5760203660031901126101ec57357fffffffff0000000000000000000000000000000000000000000000000000000081168091036101ec57602092507f7965db0b000000000000000000000000000000000000000000000000000000008114908115610d2b575b5015158152f35b7f01ffc9a70000000000000000000000000000000000000000000000000000000091501483610d24565b6020808252825181830181905290939260005b828110610d8a57505060409293506000838284010152601f8019910116010190565b818101860151848201604001528501610d68565b600435906001600160a01b0382168203610db457565b600080fd5b602435906001600160a01b0382168203610db457565b90601f8019910116810190811067ffffffffffffffff821117610df157604052565b634e487b7160e01b600052604160045260246000fd5b15610e0e57565b606460405162461bcd60e51b815260206004820152601260248201527f416d6f756e74206d757374206265203e203000000000000000000000000000006044820152fd5b91908203918211610e5f57565b634e487b7160e01b600052601160045260246000fd5b91908201809211610e5f57565b916001600160a01b03808416928315610f465716928315610f2e5760009083825281602052604082205490838210610efc575091604082827fddf252ad1be2c89b69c2b068fc378daa952ba7f163c4a11628f55a4df523b3ef958760209652828652038282205586815220818154019055604051908152a3565b60405163391434e360e21b81526001600160a01b03919091166004820152602481019190915260448101839052606490fd5b602460405163ec442f0560e01b815260006004820152fd5b6024604051634b637e8f60e11b815260006004820152fd5b80600052600560205260406000203360005260205260ff6040600020541615610f845750565b6044906040519063e2517d3f60e01b82523360048301526024820152fd5b9060009180835260056020526001600160a01b036040842092169182845260205260ff6040842054161560001461101e5780835260056020526040832082845260205260408320600160ff198254161790557f2f8788117e7eff1d82e926ec794901d17c78024a50270940304540a733656f0d339380a4600190565b505090565b9060009180835260056020526001600160a01b036040842092169182845260205260ff60408420541660001461101e578083526005602052604083208284526020526040832060ff1981541690557ff6391f5c32d9c69d2a47ea670b442974b53935d1edc7fd64eb21e047a839171b339380a4600190565b906000602091828151910182855af11561110f576000513d61110657506001600160a01b0381163b155b6110cc5750565b6024906001600160a01b03604051917f5274afe7000000000000000000000000000000000000000000000000000000008352166004820152fd5b600114156110c5565b6040513d6000823e3d90fdfea26469706673582212203e7efacad28ed3079d53e7c3836e9e89f806432d1fd431820767af10af04f38464736f6c63430008180033",
  "linkReferences": {},
  "deployedLinkReferences": {}
}