{
  "_format": "hh-sol-artifact-1",
  "contractName": "Reputation",
  "sourceName": "contracts/Reputation.sol",
  "abi": [
    {
      "inputs": [
        {
          "internalType": "address",
          "name": "defaultAdmin",
          "type": "address"
        }
      ],
      "stateMutability": "nonpayable",
      "type": "constructor"
    },
    {
      "inputs": [],
      "name": "AccessControlBadConfirmation",
      "type": "error"
    },
    {
      "inputs": [
        {
          "internalType": "address",
          "name": "account",
          "type": "address"
        },
        {
          "internalType": "bytes32",
          "name": "neededRole",
          "type": "bytes32"
        }
      ],
      "name": "AccessControlUnauthorizedAccount",
      "type": "error"
    },
    {
      "anonymous": false,
      "inputs": [
        {
          "indexed": true,
          "internalType": "address",
          "name": "seller",
          "type": "address"
        },
        {
          "indexed": false,
          "internalType": "uint256",
          "name": "newScore",
          "type": "uint256"
        },
        {
          "indexed": false,
          "internalType": "enum IReputation.Tier",
          "name": "newTier",
          "type": "uint8"
        },
        {
          "indexed": false,
          "internalType": "uint256",
          "name": "invoiceVolume",
          "type": "uint256"
        }
      ],
      "name": "ReputationUpdated",
      "type": "event"
    },
    {
      "anonymous": false,
      "inputs": [
        {
          "indexed": true,
          "internalType": "bytes32",
          "name": "role",
          "type": "bytes32"
        },
        {
          "indexed": true,
          "internalType": "bytes32",
          "name": "previousAdminRole",
          "type": "bytes32"
        },
        {
          "indexed": true,
          "internalType": "bytes32",
          "name": "newAdminRole",
          "type": "bytes32"
        }
      ],
      "name": "RoleAdminChanged",
      "type": "event"
    },
    {
      "anonymous": false,
      "inputs": [
        {
          "indexed": true,
          "internalType": "bytes32",
          "name": "role",
          "type": "bytes32"
        },
        {
          "indexed": true,
          "internalType": "address",
          "name": "account",
          "type": "address"
        },
        {
          "indexed": true,
          "internalType": "address",
          "name": "sender",
          "type": "address"
        }
      ],
      "name": "RoleGranted",
      "type": "event"
    },
    {
      "anonymous": false,
      "inputs": [
        {
          "indexed": true,
          "internalType": "bytes32",
          "name": "role",
          "type": "bytes32"
        },
        {
          "indexed": true,
          "internalType": "address",
          "name": "account",
          "type": "address"
        },
        {
          "indexed": true,
          "internalType": "address",
          "name": "sender",
          "type": "address"
        }
      ],
      "name": "RoleRevoked",
      "type": "event"
    },
    {
      "inputs": [],
      "name": "DEFAULT_ADMIN_ROLE",
      "outputs": [
        {
          "internalType": "bytes32",
          "name": "",
          "type": "bytes32"
        }
      ],
      "stateMutability": "view",
      "type": "function"
    },
    {
      "inputs": [],
      "name": "SETTLEMENT_ROUTER_ROLE",
      "outputs": [
        {
          "internalType": "bytes32",
          "name": "",
          "type": "bytes32"
        }
      ],
      "stateMutability": "view",
      "type": "function"
    },
    {
      "inputs": [
        {
          "internalType": "bytes32",
          "name": "role",
          "type": "bytes32"
        }
      ],
      "name": "getRoleAdmin",
      "outputs": [
        {
          "internalType": "bytes32",
          "name": "",
          "type": "bytes32"
        }
      ],
      "stateMutability": "view",
      "type": "function"
    },
    {
      "inputs": [
        {
          "internalType": "address",
          "name": "seller",
          "type": "address"
        }
      ],
      "name": "getScore",
      "outputs": [
        {
          "internalType": "uint256",
          "name": "",
          "type": "uint256"
        }
      ],
      "stateMutability": "view",
      "type": "function"
    },
    {
      "inputs": [
        {
          "internalType": "address",
          "name": "seller",
          "type": "address"
        }
      ],
      "name": "getStats",
      "outputs": [
        {
          "components": [
            {
              "internalType": "uint256",
              "name": "score",
              "type": "uint256"
            },
            {
              "internalType": "enum IReputation.Tier",
              "name": "tier",
              "type": "uint8"
            },
            {
              "internalType": "uint256",
              "name": "invoicesCleared",
              "type": "uint256"
            },
            {
              "internalType": "uint256",
              "name": "totalVolume",
              "type": "uint256"
            },
            {
              "internalType": "uint256",
              "name": "lastUpdated",
              "type": "uint256"
            }
          ],
          "internalType": "struct IReputation.SellerStats",
          "name": "",
          "type": "tuple"
        }
      ],
      "stateMutability": "view",
      "type": "function"
    },
    {
      "inputs": [
        {
          "internalType": "address",
          "name": "seller",
          "type": "address"
        }
      ],
      "name": "getTier",
      "outputs": [
        {
          "internalType": "enum IReputation.Tier",
          "name": "",
          "type": "uint8"
        }
      ],
      "stateMutability": "view",
      "type": "function"
    },
    {
      "inputs": [
        {
          "internalType": "bytes32",
          "name": "role",
          "type": "bytes32"
        },
        {
          "internalType": "address",
          "name": "account",
          "type": "address"
        }
      ],
      "name": "grantRole",
      "outputs": [],
      "stateMutability": "nonpayable",
      "type": "function"
    },
    {
      "inputs": [
        {
          "internalType": "bytes32",
          "name": "role",
          "type": "bytes32"
        },
        {
          "internalType": "address",
          "name": "account",
          "type": "address"
        }
      ],
      "name": "hasRole",
      "outputs": [
        {
          "internalType": "bool",
          "name": "",
          "type": "bool"
        }
      ],
      "stateMutability": "view",
      "type": "function"
    },
    {
      "inputs": [
        {
          "internalType": "bytes32",
          "name": "role",
          "type": "bytes32"
        },
        {
          "internalType": "address",
          "name": "callerConfirmation",
          "type": "address"
        }
      ],
      "name": "renounceRole",
      "outputs": [],
      "stateMutability": "nonpayable",
      "type": "function"
    },
    {
      "inputs": [
        {
          "internalType": "bytes32",
          "name": "role",
          "type": "bytes32"
        },
        {
          "internalType": "address",
          "name": "account",
          "type": "address"
        }
      ],
      "name": "revokeRole",
      "outputs": [],
      "stateMutability": "nonpayable",
      "type": "function"
    },
    {
      "inputs": [
        {
          "internalType": "bytes4",
          "name": "interfaceId",
          "type": "bytes4"
        }
      ],
      "name": "supportsInterface",
      "outputs": [
        {
          "internalType": "bool",
          "name": "",
          "type": "bool"
        }
      ],
      "stateMutability": "view",
      "type": "function"
    },
    {
      "inputs": [
        {
          "internalType": "address",
          "name": "seller",
          "type": "address"
        },
        {
          "internalType": "uint256",
          "name": "invoiceAmount",
          "type": "uint256"
        }
      ],
      "name": "updateReputation",
      "outputs": [],
      "stateMutability": "nonpayable",
      "type": "function"
    }
  ],
  "bytecode": "0x60803461006857601f610a2238819003918201601f19168301916001600160401b0383118484101761006d5780849260209460405283398101031261006857516001600160a01b03811681036100685761005890610083565b5060405161090e90816101148239f35b600080fd5b634e487b7160e01b600052604160045260246000fd5b6001600160a01b031660008181527fad3228b676f7d3cd4284a5443f17f1962b36e491b30a40b2405849e597ba5fb5602052604081205490919060ff1661010f57818052816020526040822081835260205260408220600160ff1982541617905533917f2f8788117e7eff1d82e926ec794901d17c78024a50270940304540a733656f0d8180a4600190565b509056fe6080604081815260048036101561001557600080fd5b600092833560e01c90816301ffc9a7146104c45750806313d6b15d14610489578063248a9ca3146104605780632f2ff15d1461043757806336568abe146103d757806391d1485414610393578063a217fddf14610378578063b45aae5214610344578063c23f85d6146102e8578063d47875d0146102b7578063d547741f146102795763f5c91a08146100a757600080fd5b346102755781600319360112610275576100bf61057e565b602435907fe42f0c8616404e22cba428ac20c22164b434f2ef9f5a62c5c2dbbeacfba3a0cd8086528560205284862033875260205260ff85872054161561025857506001600160a01b0316928385526001806020528186208054158061024c575b610237575b6002810180549083820180921161022457556003810161014685825461077c565b905564e8d4a5100084046014018060141161021157918161018e606096947f1899b708ec5096780655fda09d1b7c7a15be93c84fd5942b99e22a79a19cea309896945461077c565b946103e8808711610208575b5091816101d4938760ff94556101f488106000146101db57828201841981541690555b429082015501541682519485526020850190610594565b820152a280f35b6103528810156101f6578282018385198254161790556101bd565b828201600285198254161790556101bd565b955060ff61019a565b602488601188634e487b7160e01b835252fd5b602489601189634e487b7160e01b835252fd5b6101c28155818101805460ff19169055610125565b50600281015415610120565b8360449186519163e2517d3f60e01b835233908301526024820152fd5b8280fd5b5090346102755780600319360112610275576102b391356102ae600161029d610563565b93838752866020528620015461079f565b610862565b5080f35b5050346102e45760203660031901126102e4576020906102dd6102d861057e565b61073e565b9051908152f35b5080fd5b5050346102e45760203660031901126102e45760a090608061031061030b61057e565b61067c565b8251928151845261032960208301516020860190610594565b80820151908401526060810151606084015201516080820152f35b5050346102e45760203660031901126102e45760209061037661036d61036861057e565b6105f9565b91518092610594565bf35b5050346102e457816003193601126102e45751908152602090f35b50346102755781600319360112610275578160209360ff926103b3610563565b903582528186526001600160a01b0383832091168252855220541690519015158152f35b509190346102e457806003193601126102e4576103f2610563565b90336001600160a01b0383160361040f57506102b3919235610862565b8390517f6697b232000000000000000000000000000000000000000000000000000000008152fd5b5090346102755780600319360112610275576102b3913561045b600161029d610563565b6107e3565b503461027557602036600319011261027557816020936001923581528085522001549051908152f35b5050346102e457816003193601126102e457602090517fe42f0c8616404e22cba428ac20c22164b434f2ef9f5a62c5c2dbbeacfba3a0cd8152f35b9250503461027557602036600319011261027557357fffffffff00000000000000000000000000000000000000000000000000000000811680910361027557602092507f7965db0b000000000000000000000000000000000000000000000000000000008114908115610539575b5015158152f35b7f01ffc9a70000000000000000000000000000000000000000000000000000000091501438610532565b602435906001600160a01b038216820361057957565b600080fd5b600435906001600160a01b038216820361057957565b9060038210156105a15752565b634e487b7160e01b600052602160045260246000fd5b60038210156105a15752565b6040519060a0820182811067ffffffffffffffff8211176105e357604052565b634e487b7160e01b600052604160045260246000fd5b6001600160a01b0316600052600160205260406000206106176105c3565b908054825260ff600182015416916106336020820193846105b7565b6004600283015492836040840152600381015460608401520154608082015251159081610673575b5061066d575160038110156105a15790565b50600090565b9050153861065b565b6001600160a01b0360809161068f6105c3565b60009381858093528260208201528260408201528260608201520152168152600160205260408120906106c06105c3565b91805483526106d960ff600183015416602085016105b7565b600460028201549182604086015260038101546060860152015460808401528251159081610735575b5061070b575090565b90506107156105c3565b906101c28252806020830152806040830152806060830152608082015290565b90501538610702565b6001600160a01b0316600052600160205260406000208054908115908161076f575b506107685790565b506101c290565b6002915001541538610760565b9190820180921161078957565b634e487b7160e01b600052601160045260246000fd5b80600052600060205260406000203360005260205260ff60406000205416156107c55750565b6044906040519063e2517d3f60e01b82523360048301526024820152fd5b90600091808352826020526001600160a01b036040842092169182845260205260ff6040842054161560001461085d57808352826020526040832082845260205260408320600160ff198254161790557f2f8788117e7eff1d82e926ec794901d17c78024a50270940304540a733656f0d339380a4600190565b505090565b90600091808352826020526001600160a01b036040842092169182845260205260ff60408420541660001461085d5780835282602052604083208284526020526040832060ff1981541690557ff6391f5c32d9c69d2a47ea670b442974b53935d1edc7fd64eb21e047a839171b339380a460019056fea264697066735822122040c44036f9c03408a9ca4cf43d3ff64ca7aea0cddd2a6f3d5e2a6d7d1f948f1d64736f6c63430008180033",
  "linkReferences": {},
  "deployedLinkReferences": {}
}